:0A0000000C9432020C9400000C94E2
:10000A0000000C9400000C9400000C9400000C9466
:10001A0000000C9400000C9400000C9400000C9456
:10002A0000000C9400000C9400000C9400000C9446
:10003A0000000C9400000C94CF020C9400000C9465
:10004A0072020C9400000C94AB020C9400000C9405
:10005A0000000C9400000C9400000C9400000C9416
:10006A0000000C9400000C9400000C9400000C9406
:10007A0000000C9400000C9400000C9400000C94F6
:10008A00000005072060000000000000005F00007B
:10009A000007000700147F147F14242A7F2A1223E2
:1000AA001308646236495522500005030000001CFB
:1000BA002241000041221C00082A1C2A0808083E86
:1000CA00080800503000000808080808003030000E
:1000DA000020100804023E5149453E00427F40007C
:1000EA0042615149462141454B311814127F10276C
:1000FA00454545393C4A49493001710905033649A4
:10010A00494936064949291E003636000000563646
:10011A000000000814224114141414144122140873
:10012A00000201510906324979413E7E1111117EC0
:10013A007F494949363E414141227F4141221C7F44
:10014A00494949417F090901013E414151327F082C
:10015A0008087F00417F41002040413F017F081489
:10016A0022417F404040407F0204027F7F04081002
:10017A007F3E4141413E7F090909063E4151215EC8
:10018A007F09192946464949493101017F01013F41
:10019A004040403F1F2040201F7F2018207F6314CB
:1001AA000814630304780403615149454300007F3E
:1001BA004141020408102041417F0000040201026B
:1001CA000440404040400001020400205454547846
:1001DA007F484444383844444420384444487F38AB
:1001EA0054545418087E090102081454543C7F08D8
:1001FA0004047800447D40002040443D00007F1004
:10020A00284400417F40007C041804787C080404D8
:10021A007838444444387C14141408081414187C9C
:10022A007C080404084854545420043F4440203CA9
:10023A004040207C1C2040201C3C4030403C44284C
:10024A001028440C5050503C4464544C4400083626
:10025A00410000007F00000041360800020102044C
:10026A00027F4141417F000103070F1F3F7FFF00CB
:10027A001027E80364000A000100001000011000C2
:10028A0001000000000000000000000000004745D7
:10029A0054202F7570646174653F6B65793D000069
:1002AA0054696D6564206F75740D0A004552524F8A
:1002BA0052004572726F7220666F756E642C2061EF
:1002CA007474656D7074696E6720746F20636F6EE5
:1002DA0074696E75652E2E0D0A0041542B434950E0
:1002EA004D55583D31004F4B0041542B4349505313
:1002FA00544152543D302C22544350222C226170D6
:10030A00692E7468696E67737065616B2E636F6DB1
:10031A00222C383000266669656C64313D002666F9
:10032A0069656C64323D00266669656C64333D001C
:10033A0041542B43495053454E443D302C003E20F6
:10034A000053656E64696E6700446F6E65004154C0
:10035A000D0A0041542B43574D4F44453D310D0A78
:10036A000041542B43574A41503D22546861795FFA
:10037A005468616F5F64656F5F67696169222C22E7
:10038A006368696E68786163220D0A003755304DDB
:10039A00355554454B584536345A4B3900000100FF
:1003AA002D4E414E00494E460000010002008C02CB
:1003BA000A0004008E020C000005AA020C000C05BB
:1003CA00AA0206001805B60228001E05BC020C0087
:1003DA004605E40203005205B30203005505F00284
:1003EA002C005805F30203008405B30203008705B5
:1003FA00F00209008A051F03090093052803090072
:10040A009C0531030E00A5053A030300B305B302A8
:10041A000300B60548030800B9054B030300C105EC
:10042A00B3020500C40553030500C90558030300B8
:10043A00CE05F0020E00D1055D030300DF05F002D0
:10044A002B00E2056B0303000D06F00211001006F3
:10045A0096030100C407A8030000F894EE27ECBB3A
:10046A00F1E0F5BFE5BFE0936C008DE0A2E0BB27A9
:10047A00ED938A95E9F780E090E1A0E0B1E0ED9391
:10048A000197E9F7E4EBF3E085919591009761F024
:10049A00A591B59105901590BF01F00105900D92B7
:1004AA000197E1F7FB01F0CF8BBFEFEFEDBFE0E182
:1004BA00EEBFC0E0D5E00C945004BA93AA93A88189
:1004CA00B981EC91E03041F0E0E0EC93E881F98108
:1004DA003196E883F983F3CFAAC0EA93FA93EFB788
:1004EA00EA931A930A931BB10CB1E12FEC7189F4C8
:1004FA00E52D5394F0E0E25CF94F0083E0E4E51562
:10050A0009F455247394E0E4E71519F47724689400
:10051A0020F8F401E258F94F0083F40131964F01B3
:10052A00099119914AC01A937720F1F3E42D439463
:10053A00F0E0E25CF94F1081E0E4E41509F44424A8
:10054A00F8947A947894E12F19910895AA93EA93EA
:10055A00FA93EFB7EA93E091C307E030A9F0E150CC
:10056A00E093C307E091C207EF5FE093C207E1504F
:10057A00F0E0EE57F84FE081ECB9A091C207A03441
:10058A0019F4E0E0E093C207E991EFBFF991E9912C
:10059A00A9911895EA93FA93EFB7EA93E0E6E2BFD6
:1005AA00F50131965F01E0E5F3ECEA15FB0529F464
:1005BA00F60131966F01AA24BB24E991EFBFF991A4
:1005CA00E9911895AA93A091C307A034E1F3F8948E
:1005DA00E091C307E03011F45D9911C0E62D6394F0
:1005EA00F0E0EE57F84FA881A083E0E4E61509F49D
:1005FA006624E091C307EF5FE093C30702C0E88176
:10060A00ECB978940C944906BA93AA93A881B98153
:10061A00EC91E03061F0AC91D5DFA2E3B0E00E944A
:10062A00E10AE881F9813196E883F983EFCF2296CE
:10063A000895BA93AA931A930A93AA81BB810E9436
:10064A00200AAEE7B6E00E949309AEE7B6E035DFCE
:10065A00882499241981088124960895BA93AA9323
:10066A00A8970E94280B00E010E0DE015A9625DFC9
:10067A00A8A9B9A9EC91E03001F1F801DE015A9676
:10068A00EA0FFB1F0F01A8A9B9A9EC91D001EC93BD
:10069A00F801DE011696EA0FFB1F0F01DE015A96DA
:1006AA00A00FB11FEC91D001EC93E8A9F9A93196FA
:1006BA00E8ABF9AB0F5F1F4FDBCF9601C216D3062B
:1006CA006CF4F601FC96AF01DA010E94290A2CF4B7
:1006DA00A0E0B5E00E9493092DC009C0D6010E948E
:1006EA00290A2CF4ACE0B5E00E94930923C00E94C9
:1006FA00300ADE015C960E941D05309741F40E9483
:10070A00300ADE0118960E941D05309709F012C0C2
:10071A000E94300AA8E1B5E00E941D05309749F011
:10072A00AEE1B5E00E949309A8EBBBE00E94200A63
:10073A0001C0C4CF0E942F0BE2960895BA93AA93E0
:10074A00EF972E9781E1A8E2B0E0E8E9F2E00E9493
:10075A00360B0E942A0B00E010E020E030E00E94F5
:10076A00350AE030F9F0F901DE011496EA0FFB1FB1
:10077A00BF010E94350ADB01EC93F901DE01DD9627
:10078A00EA0FFB1F0F01DE011496A20FB31FEC91B3
:10079A00D001EC93DE01AF5ABF4F0E943D0A2F5F92
:1007AA003F4FDDCFA6E4B5E00E94430AA2E5B5E0DB
:1007BA002BDFE5E5F5E00E94490AA8E5B5E00E94CD
:1007CA00430AA4E8B5E020DFE7E8F5E0FA93EA9304
:1007DA00A4E1B0E043DFA0EDB7E02BDF0E94530AAB
:1007EA000E945A0ADE0116960E945F0AAAE8B5E03C
:1007FA000E94620ADE015A960E945F0AA3E9B5E0E6
:10080A000E94620ADE015A960E945F0AACE9B5E0CC
:10081A000E94620ADE015A960E940005DE019C9639
:10082A000E9411058F010E5F1F4F1A930A93DE0172
:10083A005A960E943405AEE7B6E00E946202A5EA23
:10084A00B5E0E2DEDE0158960E946D0AA3EBB5E040
:10085A00DBDEE6EBF5E0FA93EA93A5E0B0E0FEDE34
:10086A000E94530AA9EBB5E00E949309DE019C9607
:10087A00CBDEA1ECB5E00E946D0AAAE1A3DEA0E0FE
:10088A00B0E0D7DEA4ECB5E00E9493090E94310BD8
:10089A00EF96649608952897E0E4EABBE0E0EBBBA4
:1008AA00E7BBE8BBE4BBE5BBE1BBE2BBE2B9E3B94A
:1008BA00E0936100E0936200E0936400E0936500D6
:1008CA00E0BFE1E0E3BFE0E6E2BFE0E0E1BFEFBDA9
:1008DA00EEBDEDBDECBDE7BDE6BDEBBDEABDE9BDD4
:1008EA00E8BDE0937900E0937800E5BDE4BDE3BD9F
:1008FA00E0938B00E0938A00E0938900E0938800FC
:10090A00E0938100E0938000E0938700E093860003
:10091A00E0938500E0938400E0938300E0938200F3
:10092A00E7BFE0937D00E0936A00EABFE9BFEBB955
:10093A00E8EDEAB9E6E0E0939500E0E0E0939000A4
:10094A00E3E3E9B9E0E0E0939A00E0E8E8B9E0E03F
:10095A00E0BDE6B9EDB9E0937400ECE8F0E0E883B5
:10096A00F983E0E0EA83EB83EC83ED83EE81EC7FAD
:10097A00E260EE83E37EEC60EE83EF81E078E7638A
:10098A00EF83DE010E94C2057894A9ECB5E03CDE53
:10099A00EEECF5E00E94490AA1EDB5E035DEEFED97
:1009AA00F5E00E94490AA2EEB5E02EDEEDE0F6E09F
:1009BA00FA93EA93AAE0B0E051DEA0E0B0E039DEB3
:1009CA00A0E1B6E0BBDE0E9498021E2FA12F0E9472
:1009DA003109F9CFFFCFBA93AA93B981A8811096AA
:1009EA0031F0FC81EB816A8161931197E9F7EB8120
:1009FA00FC8125960895BA93AA93E991F991A99150
:100A0A00B991CD016D916623E9F7119761916D93C3
:100A1A006623E1F7FC010895BA93AA93A991B991C3
:100A2A00EE27FF276D91662311F03196FBCF0895CB
:100A3A00BA93AA93AA81BB81CD01E881F981719108
:100A4A00772311F4FC0109C06D916717C1F3019670
:100A5A00DC01662391F7EE27FF270C941E0ABA934E
:100A6A00AA93A991B991E991F99130962AF4E0955E
:100A7A00F09531966DE26D93E89480E197E20DD09E
:100A8A0088EE93E00AD084E6992707D08AE005D059
:100A9A006E2F10D066276C9308956627E817F9071A
:100AAA0020F06395E81BF90BC9F7662311F416F0D9
:100ABA0008956894605D6D9308950895AA931A93B2
:100ACA00AD9818E0FADFE981E07811F0AF9A01C039
:100ADA00AF98E981EE0FE983F0DFDF9AEEDFDF9866
:100AEA00115081F7AD9A18810C94B809AA93AE985F
:100AFA00A881E4DFC9C0AA93AE9AA881DFDFC4C087
:100B0A00AA931A93E981E695E695E6951E2FE4E500
:100B1A00E19FF001DF01EA81F0E0EA0FFB1FE093B9
:100B2A00C807F093C907E12F18810C94FF09AA930B
:100B3A00E981E068AE2FDADFE981EA93A981E0DF93
:100B4A00E064AE2FD3DF0C94B809AA93E981EA9343
:100B5A00A981EDDFE091C807F091C907E653F84F84
:100B6A00E0810C94B809AA930E94730A3197E6535C
:100B7A00F84FA881A083BFDF87C0BA93AA930E94C7
:100B8A002A0BA59AAD9AD79ADF98A79AA69AA49AF9
:100B9A00AC98AAE0B0E00E94E10AAC9AEC81FD812F
:100BAA00309721F1E681E3701E2FEC81FD81E68109
:100BBA00E695E695E7700E2FEC81FD81E781EF77E8
:100BCA003E2FAC81BD810E94030BE0932506F09372
:100BDA00260612960E94030BE0933A06F0933B0610
:100BEA00AC81BD8114960E94030B0DC010E003E096
:100BFA0032E3E0E0F0E0E0932506F0932606E09386
:100C0A003A06F0933B06E0933C06F0933D06A1E2D8
:100C1A006DDFE12FE460AE2F69DFE02FE061AE2FD8
:100C2A0065DFE32FE068AE2F61DFA0E25FDFA1E0BE
:100C3A0022D0E1E0E0932106E0E0E0932206E1E041
:100C4A00E0932706E0932806E0932906EFEFE09366
:100C5A002A06E1E0E0933106E2E3F6E0FA93EA934A
:100C6A00EFEFEA93A8E0B0E00E94F0040FD0E1E0D1
:100C7A000E94310B60C0AA93E881E03011F0ECE0E9
:100C8A0001C0E8E0AE2F32DF219608950E942A0BB8
:100C9A0030E0E0912206E03009F03FEFE0E0EA932D
:100CAA00A0E045DF08EF11E0F8010150104030974D
:100CBA0019F0A32F58DFF8CFE0E0EA93A0E03ED383
:100CCA000E94310B0C941E0AAA931A93ED81EA939F
:100CDA00AD813BDF1E2FE981E73011F0E83039F4AE
:100CEA00EB81EA93AA810E94BA09EB8308C0E33038
:100CFA0021F4EB81E095EB8302C0E03021F4EA8134
:100D0A00E0951E2302C0E23029F4EA81AB81EA238E
:100D1A001E2B0EC0E13029F4EA81AB81EA231E279B
:100D2A0007C0E43029F4EA81E095AB81EA2B1E235F
:100D3A00A12F19DF188126960895AA9323970E9456
:100D4A00280BA889A43548F4AF85A03330F4AE85C2
:100D5A00A03019F0AD85A03009F4D5C1EE85E88739
:100D6A00A889BB27EE85F0E0AE0FBF1FA535E0E0EE
:100D7A00BE0720F0A889E4E5EA1BEE872D85AF853A
:100D8A00BB27ED85F0E0AE0FBF1FD19720F0AF85EE
:100D9A00E0E3EA1BED87A985A63009F05BC0EC8584
:100DAA00E13009F4B0C1E33039F4E0913C06F09146
:100DBA003D06309709F4A7C10885ED85E695E695C5
:100DCA00E6953E2FE22FE77019F4AD852A17E9F070
:100DDA00A02FBB27E32FF0E00E94FB0AAA85BB8560
:100DEA000E94760A269526952695532F5F935F5F74
:100DFA00E22FAF91EA1748F0102FE12F1150E0309F
:100E0A0019F00E947B0AF9CFF1CFAE850A1711F1CA
:100E1A00EE85AA85BB85F0E00E94760AED85E7702B
:100E2A0009F03F5F20E02F932F5FE32FAF91AE17BA
:100E3A0088F41E851F931F5FE02FAF91AE1718F439
:100E4A000E947B0AF7CFEE85AE81BF81F0E00E9457
:100E5A00760AE9CFEF85E7703E2FED85E03009F499
:100E6A0052C1EA85FB85EE83FF8310E008893030A2
:100E7A0009F066C0AD85A83008F45DC0E985E030A8
:100E8A0011F0E33009F402C0E73009F402C0E83097
:100E9A0009F402C0E93009F402C0EA3021F40A93E5
:100EAA00A88945DE04C0E63011F40E94880A1F931F
:100EBA001F5FEE85AF91AE17B8F5A985A63069F424
:100ECA000E948C0AFA93EA930E94730A3197E653B6
:100EDA00F84FA0810E94010A26C0E985E93011F481
:100EEA0050E00EC0EA3011F45FEF0AC00E948C0A8B
:100EFA000E94950A5E2FE985E73011F0E83021F467
:100F0A000E949B0A5E2F06C0E33011F4509502C07E
:100F1A00E03019F4A52FEFDD06C00E949F0AEFEF1B
:100F2A00EA93AD85D1DEC3CFEF85E85FEF87ED8524
:100F3A00E850ED87DFC05D8520E0E0E0ED8781C005
:100F4A00E32FAD85AE0FA93020F42D85E0E0ED87C3
:100F5A0003C0E8E0E31B2E2F3A93A22F0E94AF09A9
:100F6A004E2FE985E63029F50E94880A1F931F5FF4
:100F7A00EE85AF91AE17E0F40E94730A3197E653FB
:100F8A00F84FE081E423AE2FE32F0E94F30A0E9478
:100F9A00A50AE32FA42F0E94F30AE095E1215E2B14
:100FAA000E948C0AFA93EA93A52F0E94010ADECFC7
:100FBA002CC0E93011F450E003C0EA30A9F45FEF25
:100FCA000E949B0AAE2FE32F0E94EB0A5E2F1F930B
:100FDA001F5FEE85AF91AE1730F40E949F0A4A93C5
:100FEA00A0E072DEF4CF11C01F931F5FEE85AF91B0
:100FFA00AE1758F40E94B00AAE2FE32F0E94EB0AF4
:10100A00EA934A93AD8560DEEFCFED85E03009F4CF
:10101A007AC0AD85A83028F4ED85E21B5E2FE0E0AA
:10102A0003C0532FED85E850ED8710E0EF85E85FA8
:10103A00EF87E8E0E31B2E2F0889EA85FB85EE831C
:10104A00FF83E52FF0E0E059FD4F4491E985E63052
:10105A0029F50E94880A1F931F5FEE85AF91AE178C
:10106A00E0F40E94730A3197E653F84FE081E423D3
:10107A00AE2FE22F0E94EB0A0E94A50AE22FA42FAC
:10108A000E94EB0AE095E1215E2B0E948C0AFA93FA
:10109A00EA93A52F0E94010ADECF2CC0E93011F491
:1010AA0050E003C0EA30A9F45FEF0E949B0AAE2F1A
:1010BA00E22F0E94F30A5E2F1F931F5FEE85AF9106
:1010CA00AE1730F40E949F0A4A93A0E0FDDDF4CFE8
:1010DA0011C01F931F5FEE85AF91AE1758F40E949F
:1010EA00B00AAE2FE22F0E94F30AEA934A93AD8523
:1010FA00EBDDEFCFE885AA85BB85F0E0EA0FFB1FA1
:10110A00EA87FB87AACE0E942F0B619608950E9458
:10111A00BD0A1CF0E0E0F0E026C1A881B981A4353F
:10112A00E0E0BE071CF0E3E5F0E01DC1E881F981CB
:10113A001AC10E94BD0A1CF0E0E0F0E014C1A881C7
:10114A00B981D0971CF0EFE2F0E00DC1E881F98196
:10115A000AC1BA93AA9323970E94C40A8F01002E48
:10116A00012A19F4E0E0F0E05FC00E94CB0A0F8286
:10117A000E94CB0A0E820E94CB0A0886EB85A885BC
:10118A00EA1718F4E0E0F0E04FC0F8010F5F1F4FD4
:10119A005491A885BB27EE27A50FBE1FEB85F0E06B
:1011AA00EA17FB0718F0E0E0F0E03EC0EE81E695B2
:1011BA00E695E6954E2FEE81E77009F04F5FEF81D5
:1011CA00E030A1F0A985BA85EC93A885EB85EA1BE6
:1011DA00F0E0DF01EF81F0E00E94FB0ADF01E42F7B
:1011EA00F0E00E94FB0AE00FF11F1EC09801E52FF4
:1011FA00F0E00E0F1F1FA885AF5FA887A150EB85EF
:10120A00AE1760F4F9012F5F3F4FA491B0E0E42FCD
:10121A00F0E00E94FB0A0E0F1F1FEDCFF901E491C7
:10122A00A985BA85EC93F8010E942F0B2C96089594
:10123A00E0E0E0932306A0912406BB270E94D00A8F
:10124A00F0E0AE0FBF1FE0912806F0E0AE0FBF1F1F
:10125A0070DFE09324060895AA9321970E94C40A96
:10126A00309709F455C0AF81AA3009F44FC0EF8115
:10127A00EA93DE0117966DDFAF01309709F44AC091
:10128A00E0912706AE81EA0F3E2FA0912306BB27E5
:10129A00F0E0EA0FFB1F8F010535E0E01E0718F0AA
:1012AA00032F1127C5DFE0912306EA93E091240674
:1012BA00EA93E885EA930E94D00AEA93E1E0EA9386
:1012CA005A934A93A7E039DDE0912306AE81EA0FEB
:1012DA00EA93E0912406EA93E0912706EA930E94B2
:1012EA00D00A0E94D70AE0912306EA93A091240625
:1012FA000E94D00AEA0FEA933A93E09128060E94E4
:10130A00D70AE4E5F0E0E017F10711F491DF02C033
:10131A00009323060E942F0B28960895BA93AA9346
:10132A001A93A981BA81ED91A983BA831E2FE0305D
:10133A0019F0A12F91DFF5CF18815CC0AA93A9817A
:10134A00BB27E5DEE0932306A881BB27F2DEE09304
:10135A00240609C0AA93E881F0E0E059FD4FA49160
:10136A00E9810E94EB0A22960895AA931A93E981C9
:10137A00E73011F0EA3019F41091210609C0E9307A
:10138A0019F41091220604C0E830A1F41091310634
:10139A00E0912206E03049F0103019F0EFEF1881A1
:1013AA0029C0EA81E095188125C0103019F4E0E0DF
:1013BA00188120C0EA8118811DC0BA93AA93EA81D4
:1013CA00E13021F4E881F981E49114C0E23029F492
:1013DA00A881B9810E94070B0DC0E33041F4A881AE
:1013EA00B981E0913A06F0913B06099503C0A881BC
:1013FA00B981EC9123960895AA93EB81E03029F400
:10140A00E881A981BA81EC9314C0E23031F4E88111
:10141A00A981BA810E94130B0CC0E33051F4E9810F
:10142A00FA81FA93EA93AA81E0913C06F0913D068B
:10143A000995249608950E94E10A0E944B06E0E06D
:10144A00EA93A0E00C94A309A21BB30BEEA5FFA597
:10145A00EA17FB070895EEE7F6E0FA93EA93089590
:10146A00DE01AF5ABF4F0D90BC91A02DEC910895AB
:10147A00ED91FD913196FE93EE9308950E94090332
:10148A00ACE2B1E00C94E10AFA93EA93A2E0B0E08C
:10149A000E943303A0E0B0E00C941E030E944B06A6
:1014AA00E0E0EA93A0E00C94A309FE01BC96FA934B
:1014BA00EA9308950E940005F8CF0E940005E8EC1F
:1014CA00F0E0FA93EA93DE015A960E943405EDCFD2
:1014DA000E940903A8EEB3E00C94E10AA8ECB7E075
:1014EA00C7CFEA0FFB1FEE83FF830895EC85EA93CB
:1014FA00EF81F8853196EF83F8873197FA93EA936B
:10150A00A0E00C94010A0A93A8890C948505EC853D
:10151A00EA93EF81F8853196EF83F887319708953A
:10152A0066277727DF01CB010C94E2095A93AA8533
:10153A000C94BA090A930395E889EA935A93089591
:10154A005E2FEC85EA93AF81B885882799270E9498
:10155A00E2091E2E08950A930395E889EA93EE8517
:10156A00EA93E985FA853196E987FA873197D8CFE0
:10157A00BA93AA93A881B9810E94240B08950E9464
:10158A00280BE0912506F09126060895F8010F5FD1
:10159A001F4F04900895E0912506F0912606319692
:1015AA00E4910895EA93E0E0EA93E0E0F0E0FA9348
:1015BA00EA93A9E00C94A206109639F080ED97E020
:1015CA000197F1F7A8951197C9F70895EE230E2E02
:1015DA00EA2F19F0EE0F0A94E9F70895EE230E2E7A
:1015EA00EA2F19F0E6950A94E9F70895FA9FF02D83
:1015FA00EB9FF00DEA9FE02DF10D0895ED91FC911E
:10160A0011970895E199FECFFF93FFB7F894AEBB07
:10161A00BFBBE09AEDB3FFBFFF910895E19B02C003
:10162A00A895FCCF9FB7F894AEBBBFBBE09A8DB329
:10163A00E81719F0EDBBE29AE19A9FBF08950024DA
:10164A000A160B0608955A934A933A932A931A93C1
:10165A000A9308955D814C813B812A811981088111
:10166A000895AC0FBD1F05900D928A95E1F7089574
:00000001FF
