:100000000C9480020C9400000C9400000C940000EE
:100010000C9400000C9400000C9400000C94000060
:100020000C9400000C9400000C9423030C9400002A
:100030000C9400000C9400000C9400000C94000040
:100040000C9447030C9400000C94C1020C94000023
:100050000C94FF020C9400000C9400000C9400001F
:100060000C9400000C9400000C9400000C94000010
:100070000C9400000C9400000C9400000C94000000
:100080000C9400000C9400000C9400000507206004
:10009000000000000000005F0000000700070014DF
:1000A0007F147F14242A7F2A12231308646236499E
:1000B0005522500005030000001C2241000041228F
:1000C0001C00082A1C2A0808083E080800503000B6
:1000D000000808080808003030000020100804025A
:1000E0003E5149453E00427F400042615149462110
:1000F00041454B311814127F1027454545393C4A7C
:1001000049493001710905033649494936064949CB
:10011000291E003636000000563600000008142262
:100120004114141414144122140800020151090648
:10013000324979413E7E1111117E7F494949363E4F
:10014000414141227F4141221C7F494949417F0968
:100150000901013E414151327F0808087F00417F7B
:1001600041002040413F017F081422417F40404030
:10017000407F0204027F7F0408107F3E4141413EE0
:100180007F090909063E4151215E7F09192946462A
:100190004949493101017F01013F4040403F1F2053
:1001A00040201F7F2018207F631408146303047805
:1001B0000403615149454300007F41410204081096
:1001C0002041417F000004020102044040404040C1
:1001D000000102040020545454787F4844443838C5
:1001E00044444420384444487F3854545418087ECA
:1001F000090102081454543C7F0804047800447D2B
:1002000040002040443D00007F10284400417F40D2
:10021000007C041804787C0804047838444444388A
:100220007C14141408081414187C7C08040408486E
:1002300054545420043F4440203C4040207C1C2027
:1002400040201C3C4030403C44281028440C505076
:10025000503C4464544C44000836410000007F0088
:1002600000004136080002010204027F4141417F43
:10027000000103070F1F3F7FFF001027E803640002
:100280000A00010000100001100001000000A100A0
:10029000A3A200A40000000000050105120523052B
:1002A000340500345A37414736465345423448589E
:1002B000345558004D5A5330564F4A4E50574D4BB7
:1002C00049453637005053303233523754374D5644
:1002D000554253455700433631564C305A364944FF
:1002E0004B3657395247004552524F5200474554FA
:1002F000202F7570646174653F6B65793D004154D2
:100300002B4349504D4F44453D30000D0A004F4BA3
:100310000041542B4349504D55583D310041542B19
:1003200043495053544152543D302C22544350229F
:100330002C226170692E7468696E67737065616BD9
:100340002E636F6D222C38300053657276657220F3
:10035000636F6E6E656374656400266669656C64C0
:10036000313D00266669656C64323D00266669652C
:100370006C64333D0041542B43495053454E443D3A
:10038000302C003E200052656365697665004E6F33
:1003900064653A200054656D703A200048756D69B7
:1003A000643A200057617465723A20006D6D004117
:1003B000540D0A0041542B43574D4F44453D310DD8
:1003C0000A0041542B43574A41503D2254686179F9
:1003D0005F5468616F5F64656F5F67696169222C54
:1003E000226368696E68786163220D0A0073746124
:1003F00072740025642000256420200001002D4E29
:10040000414E00494E460000010002008C020A00E5
:1004100004008E0201000005A20211000105A302E2
:1004200011001205B40211002305C50211003405A4
:10043000D6020A008906980206004505E702110067
:100440004B05ED020D005C05FE02030069050B0380
:1004500003006C050E030C006F05110303007B0500
:100460000B0303007E050E032C0081051D03030012
:10047000AD050B030300B0050E031100B3054903DE
:100480000900C4055A030900CD0563030900D60518
:100490006C030E00DF0575030300ED050B0303007D
:1004A000F00583030300F3050B030800F60586033C
:1004B0000700FE058E0307000506950308000C06DD
:1004C0009C0308001406A40303001C06AC030500EB
:1004D0001F06AF03030024060E030E002706B40315
:1004E000030035060E032B003806C2030300630623
:1004F0000E0306006606ED0301004609FC0300003A
:10050000F894EE27ECBBF1E0F5BFE5BFE0936C009B
:100510008DE0A2E0BB27ED938A95E9F780E090E1BA
:10052000A0E0B1E0ED930197E9F7E8E0F4E0859110
:100530009591009761F0A591B59105901590BF0137
:10054000F00105900D920197E1F7FB01F0CF8BBF11
:10055000EFEFEDBFE0E1EEBFC0E0D5E00C94770631
:10056000BA93AA93A881B981EC91E03041F0E0E020
:10057000EC93E881F9813196E883F983F3CF0C9409
:100580007F08AA93BA93EA93FA93EFB7EA931A9380
:100590000A931BB10CB1E12FEC71E9F4E091CD07A6
:1005A000EF5FE093CD07E150F0E0E357F84F0083B1
:1005B000A091CD07A03419F4E0E0E093CD07A0911D
:1005C000CF07AF5FA093CF07A03429F4E0E0E0931A
:1005D000CF07689420F8E091D408F091D508E05353
:1005E000F84F0083A4EDB8E00E94C70F099119915C
:1005F000E991EFBFF991E991B991A9911895AA9361
:10060000EA93FA93EFB7EA93E0911E09E030A9F07C
:10061000E150E0931E09E0911D09EF5FE0931D0991
:10062000E150F0E0E452F74FE081ECB9A0911D09F0
:10063000A03419F4E0E0E0931D09E991EFBFF991CE
:10064000E991A9911895EA93FA93EFB7EA93E2EB4F
:10065000E4BDE1E0E81519F4F60131966F01E4EF2D
:10066000F1E0EC15FD0571F48824F50131965F0188
:10067000CC24DD24E5E0F0E0EA15FB0519F4E1E027
:10068000F0E05F01E991EFBFF991E99118956A9364
:100690007A938A939A93AA93BA93EA93FA93EFB7C9
:1006A000EA93E0E6E2BFA8EDB8E00E944E11EF5FEA
:1006B000FF4F6F4F7F4F0E945311A091D808B09108
:1006C000D9088091DA089091DB08A035E3ECBE07E9
:1006D000E0E08E07E0E09E0769F4A6EDB8E00E9436
:1006E000C70FE0E0E093D808E093D908E093DA0878
:1006F000E093DB08E991EFBFF991E991B991A991F4
:1007000099918991799169911895AA93A0911E095F
:10071000A034E1F3F894E0911E09E03011F45D9902
:1007200018C0E0911C09EF5FE0931C09E150F0E074
:10073000E452F74FA881A083A0911C09A03419F4BA
:10074000E0E0E0931C09E0911E09EF5FE0931E09D1
:1007500002C0E881ECB978940C9412098BE18A9577
:10076000F1F7E0E0EA93AFE124D0A2E0B0E00E942C
:100770001B11E7E0EA93AEE71CD0EDE1EA93A4E0B9
:1007800018D0E5E0EA93A2E014D00895AA931A9352
:1007900010E0183050F4E981E07811F4D99801C0E4
:1007A000D99A0E94CD0F1F5FF4CFE98118810C9474
:1007B0007F080E94DF0FEADFE0934509A881E6DFAA
:1007C0000E94E50FE09145090C947F08AA931A93C3
:1007D00010E0183050F4E981E07811F4D99801C0A4
:1007E000D99A0E94CD0F1F5FF4CFE98118810C9434
:1007F0007F081A930A9310E000E0083078F48DE047
:100800008A95F1F7110FDC9A8DE08A95F1F7E0E017
:10081000CD99E1E01E2BDC980F5FEFCFE12F09911E
:1008200019910895DB9A88E795E00197F1F7DB9835
:10083000DA9A08950E94DF0F0E94EA0F0E94E50FE6
:100840000C947F080E94DF0F0E94EA0FA8810E948B
:10085000EA0FA8810E94EA0F0E94E50F0C947F081E
:100860000E94DF0FB3DFA72DB1DFA72DAFDFA72DCC
:10087000ADDFA72D0E94EA0F0E94E50F0C947F08C0
:10088000AA93DA98A881A2DF0E94E50F0C941209BE
:10089000AA93DA98E3E0EA93A3E0CCDF0E94E50FA5
:1008A000DA98EAE0EA93AC81CDDFE0E1EA93AC814B
:1008B000C9DFEBE0EA93AB810E94EF0FAB81D0DFA1
:1008C000ECE0EA93AA810E94EF0FAA81C9DFEDE074
:1008D000EA93A9810E94EF0FA981C2DF0C9430092D
:1008E000E0E0EA93AFE1A6DFDB9A0895ECE10E9435
:1008F000F40F4A927A926A92A92DCADFE2E00E942E
:10090000F40FE1E00E94F40F0895DB980E94E50FD8
:10091000DA98A1E65BDF8BE18A95F1F76ADFF0E018
:10092000E0931F09F093200964DFA1E2B9E00E947F
:10093000F80FA3E2B9E00E94F80FA5E2B9E00E9427
:10094000F80FA7E2B9E00E94F80FA9E2B9E0F0E0E1
:10095000ED93FC93DA9ADB9AE7E0EA93AEE76ADF7D
:10096000A2EE8EDF0895BA93AA93A881B981EC9183
:10097000E03061F0AC91C9DEA2E3B0E00E941B114F
:10098000E881F9813196E883F983EFCF0C947F08F1
:100990000E94FD0F0E941B110E9402100E9409106C
:1009A000A0EDB7E0DDDDE0E0E093D408E093D5080A
:1009B0000C947F08BA93AA93A8970E94821100E032
:1009C00010E0DE015A96CCDDA8A9B9A9EC91E0307F
:1009D00001F1F801DE015A96EA0FFB1F0F01A8A9E9
:1009E000B9A9EC91D001EC93F801DE011696EA0F5B
:1009F000FB1F0F01DE015A96A00FB11FEC91D00131
:100A0000EC93E8A9F9A93196E8ABF9AB0F5F1F4F5A
:100A1000DBCF2091D6083091D708A091D608B091AD
:100A2000D708A217B3075CF4E091D608F091D70875
:100A3000FC96AF01DA010E940D101CF107C0A091D5
:100A4000D608B091D7080E940D10DCF00E94141057
:100A5000DE015C960E94E807309741F40E94141072
:100A6000DE0118960E94E807309711F0E1E00AC015
:100A70000E941410A5E4B5E00E94E807309709F43D
:100A8000CCCFE0E00E948911E2960895BA93AA9330
:100A9000EC970E94841100E010E020E030E00E941A
:100AA0001910ABE4B5E00E94C2070E941E10E030AE
:100AB000F9F0F901DE011496EA0FFB1FBF010E9455
:100AC0001E10DB01EC93F901DE019C96EA0FFB1F7F
:100AD0000F01DE011496A20FB31FEC91D001EC932D
:100AE000DE01A05CBF4F0E94C70F2F5F3F4FDDCFDD
:100AF000ACE5B5E00E942610A9E6B5E034DFECE6EF
:100B0000F5E00E942C10AFE6B5E00E942610ABE79E
:100B1000B5E029DFEEE7F5E00E942C10A1E8B5E092
:100B20000E942610ADEAB5E01EDFE0EBF5E00E9482
:100B30003610E03011F4E0E088C0A0EDB7E028DF27
:100B40000E940210A3EBB5E00E94880C0E941910CD
:100B5000DE019E960E94B1070E941910A4ECB5E038
:100B60000E94B107E0912509F09126090E943C10EE
:100B70000E9443108F010E941910ADECB5E00E9455
:100B8000B107E0912309F09124090E943C100E94D2
:100B900043100E0F1F1F0E941910A6EDB5E00E9412
:100BA000B107E0912909F0912A090E943C100E94A6
:100BB00043100E0F1F1F0E940210A3E9B6E00E940F
:100BC000880C065C1F4F1A930A93DE015A960E9406
:100BD000FF07E0E0EA93A8E20E94B20CDE0158961B
:100BE0000E94880CA8EEB3E00E941B11AFEDB5E0A7
:100BF0000E942610DE015896B6DEA8EEB3E00E94F1
:100C00001B11ADEEB5E0AFDEE0EFF5E0FA93EA934D
:100C1000A5E0B0E0CFDEE03011F4E0E016C0A3E9DB
:100C2000B6E0A1DEA8ECB0E00E941B11A3EFB5E096
:100C30009ADEE6EFF5E0FA93EA93A2E0B0E0BADEDE
:100C4000E03011F4E0E001C0E1E00E948B11EF968A
:100C500023960895E0E3EA93E0E00E944B10EFE072
:100C60000E944B10E0E0EA93E4E5EA93A0E00E94E2
:100C7000BE0CE4E5EA93E0E00E945410E0E30E9439
:100C80005410E0E0EA93EA93A0E30E94BE0CE3E094
:100C9000EA93A3E00E94B20CAEEFB5E00E945D10B3
:100CA000A2E10E94B20CA5E0B6E00E945D10ACE1AA
:100CB0000E94B20CACE0B6E00E945D10A5E20E947A
:100CC000B20CA4E1B6E00E94880CE3E4EA93ACE144
:100CD0000E94B20CA5E20E94260CE3E4EA93A5E28E
:100CE0000E94B20CACE1B6E00E94880C08952897EF
:100CF000EEE5EABBEFE3EBBBE8E0E7BBE0E0E8BB37
:100D0000E4BBE8E0E5BBE0E0E1BBE2BBE2B9E3B9AC
:100D1000E0936100E0936200E0936400E09365007B
:100D2000E0BFE1E0E3BFE0E6E2BFE0E0E1BFEFBD4E
:100D3000EEBDEDBDECBDE7BDE6BDEBBDEABDE9BD79
:100D4000E8BDE0937900E0937800E5E0E5BDE2EBF3
:100D5000E4BDE0E0E3BDE0938B00E0938A00E09324
:100D60008900E0938800E0938100E0938000E093A5
:100D70008700E0938600E0938500E0938400E09391
:100D80008300E0938200E1E4E7BFE0E0E0937D00D0
:100D9000E0936A00EABFE9BFEBB9E8EDEAB9E6E043
:100DA000E0939500E0E0E0939000E3E3E9B9E0E050
:100DB000E0939A00E0E8E8B9E0E0E0BDE6B9EDB91B
:100DC000E0937400ECE8F0E0E883F983E0E0EA8384
:100DD000EB83EC83ED83EE81EC7FE260EE83E37ED8
:100DE000EC60EE83EF81E078E963EF83DE010E943F
:100DF0008B087894AFE1B6E0B6DDE4E2F6E00E945D
:100E00002C10A7E2B6E0AFDDE5E3F6E00E942C107F
:100E1000A8E3B6E0A8DDE3E6F6E00E943610A0E025
:100E2000B0E0B6DDA8EBBBE00E941B11FBDC96DC5A
:100E30005DDDE1E0F0E05F01EAE0EA93AAE00E9414
:100E4000B20C0E941409A6E6B6E00E94880C48DDA8
:100E50009B9907C0A4EFB1E00E941B11F5013196E8
:100E60005F01C8996CC051DDA0911F09B0912009A4
:100E7000AA16BB0609F063C0EDDEE8E2EA93A3E040
:100E80000E94B20CE0911F09F0912009FA93EA93B5
:100E9000A0EDB7E00E94FF070E940910EEE2EA937E
:100EA000A2E10E946210E3EFF3E0FA93EA93E0918B
:100EB0002509F09126090E946510EEE2EA93ACE163
:100EC0000E946210E3EFF3E0FA93EA93E0912309C2
:100ED000F09124090E946510EEE2EA93A5E20E94D7
:100EE0006210E7EFF3E0FA93EA93E0912909F091B9
:100EF0002A090E946510A4E6B0E00E941B11F501CA
:100F0000A9E8B6E0EE0FFF1FAE0FBF1F0E944A1107
:100F1000DF01BCDDE03099F3A8ECB0E00E941B11CA
:100F20000E941409F50131965F01E5E0F0E0EA1551
:100F3000FB0519F4E1E0F0E05F01E1E08E2E87CFE0
:100F4000FFCFBA93AA93B981A881109631F0FC81A2
:100F5000EB816A8161931197E9F7EB81FC810C9435
:100F6000EC0DBA93AA93E991F991A991B991CD01A8
:100F70006D916623E9F7119761916D936623E1F70F
:100F8000FC010895BA93AA93E991F991A991B991B5
:100F9000CD0161916D936623E1F7FC010895BA9349
:100FA000AA93A991B991EE27FF276D91662311F0BD
:100FB0003196FBCF0895BA93AA93AA27BB27E9914C
:100FC000F9910590002011F01196FBCFFD010895D5
:100FD000BA93AA93AA81BB81CD01E881F98171916D
:100FE000772311F4FC0109C06D916717C1F30196D5
:100FF000DC01662391F7EE27FF270C943009BA93A2
:10100000AA93A991B991E991F99130962AF4E095C2
:10101000F09531966DE26D93E89480E197E20DD002
:1010200088EE93E00AD084E6992707D08AE005D0BD
:101030006E2F10D066276C9308956627E817F9077E
:1010400020F06395E81BF90BC9F7662311F416F03D
:1010500008956894605D6D9308950895AA931A9316
:10106000AD9818E0FADFE981E07811F0AF9A01C09D
:10107000AF98E981EE0FE983F0DFDF9AEEDFDF98CA
:10108000115081F7AD9A18813AC0AA93AE98A88101
:10109000E5DFC8C0AA93AE9AA881E0DFC3C0AA93D7
:1010A0001A93E981E695E695E6951E2FE4E5E19F22
:1010B000F001DF01EA81F0E0EA0FFB1FE0934A094B
:1010C000F0934B09E12F188123960895AA93E981A3
:1010D000E068AE2FDADFE981EA93A981E0DFE0641E
:1010E000AE2FD3DF0CC0AA93E981EA93A981EEDF8A
:1010F000E0914A09F0914B09E45BF64FE0812296BA
:101100000895AA930E946E103197E45BF64FA88170
:10111000A083C0DF87C0BA93AA930E948411A59AC6
:10112000AD9AD79ADF98A79AA69AA49AAC98AAE003
:10113000B0E00E941B11AC9AEC81FD81309721F147
:10114000E681E3701E2FEC81FD81E681E695E69550
:10115000E7700E2FEC81FD81E781EF773E2FAC81A8
:10116000BD810E944A11E0937006F09371061296B9
:101170000E944A11E0938506F0938606AC81BD81FA
:1011800014960E944A110DC010E003E032E3E0E043
:10119000F0E0E0937006F0937106E0938506F0931B
:1011A0008606E0938706F0938806A1E26EDFE12FC2
:1011B000E460AE2F6ADFE02FE061AE2F66DFE32F41
:1011C000E068AE2F62DFA0E260DFA1E022D0E1E0C4
:1011D000E0936C06E0E0E0936D06E1E0E0937206D8
:1011E000E0937306E0937406EFEFE0937506E1E099
:1011F000E0937C06EDE7F6E0FA93EA93EFEFEA93EB
:10120000A8E0B0E00E94A1070FD0E1E00E948B119E
:1012100082C0AA93E881E03011F0ECE001C0E8E080
:10122000AE2F33DF219608950E94841130E0E091C3
:101230006D06E03009F03FEFE0E0EA93A0E046DF22
:1012400008EF11E0F80101501040309719F0A32F7A
:1012500058DFF8CFE0E0EA93A0E084D30E948B113E
:1012600024960895AA931A930A93AC81A43518F48E
:10127000AB81A03310F00C94EA0DEC81EA93AC81C1
:1012800032DF1E2FEB81E770A1E00E942D110E2F9F
:10129000EA81E03011F0102B03C0E02FE0951E230F
:1012A000A12F2FDF0C94EA0DAA931A93ED81EA93F4
:1012B000AD8119DF1E2FE981E73011F0E83039F4F4
:1012C000EB81EA93AA810E94610FEB8308C0E330AF
:1012D00021F4EB81E095EB8302C0E03021F4EA8158
:1012E000E0951E2302C0E23029F4EA81AB81EA23B3
:1012F0001E2B0EC0E13029F4EA81AB81EA231E27C0
:1013000007C0E43029F4EA81E095AB81EA2B1E2383
:10131000A12FF7DE188126960895AA9323970E949D
:101320008211A889A43548F4AF85A03330F4AE8586
:10133000A03019F0AD85A03009F4D5C1EE85E8875D
:10134000A889BB27EE85F0E0AE0FBF1FA535E0E012
:10135000BE0720F0A889E4E5EA1BEE872D85AF855E
:10136000BB27ED85F0E0AE0FBF1FD19720F0AF8512
:10137000E0E3EA1BED87A985A63009F05BC0EC85A8
:10138000E13009F4B0C1E33039F4E0918706F0911F
:101390008806309709F4A7C10885ED85E695E6959E
:1013A000E6953E2FE22FE77019F4AD852A17E9F094
:1013B000A02FBB27E32FF0E00E944211AA85BB8536
:1013C0000E947110269526952695532F5F935F5F97
:1013D000E22FAF91EA1748F0102FE12F1150E030C3
:1013E00019F00E947610F9CFF1CFAE850A1711F1EE
:1013F000EE85AA85BB85F0E00E947110ED85E7704F
:1014000009F03F5F20E02F932F5FE32FAF91AE17DE
:1014100088F41E851F931F5FE02FAF91AE1718F45D
:101420000E947610F7CFEE85AE81BF81F0E00E947A
:101430007110E9CFEF85E7703E2FED85E03009F4BC
:1014400052C1EA85FB85EE83FF8310E008893030C6
:1014500009F066C0AD85A83008F45DC0E985E030CC
:1014600011F0E33009F402C0E73009F402C0E830BB
:1014700009F402C0E93009F402C0EA3021F40A9309
:10148000A88924DE04C0E63011F40E9483101F9363
:101490001F5FEE85AF91AE17B8F5A985A63069F448
:1014A0000E948710FA93EA930E946E103197E45BD2
:1014B000F64FA0810E94A80F26C0E985E93011F4FB
:1014C00050E00EC0EA3011F45FEF0AC00E948710AE
:1014D0000E9490105E2FE985E73011F0E83021F48A
:1014E0000E9496105E2F06C0E33011F4509502C0A2
:1014F000E03019F4A52FCEDD06C00E949A10EFEF60
:10150000EA93AD85D1DEC3CFEF85E85FEF87ED8548
:10151000E850ED87DFC05D8520E0E0E0ED8781C029
:10152000E32FAD85AE0FA93020F42D85E0E0ED87E7
:1015300003C0E8E0E31B2E2F3A93A22F0E94560F20
:101540004E2FE985E63029F50E9483101F931F5F17
:10155000EE85AF91AE17E0F40E946E103197E45B18
:10156000F64FE081E423AE2FE32F0E9435110E9455
:10157000A010E32FA42F0E943511E095E1215E2BEE
:101580000E948710FA93EA93A52F0E94A80FDECF3E
:101590002CC0E93011F450E003C0EA30A9F45FEF49
:1015A0000E949610AE2FE32F0E942D115E2F1F93E5
:1015B0001F5FEE85AF91AE1730F40E949A104A93E8
:1015C000A0E072DEF4CF11C01F931F5FEE85AF91D4
:1015D000AE1758F40E94AB10AE2FE32F0E942D11CE
:1015E000EA934A93AD8560DEEFCFED85E03009F4F4
:1015F0007AC0AD85A83028F4ED85E21B5E2FE0E0CF
:1016000003C0532FED85E850ED8710E0EF85E85FCC
:10161000EF87E8E0E31B2E2F0889EA85FB85EE8340
:10162000FF83E52FF0E0E059FD4F4491E985E63076
:1016300029F50E9483101F931F5FEE85AF91AE17AF
:10164000E0F40E946E103197E45BF64FE081E423F2
:10165000AE2FE22F0E942D110E94A010E22FA42F86
:101660000E942D11E095E1215E2B0E948710FA93D4
:10167000EA93A52F0E94A80FDECF2CC0E93011F409
:1016800050E003C0EA30A9F45FEF0E949610AE2F3D
:10169000E22F0E9435115E2F1F931F5FEE85AF91E1
:1016A000AE1730F40E949A104A93A0E0FDDDF4CF0B
:1016B00011C01F931F5FEE85AF91AE1758F40E94C3
:1016C000AB10AE2FE22F0E943511EA934A93AD85FD
:1016D000EBDDEFCFE885AA85BB85F0E0EA0FFB1FC5
:1016E000EA87FB87AACE0E948911619608950E941D
:1016F000FD0F0E947E1124F0E0E0F0E00C945F0FFB
:10170000A881B981A435E0E0BE0724F0E3E5F0E06C
:101710000C945F0FE881F9810C945F0F0E94FD0F1C
:101720000E947E1124F0E0E0F0E00C945F0FA881AD
:10173000B981D09724F0EFE2F0E00C945F0FE881DC
:10174000F9810C945F0FBA93AA9323970E94B81063
:101750008F01002E012A19F4E0E0F0E05FC00E9442
:10176000BF100F820E94BF100E820E94BF10088619
:10177000EB85A885EA1718F4E0E0F0E04FC0F80127
:101780000F5F1F4F5491A885BB27EE27A50FBE1FE3
:10179000EB85F0E0EA17FB0718F0E0E0F0E03EC070
:1017A000EE81E695E695E6954E2FEE81E77009F01D
:1017B0004F5FEF81E030A1F0A985BA85EC93A88551
:1017C000EB85EA1BF0E0DF01EF81F0E00E944211BF
:1017D000DF01E42FF0E00E944211E00FF11F1EC074
:1017E0009801E52FF0E00E0F1F1FA885AF5FA887B7
:1017F000A150EB85AE1760F4F9012F5F3F4FA49124
:10180000B0E0E42FF0E00E9442110E0F1F1FEDCF59
:10181000F901E491A985BA85EC93F8010E94891138
:101820002C960895E0E0E0936E06A0916F06BB272A
:101830000E94C410F0E0AE0FBF1FE0917306F0E00D
:10184000AE0FBF1F6BDFE0936F060895AA93219739
:101850000E94B810309709F455C0AF81AA3009F43E
:101860004FC0EF81EA93DE0117966DDFAF0130972D
:1018700009F44AC0E0917206AE81EA0F3E2FA091B2
:101880006E06BB27F0E0EA0FFB1F8F010535E0E095
:101890001E0718F0032F1127C5DFE0916E06EA93AB
:1018A000E0916F06EA93E885EA930E94C410EA93F8
:1018B000E1E0EA935A934A93A7E02FDDE0916E06A8
:1018C000AE81EA0FEA93E0916F06EA93E091720627
:1018D000EA930E94C4100E94CB10E0916E06EA9336
:1018E000A0916F060E94C410EA0FEA933A93E09128
:1018F00073060E94CB10E4E5F0E0E017F10711F465
:1019000091DF02C000936E060E9489112896089507
:10191000BA93AA931A93A981BA81ED91A983BA8344
:101920001E2FE03019F0A12F91DFF5CF18810EC3E3
:10193000AA93EA81EA93EA81EA93E0917506AA8183
:10194000EA2319F0E0916C0602C0E0916D06AE2F1B
:1019500089DCE881EE0FE883E03011F4E1E0E88310
:10196000E881F4C2AA93A981BB27C1DEE0936E0689
:10197000A881BB27D3DEE0936F06A1C2AA932B9761
:101980000E948211AC89BB27B2DEEC8BAA89BB27EF
:10199000AEDEEA8BAB89BB27C1DEEB8BA989BB2707
:1019A000BDDEE98BEA89E0936E06E989E0936F0674
:1019B000E1E0E887E989AB89EA1771F51C89AA8912
:1019C0001A1731F41A93EC89EA93A1E0B1DFC8C089
:1019D000AA891A1730F4EA89E11B0E2F41E050E082
:1019E00006C0AA89E12FEA1B0E2F4FEF5FEF3B895C
:1019F000E0E0EE830E94D51038F41A933A933395C1
:101A0000AA8596DFEF83F6CFEF81E887140FE02FEA
:101A10000150E03061F7A4C0EA89AC89EA1739F5D2
:101A20003B89A9893A1730F4E989E31B2E2FE1E0BD
:101A3000F0E006C0A989E32FEA1B2E2FEFEFFFEF9E
:101A4000ED87FE871C89E0E0EE830E94D51030F41C
:101A50001A9313950E94DD10EF83F7CFEF81E8878B
:101A6000ED853E0FE22F2150E03061F779C0E0E0D4
:101A7000EE830E94D51008F073C01C893B89E1E019
:101A80002E2F0E2FAA89BB27EC89F0E0AE1BBF0BCF
:101A9000AD0155232AF40FEFFA010E942911AF017D
:101AA000FA01EE0FFF1FEF87F88BA989BB27EB899F
:101AB000F0E0AE1BBF0BAD87BE87AE85AA233AF41C
:101AC0002FEFED85FE850E942911ED87FE87ED85BC
:101AD000FE85EE0FFF1FEB87FC871A933A93A1E078
:101AE00027DFE887E0E0E987EA87AD85BE854A170A
:101AF0005B07BCF0100FEB85FC850E94E110A98507
:101B0000BA854A175B072CF4320FAF85B8890E945B
:101B1000E8101A930E94DD10E887EA89E11751F76F
:101B200018C0320FEF85F8890E94E110ED85FE851F
:101B3000A985BA85EA17FB072CF4100FAB85BC8585
:101B40000E94E8101A930E94DD10E887E989E317E4
:101B500041F7EB89EF5FEB8BE989EF5FE98B89CF89
:101B60000E94891165960895BA93AA931A930A93CD
:101B7000AA81BB8112960E944A11309729F1AA814D
:101B8000BB8114960E944A118F01309761F0023098
:101B9000E0E01E0780F0F80131978F01AA81BB8138
:101BA0001496ED93FC93AA81BB8112960E94C70FF5
:101BB0003197AC81A083AA81BB810E944A11FF2387
:101BC00012F00E94C70F06C0AA81BB81EFEFFFEFA2
:101BD000ED93FC931981088125960895BA93AA93F1
:101BE00026970E94821110E0AC85BD85E0E0F0E010
:101BF000ED93FC93EA89FB893196EA8BFB8B319755
:101C0000E4912E2FE03009F415C1E12FE03039F4D2
:101C1000253211F411E002C00E94EF100AC1E13038
:101C2000A9F4253219F40E94EF1002C112E040E03D
:101C300000E02D3211F401E0FCC02B3211F44BE234
:101C4000F8C0203211F440E2F4C002C0E23039F4AE
:101C500050E013E0203311F40068EBC003C0E33020
:101C600009F0E7C0203310F02A3308F007C0AAE0DB
:101C70005A9F502DE22FE0535E0FDBC0E22FE33678
:101C800049F40E94F610E889F989A481AA930E9478
:101C9000FC10CEC0E33741F40E94F6100E940211FE
:101CA0000E94CF071E2F0AC0E03761F40E94F61091
:101CB0000E9402110E94DB071E2F086002600F774E
:101CC00030E034C0E43611F0E93611F4046002C0AB
:101CD000E53731F4EAE7F2E0EE83FF8315E00CC06C
:101CE000E83511F4086003C0E83709F0A1C0E4E862
:101CF000F2E0EE83FF8314E002FF14C00E94F610AE
:101D00000E940C11AB85AA233AF4EA85FB850E9458
:101D10002911EA87FB874DE2403011F01F5F01C0B7
:101D20000B7F04C00E94F6100E940C1100FD11C030
:101D3000151778F407FF08C002FF04C00B7F242F9B
:101D4000115001C020E301C020E20E94EF10515069
:101D5000EFCF312F01FF17C03030A1F003FF06C0D5
:101D6000EE81FF812591EE83FF8305C0AE81BF81A7
:101D70002D91AE83BF830E94EF10503009F0515077
:101D80003150EACF4BC020E3EE81FF810E94581111
:101D9000E887F987EE81FF813296EE83FF83E8853D
:101DA000F985AA85BB85AE17BF0750F02F5FA885C0
:101DB000B985EA85FB85EA1BFB0BEA87FB87EFCF3A
:101DC0002A3328F003FF02C0295F01C0295D04FD0A
:101DD0001AC0213320F4A885B985119709F409C0E8
:101DE000531710F000FF01C013C020E207FF0BC023
:101DF00020E3006102FF07C00B7F4A930E94FC10A2
:101E0000503009F051500E94EF10503009F05150FD
:101E10003150A885B985129708F0B5CF00FF08C0EA
:101E2000503031F05150E0E2EA930E94FC10F8CFBC
:101E300010E0E0CEAC85BD850E944A110E94891158
:101E400064960895FF92F82E26970E9484110E94AE
:101E50001411309719F4EFEFFFEF23C0DE0116964F
:101E60000E9425118D010E941411EE83FF83E0E092
:101E7000E887E987DE011A960E9425110E944A111F
:101E8000FA93EA931A930A93E4EBFDE0FA93EA9348
:101E9000DE011A96A3DE9F01AE81BF81E0E0EC93E4
:101EA000F9010E948B112A96FF900895AA93E88168
:101EB000F0E0E059FD4FA491E9810E942D11229696
:101EC0000895AA931A93E981E73011F0EA3019F4E2
:101ED00010916C0609C0E93019F410916D0604C028
:101EE000E830A1F410917C06E0916D06E03049F0F5
:101EF000103019F0EFEF188129C0EA81E0951881C0
:101F000025C0103019F4E0E0188120C0EA81188162
:101F10001DC0BA93AA93EA81E13021F4E881F981E6
:101F2000E49114C0E23029F4A881B9810E946111C2
:101F30000DC0E33041F4A881B981E0918506F091AC
:101F40008606099503C0A881B981EC91239608956E
:101F5000AA93EB81E03029F4E881A981BA81EC935E
:101F600014C0E23031F4E881A981BA810E946D1178
:101F70000CC0E33051F4E981FA81FA93EA93AA8123
:101F8000E0918706F0918806099524960895ED91D1
:101F9000FD913196FE93EE9308958DE08A95F1F7C9
:101FA000E981EE0FE983DC9A8DE08A95F1F7E0E0B4
:101FB000CD99E1E0A981EA2BE983DC980895AA9301
:101FC000DA98E981E062AE2F0895DA9A8BE18A957A
:101FD000F1F708950E94E603A8810C94E6030E949D
:101FE0003004E0E1EA930895EA93AFE00C941A0418
:101FF000F0E0ED93FC930C94F903BA93AA93A881B3
:10200000B98108950E941409E0E0EA93A0E00C94DD
:10201000B20CA0EDB7E00C94880CA21BB30BEEA59C
:10202000FFA5EA17FB070895E0EDF7E0FA93EA93BE
:102030000895E3E9F6E0FA93EA930895DE01A05CDF
:10204000BF4F0D90BC91A02DEC9108950E94B30458
:10205000ACE2B1E00C941B11FA93EA93A2E0B0E079
:102060000E94DA04A0E0B0E00C94C804FA93EA936A
:10207000AAE0B0E00C94DA04FA93EA93DE015A96EF
:102080000E94FF07D6CFDE015A960E94B107DE01FB
:1020900058960C94CF07EA93E0E3EA93AFE00E94EE
:1020A000BE0CE0E0EA930895EA93E4E5EA93A0E346
:1020B0000E94BE0CE0E0EA9308950E94880CE4E0E0
:1020C000EA9308950E94B20CAFCF0E943D110E9486
:1020D0005C1184E00E94220F28969BCFAAE4B9E00D
:1020E00056CFEA0FFB1FEE83FF830895EC85EA933A
:1020F000EF81F8853196EF83F8873197FA93EA9369
:10210000A0E00C94A80F0A93A8890C944F08EC85C2
:10211000EA93EF81F8853196EF83F8873197089538
:1021200066277727DF01CB010C94890F5A93AA8584
:102130000C94610F0A930395E889EA935A930895E2
:102140005E2FEC85EA93AF81B885882799270E9496
:10215000890F1E2E08950A930395E889EA93EE8568
:10216000EA93E985FA853196E987FA873197D8CFDE
:102170000E948211E0917006F09171060895F801B5
:102180000F5F1F4F04900895E0917006F091710663
:102190003196E4910895EA93E0E0EA93E0E0F0E01C
:1021A000FA93EA93A9E00C948D09AE81AF5FAE83F8
:1021B000A150E0917406AE1708953A93AA850C9445
:1021C000980CA985BA85EA0FFB1FE987FA8708955D
:1021D000E985FA85EA1BFB0BE987FA8708952A93BC
:1021E000AD85BE85EF85F88909950895E889F98957
:1021F0003497E88BF98B0895AD85BE85EF85F88916
:1022000009950895A889B98914960E944A11EE8308
:10221000FF83AE81BF810895A889B98914960E9471
:102220004A11EA87FB870895DE011C960E9425115A
:102230000E944A110895109639F080ED97E00197B9
:10224000F1F7A8951197C9F708950024AF0DB01DB7
:102250000895F195E195F0400895EE230E2EEA2FB2
:1022600019F0EE0F0A94E9F70895EE230E2EEA2FE7
:1022700019F0E6950A94E9F708956F2F660F660B3B
:10228000762F0895FA9FF02DEB9FF00DEA9FE02D39
:10229000F10D0895ED91FC9111970895ED91FD9147
:1022A0006D917D9108957E936E93FE93EE930895C4
:1022B0000590F491E02D08957A936A93FA93EA9346
:1022C0000895E199FECFFF93FFB7F894AEBBBFBB73
:1022D000E09AEDB3FFBFFF910895E19B02C0A8957E
:1022E000FCCF9FB7F894AEBBBFBBE09A8DB3E817A5
:1022F00019F0EDBBE29AE19A9FBF089500240A16F7
:102300000B0608955A934A933A932A931A930A9381
:1023100008955D814C813B812A811981088108954E
:00000001FF
