:0A0000000C9461020C9400000C94B3
:10000A0000000C9400000C9400000C9400000C9466
:10001A0000000C9400000C9400000C9400000C9456
:10002A0000000C9400000C9400000C9400000C9446
:10003A0000000C9400000C9486050C9400000C94AB
:10004A0091020C9400000C946F030C9400000C9421
:10005A0000000C9400000C9400000C9400000C9416
:10006A0000000C9400000C9400000C9400000C9406
:10007A00B4030C9400000C94DF030C9400000C945D
:10008A00000005072060000000000000005F00007B
:10009A000007000700147F147F14242A7F2A1223E2
:1000AA001308646236495522500005030000001CFB
:1000BA002241000041221C00082A1C2A0808083E86
:1000CA00080800503000000808080808003030000E
:1000DA000020100804023E5149453E00427F40007C
:1000EA0042615149462141454B311814127F10276C
:1000FA00454545393C4A49493001710905033649A4
:10010A00494936064949291E003636000000563646
:10011A000000000814224114141414144122140873
:10012A00000201510906324979413E7E1111117EC0
:10013A007F494949363E414141227F4141221C7F44
:10014A00494949417F090901013E414151327F082C
:10015A0008087F00417F41002040413F017F081489
:10016A0022417F404040407F0204027F7F04081002
:10017A007F3E4141413E7F090909063E4151215EC8
:10018A007F09192946464949493101017F01013F41
:10019A004040403F1F2040201F7F2018207F6314CB
:1001AA000814630304780403615149454300007F3E
:1001BA004141020408102041417F0000040201026B
:1001CA000440404040400001020400205454547846
:1001DA007F484444383844444420384444487F38AB
:1001EA0054545418087E090102081454543C7F08D8
:1001FA0004047800447D40002040443D00007F1004
:10020A00284400417F40007C041804787C080404D8
:10021A007838444444387C14141408081414187C9C
:10022A007C080404084854545420043F4440203CA9
:10023A004040207C1C2040201C3C4030403C44284C
:10024A001028440C5050503C4464544C4400083626
:10025A00410000007F00000041360800020102044C
:10026A00027F4141417F000103070F1F3F7FFF00CB
:10027A001027E80364000A000100001000011000C2
:10028A000100000000000000000000000000FFFF65
:10029A00A100A200A300A400474554202F75706452
:1002AA006174653F6B65793D00004E6F64653A2065
:1002BA000054656D703A200048756D69643A2000F3
:1002CA0057617465723A20006D6D004552524F5263
:1002DA000041542B43574D4F44453D310D0A004FC1
:1002EA004B00636F6E666967206661696C004154F2
:1002FA002B43574A41503D22546861795F546861E3
:10030A006F5F64656F5F67696169222C2263686940
:10031A006E68786163220D0A00636F6E6E6563749E
:10032A00206661696C00636F6E6E6563742077691D
:10033A00666920737563636573730041542B43497F
:10034A00504D55583D310041542B43495053544167
:10035A0052543D302C22544350222C226170692E73
:10036A007468696E67737065616B2E636F6D222C9A
:10037A00383000266669656C64313D002666696519
:10038A006C64323D00266669656C64333D004154F5
:10039A002B43495053454E443D302C003E200053D8
:1003AA00656E64696E6700446F6E650061616161C4
:1003BA0000256420002564202000365A463159421F
:1003CA0038415849534253413250000001002D4EE2
:1003DA00414E00494E460000010002008C020A000C
:1003EA0004008E02010031099A02010032099C02BE
:1003FA00010033099E0201003409A002070000052A
:10040A00B40207000705BB0208000E05C202080075
:10041A001605CA0203001E05D20206002105D502EE
:10042A000E002705DB0203003505E9020C0038053A
:10043A00EC022B004405F80203006F05E9020D00E7
:10044A007205230315007F0530030C00940545034C
:10045A000300A005E6020300A305E9022C00A60595
:10046A0051030300D205E6020300D505E90209009B
:10047A00D8057D030900E10586030900EA058F0313
:10048A000E00F305980303000106E60203000406C2
:10049A00A60308000706A90303000F06E6020500E3
:1004AA001206B10305001706B60311001C06C403A1
:1004BA0001005D0BD6030000F894EE27ECBBF1E0D7
:1004CA00F5BFE5BFE0936C008DE0A2E0BB27ED939A
:1004DA008A95E9F780E090E1A0E0B1E0ED93019719
:1004EA00E9F7E2EEF3E085919591009761F0A59125
:1004FA00B59105901590BF01F00105900D920197F5
:10050A00E1F7FB01F0CF8BBFEFEFEDBFE0E1EEBF0C
:10051A00C0E0D5E00C9465070A921A92AA93BA939E
:10052A00EA93FA93EFB7EA930E94CA1230E01BB13A
:10053A000CB1E12FEC71E9F4E0916408EF5FE0930C
:10054A006408E150F0E0EC5DF74F0083A091640885
:10055A00A03419F4E0E0E0936408A0916608AF5F64
:10056A00A0936608A03429F4E0E0E0936608689452
:10057A0020F8F201E65BF94F00830D3519F4E1E04A
:10058A00E09320080E94A110A934C1F4F201319726
:10059A00E65BF94FA081A43589F4F2013297E65B54
:1005AA00F94FA081AD3451F4F2013397E65BF94F6C
:1005BA00A081A33419F4E1E0DE2ECC240E94A1101C
:1005CA00AD3509F055C0F20132974F01AA24BB2478
:1005DA0000248014900424F4F401E453FE4F4F01E4
:1005EA00D501AA5EB74FF401EA19FB09E65BF94F98
:1005FA00E081EC93F50131965F01F401EA19FB09F8
:10060A00E65BF94FA081A23219F7303089F5AAE4E6
:10061A00B6E0A80DB91DAC91A93631F4F401E55B39
:10062A00F94FA081A43609F01FC0AA24BB24F40103
:10063A0034964F01AAE4B6E0A80DB91DAC91AC32CC
:10064A0091F0F501E45EF74F0F01AAE4B6E0A80DB8
:10065A00B91DEC91D001EC93F40131964F01F501EB
:10066A0031965F01E7CF31E0F40131974F01CDCFE9
:10067A000E94A110A536C1F4F2013197E65BF94F49
:10068A00A081A43689F4F2013297E65BF94FA08182
:10069A00A13651F4F2013397E65BF94FA081A536F2
:1006AA0019F4E1E0E0932108F20131962F01ECEC14
:1006BA00F1E0E415F50514F4442455240E94D112FE
:1006CA002496E991EFBFF991E991B991A99119900D
:1006DA00099018950E94A710E091A908E030A9F0A6
:1006EA00E150E093A908E091A808EF5FE093A80819
:1006FA00E150F0E0E959F74FE081ECB9A091A80880
:10070A00A03419F4E0E0E093A80870C0AA93A0917D
:10071A00A908A034E1F3F894E091A908E03011F4B3
:10072A005D9918C0E091A708EF5FE093A708E15030
:10073A00F0E0E959F74FA881A083A091A708A03457
:10074A0019F4E0E0E093A708E091A908EF5FE093CD
:10075A00A90802C0E881ECB978940C946E090E9449
:10076A00A7101A930A9310919B0000919C00E12F05
:10077A00EC71E9F4E091EA08EF5FE093EA08E150EE
:10078A00F0E0E655F74F0083A091EA08A03419F487
:10079A00E0E0E093EA08A091EC08AF5FA093EC08D0
:1007AA00A03429F4E0E0E093EC08689421F8099178
:1007BA0019911CC00E94A710E0912F09E030B1F0F6
:1007CA00E150E0932F09E0912E09EF5FE0932E09A3
:1007DA00E150F0E0E351F74FE081E0939C00A091F3
:1007EA002E09A03419F4E0E0E0932E09E991EFBF55
:1007FA00F991E991A9911895AA93A0912F09A0348A
:10080A00E1F3F894E0912F09E03021F4E0919B00A4
:10081A00E072C1F4E0912D09EF5FE0932D09E150F8
:10082A00F0E0E351F74FA881A083A0912D09A034ED
:10083A0019F4E0E0E0932D09E0912F09EF5FE093CE
:10084A002F0903C0E881E0939C0078940C946E0908
:10085A008BE18A95F1F7E0E0EA93AFE124D0A2E0D8
:10086A00B0E00E946112E7E0EA93AEE71CD0EDE146
:10087A00EA93A4E018D0E5E0EA93A2E014D0089540
:10088A00AA931A9310E0183050F4E981E07811F431
:10089A00D99801C0D99A0E94AD101F5FF4CFE9819F
:1008AA0018810C94DB080E94BF10EADFE0935B0911
:1008BA00A881E6DF0E94C510E0915B090C94DB0871
:1008CA00AA931A9310E0183050F4E981E07811F4F1
:1008DA00D99801C0D99A0E94AD101F5FF4CFE9815F
:1008EA0018810C94DB081A930A9310E000E0083090
:1008FA0078F48DE08A95F1F7110FDC9A8DE08A95EC
:10090A00F1F7E0E0CD99E1E01E2BDC980F5FEFCF25
:10091A00E12F099119910895DB9A88E795E00197EB
:10092A00F1F7DB98DA9A08950E94BF100E94CA1064
:10093A000E94C5100C94DB080E94BF100E94CA10C6
:10094A00A8810E94CA10A8810E94CA100E94C510DC
:10095A000C94DB080E94BF100E94CF100E94CF1097
:10096A000E94CF100E94CF100E94CA100E94C51088
:10097A000C94DB08AA93DA98A881A2DF0E94C5101A
:10098A000C946E09AA93DA98E3E0EA93A3E0CCDF29
:10099A000E94C510DA98EAE0EA93AC81CDDFE0E183
:1009AA00EA93AC81C9DFEBE0EA93AB810E94D410F1
:1009BA00AB81D0DFECE0EA93AA810E94D410AA812D
:1009CA00C9DFEDE0EA93A9810E94D410A981C2DFB0
:1009DA000C948C09E0E0EA93AFE1A6DFDB9A089574
:1009EA00ECE10E94D910E0913109EA93E0913209D1
:1009FA00EA93E0913309EA93A0913409C3DFE2E074
:100A0A000E94D910E1E00E94D9100895DB980E9453
:100A1A00C510DA98A1E654DF8BE18A95F1F763DF16
:100A2A00F0E0E0933509F09336095DDFA7E3B9E01A
:100A3A000E94DD10A9E3B9E00E94DD10ABE3B9E042
:100A4A000E94DD10ADE3B9E00E94DD10AFE3B9E02A
:100A5A00F0E0ED93FC93DA9ADB9AE7E0EA93AEE7EB
:100A6A0063DFA2EE87DF0895E0E3EA93E0E00E9405
:100A7A00E210EFE00E94E210E0E0EA93E4E5EA9394
:100A8A00A0E00E941A0DE4E5EA93E0E00E94EB1070
:100A9A00E0E30E94EB10E0E0EA93EA93A0E30E940D
:100AAA001A0DE3E0EA93A3E00E940D0DA0E0B5E081
:100ABA000E94F410A2E10E940D0DA7E0B5E00E9489
:100ACA00F410ACE10E940D0DAEE0B5E00E94F41006
:100ADA00A5E20E940D0DA6E1B5E00E94E10CE3E457
:100AEA00EA93ACE10E940D0DA5E20E947F0CE3E4BB
:100AFA00EA93A5E20E940D0DAEE1B5E00E94E10C79
:100B0A0008956A937A938A939A93AA93BA93EA93E3
:100B1A00FA93EFB7EA93E3E8E2BFA0916209A13042
:100B2A0051F4AEE5B9E00E949412EF5FFF4F6F4FA8
:100B3A007F4F0E949912A0915E09B0915F0980913E
:100B4A00600990916109A031E7E2BE07E0E08E07F3
:100B5A00E0E09E07B1F4E0E0E09362090E94F91038
:100B6A00E0E0E0935E09E0935F09E0936009E093B7
:100B7A006109A0915C09B0915D09159711F40E9471
:100B8A000111E991EFBFF991E991B991A99199916F
:100B9A008991799169911895BA93AA93A881B98193
:100BAA00EC91E03041F0E0E0EC93E881F981319694
:100BBA00E883F983F3CF0C94DB08BA93AA93A8814C
:100BCA00B981EC91E03061F0AC9116DEA2E3B0E0BD
:100BDA000E946112E881F9813196E883F983EFCFA7
:100BEA000C94DB08BA93AA930E9408110E940F1171
:100BFA00AAE4B6E0D1DF44245524A881B9810E9431
:100C0A0061120C94DB08BA93AA93A8970E94C8129F
:100C1A0000E010E0DE015A96BFDFA8A9B9A9EC915D
:100C2A00E03001F1F801DE015A96EA0FFB1F0F01CD
:100C3A00A8A9B9A9EC91D001EC93F801DE011696A6
:100C4A00EA0FFB1F0F01DE015A96A00FB11FEC91AC
:100C5A00D001EC93E8A9F9A93196E8ABF9AB0F5F9B
:100C6A001F4FDBCF2091220830912308A091220840
:100C7A00B0912308A217B3075CF4E0912208F0911F
:100C8A002308FC96AF01DA010E9413111CF107C078
:100C9A00A0912208B09123080E941311DCF00E944F
:100CAA001A11DE015C960E941A10309741F40E94D4
:100CBA001A11DE0118960E941A10309711F0E1E01D
:100CCA000AC00E941A11A1E2B5E00E941A103097D8
:100CDA0009F4CCCFE0E00E94CF12E2960895A7E291
:100CEA00B5E06BDFE5E3F5E00E941F11E03029F47F
:100CFA000E940811A8E3B5E012C00E942511A4E4DD
:100D0A00B5E05BDFEFE6F5E0FA93EA93AAE0B0E03C
:100D1A007ADFE03041F40E940811A2E7B5E00E94B0
:100D2A00E10CE0E008950E940811AFE7B5E00E94E7
:100D3A00E10C0E9429110E942511E1E00895BA935D
:100D4A00AA93EF972E9781E1A8E2B0E0E2EAF2E0F7
:100D5A000E94D6120E94CA1200E010E020E030E0A1
:100D6A000E942D11E030F9F0F901DE011496EA0F24
:100D7A00FB1FBF010E942D11DB01EC93F901DE017B
:100D8A00DD96EA0FFB1F0F01DE011496A20FB31FB7
:100D9A00EC91D001EC93DE01AF5ABF4F0E9435119E
:100DAA002F5F3F4FDDCFA4E9B5E00E943B11A0EAD7
:100DBA00B5E003DFE3EAF5E00E941F110E94251166
:100DCA00A6EAB5E00E943B11A2EDB5E0F6DEE5ED3C
:100DDA00F5E0FA93EA93A4E1B0E015DFA0EDB7E0FD
:100DEA0001DF0E9408110E944111DE0116960E943D
:100DFA004611A8EDB5E00E94F00FE0913B09F09191
:100E0A003C090E944911DE015A960E944611A1EE40
:100E1A00B5E00E94F00FE0913909F0913A090E9479
:100E2A004911DE015A960E944611AAEEB5E00E94C7
:100E3A00F00FE0913F09F09140090E944911DE014B
:100E4A005A960E94F00FDE019C960E9401108F01B3
:100E5A000E5F1F4F1A930A93DE015A960E94B20F31
:100E6A00AAE4B6E099DEA3EFB5E0A7DEDE01589664
:100E7A00A4DE0E942911A1E0B6E09FDEE4E0F6E0DC
:100E8A00FA93EA93A5E0B0E0BEDE0E940811A7E05B
:100E9A00B6E00E94E10CDE019C968FDEAFE0B6E080
:100EAA008CDE0E942911AAE131DC0E942511A2E1FF
:100EBA00B6E00E94E10C0E94D112EF966496089562
:100ECA002897EEE5EABBEFE3EBBBE0E0E7BBE8BB64
:100EDA00E4BBE5BBE1BBE2BBE2B9E3B9E093610085
:100EEA00E0936200E0936400E0936500E0BFE3E012
:100EFA00E3BFE3E8E2BFE0E0E1BFEFBDEEBDEDBD79
:100F0A00ECBDE7BDE6BDEBBDEABDE9BDE8BDE093DA
:100F1A007900E0937800E5BDE4BDE3BDE0938B0082
:100F2A00E0938A00E0938900E0938800E0938100CF
:100F3A00E0938000E0938700E0938600E0938500C9
:100F4A00E0938400E0938300E0938200E1E0E7BF4E
:100F5A00E0E0E0937D00E0936A00EABFE9BFEBB905
:100F6A00E8EDEAB9E6E0E0939500E0E0E09390006E
:100F7A00E3E3E9B9E0E0E0939B00E8EDE0939A004F
:100F8A00E6E0E0939D00E0E0E0939800E3E3E0937D
:100F9A009900E0E8E8B9E0E0E0BDE6B9EDB9E09330
:100FAA0074000E941012E3E0EA93E1E0EA93A0E001
:100FBA008DD0ECE8F0E0E883F983E0E0EA83EB83A4
:100FCA00EC83ED83EE81EC7FEE83E37EEC60EE83CF
:100FDA00EF81E078E863EF83DE01F4D07894E0E013
:100FEA00EA93A0E00E940D0DA7E1B6E00E94E10C91
:100FFA0076DEE030E9F390DC2BDCF2DC0E940111B2
:10100A00E9DCC89961C002DDE0915C09F0915D09F3
:10101A00A0913509B0913609EA17FB0709F054C0C7
:10102A0023DDE8E2EA93A3E00E940D0DE091350981
:10103A00F0913609FA93EA93AAE4B6E00E94B20F55
:10104A000E940F11EEE2EA93A2E10E945011EBEB2B
:10105A00F3E0FA93EA93E0913B09F0913C090E948C
:10106A005311EEE2EA93ACE10E945011EBEBF3E08C
:10107A00FA93EA93E0913909F0913A090E945311DF
:10108A00EEE2EA93A5E20E945011EFEBF3E0FA9345
:10109A00EA93E0913F09F09140090E945311ACE1B3
:1010AA00B6E04DDEA4E6B0E00E94611214D10E94BF
:1010BA00F910A0915C09B0915D09159711F40E948D
:1010CA000111E1E0E09362099BCFFFCFAA93EA8185
:1010DA00E370EA83E981E03019F0EA81E061EA83AA
:1010EA00E881E03019F0EA81E068EA830E9415128B
:1010FA00A0ED0E944912A7E00E944912AA810E940B
:10110A0049120E94241237C00895AA931A93AD98DF
:10111A0018E0FADFE981E07811F0AF9A01C0AF98E0
:10112A00E981EE0FE983F0DFDF9AEEDFDF981150F5
:10113A0081F7AD9A18813AC0AA93AE98A881E5DFE3
:10114A00C8C0AA93AE9AA881E0DFC3C0AA931A9333
:10115A00E981E695E695E6951E2FE4E5E19FF00123
:10116A00DF01EA81F0E0EA0FFB1FE0936309F093E5
:10117A006409E12F188123960895AA93E981E0680A
:10118A00AE2FDADFE981EA93A981E0DFE064AE2FCE
:10119A00D3DF0CC0AA93E981EA93A981EEDFE0913B
:1011AA006309F0916409EB59F64FE081229608959C
:1011BA00AA930E945C113197EB59F64FA881A0833C
:1011CA00C0DF87C0BA93AA930E94CA12A59AAD9AA1
:1011DA00D79ADF98A79AA69AA49AAC98AAE0B0E000
:1011EA000E946112AC9AEC81FD81309721F1E6816F
:1011FA00E3701E2FEC81FD81E681E695E695E770A6
:10120A000E2FEC81FD81E781EF773E2FAC81BD8106
:10121A000E949012E0933106F093320612960E94D1
:10122A009012E0934606F0934706AC81BD8114966E
:10123A000E9490120DC010E003E032E3E0E0F0E01B
:10124A00E0933106F0933206E0934606F0934706A0
:10125A00E0934806F0934906A1E26EDFE12FE460CD
:10126A00AE2F6ADFE02FE061AE2F66DFE32FE06882
:10127A00AE2F62DFA0E260DFA1E022D0E1E0E093DE
:10128A002D06E0E0E0932E06E1E0E0933306E093DA
:10129A003406E0933506EFEFE0933606E1E0E0939B
:1012AA003D06EEE3F6E0FA93EA93EFEFEA93A8E05D
:1012BA00B0E00E94E00F0FD0E1E00E94D11283C09B
:1012CA00AA93E881E03011F0ECE001C0E8E0AE2F2B
:1012DA0033DF219608950E94CA1230E0E0912E066B
:1012EA00E03009F03FEFE0E0EA93A0E046DF08EFE4
:1012FA0011E0F80101501040309719F0A32F58DF80
:10130A00F8CFE0E0EA93A0E083D30E94D1122496BA
:10131A000895AA931A930A93AC81A43518F4AB8161
:10132A00A03308F015C0EC81EA93AC8133DF1E2F9D
:10133A00EB81E770A1E00E9473120E2FEA81E03080
:10134A0011F0102B03C0E02FE0951E23A12F30DFF0
:10135A001981088125960895AA931A93ED81EA9333
:10136A00AD8118DF1E2FE981E73011F0E83039F43A
:10137A00EB81EA93AA810E943B10EB8308C0E33019
:10138A0021F4EB81E095EB8302C0E03021F4EA819D
:10139A00E0951E2302C0E23029F4EA81AB81EA23F8
:1013AA001E2B0EC0E13029F4EA81AB81EA231E2705
:1013BA0007C0E43029F4EA81E095AB81EA2B1E23C9
:1013CA00A12FF6DE188126960895AA9323970E94E4
:1013DA00C812A889A43548F4AF85A03330F4AE8585
:1013EA00A03019F0AD85A03009F4D5C1EE85E887A3
:1013FA00A889BB27EE85F0E0AE0FBF1FA535E0E058
:10140A00BE0720F0A889E4E5EA1BEE872D85AF85A3
:10141A00BB27ED85F0E0AE0FBF1FD19720F0AF8557
:10142A00E0E3EA1BED87A985A63009F05BC0EC85ED
:10143A00E13009F4B0C1E33039F4E0914806F091A3
:10144A004906309709F4A7C10885ED85E695E69522
:10145A00E6953E2FE22FE77019F4AD852A17E9F0D9
:10146A00A02FBB27E32FF0E00E948812AA85BB8534
:10147A000E945F11269526952695532F5F935F5FED
:10148A00E22FAF91EA1748F0102FE12F1150E03008
:10149A0019F00E946411F9CFF1CFAE850A1711F144
:1014AA00EE85AA85BB85F0E00E945F11ED85E770A5
:1014BA0009F03F5F20E02F932F5FE32FAF91AE1724
:1014CA0088F41E851F931F5FE02FAF91AE1718F4A3
:1014DA000E946411F7CFEE85AE81BF81F0E00E94D1
:1014EA005F11E9CFEF85E7703E2FED85E03009F413
:1014FA0052C1EA85FB85EE83FF8310E0088930300C
:10150A0009F066C0AD85A83008F45DC0E985E03011
:10151A0011F0E33009F402C0E73009F402C0E83000
:10152A0009F402C0E93009F402C0EA3021F40A934E
:10153A00A88923DE04C0E63011F40E9471111F93BA
:10154A001F5FEE85AF91AE17B8F5A985A63069F48D
:10155A000E947511FA93EA930E945C113197EB5934
:10156A00F64FA0810E94821026C0E985E93011F465
:10157A0050E00EC0EA3011F45FEF0AC00E94751104
:10158A000E947E115E2FE985E73011F0E83021F4E0
:10159A000E9484115E2F06C0E33011F4509502C0F8
:1015AA00E03019F4A52FCDDD06C00E948811EFEFB7
:1015BA00EA93AD85D1DEC3CFEF85E85FEF87ED858E
:1015CA00E850ED87DFC05D8520E0E0E0ED8781C06F
:1015DA00E32FAD85AE0FA93020F42D85E0E0ED872D
:1015EA0003C0E8E0E31B2E2F3A93A22F0E9430108B
:1015FA004E2FE985E63029F50E9471111F931F5F6E
:10160A00EE85AF91AE17E0F40E945C113197EB5969
:10161A00F64FE081E423AE2FE32F0E947B120E9453
:10162A008E11E32FA42F0E947B12E095E1215E2BFD
:10163A000E947511FA93EA93A52F0E948210DECFB9
:10164A002CC0E93011F450E003C0EA30A9F45FEF8E
:10165A000E948411AE2FE32F0E9473125E2F1F93F4
:10166A001F5FEE85AF91AE1730F40E9488114A933E
:10167A00A0E072DEF4CF11C01F931F5FEE85AF9119
:10168A00AE1758F40E949911AE2FE32F0E947312DD
:10169A00EA934A93AD8560DEEFCFED85E03009F439
:1016AA007AC0AD85A83028F4ED85E21B5E2FE0E014
:1016BA0003C0532FED85E850ED8710E0EF85E85F12
:1016CA00EF87E8E0E31B2E2F0889EA85FB85EE8386
:1016DA00FF83E52FF0E0E059FD4F4491E985E630BC
:1016EA0029F50E9471111F931F5FEE85AF91AE1706
:1016FA00E0F40E945C113197EB59F64FE081E42344
:10170A00AE2FE22F0E9473120E948E11E22FA42F95
:10171A000E947312E095E1215E2B0E947511FA93E3
:10172A00EA93A52F0E948210DECF2CC0E93011F473
:10173A0050E003C0EA30A9F45FEF0E948411AE2F93
:10174A00E22F0E947B125E2F1F931F5FEE85AF91DF
:10175A00AE1730F40E9488114A93A0E0FDDDF4CF61
:10176A0011C01F931F5FEE85AF91AE1758F40E9408
:10177A009911AE2FE22F0E947B12EA934A93AD850C
:10178A00EBDDEFCFE885AA85BB85F0E0EA0FFB1F0A
:10179A00EA87FB87AACE0E94CF12619608950E941B
:1017AA00A61124F0E0E0F0E00C943910A881B98188
:1017BA00A435E0E0BE0724F0E3E5F0E00C9439102C
:1017CA00E881F9810C9439100E94A61124F0E0E016
:1017DA00F0E00C943910A881B981D09724F0EFE297
:1017EA00F0E00C943910E881F9810C943910BA931D
:1017FA00AA9323970E94AD118F01002E012A19F492
:10180A00E0E0F0E05FC00E94B4110F820E94B411C0
:10181A000E820E94B4110886EB85A885EA1718F48F
:10182A00E0E0F0E04FC0F8010F5F1F4F5491A88528
:10183A00BB27EE27A50FBE1FEB85F0E0EA17FB07D3
:10184A0018F0E0E0F0E03EC0EE81E695E695E69518
:10185A004E2FEE81E77009F04F5FEF81E030A1F083
:10186A00A985BA85EC93A885EB85EA1BF0E0DF0130
:10187A00EF81F0E00E948812DF01E42FF0E00E947D
:10188A008812E00FF11F1EC09801E52FF0E00E0F3D
:10189A001F1FA885AF5FA887A150EB85AE1760F41C
:1018AA00F9012F5F3F4FA491B0E0E42FF0E00E94CE
:1018BA0088120E0F1F1FEDCFF901E491A985BA8591
:1018CA00EC93F8010E94CF122C960895E0E0E09381
:1018DA002F06A0913006BB270E94B911F0E0AE0F87
:1018EA00BF1FE0913406F0E0AE0FBF1F6DDFE0933B
:1018FA0030060895AA9321970E94AD11309709F4F2
:10190A0055C0AF81AA3009F44FC0EF81EA93DE01D6
:10191A0017966DDFAF01309709F44AC0E09133069C
:10192A00AE81EA0F3E2FA0912F06BB27F0E0EA0F07
:10193A00FB1F8F010535E0E01E0718F0032F112762
:10194A00C5DFE0912F06EA93E0913006EA93E88535
:10195A00EA930E94B911EA93E1E0EA935A934A930F
:10196A00A7E033DDE0912F06AE81EA0FEA93E0911A
:10197A003006EA93E0913306EA930E94B9110E9475
:10198A00C011E0912F06EA93A09130060E94B91186
:10199A00EA0FEA933A93E09134060E94C011E4E513
:1019AA00F0E0E017F10711F491DF02C000932F066F
:1019BA000E94CF1228960895BA93AA931A93A981DE
:1019CA00BA81ED91A983BA831E2FE03019F0A12FB5
:1019DA0091DFF5CF18810C948010AA93EA81EA93DB
:1019EA00EA81EA93E0913606AA81EA2319F0E091A6
:1019FA002D0602C0E0912E06AE2F8BDCE881EE0F99
:101A0A00E883E03011F4E1E0E883E8810C94801087
:101A1A00AA93A981BB27C3DEE0932F06A881BB271F
:101A2A00D3DEE09330060C943910AA932B970E94C8
:101A3A00C812AC89BB27B3DEEC8BAA89BB27AFDE01
:101A4A00EA8BAB89BB27C0DEEB8BA989BB27BCDE3F
:101A5A00E98BEA89E0932F06E989E0933006E1E011
:101A6A00E887E989AB89EA1771F51C89AA891A17E7
:101A7A0031F41A93EC89EA93A1E0AFDFC8C0AA89CE
:101A8A001A1730F4EA89E11B0E2F41E050E006C034
:101A9A00AA89E12FEA1B0E2F4FEF5FEF3B89E0E0A7
:101AAA00EE830E94CA1138F41A933A933395AA85A1
:101ABA0094DFEF83F6CFEF81E887140FE02F015010
:101ACA00E03061F7A4C0EA89AC89EA1739F53B89A5
:101ADA00A9893A1730F4E989E31B2E2FE1E0F0E0F7
:101AEA0006C0A989E32FEA1B2E2FEFEFFFEFED8740
:101AFA00FE871C89E0E0EE830E94CA1130F41A9333
:101B0A0013950E94D211EF83F7CFEF81E887ED8515
:101B1A003E0FE22F2150E03061F779C0E0E0EE831A
:101B2A000E94CA1108F073C01C893B89E1E02E2F7C
:101B3A000E2FAA89BB27EC89F0E0AE1BBF0BAD01C3
:101B4A0055232AF40FEFFA010E946F12AF01FA012E
:101B5A00EE0FFF1FEF87F88BA989BB27EB89F0E00F
:101B6A00AE1BBF0BAD87BE87AE85AA233AF42FEF13
:101B7A00ED85FE850E946F12ED87FE87ED85FE8555
:101B8A00EE0FFF1FEB87FC871A933A93A1E025DF3C
:101B9A00E887E0E0E987EA87AD85BE854A175B07F3
:101BAA00BCF0100FEB85FC850E94D611A985BA8579
:101BBA004A175B072CF4320FAF85B8890E94DD11F2
:101BCA001A930E94D211E887EA89E11751F718C0DF
:101BDA00320FEF85F8890E94D611ED85FE85A98519
:101BEA00BA85EA17FB072CF4100FAB85BC850E9457
:101BFA00DD111A930E94D211E887E989E31741F7A8
:101C0A00EB89EF5FEB8BE989EF5FE98B89CF0E9464
:101C1A00CF1265960895BA93AA931A930A93AA8142
:101C2A00BB8112960E949012309729F1AA81BB813A
:101C3A0014960E9490128F01309761F00230E0E012
:101C4A001E0780F0F80131978F01AA81BB81149693
:101C5A00ED93FC93AA81BB8112960E9435113197AC
:101C6A00AC81A083AA81BB810E949012FF2312F04B
:101C7A000E94351106C0AA81BB81EFEFFFEFED93F9
:101C8A00FC93198108810C94EE0FBA93AA932697B4
:101C9A000E94C81210E0AC85BD85E0E0F0E0ED934B
:101CAA00FC93EA89FB893196EA8BFB8B3197E491A5
:101CBA002E2FE03009F415C1E12FE03039F4253236
:101CCA0011F411E002C00E94E4110AC1E130A9F442
:101CDA00253219F40E94E41102C112E040E000E04A
:101CEA002D3211F401E0FCC02B3211F44BE2F8C0A2
:101CFA00203211F440E2F4C002C0E23039F450E07C
:101D0A0013E0203311F40068EBC003C0E33009F09C
:101D1A00E7C0203310F02A3308F007C0AAE05A9F20
:101D2A00502DE22FE0535E0FDBC0E22FE33649F479
:101D3A000E94EB11E889F989A481AA930E94F11102
:101D4A00CEC0E33741F40E94EB110E94F7110E94C2
:101D5A0001101E2F0AC0E03761F40E94EB110E94A5
:101D6A00F7110E940D101E2F086002600F7730E0F5
:101D7A0034C0E43611F0E93611F4046002C0E537E4
:101D8A0031F4EAE7F2E0EE83FF8315E00CC0E835B0
:101D9A0011F4086003C0E83709F0A1C0E4E8F2E0F2
:101DAA00EE83FF8314E002FF14C00E94EB110E942D
:101DBA000112AB85AA233AF4EA85FB850E946F12C9
:101DCA00EA87FB874DE2403011F01F5F01C00B7FAD
:101DDA0004C00E94EB110E94011200FD11C01517E8
:101DEA0078F407FF08C002FF04C00B7F242F1150AC
:101DFA0001C020E301C020E20E94E4115150EFCF5C
:101E0A00312F01FF17C03030A1F003FF06C0EE8169
:101E1A00FF812591EE83FF8305C0AE81BF812D919D
:101E2A00AE83BF830E94E411503009F05150315003
:101E3A00EACF4BC020E3EE81FF810E949E12E88721
:101E4A00F987EE81FF813296EE83FF83E885F98573
:101E5A00AA85BB85AE17BF0750F02F5FA885B98545
:101E6A00EA85FB85EA1BFB0BEA87FB87EFCF2A3360
:101E7A0028F003FF02C0295F01C0295D04FD1AC0D2
:101E8A00213320F4A885B985119709F409C053179D
:101E9A0010F000FF01C013C020E207FF0BC020E3CF
:101EAA00006102FF07C00B7F4A930E94F111503074
:101EBA0009F051500E94E411503009F0515031504C
:101ECA00A885B985129708F0B5CF00FF08C0503031
:101EDA0031F05150E0E2EA930E94F111F8CF10E09C
:101EEA00E0CEAC85BD850E9490120E94CF12649606
:101EFA000895FF92F82E26970E94CA120E9409128C
:101F0A00309719F4EFEFFFEF23C0DE0116960E9417
:101F1A006B128D010E940912EE83FF83E0E0E887CD
:101F2A00E987DE011A960E946B120E949012FA93B8
:101F3A00EA931A930A93E0E1FEE0FA93EA93DE0148
:101F4A001A96A3DE9F01AE81BF81E0E0EC93F9010E
:101F5A000E94D1122A96FF900895BA93AA93A99142
:101F6A00B991E991F99130962AF4E095F095319674
:101F7A006DE26D93E89480E197E20DD088EE93E0EC
:101F8A000AD084E6992707D08AE005D06E2F10D0B0
:101F9A0066276C9308956627E817F90720F063957A
:101FAA00E81BF90BC9F7662311F416F00895689433
:101FBA00605D6D930895BA93AA93B981A88110962A
:101FCA0031F0FC81EB816A8161931197E9F7EB812A
:101FDA00FC8125960895BA93AA93E991F991A9915A
:101FEA00B991CD016D916623E9F7119761916D93CE
:101FFA006623E1F7FC010895BA93AA93A991B991CE
:10200A00EE27FF276D91662311F03196FBCF0895D5
:10201A00BA93AA93AA27BB27E991F99105900020C0
:10202A0011F01196FBCFFD010895BA93AA93AA81E4
:10203A00BB81CD01E881F9817191772311F4FC010B
:10204A0009C06D916717C1F30196DC01662391F708
:10205A00EE27FF276FC0AA93E881F0E0E059FD4F11
:10206A00A491E9810E94731222960895AA931A9361
:10207A00E981E73011F0EA3019F410912D0609C010
:10208A00E93019F410912E0604C0E830A1F4109139
:10209A003D06E0912E06E03049F0103019F0EFEFDE
:1020AA00188129C0EA81E095188125C0103019F4F9
:1020BA00E0E0188120C0EA8118811DC0BA93AA9372
:1020CA00EA81E13021F4E881F981E49114C0E23037
:1020DA0029F4A881B9810E94A7120DC0E33041F406
:1020EA00A881B981E0914606F0914706099503C097
:1020FA00A881B981EC9123960895AA93EB81E030E7
:10210A0029F4E881A981BA81EC9314C0E23031F450
:10211A00E881A981BA810E94B3120CC0E33051F45C
:10212A00E981FA81FA93EA93AA81E0914806F0914B
:10213A004906099524960895AAE4B6E0A40DB51DAA
:10214A00AC910895AA93EA93FA93EFB7EA930895A4
:10215A008DE08A95F1F7E981EE0FE983DC9A8DE04B
:10216A008A95F1F7E0E0CD99E1E0A981EA2BE983CC
:10217A00DC980895AA93DA98E981E062AE2F08956F
:10218A00DA9A8BE18A95F1F708950E946504A8818D
:10219A000C9465040E946504A091320908950E9476
:1021AA00AF04E0E1EA930895EA93AFE00C9499044E
:1021BA00F0E0ED93FC930C947804EA93E0E3EA935D
:1021CA00AFE00E941A0DE0E0EA930895EA93E4E58D
:1021DA00EA93A0E30E941A0DE0E0EA9308950E94B0
:1021EA00E10CE4E0EA930895ACE5B9E0ED91FD91E4
:1021FA003196FE93EE930895E1E0F0E0E0935C09F6
:10220A00F0935D0908950E947009E0E0EA93A0E066
:10221A000C940D0DAAE4B6E00C94E10CA21BB30BCE
:10222A00EEA5FFA5EA17FB070895EAE4F6E0FA939C
:10223A00EA930895FA93EA93A2E0B0E00C940806B0
:10224A00A0E0B0E00C94F705A8EEB3E00C9461129C
:10225A00DE01AF5ABF4F0D90BC91A02DEC910895AD
:10226A00ED91FD913196FE93EE9308950E94E20559
:10227A00ACE2B1E00C946112FE01BC96FA93EA93C7
:10228A0008950E94F00FF8CFFA93EA93DE015A9666
:10229A000E94B20FF1CF0E940D0DC7CF0E94831288
:1022AA000E94A21284E00E947E0F2896B3CFA3E672
:1022BA00B9E0D6CFEA0FFB1FEE83FF830895EC85C2
:1022CA00EA93EF81F8853196EF83F8873197FA938D
:1022DA00EA93A0E00C9482100A93A8890C94AB08A4
:1022EA00EC85EA93EF81F8853196EF83F887319789
:1022FA00089566277727DF01CB010C9463105A9360
:10230A00AA850C943B100A930395E889EA935A9399
:10231A0008955E2FEC85EA93AF81B88588279927BF
:10232A000E9463101E2E08950A930395E889EA9382
:10233A00EE85EA93E985FA853196E987FA87319736
:10234A00D8CFBA93AA93A881B9810E94C4120895DA
:10235A000E94C812E0913106F09132060895F80100
:10236A000F5F1F4F04900895E0913106F0913206F5
:10237A003196E4910895EA93E0E0EA93E0E0F0E030
:10238A00FA93EA93A9E00C94EA09AE81AF5FAE83AF
:10239A00A150E0913506AE1708953A93AA850C9498
:1023AA00F20CA985BA85EA0FFB1FE987FA87089517
:1023BA00E985FA85EA1BFB0BE987FA8708952A93D0
:1023CA00AD85BE85EF85F88909950895E889F9896B
:1023DA003497E88BF98B0895AD85BE85EF85F8892A
:1023EA0009950895A889B98914960E949012EE83D6
:1023FA00FF83AE81BF810895A889B98914960E9486
:10240A009012EA87FB870895DE011C960E946B12E0
:10241A000E949012089590989198889A899815C068
:10242A0089988898EE270000819B0895809B0895DB
:10243A0004D0899A02D0889AE1E06DE007C0899AAF
:10244A00889A03D08898F9DF89986BE16A95F1F741
:10245A00089578E08898F1DF809BFECFEEDF8894BC
:10246A0081990894889AF1DFEE1F7A9599F77A2F65
:10247A00772311F4899801C0899ADFDF8898E5DF0C
:10248A00889ADBDF8998D9CF78E0AA0F10F4899867
:10249A0001C0899ADADF8898D0DF809BFECFCDDF32
:1024AA00889A7A9591F78998C8DF8898CEDFE1E013
:1024BA008199EE27889AC1CF109639F080ED97E07E
:1024CA000197F1F7A8951197C9F708950024AF0D60
:1024DA00B01D0895F195E195F0400895EE230E2E72
:1024EA00EA2F19F0EE0F0A94E9F70895EE230E2E5B
:1024FA00EA2F19F0E6950A94E9F708956F2F660F07
:10250A00660B762F0895FA9FF02DEB9FF00DEA9F48
:10251A00E02DF10D0895ED91FC9111970895ED913B
:10252A00FD916D917D9108957E936E93FE93EE9346
:10253A0008950590F491E02D08957A936A93FA9399
:10254A00EA930895E199FECFFF93FFB7F894AEBBE3
:10255A00BFBBE09AEDB3FFBFFF910895E19B02C0B4
:10256A00A895FCCF9FB7F894AEBBBFBBE09A8DB3DA
:10257A00E81719F0EDBBE29AE19A9FBF089500248B
:10258A000A160B0608955A934A933A932A931A9372
:10259A000A9308955D814C813B812A8119810881C2
:1025AA000895AC0FBD1F05900D928A95E1F7089525
:00000001FF
