:040000000C948202D8
:100004000C9400000C9400000C9400000C9400006C
:100014000C9400000C9400000C9400000C9400005C
:100024000C9400000C941B030C9400000C9400002E
:100034000C9400000C9400000C9400000C944603F3
:100044000C9400000C94C3020C9400000C94F7026E
:100054000C9400000C9400000C9400000C9400001C
:100064000C9400000C9400000C9400000C9400000C
:100074000C9400000C9400000C9400000C940000FC
:100084000C9400000C9400000507206000000000A0
:100094000000005F00000007000700147F147F14B5
:1000A400242A7F2A122313086462364955225000F9
:1000B40005030000001C2241000041221C00082A04
:1000C4001C2A0808083E08080050300000080808E8
:1000D4000808003030000020100804023E51494551
:1000E4003E00427F400042615149462141454B3127
:1000F4001814127F1027454545393C4A49493001B7
:10010400710905033649494936064949291E00360D
:10011400360000005636000000081422411414145E
:10012400141441221408000201510906324979418C
:100134003E7E1111117E7F494949363E414141229B
:100144007F4141221C7F494949417F090901013E00
:10015400414151327F0808087F00417F410020401F
:10016400413F017F081422417F404040407F020408
:10017400027F7F0408107F3E4141413E7F09090907
:10018400063E4151215E7F091929464649494931B4
:1001940001017F01013F4040403F1F2040201F7F5D
:1001A4002018207F63140814630304780403615146
:1001B40049454300007F4141020408102041417F2A
:1001C40000000402010204404040404000010204D7
:1001D4000020545454787F484444383844444420DC
:1001E400384444487F3854545418087E090102089E
:1001F4001454543C7F0804047800447D400020409B
:10020400443D00007F10284400417F40007C0418D6
:1002140004787C0804047838444444387C14141466
:1002240008081414187C7C08040408485454542006
:10023400043F4440203C4040207C1C2040201C3C87
:100244004030403C44281028440C5050503C4464F6
:10025400544C44000836410000007F000000413641
:10026400080002010204027F4141417F00010307AB
:100274000F1F3F7FFF001027E80364000A000100FE
:1002840000100001100001000000A100A3A200A4BE
:1002940000000005010512052305340547455420D7
:1002A4002F7570646174653F6B65793D000000349F
:1002B4005A37414736465345423448583455580016
:1002C4004D5A5330564F4A4E50574D4B4945363789
:1002D400005053303233523754374D5655425345FC
:1002E4005700433631564C305A3649444B36573909
:1002F4005247004552524F520041542B4349504DEE
:100304004F44453D30000D0A004F4B0041542B43F0
:1003140049504D55583D310041542B434950535495
:100324004152543D302C22544350222C2261706996
:100334002E7468696E67737065616B2E636F6D22CE
:100344002C38300053657276657220636F6E6E656B
:100354006374656400266669656C64313D002666D5
:1003640069656C64323D00266669656C64333D00E2
:1003740041542B43495053454E443D302C003E20BC
:100384000053656E64696E6700494450004E6F64A3
:10039400653A200054656D703A200048756D6964B3
:1003A4003A200057617465723A20006D6D0025642F
:1003B4002000256420200041540D0A0041542B43A1
:1003C400574D4F44453D310D0A0041542B43574A84
:1003D40041503D22546861795F5468616F5F646580
:1003E4006F5F67696169222C226368696E6878614E
:1003F40063220D0A007374617274000001002D4EB3
:10040400414E00494E460000010002008C020800E3
:1004140004008E0201000005B20211000105B302BE
:1004240011001205C40211002305D5021100340580
:10043400E6020A007C06960206004505F7020D0056
:100444004B05FD02030058050A0303005B050D0379
:100454000C005E05100303006A050A0303006D0522
:100464000D032C0070051C0303009C050A03030004
:100474009F050D031100A20548030900B3055903A4
:100484000900BC0562030900C5056B030E00CE0517
:1004940074030300DC050A030300DF058203030081
:1004A400E2050A030800E50585030400ED058D0354
:1004B4000700F10591030700F80598030800FF05FC
:1004C4009F0308000706A70303000F06AF030500F8
:1004D4001206BB03030017060D030E001A06C00321
:1004E400030028060D032B002B06CE03030056063B
:1004F4000D0306005906F90301004D08000400002D
:10050400F894EE27ECBBF1E0F5BFE5BFE0936C0097
:100514008DE0A2E0BB27ED938A95E9F780E090E1B6
:10052400A0E0B1E0ED930197E9F7ECE0F4E0859108
:100534009591009761F0A591B59105901590BF0133
:10054400F00105900D920197E1F7FB01F0CF8BBF0D
:10055400EFEFEDBFE0E1EEBFC0E0D5E00C9475062F
:10056400BA93AA93A881B981EC91E03041F0E0E01C
:10057400EC93E881F9813196E883F983F3CF0C9405
:1005840067080E94AF0F1A930A931BB10CB1E12FB5
:10059400EC71E9F4E091C806EF5FE093C806E1501E
:1005A400F0E0E857F94F0083A091C806A03419F48D
:1005B400E0E0E093C806A091CA06AF5FA093CA0624
:1005C400A03429F4E0E0E093CA06689420F8E091AE
:1005D400CF07F091D007E553F94F0083AFECB7E0B4
:1005E4000E94B60F0991199148C0AA93EA93FA930D
:1005F400EFB7EA93E0911908E030A9F0E150E093F5
:100604001908E0911808EF5FE0931808E150F0E052
:10061400E952F84FE081ECB9A0911808A03419F41C
:10062400E0E0E0931808E991EFBFF991E991A9910D
:1006340018950E94AF0FE2EBE4BDE1E0EA1521F466
:10064400A6E8B6E00E94B60FA0918606B091870690
:10065400A43FE1E0BE0789F4AA24F60131966F01B4
:10066400E0E0E0938606E0938706E5E0F0E0EC1531
:10067400FD0519F4E1E0F0E06F01E991EFBFF991B4
:10068400E991B991A99118956A937A938A939A9367
:10069400AA93BA93EA93FA93EFB7EA93E0E6E2BF38
:1006A400A3EDB7E00E944911EF5FFF4F6F4F7F4FFB
:1006B4000E944E11A091D307B091D4078091D50721
:1006C4009091D607A035E3ECBE07E0E08E07E0E0AA
:1006D4009E0769F4A1EDB7E00E94B60FE0E0E09355
:1006E400D307E093D407E093D507E093D607E991C5
:1006F400EFBFF991E991B991A99199918991799172
:1007040069911895AA93A0911908A034E1F3F8947B
:10071400E0911908E03011F45D9918C0E0911708D0
:10072400EF5FE0931708E150F0E0E952F84FA88139
:10073400A083A0911708A03419F4E0E0E09317080F
:10074400E0911908EF5FE093190802C0E881ECB961
:1007540078940C94FA088BE18A95F1F7E0E0EA9337
:10076400AFE124D0A2E0B0E00E941611E7E0EA93E2
:10077400AEE71CD0EDE1EA93A4E018D0E5E0EA93FB
:10078400A2E014D00895AA931A9310E0183050F4FC
:10079400E981E07811F4D99801C0D99A0E94BC0F7C
:1007A4001F5FF4CFE98118810C9467080E94CE0F73
:1007B400EADFE0934008A881E6DF0E94D40FE091CD
:1007C40040080C946708AA931A9310E0183050F468
:1007D400E981E07811F4D99801C0D99A0E94BC0F3C
:1007E4001F5FF4CFE98118810C9467081A930A9368
:1007F40010E000E0083078F48DE08A95F1F7110FED
:10080400DC9A8DE08A95F1F7E0E0CD99E1E01E2BCA
:10081400DC980F5FEFCFE12F099119910895DB9ACE
:1008240088E795E00197F1F7DB98DA9A08950E943A
:10083400CE0F0E94D90F0E94D40F0C9467080E9417
:10084400CE0F0E94D90FA8810E94D90FA8810E94BF
:10085400D90F0E94D40F0C9467080E94CE0FB3DF07
:10086400A72DB1DFA72DAFDFA72DADDFA72D0E94E8
:10087400D90F0E94D40F0C946708AA93DA98A88120
:10088400A2DF0E94D40F0C94FA08AA93DA98E3E04A
:10089400EA93A3E0CCDF0E94D40FDA98EAE0EA936B
:1008A400AC81CDDFE0E1EA93AC81C9DFEBE0EA9310
:1008B400AB810E94DE0FAB81D0DFECE0EA93AA812A
:1008C4000E94DE0FAA81C9DFEDE0EA93A9810E94AC
:1008D400DE0FA981C2DF0C941809E0E0EA93AFE1CE
:1008E400A6DFDB9A0895ECE10E94E30F4A927A9224
:1008F4006A92A92DCADFE2E00E94E30FE1E00E94C0
:10090400E30F0895DB980E94D40FDA98A1E65BDF29
:100914008BE18A95F1F76ADFF0E0E0931A08F0932F
:100924001B0864DFACE1B8E00E94E70FAEE1B8E079
:100934000E94E70FA0E2B8E00E94E70FA2E2B8E04D
:100944000E94E70FA4E2B8E0F0E0ED93FC93DA9A9A
:10095400DB9AE7E0EA93AEE76ADFA2EE8EDF089562
:10096400BA93AA93A881B981EC91E03061F0AC917B
:10097400C9DEA2E3B0E00E941611E881F981319644
:10098400E883F983EFCF0C9467080E94EC0F0E9470
:1009940016110E94F10F0E94F80FABECB6E0E0DDF7
:1009A400E0E0E093CF07E093D0070C946708BA9394
:1009B400AA93A8970E947D1100E010E0DE015A96E8
:1009C400CFDDA8A9B9A9EC91E03001F1F801DE016D
:1009D4005A96EA0FFB1F0F01A8A9B9A9EC91D001FF
:1009E400EC93F801DE011696EA0FFB1F0F01DE01FE
:1009F4005A96A00FB11FEC91D001EC93E8A9F9A984
:100A04003196E8ABF9AB0F5F1F4FDBCF2091D107D5
:100A14003091D207A091D107B091D207A217B307A2
:100A24005CF4E091D107F091D207FC96AF01DA01B2
:100A34000E94FC0F1CF107C0A091D107B091D2070E
:100A44000E94FC0FDCF00E940310DE015C960E9401
:100A5400D007309741F40E940310DE0118960E94DB
:100A6400D007309711F0E1E00AC00E940310A5E41A
:100A7400B5E00E94D007309709F4CCCFE0E00E94A3
:100A84008411E2960895BA93AA93EF972E9781E181
:100A9400A8E2B0E0E0EAF2E00E948B110E947F112C
:100AA40000E010E020E030E00E940810E030F9F0AF
:100AB400F901DE011496EA0FFB1FBF010E94081022
:100AC400DB01EC93F901DE01DD96EA0FFB1F0F0158
:100AD400DE011496A20FB31FEC91D001EC93DE015A
:100AE400AF5ABF4F0E94B60F2F5F3F4FDDCFABE42D
:100AF400B5E00E941010A8E5B5E032DFEBE5F5E0C3
:100B04000E941610AEE5B5E00E941010AAE6B5E00A
:100B140027DFEDE6F5E00E941610A0E7B5E00E949D
:100B24001010ACE9B5E01CDFEFE9F5E00E942010FD
:100B3400E03011F4E0E085C0A0EDB7E026DF0E94CC
:100B4400F10FA2EAB5E00E94700C0E942610DE01AB
:100B5400DF960E94A6070E942610A3EBB5E00E9430
:100B6400A607E0912008F09121080E942B100E9412
:100B740032108F010E942610ACEBB5E00E94A6074C
:100B8400E0911E08F0911F080E942B100E94321061
:100B94000E0F1F1F0E942610A5ECB5E00E94A607A9
:100BA400E0912408F09125080E942B100E94321035
:100BB4000E0F1F1F0E94F10FDE019C960E94700C05
:100BC400065C1F4F1A930A93DE015A960E94E707A8
:100BD400E0E0EA93A8E20E949A0CDE0158960E9493
:100BE400700C0E943A10AEECB5E00E941010DE01C9
:100BF4005896B6DE0E943A10ACEDB5E0B1DEEFEDEA
:100C0400F5E00E943E1011F4E0E01BC0DE019C966A
:100C1400A7DEA2EEB5E0A4DE0E943A10AAE172DDDE
:100C24000E94F10FA5EEB5E00E94700CA0E0B0E0C8
:100C3400ACDEEDEEF5E00E943E1011F4E0E001C000
:100C4400E1E00E948611EF9664960895E0E3EA934A
:100C5400E0E00E944610EFE00E944610E0E0EA93D4
:100C6400E4E5EA93A0E00E94A60CE4E5EA93E0E060
:100C74000E944F10E0E30E944F10E0E0EA93EA93F1
:100C8400A0E30E94A60CE3E0EA93A3E00E949A0C7E
:100C9400A1EFB5E00E945810A2E10E949A0CA8EFBF
:100CA400B5E00E945810ACE10E949A0CAFEFB5E099
:100CB4000E945810A5E20E949A0CA7E0B6E00E9498
:100CC400700CE3E4EA93ACE10E949A0CA5E20E9462
:100CD4000E0CE3E4EA93A5E20E949A0CAFE0B6E0BE
:100CE4000E94700C08952897EEE5EABBEFE3EBBB96
:100CF400E8E0E7BBE0E0E8BBE4BBE8E0E5BBE0E05C
:100D0400E1BBE2BBE2B9E3B9E0936100E0936200C6
:100D1400E0936400E0936500E0BFE1E0E3BFE0E658
:100D2400E2BFE0E0E1BFEFBDEEBDEDBDECBDE7BD70
:100D3400E6BDEBBDEABDE9BDE8BDE0937900E09313
:100D44007800E5E0E5BDE2EBE4BDE0E0E3BDE0937F
:100D54008B00E0938A00E0938900E0938800E0939D
:100D64008100E0938000E0938700E0938600E093A5
:100D74008500E0938400E0938300E0938200E1E443
:100D8400E7BFE0E0E0937D00E0936A00EABFE9BFDB
:100D9400EBB9E8EDEAB9E6E0E0939500E0E0E09332
:100DA4009000E3E3E9B9E0E0E0939A00E0E8E8B911
:100DB400E0E0E0BDE6B9EDB9E0937400ECE8F0E002
:100DC400E883F983E0E0EA83EB83EC83ED83EE814F
:100DD400EC7FE260EE83E37EEC60EE83EF81E0780B
:100DE400E963EF83DE010E9473087894A2E1B6E020
:100DF400B7DDE7E1F6E00E941610AAE1B6E0B0DD47
:100E0400E8E2F6E00E941610ABE2B6E0A9DDE6E502
:100E1400F6E00E942010A0E0B0E0B7DDA8EBBBE054
:100E24000E941611FCDC97DC5EDDE1E0F0E06F016E
:100E3400EAE0EA93AAE00E949A0C0E94FC08A9E561
:100E4400B6E00E94700C49DDC8996CC05BDDA091CE
:100E54001A08B0911B08CA16DB0609F063C0F6DE57
:100E6400E8E2EA93A3E00E949A0CE0911A08F09158
:100E74001B08FA93EA93ABECB6E00E94E7070E94E2
:100E8400F80FEEE2EA93A2E10E945D10E2EBF3E0D8
:100E9400FA93EA93E0912008F09121080E946010EF
:100EA400EEE2EA93ACE10E945D10E2EBF3E0FA9328
:100EB400EA93E0911E08F0911F080E946010EEE290
:100EC400EA93A5E20E945D10E6EBF3E0FA93EA935D
:100ED400E0912408F09125080E946010A4E6B0E097
:100EE4000E941611F601ACE7B6E0EE0FFF1FAE0F3D
:100EF400BF1F0E944511DF01C6DDE03099F3A8EC65
:100F0400B0E00E9416110E94FC08F60131966F01B0
:100F1400E5E0F0E0EC15FD0519F4E1E0F0E06F0127
:100F2400E1E0AE2E90CFFFCFBA93AA93B981A88106
:100F3400109631F0FC81EB816A8161931197E9F796
:100F4400EB81FC810C94D40DBA93AA93E991F991A5
:100F5400A991B991CD016D916623E9F7119761913A
:100F64006D936623E1F7FC010895BA93AA93A991BE
:100F7400B991EE27FF276D91662311F03196FBCFCF
:100F84000895BA93AA93AA27BB27E991F9910590EA
:100F9400002011F01196FBCFFD010895BA93AA9396
:100FA400AA81BB81CD01E881F9817191772311F484
:100FB400FC0109C06D916717C1F30196DC0166233A
:100FC40091F7EE27FF270C941809BA93AA93A991D5
:100FD400B991E991F99130962AF4E095F09531961A
:100FE4006DE26D93E89480E197E20DD088EE93E092
:100FF4000AD084E6992707D08AE005D06E2F10D056
:1010040066276C9308956627E817F90720F063951F
:10101400E81BF90BC9F7662311F416F008956894D8
:10102400605D6D9308950895AA931A93AD9818E09E
:10103400FADFE981E07811F0AF9A01C0AF98E98155
:10104400EE0FE983F0DFDF9AEEDFDF98115081F7CE
:10105400AD9A18813AC0AA93AE98A881E5DFC8C0BA
:10106400AA93AE9AA881E0DFC3C0AA931A93E98138
:10107400E695E695E6951E2FE4E5E19FF001DF0194
:10108400EA81F0E0EA0FFB1FE0935108F093520865
:10109400E12F188123960895AA93E981E068AE2F81
:1010A400DADFE981EA93A981E0DFE064AE2FD3DFE0
:1010B4000CC0AA93E981EA93A981EEDFE09151087B
:1010C400F0915208ED5AF74FE08122960895AA93C1
:1010D4000E9469103197ED5AF74FA881A083C0DFB1
:1010E40087C0BA93AA930E947F11A59AAD9AD79A02
:1010F400DF98A79AA69AA49AAC98AAE0B0E00E94B6
:101104001611AC9AEC81FD81309721F1E681E370F0
:101114001E2FEC81FD81E681E695E695E7700E2FA2
:10112400EC81FD81E781EF773E2FAC81BD810E9488
:101134004511E0936306F093640612960E944511EC
:10114400E0937806F0937906AC81BD8114960E94F1
:1011540045110DC010E003E032E3E0E0F0E0E0937D
:101164006306F0936406E0937806F0937906E093BF
:101174007A06F0937B06A1E26EDFE12FE460AE2FE6
:101184006ADFE02FE061AE2F66DFE32FE068AE2F69
:1011940062DFA0E260DFA1E022D0E1E0E0935F063D
:1011A400E0E0E0936006E1E0E0936506E093660624
:1011B400E0936706EFEFE0936806E1E0E0936F06E3
:1011C400E0E7F6E0FA93EA93EFEFEA93A8E0B0E001
:1011D4000E9496070FD0E1E00E94861182C0AA9374
:1011E400E881E03011F0ECE001C0E8E0AE2F33DF3D
:1011F400219608950E947F1130E0E0916006E0306E
:1012040009F03FEFE0E0EA93A0E046DF08EF11E0E9
:10121400F80101501040309719F0A32F58DFF8CF90
:10122400E0E0EA93A0E084D30E9486112496089516
:10123400AA931A930A93AC81A43518F4AB81A03312
:1012440010F00C94D20DEC81EA93AC8132DF1E2FA6
:10125400EB81E770A1E00E9428110E2FEA81E030B3
:1012640011F0102B03C0E02FE0951E23A12F2FDFD8
:101274000C94D20DAA931A93ED81EA93AD8119DFF0
:101284001E2FE981E73011F0E83039F4EB81EA935D
:10129400AA810E94490FEB8308C0E33021F4EB815B
:1012A400E095EB8302C0E03021F4EA81E0951E234F
:1012B40002C0E23029F4EA81AB81EA231E2B0EC07E
:1012C400E13029F4EA81AB81EA231E2707C0E43028
:1012D40029F4EA81E095AB81EA2B1E23A12FF7DEE6
:1012E400188126960895AA9323970E947D11A889B0
:1012F400A43548F4AF85A03330F4AE85A03019F09E
:10130400AD85A03009F4D5C1EE85E887A889BB274F
:10131400EE85F0E0AE0FBF1FA535E0E0BE0720F07C
:10132400A889E4E5EA1BEE872D85AF85BB27ED850B
:10133400F0E0AE0FBF1FD19720F0AF85E0E3EA1BCA
:10134400ED87A985A63009F05BC0EC85E13009F48E
:10135400B0C1E33039F4E0917A06F0917B0630971E
:1013640009F4A7C10885ED85E695E695E6953E2F37
:10137400E22FE77019F4AD852A17E9F0A02FBB27F7
:10138400E32FF0E00E943D11AA85BB850E946C10FA
:10139400269526952695532F5F935F5FE22FAF9195
:1013A400EA1748F0102FE12F1150E03019F00E9495
:1013B4007110F9CFF1CFAE850A1711F1EE85AA8528
:1013C400BB85F0E00E946C10ED85E77009F03F5F8B
:1013D40020E02F932F5FE32FAF91AE1788F41E8583
:1013E4001F931F5FE02FAF91AE1718F40E94711086
:1013F400F7CFEE85AE81BF81F0E00E946C10E9CF9B
:10140400EF85E7703E2FED85E03009F452C1EA859F
:10141400FB85EE83FF8310E00889303009F066C055
:10142400AD85A83008F45DC0E985E03011F0E33003
:1014340009F402C0E73009F402C0E83009F402C03C
:10144400E93009F402C0EA3021F40A93A88924DEC1
:1014540004C0E63011F40E947E101F931F5FEE85D6
:10146400AF91AE17B8F5A985A63069F40E94821031
:10147400FA93EA930E9469103197ED5AF74FA081CD
:101484000E94900F26C0E985E93011F450E00EC0A7
:10149400EA3011F45FEF0AC00E9482100E948B10A0
:1014A4005E2FE985E73011F0E83021F40E949110B5
:1014B4005E2F06C0E33011F4509502C0E03019F4F9
:1014C400A52FCEDD06C00E949510EFEFEA93AD85FF
:1014D400D1DEC3CFEF85E85FEF87ED85E850ED8778
:1014E400DFC05D8520E0E0E0ED8781C0E32FAD85BE
:1014F400AE0FA93020F42D85E0E0ED8703C0E8E0CD
:10150400E31B2E2F3A93A22F0E943E0F4E2FE98504
:10151400E63029F50E947E101F931F5FEE85AF9180
:10152400AE17E0F40E9469103197ED5AF74FE0814D
:10153400E423AE2FE32F0E9430110E949B10E32F6F
:10154400A42F0E943011E095E1215E2B0E948210AD
:10155400FA93EA93A52F0E94900FDECF2CC0E930B6
:1015640011F450E003C0EA30A9F45FEF0E94911037
:10157400AE2FE32F0E9428115E2F1F931F5FEE856D
:10158400AF91AE1730F40E9495104A93A0E072DE3A
:10159400F4CF11C01F931F5FEE85AF91AE1758F4BF
:1015A4000E94A610AE2FE32F0E942811EA934A93BB
:1015B400AD8560DEEFCFED85E03009F47AC0AD850E
:1015C400A83028F4ED85E21B5E2FE0E003C0532F22
:1015D400ED85E850ED8710E0EF85E85FEF87E8E000
:1015E400E31B2E2F0889EA85FB85EE83FF83E52F15
:1015F400F0E0E059FD4F4491E985E63029F50E9479
:101604007E101F931F5FEE85AF91AE17E0F40E942A
:1016140069103197ED5AF74FE081E423AE2FE22FA2
:101624000E9428110E949B10E22FA42F0E942811CF
:10163400E095E1215E2B0E948210FA93EA93A52F94
:101644000E94900FDECF2CC0E93011F450E003C0AB
:10165400EA30A9F45FEF0E949110AE2FE22F0E94AE
:1016640030115E2F1F931F5FEE85AF91AE1730F4DC
:101674000E9495104A93A0E0FDDDF4CF11C01F93A2
:101684001F5FEE85AF91AE1758F40E94A610AE2FDF
:10169400E22F0E943011EA934A93AD85EBDDEFCF40
:1016A400E885AA85BB85F0E0EA0FFB1FEA87FB8784
:1016B400AACE0E948411619608950E94EC0F0E94A4
:1016C400791124F0E0E0F0E00C94470FA881B9818F
:1016D400A435E0E0BE0724F0E3E5F0E00C94470F06
:1016E400E881F9810C94470F0E94EC0F0E94791154
:1016F40024F0E0E0F0E00C94470FA881B981D09782
:1017040024F0EFE2F0E00C94470FE881F9810C94A7
:10171400470FBA93AA9323970E94B3108F01002E08
:10172400012A19F4E0E0F0E05FC00E94BA100F82D1
:101734000E94BA100E820E94BA100886EB85A88512
:10174400EA1718F4E0E0F0E04FC0F8010F5F1F4F14
:101754005491A885BB27EE27A50FBE1FEB85F0E0AB
:10176400EA17FB0718F0E0E0F0E03EC0EE81E695F2
:10177400E695E6954E2FEE81E77009F04F5FEF8115
:10178400E030A1F0A985BA85EC93A885EB85EA1B26
:10179400F0E0DF01EF81F0E00E943D11DF01E42F72
:1017A400F0E00E943D11E00FF11F1EC09801E52FEB
:1017B400F0E00E0F1F1FA885AF5FA887A150EB852F
:1017C400AE1760F4F9012F5F3F4FA491B0E0E42F0E
:1017D400F0E00E943D110E0F1F1FEDCFF901E491BF
:1017E400A985BA85EC93F8010E9484112C9608957A
:1017F400E0E0E0936106A0916206BB270E94BF105F
:10180400F0E0AE0FBF1FE0916606F0E0AE0FBF1F21
:101814006BDFE09362060895AA9321970E94B310A8
:10182400309709F455C0AF81AA3009F44FC0EF8155
:10183400EA93DE0117966DDFAF01309709F44AC0D1
:10184400E0916506AE81EA0F3E2FA0916106BB27A9
:10185400F0E0EA0FFB1F8F010535E0E01E0718F0EA
:10186400032F1127C5DFE0916106EA93E091620638
:10187400EA93E885EA930E94BF10EA93E1E0EA93D1
:101884005A934A93A7E02FDDE0916106AE81EA0FF7
:10189400EA93E0916206EA93E0916506EA930E9476
:1018A400BF100E94C610E0916106EA93A0916206FF
:1018B4000E94BF10EA0FEA933A93E09166060E94F1
:1018C400C610E4E5F0E0E017F10711F491DF02C07F
:1018D400009361060E94841128960895BA93AA93EE
:1018E4001A93A981BA81ED91A983BA831E2FE0309E
:1018F40019F0A12F91DFF5CF18810EC3AA93EA81C5
:10190400EA93EA81EA93E0916806AA81EA2319F04E
:10191400E0915F0602C0E0916006AE2F89DCE881A9
:10192400EE0FE883E03011F4E1E0E883E881F4C2EB
:10193400AA93A981BB27C1DEE0936106A881BB27D6
:10194400D3DEE0936206A1C2AA932B970E947D1175
:10195400AC89BB27B2DEEC8BAA89BB27AEDEEA8B4F
:10196400AB89BB27C1DEEB8BA989BB27BDDEE98B25
:10197400EA89E0936106E989E0936206E1E0E88799
:10198400E989AB89EA1771F51C89AA891A1731F418
:101994001A93EC89EA93A1E0B1DFC8C0AA891A17A7
:1019A40030F4EA89E11B0E2F41E050E006C0AA8919
:1019B400E12FEA1B0E2F4FEF5FEF3B89E0E0EE8350
:1019C4000E94D01038F41A933A933395AA8596DF7F
:1019D400EF83F6CFEF81E887140FE02F0150E0305A
:1019E40061F7A4C0EA89AC89EA1739F53B89A9896A
:1019F4003A1730F4E989E31B2E2FE1E0F0E006C04A
:101A0400A989E32FEA1B2E2FEFEFFFEFED87FE8767
:101A14001C89E0E0EE830E94D01030F41A931395F1
:101A24000E94D810EF83F7CFEF81E887ED853E0F52
:101A3400E22F2150E03061F779C0E0E0EE830E94AC
:101A4400D01008F073C01C893B89E1E02E2F0E2FC3
:101A5400AA89BB27EC89F0E0AE1BBF0BAD0155236F
:101A64002AF40FEFFA010E942411AF01FA01EE0FDC
:101A7400FF1FEF87F88BA989BB27EB89F0E0AE1B2A
:101A8400BF0BAD87BE87AE85AA233AF42FEFED8551
:101A9400FE850E942411ED87FE87ED85FE85EE0FFD
:101AA400FF1FEB87FC871A933A93A1E027DFE887AF
:101AB400E0E0E987EA87AD85BE854A175B07BCF09D
:101AC400100FEB85FC850E94DC10A985BA854A17A6
:101AD4005B072CF4320FAF85B8890E94E3101A9388
:101AE4000E94D810E887EA89E11751F718C0320F2D
:101AF400EF85F8890E94DC10ED85FE85A985BA85FD
:101B0400EA17FB072CF4100FAB85BC850E94E31089
:101B14001A930E94D810E887E989E31741F7EB8903
:101B2400EF5FEB8BE989EF5FE98B89CF0E9484112A
:101B340065960895BA93AA931A930A93AA81BB81CE
:101B440012960E944511309729F1AA81BB811496FF
:101B54000E9445118F01309761F00230E0E01E07CA
:101B640080F0F80131978F01AA81BB811496ED931F
:101B7400FC93AA81BB8112960E94B60F3197AC8167
:101B8400A083AA81BB810E944511FF2312F00E9409
:101B9400B60F06C0AA81BB81EFEFFFEFED93FC9374
:101BA4001981088125960895BA93AA9326970E94CD
:101BB4007D1110E0AC85BD85E0E0F0E0ED93FC9391
:101BC400EA89FB893196EA8BFB8B3197E4912E2FBE
:101BD400E03009F415C1E12FE03039F4253211F475
:101BE40011E002C00E94EA100AC1E130A9F42532D2
:101BF40019F40E94EA1002C112E040E000E02D3224
:101C040011F401E0FCC02B3211F44BE2F8C0203295
:101C140011F440E2F4C002C0E23039F450E013E0C1
:101C2400203311F40068EBC003C0E33009F0E7C0CF
:101C3400203310F02A3308F007C0AAE05A9F502D31
:101C4400E22FE0535E0FDBC0E22FE33649F40E943B
:101C5400F110E889F989A481AA930E94F710CEC0F3
:101C6400E33741F40E94F1100E94FD100E94B7076F
:101C74001E2F0AC0E03761F40E94F1100E94FD108B
:101C84000E94C3071E2F086002600F7730E034C043
:101C9400E43611F0E93611F4046002C0E53731F49A
:101CA400EAE7F2E0EE83FF8315E00CC0E83511F4B7
:101CB400086003C0E83709F0A1C0E4E8F2E0EE836D
:101CC400FF8314E002FF14C00E94F1100E94071168
:101CD400AB85AA233AF4EA85FB850E942411EA879E
:101CE400FB874DE2403011F01F5F01C00B7F04C041
:101CF4000E94F1100E94071100FD11C0151778F41D
:101D040007FF08C002FF04C00B7F242F115001C03D
:101D140020E301C020E20E94EA105150EFCF312F9E
:101D240001FF17C03030A1F003FF06C0EE81FF8130
:101D34002591EE83FF8305C0AE81BF812D91AE83D3
:101D4400BF830E94EA10503009F051503150EACF5D
:101D54004BC020E3EE81FF810E945311E887F9878D
:101D6400EE81FF813296EE83FF83E885F985AA85AB
:101D7400BB85AE17BF0750F02F5FA885B985EA85EC
:101D8400FB85EA1BFB0BEA87FB87EFCF2A3328F09E
:101D940003FF02C0295F01C0295D04FD1AC021337D
:101DA40020F4A885B985119709F409C0531710F0D8
:101DB40000FF01C013C020E207FF0BC020E3006155
:101DC40002FF07C00B7F4A930E94F710503009F0BE
:101DD40051500E94EA10503009F051503150A885FA
:101DE400B985129708F0B5CF00FF08C0503031F024
:101DF4005150E0E2EA930E94F710F8CF10E0E0CEF1
:101E0400AC85BD850E9445110E9484116496089595
:101E1400FF92F82E26970E947F110E940F1130978F
:101E240019F4EFEFFFEF23C0DE0116960E94201194
:101E34008D010E940F11EE83FF83E0E0E887E987BC
:101E4400DE011A960E9420110E944511FA93EA932A
:101E54001A930A93ECE9FDE0FA93EA93DE011A96E9
:101E6400A3DE9F01AE81BF81E0E0EC93F9010E9403
:101E740086112A96FF900895AA93E881F0E0E0592C
:101E8400FD4FA491E9810E94281122960895AA93F6
:101E94001A93E981E73011F0EA3019F410915F06E2
:101EA40009C0E93019F41091600604C0E830A1F4C7
:101EB40010916F06E0916006E03049F0103019F09F
:101EC400EFEF188129C0EA81E095188125C0103010
:101ED40019F4E0E0188120C0EA8118811DC0BA938A
:101EE400AA93EA81E13021F4E881F981E49114C0F4
:101EF400E23029F4A881B9810E945C110DC0E3305D
:101F040041F4A881B981E0917806F09179060995A8
:101F140003C0A881B981EC9123960895AA93EB811B
:101F2400E03029F4E881A981BA81EC9314C0E2304D
:101F340031F4E881A981BA810E9468110CC0E330B0
:101F440051F4E981FA81FA93EA93AA81E0917A063D
:101F5400F0917B06099524960895AA93BA93EA937F
:101F6400FA93EFB7EA930895ED91FD913196FE93BC
:101F7400EE9308958DE08A95F1F7E981EE0FE983F8
:101F8400DC9A8DE08A95F1F7E0E0CD99E1E0A98152
:101F9400EA2BE983DC980895AA93DA98E981E06250
:101FA400AE2F0895DA9A8BE18A95F1F708950E948D
:101FB400E503A8810C94E5030E942F04E0E1EA9371
:101FC4000895EA93AFE00C941904F0E0ED93FC93C8
:101FD4000C94F803BA93AA93A881B98108950E9436
:101FE400FC08E0E0EA93A0E00C949A0CABECB6E0B9
:101FF4000C94700CA21BB30BEEA5FFA5EA17FB070C
:102004000895EBECF6E0FA93EA930895DE01AF5AF3
:10201400BF4F0D90BC91A02DEC9108950E94B20485
:10202400ACE2B1E00C941611FA93EA93A2E0B0E0AA
:102034000E94D904A0E0B0E00C94C704FA93EA9398
:10204400AAE0B0E00C94D904FE01BC96FA93EA939A
:102054000895FA93EA93DE015A960E94E707F4CFB3
:10206400DE015A960E94A607DE0158960C94B70723
:10207400A8EEB3E00C941611FA93EA93A5E0B0E04D
:102084000E94D904E0300895EA93E0E3EA93AFE0D4
:102094000E94A60CE0E0EA930895EA93E4E5EA934B
:1020A400A0E30E94A60CE0E0EA9308950E94700C5D
:1020B400E4E0EA9308950E949A0CA3CF0E94381199
:1020C4000E94571184E00E940A0F28968FCFA1E541
:1020D400B8E04ACFEA0FFB1FEE83FF830895EC8537
:1020E400EA93EF81F8853196EF83F8873197FA9375
:1020F400EA93A0E00C94900F0A93A8890C943708F3
:10210400EC85EA93EF81F8853196EF83F887319770
:10211400089566277727DF01CB010C94710F5A933A
:10212400AA850C94490F0A930395E889EA935A9374
:1021340008955E2FEC85EA93AF81B88588279927A7
:102144000E94710F1E2E08950A930395E889EA935D
:10215400EE85EA93E985FA853196E987FA8731971E
:10216400D8CF0E947D11E0916306F0916406089532
:10217400F8010F5F1F4F04900895E0916306F091FA
:1021840064063196E4910895EA93E0E0EA93E0E08E
:10219400F0E0FA93EA93A9E00C947509AE81AF5F7D
:1021A400AE83A150E0916706AE1708953A93AA85CD
:1021B4000C94800CA985BA85EA0FFB1FE987FA877E
:1021C4000895E985FA85EA1BFB0BE987FA870895E8
:1021D4002A93AD85BE85EF85F88909950895E88928
:1021E400F9893497E88BF98B0895AD85BE85EF8521
:1021F400F88909950895A889B98914960E9445110A
:10220400EE83FF83AE81BF810895A889B9891496AE
:102214000E944511EA87FB870895DE011C960E94FF
:1022240020110E9445110895109639F080ED97E031
:102234000197F1F7A8951197C9F708950024AF0DF8
:10224400B01D0895F195E195F0400895EE230E2E0A
:10225400EA2F19F0EE0F0A94E9F70895EE230E2EF3
:10226400EA2F19F0E6950A94E9F708956F2F660F9F
:10227400660B762F0895FA9FF02DEB9FF00DEA9FE1
:10228400E02DF10D0895ED91FC9111970895ED91D4
:10229400FD916D917D9108957E936E93FE93EE93DF
:1022A40008950590F491E02D08957A936A93FA9332
:1022B400EA930895E199FECFFF93FFB7F894AEBB7C
:1022C400BFBBE09AEDB3FFBFFF910895E19B02C04D
:1022D400A895FCCF9FB7F894AEBBBFBBE09A8DB373
:1022E400E81719F0EDBBE29AE19A9FBF0895002424
:1022F4000A160B0608955A934A933A932A931A930B
:102304000A9308955D814C813B812A81198108815A
:102314000895AC0FBD1F05900D928A95E1F70895BD
:00000001FF
