:100000000C947F020C9400000C9400000C940000EF
:100010000C9400000C9400000C9400000C94000060
:100020000C9400000C9400000C9418030C94000035
:100030000C9400000C9400000C9400000C94000040
:100040000C9443030C9400000C94C0020C94000028
:100050000C94F4020C9400000C9400000C9400002A
:100060000C9400000C9400000C9400000C94000010
:100070000C9400000C9400000C9400000C94000000
:100080000C9400000C9400000C9400000507206004
:10009000000000000000005F0000000700070014DF
:1000A0007F147F14242A7F2A12231308646236499E
:1000B0005522500005030000001C2241000041228F
:1000C0001C00082A1C2A0808083E080800503000B6
:1000D000000808080808003030000020100804025A
:1000E0003E5149453E00427F400042615149462110
:1000F00041454B311814127F1027454545393C4A7C
:1001000049493001710905033649494936064949CB
:10011000291E003636000000563600000008142262
:100120004114141414144122140800020151090648
:10013000324979413E7E1111117E7F494949363E4F
:10014000414141227F4141221C7F494949417F0968
:100150000901013E414151327F0808087F00417F7B
:1001600041002040413F017F081422417F40404030
:10017000407F0204027F7F0408107F3E4141413EE0
:100180007F090909063E4151215E7F09192946462A
:100190004949493101017F01013F4040403F1F2053
:1001A00040201F7F2018207F631408146303047805
:1001B0000403615149454300007F41410204081096
:1001C0002041417F000004020102044040404040C1
:1001D000000102040020545454787F4844443838C5
:1001E00044444420384444487F3854545418087ECA
:1001F000090102081454543C7F0804047800447D2B
:1002000040002040443D00007F10284400417F40D2
:10021000007C041804787C0804047838444444388A
:100220007C14141408081414187C7C08040408486E
:1002300054545420043F4440203C4040207C1C2027
:1002400040201C3C4030403C44281028440C505076
:10025000503C4464544C44000836410000007F0088
:1002600000004136080002010204027F4141417F43
:10027000000103070F1F3F7FFF001027E803640002
:100280000A00010000100001100001000000A100A0
:10029000A3A200A4000000050105120523053405F2
:1002A00000345A374147364653454234485834554E
:1002B00058004D5A5330564F4A4E50574D4B4945B2
:1002C0003637005053303233523754374D5655423B
:1002D00053455700433631564C305A3649444B3615
:1002E00057395247004552524F5200474554202F2C
:1002F0007570646174653F6B65793D0041542B43B3
:1003000049504D4F44453D30000D0A004F4B0041D0
:10031000542B4349504D55583D310041542B4349CE
:100320005053544152543D302C22544350222C22DD
:100330006170692E7468696E67737065616B2E6396
:100340006F6D222C38300053657276657220636FB2
:100350006E6E656374656400266669656C64313D24
:1003600000266669656C64323D00266669656C64CA
:10037000333D0041542B43495053454E443D302CAE
:10038000003E200053656E64696E67004E6F6465C1
:100390003A200054656D703A200048756D69643AE2
:1003A000200057617465723A20006D6D002564204D
:1003B00000256420200041540D0A0041542B43576E
:1003C0004D4F44453D310D0A0041542B43574A419E
:1003D000503D22546861795F5468616F5F64656F56
:1003E0005F67696169222C226368696E687861635E
:1003F000220D0A0073746172740001002D4E414E8B
:1004000000494E460000010002008C020800040072
:100410008E0201000005A00211000105A1021100D9
:100420001205B20211002305C30211003405D402E3
:100430000A008906960206004505E50211004B05F3
:10044000EB020D005C05FC020300690509030300D3
:100450006C050C030C006F050F0303007B050903FB
:1004600003007E050C032C0081051B030300AD0572
:1004700009030300B0050C031100B305470309008D
:10048000C40558030900CD0561030900D6056A03B8
:100490000E00DF0573030300ED0509030300F005FB
:1004A00081030300F30509030800F6058403070030
:1004B000FE058C0307000506930308000C069A034B
:1004C00008001406A20303001C06AA0305001F0669
:1004D000B603030024060C030E002706BB0303002B
:1004E00035060C032B003806C903030063060C0312
:1004F00006006606F40301005409FA030000F894AC
:10050000EE27ECBBF1E0F5BFE5BFE0936C008DE0BA
:10051000A2E0BB27ED938A95E9F780E090E1A0E0A7
:10052000B1E0ED930197E9F7E6E0F4E0859195916C
:10053000009761F0A591B59105901590BF01F0016C
:1005400005900D920197E1F7FB01F0CF8BBFEFEF24
:10055000EDBFE0E1EEBFC0E0D5E00C946D06BA93CC
:10056000AA93A881B981EC91E03041F0E0E0EC93EE
:10057000E881F9813196E883F983F3CF0C946C0814
:100580000E94B40F1A930A931BB10CB1E12FEC71C6
:10059000E9F4E091CF07EF5FE093CF07E150F0E09F
:1005A000E157F84F0083A091CF07A03419F4E0E0A1
:1005B000E093CF07A091D107AF5FA093D107A034FC
:1005C00029F4E0E0E093D107689420F8E091D608A0
:1005D000F091D708EE52F84F0083A6EDB8E00E94E4
:1005E000BB0F0991199148C0AA93EA93FA93EFB708
:1005F000EA93E0912009E030A9F0E150E09320096E
:10060000E0911F09EF5FE0931F09E150F0E0E25233
:10061000F74FE081ECB9A0911F09A03419F4E0E094
:10062000E0931F09E991EFBFF991E991A99118951C
:100630000E94B40FE2EBE4BDE1E0EA1521F4ADE87D
:10064000B7E00E94BB0FA0918D07B0918E07A43F29
:10065000E1E0BE0789F4AA24F60131966F01E0E0DB
:10066000E0938D07E0938E07E5E0F0E0EC15FD05E3
:1006700019F4E1E0F0E06F01E991EFBFF991E99140
:10068000B991A99118956A937A938A939A93AA93A8
:10069000BA93EA93FA93EFB7EA93E0E6E2BFAAEDE2
:1006A000B8E00E944611EF5FFF4F6F4F7F4F0E94EF
:1006B0004B11A091DA08B091DB088091DC08909191
:1006C000DD08A035E3ECBE07E0E08E07E0E09E0722
:1006D00069F4A8EDB8E00E94BB0FE0E0E093DA080F
:1006E000E093DB08E093DC08E093DD08E991EFBFDD
:1006F000F991E991B991A99199918991799169912A
:100700001895AA93A0912009A034E1F3F894E09100
:100710002009E03011F45D9918C0E0911E09EF5FE7
:10072000E0931E09E150F0E0E252F74FA881A08368
:10073000A0911E09A03419F4E0E0E0931E09E091B5
:100740002009EF5FE093200902C0E881ECB97894BA
:100750000C94FF088BE18A95F1F7E0E0EA93AFE1B2
:1007600024D0A2E0B0E00E941311E7E0EA93AEE7E4
:100770001CD0EDE1EA93A4E018D0E5E0EA93A2E012
:1007800014D00895AA931A9310E0183050F4E98118
:10079000E07811F4D99801C0D99A0E94C10F1F5F67
:1007A000F4CFE98118810C946C080E94D30FEADF22
:1007B000E0934709A881E6DF0E94D90FE09147093D
:1007C0000C946C08AA931A9310E0183050F4E98145
:1007D000E07811F4D99801C0D99A0E94C10F1F5F27
:1007E000F4CFE98118810C946C081A930A9310E0F5
:1007F00000E0083078F48DE08A95F1F7110FDC9A6B
:100800008DE08A95F1F7E0E0CD99E1E01E2BDC98D0
:100810000F5FEFCFE12F099119910895DB9A88E7D7
:1008200095E00197F1F7DB98DA9A08950E94D30FCB
:100830000E94DE0F0E94D90F0C946C080E94D30F07
:100840000E94DE0FA8810E94DE0FA8810E94DE0FA9
:100850000E94D90F0C946C080E94D30FB3DFA72D10
:10086000B1DFA72DAFDFA72DADDFA72D0E94DE0FD3
:100870000E94D90F0C946C08AA93DA98A881A2DF81
:100880000E94D90F0C94FF08AA93DA98E3E0EA9348
:10089000A3E0CCDF0E94D90FDA98EAE0EA93AC81BA
:1008A000CDDFE0E1EA93AC81C9DFEBE0EA93AB8115
:1008B0000E94E30FAB81D0DFECE0EA93AA810E94B3
:1008C000E30FAA81C9DFEDE0EA93A9810E94E30F5B
:1008D000A981C2DF0C941D09E0E0EA93AFE1A6DF35
:1008E000DB9A0895ECE10E94E80F4A927A926A92AC
:1008F000A92DCADFE2E00E94E80FE1E00E94E80FC4
:100900000895DB980E94D90FDA98A1E65BDF8BE1AE
:100910008A95F1F76ADFF0E0E0932109F09322096C
:1009200064DFA3E2B9E00E94EC0FA5E2B9E00E9407
:10093000EC0FA7E2B9E00E94EC0FA9E2B9E00E9437
:10094000EC0FABE2B9E0F0E0ED93FC93DA9ADB9ABE
:10095000E7E0EA93AEE76ADFA2EE8EDF0895BA938E
:10096000AA93A881B981EC91E03061F0AC91C9DE25
:10097000A2E3B0E00E941311E881F9813196E88387
:10098000F983EFCF0C946C080E94F10F0E941311B1
:100990000E94F60F0E94FD0FA2EDB7E0E0DDE0E05F
:1009A000E093D608E093D7080C946C08BA93AA9306
:1009B000A8970E947A1100E010E0DE015A96CFDD80
:1009C000A8A9B9A9EC91E03001F1F801DE015A962D
:1009D000EA0FFB1F0F01A8A9B9A9EC91D001EC9374
:1009E000F801DE011696EA0FFB1F0F01DE015A9691
:1009F000A00FB11FEC91D001EC93E8A9F9A93196B1
:100A0000E8ABF9AB0F5F1F4FDBCF2091D8083091D7
:100A1000D908A091D808B091D908A217B3075CF4FF
:100A2000E091D808F091D908FC96AF01DA010E9454
:100A300001101CF107C0A091D808B091D9080E94FC
:100A40000110DCF00E940810DE015C960E94D507C0
:100A5000309741F40E940810DE0118960E94D507D5
:100A6000309711F0E1E00AC00E940810A5E4B5E05B
:100A70000E94D507309709F4CCCFE0E00E948111A5
:100A8000E2960895BA93AA93EC970E947C1100E035
:100A900010E020E030E00E940D10ABE4B5E00E94D1
:100AA000AF070E941210E030F9F0F901DE01149650
:100AB000EA0FFB1FBF010E941210DB01EC93F9014A
:100AC000DE019C96EA0FFB1F0F01DE011496A20FB8
:100AD000B31FEC91D001EC93DE01A05CBF4F0E94EC
:100AE000BB0F2F5F3F4FDDCFACE5B5E00E941A1082
:100AF000A9E6B5E034DFECE6F5E00E942010AFE6B1
:100B0000B5E00E941A10ABE7B5E029DFEEE7F5E0AB
:100B10000E942010A1E8B5E00E941A10ADEAB5E0ED
:100B20001EDFE0EBF5E00E942A10E03011F4E0E077
:100B300082C0A0EDB7E028DF0E94F60FA3EBB5E07E
:100B40000E94750C0E940D10DE019E960E949E0769
:100B50000E940D10A4ECB5E00E949E07E0912709C9
:100B6000F09128090E9430100E9437108F010E94D6
:100B70000D10ADECB5E00E949E07E0912509F091C3
:100B800026090E9430100E9437100E0F1F1F0E946E
:100B90000D10A6EDB5E00E949E07E0912B09F091A3
:100BA0002C090E9430100E9437100E0F1F1F0E9448
:100BB000F60FA3E9B6E00E94750C065C1F4F1A936E
:100BC0000A93DE015A960E94EC07E0E0EA93A8E25D
:100BD0000E949F0CDE0158960E94750C0E943F10E7
:100BE000AFEDB5E00E941A10DE015896B8DE0E9403
:100BF0003F10ADEEB5E0B3DEE0EFF5E0FA93EA9337
:100C0000A5E0B0E0D3DEE03011F4E0E014C0A3E9E9
:100C1000B6E0A5DEA3EFB5E0A2DE0E943F10AAE198
:100C200070DD0E94F60FA6EFB5E00E94750CA0E003
:100C3000B0E0AADEE1E00E948311EF9623960895CA
:100C4000E0E3EA93E0E00E944310EFE00E944310EB
:100C5000E0E0EA93E4E5EA93A0E00E94AB0CE4E56F
:100C6000EA93E0E00E944C10E0E30E944C10E0E0C8
:100C7000EA93EA93A0E30E94AB0CE3E0EA93A3E0DB
:100C80000E949F0CAEEFB5E00E945510A2E10E94B9
:100C90009F0CA5E0B6E00E945510ACE10E949F0CAD
:100CA000ACE0B6E00E945510A5E20E949F0CA4E1C2
:100CB000B6E00E94750CE3E4EA93ACE10E949F0C5D
:100CC000A5E20E94130CE3E4EA93A5E20E949F0CC4
:100CD000ACE1B6E00E94750C08952897EEE5EABBFA
:100CE000EFE3EBBBE8E0E7BBE0E0E8BBE4BBE8E058
:100CF000E5BBE0E0E1BBE2BBE2B9E3B9E093610050
:100D0000E0936200E0936400E0936500E0BFE1E0FF
:100D1000E3BFE0E6E2BFE0E0E1BFEFBDEEBDEDBD69
:100D2000ECBDE7BDE6BDEBBDEABDE9BDE8BDE093C6
:100D30007900E0937800E5E0E5BDE2EBE4BDE0E0BA
:100D4000E3BDE0938B00E0938A00E0938900E09399
:100D50008800E0938100E0938000E0938700E093B7
:100D60008600E0938500E0938400E0938300E093A5
:100D70008200E1E4E7BFE0E0E0937D00E0936A00F9
:100D8000EABFE9BFEBB9E8EDEAB9E6E0E093950028
:100D9000E0E0E0939000E3E3E9B9E0E0E0939A005B
:100DA000E0E8E8B9E0E0E0BDE6B9EDB9E093740051
:100DB000ECE8F0E0E883F983E0E0EA83EB83EC839E
:100DC000ED83EE81EC7FE260EE83E37EEC60EE8308
:100DD000EF81E078E963EF83DE010E947808789480
:100DE000AFE1B6E0BCDDE4E2F6E00E942010A7E24D
:100DF000B6E0B5DDE5E3F6E00E942010A8E3B6E03A
:100E0000AEDDE3E6F6E00E942A10A0E0B0E0BCDD33
:100E1000A8EBBBE00E94131101DD9CDC63DDE1E087
:100E2000F0E06F01EAE0EA93AAE00E949F0C0E94C2
:100E30000109A6E6B6E00E94750C4EDDC8996CC0AB
:100E400060DDA0912109B0912209CA16DB0609F0E4
:100E500063C0F6DEE8E2EA93A3E00E949F0CE09113
:100E60002109F0912209FA93EA93A2EDB7E00E94DA
:100E7000EC070E94FD0FEEE2EA93A2E10E945A10F5
:100E8000EDEAF3E0FA93EA93E0912709F09128095B
:100E90000E945D10EEE2EA93ACE10E945A10EDEA86
:100EA000F3E0FA93EA93E0912509F09126090E9474
:100EB0005D10EEE2EA93A5E20E945A10E1EBF3E046
:100EC000FA93EA93E0912B09F0912C090E945D10AE
:100ED000A4E6B0E00E941311F601A9E8B6E0EE0F17
:100EE000FF1FAE0FBF1F0E944211DF01CBDDE030BC
:100EF00099F3A8ECB0E00E9413110E940109F601D9
:100F000031966F01E5E0F0E0EC15FD0519F4E1E044
:100F1000F0E06F01E1E0AE2E90CFFFCFBA93AA933D
:100F2000B981A881109631F0FC81EB816A816193CF
:100F30001197E9F7EB81FC810C94D90DBA93AA9330
:100F4000E991F991A991B991CD016D916623E9F7E4
:100F5000119761916D936623E1F7FC010895BA93AF
:100F6000AA93E991F991A991B991CD0161916D93FC
:100F70006623E1F7FC010895BA93AA93A991B99168
:100F8000EE27FF276D91662311F03196FBCF089570
:100F9000BA93AA93AA27BB27E991F991059000205B
:100FA00011F01196FBCFFD010895BA93AA93AA817F
:100FB000BB81CD01E881F9817191772311F4FC01A6
:100FC00009C06D916717C1F30196DC01662391F7A3
:100FD000EE27FF270C941D09BA93AA93A991B99102
:100FE000E991F99130962AF4E095F09531966DE209
:100FF0006D93E89480E197E20DD088EE93E00AD0FB
:1010000084E6992707D08AE005D06E2F10D0662796
:101010006C9308956627E817F90720F06395E81B9D
:10102000F90BC9F7662311F416F008956894605D12
:101030006D9308950895AA931A93AD9818E0FADF76
:10104000E981E07811F0AF9A01C0AF98E981EE0F25
:10105000E983F0DFDF9AEEDFDF98115081F7AD9A78
:1010600018813AC0AA93AE98A881E5DFC8C0AA93B8
:10107000AE9AA881E0DFC3C0AA931A93E981E695EE
:10108000E695E6951E2FE4E5E19FF001DF01EA8198
:10109000F0E0EA0FFB1FE0935809F0935909E12FA4
:1010A000188123960895AA93E981E068AE2FDADFCC
:1010B000E981EA93A981E0DFE064AE2FD3DF0CC0C1
:1010C000AA93E981EA93A981EEDFE0915809F091B2
:1010D0005909E65AF64FE08122960895AA930E9494
:1010E00066103197E65AF64FA881A083C0DF87C00B
:1010F000BA93AA930E947C11A59AAD9AD79ADF98C9
:10110000A79AA69AA49AAC98AAE0B0E00E941311FC
:10111000AC9AEC81FD81309721F1E681E3701E2FBE
:10112000EC81FD81E681E695E695E7700E2FEC8176
:10113000FD81E781EF773E2FAC81BD810E94421196
:10114000E0937006F093710612960E944211E093AC
:101150008506F0938606AC81BD8114960E944211EB
:101160000DC010E003E032E3E0E0F0E0E093700651
:10117000F0937106E0938506F0938606E093870668
:10118000F0938806A1E26EDFE12FE460AE2F6ADF04
:10119000E02FE061AE2F66DFE32FE068AE2F62DF65
:1011A000A0E260DFA1E022D0E1E0E0936C06E0E0A5
:1011B000E0936D06E1E0E0937206E0937306E0933E
:1011C0007406EFEFE0937506E1E0E0937C06EDE74F
:1011D000F6E0FA93EA93EFEFEA93A8E0B0E00E941A
:1011E0008E070FD0E1E00E94831182C0AA93E881AC
:1011F000E03011F0ECE001C0E8E0AE2F33DF2196E3
:1012000008950E947C1130E0E0916D06E03009F015
:101210003FEFE0E0EA93A0E046DF08EF11E0F801DD
:1012200001501040309719F0A32F58DFF8CFE0E0BD
:10123000EA93A0E084D30E94831124960895AA9390
:101240001A930A93AC81A43518F4AB81A03310F043
:101250000C94D70DEC81EA93AC8132DF1E2FEB8129
:10126000E770A1E00E9425110E2FEA81E03011F015
:10127000102B03C0E02FE0951E23A12F2FDF0C942D
:10128000D70DAA931A93ED81EA93AD8119DF1E2F32
:10129000E981E73011F0E83039F4EB81EA93AA8173
:1012A0000E944E0FEB8308C0E33021F4EB81E09500
:1012B000EB8302C0E03021F4EA81E0951E2302C0F6
:1012C000E23029F4EA81AB81EA231E2B0EC0E13023
:1012D00029F4EA81AB81EA231E2707C0E43029F410
:1012E000EA81E095AB81EA2B1E23A12FF7DE18815E
:1012F00026960895AA9323970E947A11A889A43567
:1013000048F4AF85A03330F4AE85A03019F0AD8538
:10131000A03009F4D5C1EE85E887A889BB27EE8502
:10132000F0E0AE0FBF1FA535E0E0BE0720F0A889B2
:10133000E4E5EA1BEE872D85AF85BB27ED85F0E060
:10134000AE0FBF1FD19720F0AF85E0E3EA1BED871A
:10135000A985A63009F05BC0EC85E13009F4B0C185
:10136000E33039F4E0918706F0918806309709F46C
:10137000A7C10885ED85E695E695E6953E2FE22F17
:10138000E77019F4AD852A17E9F0A02FBB27E32FEA
:10139000F0E00E943A11AA85BB850E94691026954B
:1013A00026952695532F5F935F5FE22FAF91EA1743
:1013B00048F0102FE12F1150E03019F00E946E100C
:1013C000F9CFF1CFAE850A1711F1EE85AA85BB855D
:1013D000F0E00E946910ED85E77009F03F5F20E0C2
:1013E0002F932F5FE32FAF91AE1788F41E851F93C5
:1013F0001F5FE02FAF91AE1718F40E946E10F7CF69
:10140000EE85AE81BF81F0E00E946910E9CFEF85E3
:10141000E7703E2FED85E03009F452C1EA85FB8587
:10142000EE83FF8310E00889303009F066C0AD8597
:10143000A83008F45DC0E985E03011F0E33009F42C
:1014400002C0E73009F402C0E83009F402C0E93014
:1014500009F402C0EA3021F40A93A88924DE04C00A
:10146000E63011F40E947B101F931F5FEE85AF9151
:10147000AE17B8F5A985A63069F40E947F10FA93DB
:10148000EA930E9466103197E65AF64FA0810E94B7
:10149000950F26C0E985E93011F450E00EC0EA301E
:1014A00011F45FEF0AC00E947F100E9488105E2F27
:1014B000E985E73011F0E83021F40E948E105E2FAC
:1014C00006C0E33011F4509502C0E03019F4A52FA6
:1014D000CEDD06C00E949210EFEFEA93AD85D1DE1B
:1014E000C3CFEF85E85FEF87ED85E850ED87DFC07C
:1014F0005D8520E0E0E0ED8781C0E32FAD85AE0F94
:10150000A93020F42D85E0E0ED8703C0E8E0E31B7F
:101510002E2F3A93A22F0E94430F4E2FE985E630DB
:1015200029F50E947B101F931F5FEE85AF91AE17C8
:10153000E0F40E9466103197E65AF64FE081E4230A
:10154000AE2FE32F0E942D110E949810E32FA42F9D
:101550000E942D11E095E1215E2B0E947F10FA93ED
:10156000EA93A52F0E94950FDECF2CC0E93011F42D
:1015700050E003C0EA30A9F45FEF0E948E10AE2F56
:10158000E32F0E9425115E2F1F931F5FEE85AF9101
:10159000AE1730F40E9492104A93A0E072DEF4CFAE
:1015A00011C01F931F5FEE85AF91AE1758F40E94D4
:1015B000A310AE2FE32F0E942511EA934A93AD8525
:1015C00060DEEFCFED85E03009F47AC0AD85A8305C
:1015D00028F4ED85E21B5E2FE0E003C0532FED857C
:1015E000E850ED8710E0EF85E85FEF87E8E0E31B68
:1015F0002E2F0889EA85FB85EE83FF83E52FF0E037
:10160000E059FD4F4491E985E63029F50E947B10B1
:101610001F931F5FEE85AF91AE17E0F40E94661036
:101620003197E65AF64FE081E423AE2FE22F0E9475
:1016300025110E949810E22FA42F0E942511E095F9
:10164000E1215E2B0E947F10FA93EA93A52F0E945E
:10165000950FDECF2CC0E93011F450E003C0EA3022
:10166000A9F45FEF0E948E10AE2FE22F0E942D1181
:101670005E2F1F931F5FEE85AF91AE1730F40E946F
:1016800092104A93A0E0FDDDF4CF11C01F931F5FBD
:10169000EE85AF91AE1758F40E94A310AE2FE22F43
:1016A0000E942D11EA934A93AD85EBDDEFCFE885DB
:1016B000AA85BB85F0E0EA0FFB1FEA87FB87AACE6D
:1016C0000E948111619608950E94F10F0E94761187
:1016D00024F0E0E0F0E00C944C0FA881B981A4352F
:1016E000E0E0BE0724F0E3E5F0E00C944C0FE88165
:1016F000F9810C944C0F0E94F10F0E94761124F096
:10170000E0E0F0E00C944C0FA881B981D09724F070
:10171000EFE2F0E00C944C0FE881F9810C944C0F4F
:10172000BA93AA9323970E94B0108F01002E012A2A
:1017300019F4E0E0F0E05FC00E94B7100F820E9451
:10174000B7100E820E94B7100886EB85A885EA17AD
:1017500018F4E0E0F0E04FC0F8010F5F1F4F549124
:10176000A885BB27EE27A50FBE1FEB85F0E0EA1783
:10177000FB0718F0E0E0F0E03EC0EE81E695E6956C
:10178000E6954E2FEE81E77009F04F5FEF81E03074
:10179000A1F0A985BA85EC93A885EB85EA1BF0E05A
:1017A000DF01EF81F0E00E943A11DF01E42FF0E069
:1017B0000E943A11E00FF11F1EC09801E52FF0E0E2
:1017C0000E0F1F1FA885AF5FA887A150EB85AE172E
:1017D00060F4F9012F5F3F4FA491B0E0E42FF0E0F7
:1017E0000E943A110E0F1F1FEDCFF901E491A98558
:1017F000BA85EC93F8010E9481112C960895E0E0DF
:10180000E0936E06A0916F06BB270E94BC10F0E02B
:10181000AE0FBF1FE0917306F0E0AE0FBF1F6BDF8E
:10182000E0936F060895AA9321970E94B010309715
:1018300009F455C0AF81AA3009F44FC0EF81EA9393
:10184000DE0117966DDFAF01309709F44AC0E091D1
:101850007206AE81EA0F3E2FA0916E06BB27F0E024
:10186000EA0FFB1F8F010535E0E01E0718F0032F7C
:101870001127C5DFE0916E06EA93E0916F06EA93C7
:10188000E885EA930E94BC10EA93E1E0EA935A9358
:101890004A93A7E02FDDE0916E06AE81EA0FEA934E
:1018A000E0916F06EA93E0917206EA930E94BC1001
:1018B0000E94C310E0916E06EA93A0916F060E9409
:1018C000BC10EA0FEA933A93E09173060E94C310AA
:1018D000E4E5F0E0E017F10711F491DF02C00093B6
:1018E0006E060E94811128960895BA93AA931A93BE
:1018F000A981BA81ED91A983BA831E2FE03019F036
:10190000A12F91DFF5CF18810EC3AA93EA81EA9344
:10191000EA81EA93E0917506AA81EA2319F0E09141
:101920006C0602C0E0916D06AE2F89DCE881EE0FF7
:10193000E883E03011F4E1E0E883E881F4C2AA939F
:10194000A981BB27C1DEE0936E06A881BB27D3DE49
:10195000E0936F06A1C2AA932B970E947A11AC89DB
:10196000BB27B2DEEC8BAA89BB27AEDEEA8BAB8944
:10197000BB27C1DEEB8BA989BB27BDDEE98BEA89DA
:10198000E0936E06E989E0936F06E1E0E887E98974
:10199000AB89EA1771F51C89AA891A1731F41A93D1
:1019A000EC89EA93A1E0B1DFC8C0AA891A1730F424
:1019B000EA89E11B0E2F41E050E006C0AA89E12F21
:1019C000EA1B0E2F4FEF5FEF3B89E0E0EE830E94B2
:1019D000CD1038F41A933A933395AA8596DFEF83A6
:1019E000F6CFEF81E887140FE02F0150E03061F768
:1019F000A4C0EA89AC89EA1739F53B89A9893A1765
:101A000030F4E989E31B2E2FE1E0F0E006C0A9895C
:101A1000E32FEA1B2E2FEFEFFFEFED87FE871C89E8
:101A2000E0E0EE830E94CD1030F41A9313950E94EB
:101A3000D510EF83F7CFEF81E887ED853E0FE22FDA
:101A40002150E03061F779C0E0E0EE830E94CD10D4
:101A500008F073C01C893B89E1E02E2F0E2FAA8964
:101A6000BB27EC89F0E0AE1BBF0BAD0155232AF478
:101A70000FEFFA010E942111AF01FA01EE0FFF1FD3
:101A8000EF87F88BA989BB27EB89F0E0AE1BBF0B72
:101A9000AD87BE87AE85AA233AF42FEFED85FE858C
:101AA0000E942111ED87FE87ED85FE85EE0FFF1F59
:101AB000EB87FC871A933A93A1E027DFE887E0E001
:101AC000E987EA87AD85BE854A175B07BCF0100F32
:101AD000EB85FC850E94D910A985BA854A175B075A
:101AE0002CF4320FAF85B8890E94E0101A930E943F
:101AF000D510E887EA89E11751F718C0320FEF8552
:101B0000F8890E94D910ED85FE85A985BA85EA1766
:101B1000FB072CF4100FAB85BC850E94E0101A93D4
:101B20000E94D510E887E989E31741F7EB89EF5F59
:101B3000EB8BE989EF5FE98B89CF0E948111659674
:101B40000895BA93AA931A930A93AA81BB81129615
:101B50000E944211309729F1AA81BB8114960E94FC
:101B600042118F01309761F00230E0E01E0780F0F3
:101B7000F80131978F01AA81BB811496ED93FC93F4
:101B8000AA81BB8112960E94BB0F3197AC81A083C2
:101B9000AA81BB810E944211FF2312F00E94BB0F59
:101BA00006C0AA81BB81EFEFFFEFED93FC93198193
:101BB000088125960895BA93AA9326970E947A11D0
:101BC00010E0AC85BD85E0E0F0E0ED93FC93EA89A0
:101BD000FB893196EA8BFB8B3197E4912E2FE03015
:101BE00009F415C1E12FE03039F4253211F411E088
:101BF00002C00E94E7100AC1E130A9F4253219F4AD
:101C00000E94E71002C112E040E000E02D3211F422
:101C100001E0FCC02B3211F44BE2F8C0203211F489
:101C200040E2F4C002C0E23039F450E013E0203367
:101C300011F40068EBC003C0E33009F0E7C02033C3
:101C400010F02A3308F007C0AAE05A9F502DE22F67
:101C5000E0535E0FDBC0E22FE33649F40E94EE1042
:101C6000E889F989A481AA930E94F410CEC0E337D1
:101C700041F40E94EE100E94FA100E94BC071E2F31
:101C80000AC0E03761F40E94EE100E94FA100E9430
:101C9000C8071E2F086002600F7730E034C0E436BA
:101CA00011F0E93611F4046002C0E53731F4EAE7D7
:101CB000F2E0EE83FF8315E00CC0E83511F4086014
:101CC00003C0E83709F0A1C0E4E8F2E0EE83FF8347
:101CD00014E002FF14C00E94EE100E940411AB85B4
:101CE000AA233AF4EA85FB850E942111EA87FB8743
:101CF0004DE2403011F01F5F01C00B7F04C00E9415
:101D0000EE100E94041100FD11C0151778F407FFB2
:101D100008C002FF04C00B7F242F115001C020E334
:101D200001C020E20E94E7105150EFCF312F01FF98
:101D300017C03030A1F003FF06C0EE81FF8125916E
:101D4000EE83FF8305C0AE81BF812D91AE83BF833B
:101D50000E94E710503009F051503150EACF4BC08B
:101D600020E3EE81FF810E945011E887F987EE8120
:101D7000FF813296EE83FF83E885F985AA85BB85CE
:101D8000AE17BF0750F02F5FA885B985EA85FB85A0
:101D9000EA1BFB0BEA87FB87EFCF2A3328F003FF10
:101DA00002C0295F01C0295D04FD1AC0213320F45F
:101DB000A885B985119709F409C0531710F000FFE1
:101DC00001C013C020E207FF0BC020E3006102FF47
:101DD00007C00B7F4A930E94F410503009F0515015
:101DE0000E94E710503009F051503150A885B98554
:101DF000129708F0B5CF00FF08C0503031F05150B5
:101E0000E0E2EA930E94F410F8CF10E0E0CEAC8557
:101E1000BD850E9442110E94811164960895FF922F
:101E2000F82E26970E947C110E940C11309719F40D
:101E3000EFEFFFEF23C0DE0116960E941D118D010A
:101E40000E940C11EE83FF83E0E0E887E987DE0162
:101E50001A960E941D110E944211FA93EA931A9356
:101E60000A93E1EAFDE0FA93EA93DE011A96A3DE13
:101E70009F01AE81BF81E0E0EC93F9010E948311E4
:101E80002A96FF900895AA93E881F0E0E059FD4F6B
:101E9000A491E9810E94251122960895AA931A938C
:101EA000E981E73011F0EA3019F410916C0609C0AD
:101EB000E93019F410916D0604C0E830A1F41091D6
:101EC0007C06E0916D06E03049F0103019F0EFEF3C
:101ED000188129C0EA81E095188125C0103019F4D5
:101EE000E0E0188120C0EA8118811DC0BA93AA934E
:101EF000EA81E13021F4E881F981E49114C0E23013
:101F000029F4A881B9810E9459110DC0E33041F430
:101F1000A881B981E0918506F0918606099503C0F4
:101F2000A881B981EC9123960895AA93EB81E030C2
:101F300029F4E881A981BA81EC9314C0E23031F42C
:101F4000E881A981BA810E9465110CC0E33051F487
:101F5000E981FA81FA93EA93AA81E0918706F091E8
:101F60008806099524960895AA93BA93EA93FA935A
:101F7000EFB7EA930895ED91FD913196FE93EE93BC
:101F800008958DE08A95F1F7E981EE0FE983DC9AF7
:101F90008DE08A95F1F7E0E0CD99E1E0A981EA2BA7
:101FA000E983DC980895AA93DA98E981E062AE2F7C
:101FB0000895DA9A8BE18A95F1F708950E94E20379
:101FC000A8810C94E2030E942C04E0E1EA930895B6
:101FD000EA93AFE00C941604F0E0ED93FC930C94BC
:101FE000F503BA93AA93A881B98108950E940109C3
:101FF000E0E0EA93A0E00C949F0CA2EDB7E00C9413
:10200000750CA21BB30BEEA5FFA5EA17FB070895FD
:10201000E2EDF7E0FA93EA930895E3E9F6E0FA9344
:10202000EA930895DE01A05CBF4F0D90BC91A02DF6
:10203000EC9108950E94AF04ACE2B1E00C9413114E
:10204000FA93EA93A2E0B0E00E94D604A0E0B0E0E8
:102050000C94C404FA93EA93AAE0B0E00C94D6047A
:10206000FA93EA93DE015A960E94EC07D6CFDE017E
:102070005A960E949E07DE0158960C94BC07A8EE63
:10208000B3E00C941311EA93E0E3EA93AFE00E940B
:10209000AB0CE0E0EA930895EA93E4E5EA93A0E369
:1020A0000E94AB0CE0E0EA9308950E94750CE4E016
:1020B000EA9308950E949F0CABCF0E9435110E94B5
:1020C000541184E00E940F0F289697CFA8E5B9E03D
:1020D00052CFEA0FFB1FEE83FF830895EC85EA934E
:1020E000EF81F8853196EF83F8873197FA93EA9379
:1020F000A0E00C94950F0A93A8890C943C08EC85F9
:10210000EA93EF81F8853196EF83F8873197089548
:1021100066277727DF01CB010C94760F5A93AA85A7
:102120000C944E0F0A930395E889EA935A93089505
:102130005E2FEC85EA93AF81B885882799270E94A6
:10214000760F1E2E08950A930395E889EA93EE858B
:10215000EA93E985FA853196E987FA873197D8CFEE
:102160000E947A11E0917006F09171060895F801CD
:102170000F5F1F4F04900895E0917006F091710673
:102180003196E4910895EA93E0E0EA93E0E0F0E02C
:10219000FA93EA93A9E00C947A09AE81AF5FAE831B
:1021A000A150E0917406AE1708953A93AA850C9455
:1021B000850CA985BA85EA0FFB1FE987FA87089580
:1021C000E985FA85EA1BFB0BE987FA8708952A93CC
:1021D000AD85BE85EF85F88909950895E889F98967
:1021E0003497E88BF98B0895AD85BE85EF85F88926
:1021F00009950895A889B98914960E944211EE8321
:10220000FF83AE81BF810895A889B98914960E9481
:102210004211EA87FB870895DE011C960E941D117A
:102220000E9442110895109639F080ED97E00197D1
:10223000F1F7A8951197C9F708950024AF0DB01DC7
:102240000895F195E195F0400895EE230E2EEA2FC2
:1022500019F0EE0F0A94E9F70895EE230E2EEA2FF7
:1022600019F0E6950A94E9F708956F2F660F660B4B
:10227000762F0895FA9FF02DEB9FF00DEA9FE02D49
:10228000F10D0895ED91FC9111970895ED91FD9157
:102290006D917D9108957E936E93FE93EE930895D4
:1022A0000590F491E02D08957A936A93FA93EA9356
:1022B0000895E199FECFFF93FFB7F894AEBBBFBB83
:1022C000E09AEDB3FFBFFF910895E19B02C0A8958E
:1022D000FCCF9FB7F894AEBBBFBBE09A8DB3E817B5
:1022E00019F0EDBBE29AE19A9FBF089500240A1607
:1022F0000B0608955A934A933A932A931A930A9392
:1023000008955D814C813B812A811981088108955E
:00000001FF
