:020000004CC1F1
:10000200FECFFDCFFCCFFBCFFACFF9CFF8CFF7CFA2
:1000120080C2F5CFF4CFF3CFF2CFF1CFF0CFEFCF55
:10002200EECFEDCF05072060000000000000005F6A
:1000320000000007000700147F147F14242A7F2A7F
:10004200122313086462364955225000050300004A
:10005200001C2241000041221C00082A1C2A080818
:10006200083E080800503000000808080808003060
:1000720030000020100804023E5149453E00427FF4
:10008200400042615149462141454B311814127FCB
:100092001027454545393C4A494930017109050354
:1000A2003649494936064949291E003636000000BC
:1000B200563600000008142241141414141441226C
:1000C2001408000201510906324979413E7E11119C
:1000D200117E7F494949363E414141227F414122B9
:1000E2001C7F494949417F090901013E4141513281
:1000F2007F0808087F00417F41002040413F017F87
:10010200081422417F404040407F0204027F7F0466
:1001120008107F3E4141413E7F090909063E415197
:10012200215E7F09192946464949493101017F016A
:10013200013F4040403F1F2040201F7F2018207F6A
:1001420063140814630304780403615149454300AE
:10015200007F4141020408102041417F0000040257
:100162000102044040404040000102040020545477
:1001720054787F48444438384444442038444448FE
:100182007F3854545418087E090102081454543C10
:100192007F0804047800447D40002040443D000074
:1001A2007F10284400417F40007C041804787C08BA
:1001B20004047838444444387C1414140808141491
:1001C200187C7C080404084854545420043F4440DA
:1001D200203C4040207C1C2040201C3C4030403CC5
:1001E20044281028440C5050503C4464544C440061
:1001F2000836410000007F0000004136080002017D
:100202000204027F4141417F1027E80364000A0093
:1002120001000010000110000100000103070F1F80
:100222003F7FFF00A1004E6F64653A200031005409
:10023200656D703A200048756D69643A2000576117
:100242007465723A20006D6D0025750025752020B9
:10025200004E614E00256420000001002D4E414EEB
:1002620000494E4600000100070026020700600117
:100272002802020067012F0207006901310208000B
:100282007001380208007801400203008001480230
:10029200010006025C020000F894EE27ECBBF1E0DC
:1002A200FBBFEBBFE5BF8DE0A2E0BB27ED938A95D4
:1002B200E9F780E094E0A0E6ED930197E9F7E8E63C
:1002C200F2E085919591009761F0A591B591059025
:1002D2001590BF01F00105900D920197E1F7FB0126
:1002E200F0CFEFE5EDBFE4E0EEBFC0E6D1E05EC1E6
:1002F20024D92597E0E0E883E983EA83EB83EC8362
:10030200E3DB889A909A1CD99098A9E11DD9909A1A
:10031200889816D9809B02C0E0E03EC0809BFECF49
:100322000FD9809902C0E0E037C08099FECF00E08B
:100332000530F0F410E01830C8F4809BFECF85E859
:100342008A95F1F7809B10C0E02FF0E0DE01149651
:10035200FDD8BF011080E7E0E11BA1E023DBE1292A
:10036200DB01EC938099FECF1F5FE5CF0F5FE0CFFB
:10037200ED81AC81EA0FAE81EA0FAF81EA0F3E2F29
:10038200E885E31711F0E0E007C0EE81AB85BC859C
:10039200EC93EC81DED8E1E09EDB2D960895AA93E2
:1003A200E881E7B9DAD8369A349BFECF349AE4B1C1
:1003B200F5B12FC4D2D8D5D8AFE12FD0A2E0C4D89E
:1003C200D3D8EDE1EA93A4E028D0E5E0EA93A2E0F5
:1003D20024D0E6E0EA93A0E256C0CAD810E0183072
:1003E200C8F4E981E07811F4C69801C0C69A8DE09C
:1003F2008A95F1F7E981EE0FE983929A8DE08A9569
:10040200F1F7E0E08199E1E0A981EA2BE983929892
:100412001F5FE5CFE981188130C8AA939498E981DA
:10042200E062AE2FDADFDE2EA6D8A7D8ED2D25C8E2
:10043200AA939498E3E0EA93A3E0EFDF9ED894981E
:10044200AAE2CBDF98D897D896D895D894D895D8E1
:100452009498A0E3C2DF8FD88ED88DD88CD88BD851
:100462008CD8D7C393987DD8AEE10DC0ECE1EA9366
:10047200A1E0D3DFA72DDCDFE2E0EA93A1E0CDDF4C
:10048200E1E0EA93A1E0C9DF0895AA93949873D8B2
:1004920074D8BFC3A72DCCDF70D89498A1EE9DDF8E
:1004A2006CD89498A0EA99DF66D8AC8196DFA885CB
:1004B20094DFAC8592DFA88990DFAC898EDF949AB5
:1004C200939A88EE93E00197F1F793984DD8A72D70
:1004D200AFDFA1EEDADF68960895939A88E795E098
:1004E2000197F1F79398949A0895C59885E08A95B3
:1004F200F1F7C59A32D8C598B49BFECFE1E0F0E09F
:10050200E0930002F0930102E093FE01F093FF01F9
:1005120008950A921A926A937A938A939A93AA9363
:10052200BA93EA93FA93EFB7EA93ECE9E2BFA0E059
:10053200B2E025D8B49906C0A091FE01B091FF01A6
:10054200119709F026C0E0910002F09101023ADA17
:100552009DD9ADECBCEC8CEC9DE3C6D9A3EEB5EA1B
:100562008BE590E4C1D9A0E0B0E080EA90E4BCD988
:10057200E0930202F0930302609304027093050277
:10058200E0E0E0930002E0930102E093FE01E093D9
:10059200FF01E991EFBFF991E991B991A99199917F
:1005A2008991799169911990099018952897E0E6B7
:1005B200E7BBE0EFE8BBE0E2E4BBE5BBECE1E1BBBB
:1005C200EEE1E2BBE2E0E3BFECE9E2BFE0E0EFBD77
:1005D200EEBDEDBDECBDE7BDE6BDEBBDEABDE9BDDF
:1005E200E8BDE2BDE5BDE4BDE3BDE1E0E9BFE0E0B9
:1005F200E5BFEAB9E0E8E8B9E0E0E7B9E3E8E6B97F
:10060200E0E0E0BFEDB9E6BFE6E2F0E0E883F983BF
:10061200E0E0EA83EB83EC83ED83EE81E360EE833B
:10062200E37EE061EE83EF81E078E564EF83789426
:10063200DE0182D2AD98BEDE50DF18DF13DFA5D710
:1006420090D7A3D7AFE0A4D7EFE0EA939ED7AFE06D
:100652009FD787D79FD7A0E0F6D59CD782D79AD7C6
:10066200A0E396D792D796D7A0E392D77AD779D735
:10067200A0E3E9D5E3E0EA93A3E0D9D5A0E6B1E0AF
:10068200ADD5E8E2EA93A3E0D2D5A7E6B1E085D7FB
:10069200A2E1CDD5A9E6B1E080D7ACE1C8D5A0E70B
:1006A200B1E07BD7A5E2C3D5A8E7B1E097D5E3E4F3
:1006B200EA93ACE1BCD5A5E23AD5E3E4EA93A5E23C
:1006C200B6D5A0E8B1E08AD5E5E0F0E06AD7A4E0CB
:1006D200B0E00EDEE03081F067D7EBE4F2E061D704
:1006E200E42D65D7ACE16DD75FD7EEE4F2E059D7E0
:1006F200E52D5DD7A2E165D7F8DEE2E3EA93A5E254
:1007020096D563D7759744F04FD7E3E5F2E049D722
:1007120080E098D124960AC047D7E7E5F2E041D7B6
:1007220054D750D9A1D984E08DD12896A0EAB1E05E
:1007320055D5E1E0F0E060E070E0E093E601F0938F
:10074200E7016093E8017093E901E52DF0E03AD901
:10075200E093F201F093F3016093F4017093F501D9
:10076200E42DF0E02FD9E093EE01F093EF016093D6
:10077200F0017093F101A6E032D7E093EA01F09321
:10078200EB016093EC017093ED01A7E028D7E093B1
:10079200F601F093F7016093F8017093F90115D710
:1007A200E093FA01F093FB016093FC017093FD0169
:1007B200E6EEF1E0A8E15DD96DDEA8ECC5D684CF06
:1007C200FFCFBBD683D916D7129646D93097F1F010
:1007D20011D713D78F01309761F00230E0E01E0786
:1007E20070F0F80131978F01AA81BB811496ED93C5
:1007F200FC9300D71296C3D63197AC81A083FAD668
:100802002BD9FF2312F0F6D6BAD605C0F3D6EFEFF6
:10081200FFEFED93FC9361D90FC68FD6269752D97D
:1008220010E0AC85BD85ECD6ED93FC93EA89FB899B
:100832003196EA8BFB8B3197E4912E2FE03009F44D
:10084200FBC0E12FE03031F4253211F411E001C098
:10085200DAD6F1C0E130A1F4253211F4D4D6EAC0DF
:1008620012E040E000E02D3211F401E0E4C02B324E
:1008720011F44BE2E0C0203211F440E2DCC002C0CD
:10088200E23039F450E013E0203311F40068D3C0B1
:1008920003C0E33009F0CFC0203310F02A3308F050
:1008A20007C0AAE05A9F502DE22FE0535E0FC3C04B
:1008B200E22FE33639F4AED6B0D6ACD6A481AA93F1
:1008C200B0D6B8C0E33731F4B2D6B3D6B5D6B6D5C2
:1008D2001E2F08C0E03751F4AAD6ABD6ADD6B9D593
:1008E2001E2F086002600F7730E02DC0E43611F051
:1008F200E93611F4046002C0E53729F4EAE0F2E0D7
:10090200A0D615E00BC0E83511F4086003C0E83743
:1009120009F090C0E4E1F2E094D614E002FF10C0C6
:1009220086D687D691D6AB85AA2322F490D62ED826
:100932008BD64DE2403011F01F5F01C00B7F03C028
:1009420076D677D681D600FD10C0151770F407FF52
:1009520008C002FF04C00B7F242F115001C020E306
:1009620001C020E250D65150F0CF312F01FF15C007
:10097200303091F003FF05C0EE81FF81259161D6F1
:1009820005C0AE81BF812D91AE83BF833CD650306E
:1009920009F051503150ECCF44C020E3EE81FF8189
:1009A2005FD8E887F987EE81FF8132964AD6E885DB
:1009B200F98550D6AE17BF0740F02F5FA885B985DD
:1009C20046D6EA1BFB0B40D6F2CF2A3328F003FFB0
:1009D20002C0295F01C0295D04FD19C0213320F442
:1009E200A885B985119709F409C0531710F000FFC3
:1009F20001C011C020E207FF0AC020E3006102FF2C
:100A020006C00B7F4A930DD6503009F05150FBD5EA
:100A1200503009F051503150A885B985129708F02D
:100A2200BCCF00FF07C0503029F05150E0E2EA93FA
:100A3200F8D5F9CF10E0FACEAC85BD850DD849D8EE
:100A420064960895FF92F82E26973ED806D63097E0
:100A520019F4EFEFFFEF1CC0DE01169693D78D015C
:100A6200FCD5EFD5E0E0E887E987DE011A968AD760
:100A7200F3D797D51A930A93E2EEF3E092D5DE010B
:100A82001A96CBDE9F01AE81BF81E0E0EC93F901C3
:100A920022D82A96FF90089508956AD5A99818E059
:100AA200FBDFE981E07811F0AB9A01C0AB98E981F4
:100AB200EE0FE983F1DFAC9AEFDFAC98115081F7CA
:100AC200A99A1881DAC4AA93AA98A881E6DFA1C0DC
:100AD200AA93AA9AA881E1DF9CC04AD5E981C2D52E
:100AE2001E2FE4E5E19FF001DF01EA81BFD5E0932B
:100AF2000A02F0930B02E12F188100C5AA93E98143
:100B0200E068B6D5E981EA93A981E7DFE064B0D570
:100B1200B4C4AA93E981EA93A981F0DFE0910A02C1
:100B2200F0910B02A7D5E081A8C4AA93A6D5A8D5B7
:100B3200A881A083CDDF6DC000D5C6D7A19AA99A9E
:100B4200A49AAC98A39AA29AA09AA898AAE0FCD4D4
:100B5200A89A98D53097D9F095D5E681E3701E2FE3
:100B620091D5E681E695E695E7700E2F8BD5E78164
:100B7200EF773E2FAC81BD816FD787D5AC81BD8128
:100B820012966AD787D5AC81BD8137D508C010E0EF
:100B920003E032E335D579D533D57CD531D5E09331
:100BA2009E01F0939F01A1E28EDFE12FE46060D508
:100BB200E02FE0615DD5E32FE0685AD5A0E283DF44
:100BC200A1E01FD0E1E0E0938301E0E0E093840143
:100BD200E1E0E0938901E0938A01E0938B01EFEF7A
:100BE200E0938C01E1E0E0939301E4E9F1E0D9D4F0
:100BF200EFEFEA93A8E0B0E012D40DD0E1E06BD7BA
:100C020078C0AA93E881E03011F0ECE001C0E8E09E
:100C12002FD52196089558D730E0E0918401E03035
:100C220009F03FEF9ED4A0E069DF08EF11E0F80180
:100C320001501040309719F0A32F77DFF8CF91D4ED
:100C4200A0E0F5D248D777C4AA9340D7AC81A435A7
:100C520018F4AB81A03310F040D7EEC3EC81EA93D5
:100C6200AC8157DF1E2FEB81E770A1E09BD60E2FE0
:100C7200EA81E03011F0102B03C0E02FE0951E2333
:100C8200A12F53DF2AD7D8C373D4ED81EA93AD8164
:100C920040DF1E2FE981E73011F0E83031F4EB81BB
:100CA200EA93AA81ECD3EB8308C0E33021F4EB8111
:100CB200E095EB8302C0E03021F4EA81E0951E2347
:100CC20002C0E23029F4EA81AB81EA231E2B0EC076
:100CD200E13029F4EA81AB81EA231E2707C0E43020
:100CE20029F4EA81E095AB81EA2B1E23A12F1DDFB7
:100CF200188126960895AA932397E4D6A889A43545
:100D020048F4AF85A03330F4AE85A03019F0AD853C
:100D1200A03009F484C1EE85E887A889BB27EE8557
:100D2200BED4A535E0E0BE0720F0A889E4E5EA1BC1
:100D3200EE872D85AF85BB27ED85B1D4D19720F005
:100D4200AF85E0E3EA1BED87A985A63009F051C023
:100D5200EC85E13009F463C1E33039F4E0919E019E
:100D6200F0919F01309709F45AC10885ED857AD434
:100D72003E2FE22FE77019F4AD852A17C9F0A02F94
:100D8200BB27E32F90D466D4E1D35BD42695269576
:100D92002695532F5F935F5FE22FAF91EA1740F0E2
:100DA200102FE12F1150E03011F080D4FACFF2CFA2
:100DB200AE850A17F1F0EE854DD458D442D4ED85B4
:100DC200E77009F03F5F20E02F932F5FE32FAF9191
:100DD200AE1778F41E851F931F5FE02FAF91AE17F9
:100DE20010F464D4F8CFEE85AE81BF813FD429D40C
:100DF200EBCFEF85E7703E2FED85E03009F40FC1B0
:100E020026D41FD410E00889303009F05AC0AD85CD
:100E1200A83008F451C0E985E03011F0E33009F45C
:100E220002C0E73009F402C0E83009F402C0E93038
:100E320009F402C0EA3019F444D460DE04C0E6309A
:100E420011F43FD44ADE1F933FD4AF91AE1768F539
:100E5200A985A63039F43BD4A4D30FD411D4A081F0
:100E62004FD322C0E985E93011F450E00CC0EA30DA
:100E720011F45FEF08C02BD433D45E2FE985E7303D
:100E820011F0E83019F431D45E2F06C0E33011F4CA
:100E9200509502C0E03019F4A52F1ADE05C028D4FF
:100EA200EFEFEA93AD85F0DECECFEF85E85FEF8717
:100EB200ED85E850ED87AEC05D8520E0E0E0ED878E
:100EC20067C0E32FAD85AE0FA93020F42D85E0E099
:100ED200ED8703C0E8E0E31B2E2F3A93A22FC5D281
:100EE2004E2FE985E630C1F4ECD3F7DD1F93ECD346
:100EF200AF91AE1780F4C1D3C3D3E081E423AE2F08
:100F0200E32F58D5FBD3E32FA42F54D501D449D3D3
:100F1200A52FF6D2EBCF22C0E93011F450E003C086
:100F2200EA3089F45FEFE1D3AE2FE32F3BD55E2F9A
:100F32001F93CAD3AF91AE1728F4DAD34A93A0E035
:100F4200A3DEF6CF0BC01F93BFD3AF91AE1730F421
:100F5200E3D3AE2FE32F26D5ECD3F5CFED85E030EA
:100F620009F45DC0AD85A83028F4ED85E21B5E2F43
:100F7200E0E003C0532FED85E850ED8710E0EF85E8
:100F8200E85FEF87E8E0E31B2E2F088960D359D38F
:100F9200E52FF0E0E45EFD4F4491E985E630C1F4CF
:100FA20090D39BDD1F9390D3AF91AE1780F465D39E
:100FB20067D3E081E423AE2FE22FF4D49FD3E22F54
:100FC200A42FF0D4A5D3EDD2A52F9AD2EBCF22C075
:100FD200E93011F450E003C0EA3089F45FEF85D3C1
:100FE200AE2FE22FE7D45E2F1F936ED3AF91AE17D1
:100FF20028F47ED34A93A0E047DEF6CF0BC01F93BE
:1010020063D3AF91AE1730F487D3AE2FE22FD2D491
:1010120090D3F5CFE8851ED329D316D3EDCE59D57B
:10102200619608958AD314F0EBD227C28BD3A435EC
:10103200E0E0BE071CF0E3E5F0E01FC2E881F981C1
:101042001CC27BD314F0DCD218C27CD3D0971CF024
:10105200EFE2F0E012C2E881F9810FC26ED223976B
:1010620074D38F01002E012A11F4CAD24EC073D359
:101072000F8271D30E826FD30886EB85A885EA179B
:1010820010F4BED242C0F8010F5F1F4F5491A885E1
:10109200BB27EE27A50FBE1FEB85F0E0EA17FB0783
:1010A20010F0AED232C0EE81DDD24E2FEE81E7706B
:1010B20009F04F5FEF81E03071F04BD2A885EB85EC
:1010C200EA1BF0E0DF01EF81EED2DF01E42FEBD289
:1010D200E00FF11F1AC09801E52FF0E00E0F1F1F5D
:1010E200A885AF5FA887A150EB85AE1750F4F90130
:1010F2002F5F3F4FA491B0E0E42FD5D20E0F1F1FF8
:10110200EFCFF901E49125D2F801E3D42C960895AA
:10111200E0E0E0938501A0918601BB2721D3BFD2F5
:10112200E0918A01BCD28DDFE09386010895AA93F3
:1011320021970BD3309709F44CC0AF81AA3009F440
:1011420046C0EF81EA93DE01179688DFAF01309740
:1011520009F441C0E0918901AE81EA0F3E2FA091CE
:101162008501BB2783D28F010535E0E01E0718F009
:10117200032F1127CDDFE0918501F9D2E885EA93AB
:10118200EFD2EA93E1E0EA935A934A93A7E0B3DD00
:10119200E0918501AE81EA0FEAD2E0918901EA93FA
:1011A200DFD2EA93DED1E8D2E0918501EA93A09101
:1011B2008601D6D2EA0FEA933A93E0918A01EA9342
:1011C200D0D1DAD2E4E5F0E0E017F10711F4A0DFC4
:1011D20002C0009385017DD428960895AED11A935A
:1011E200A981BA81ED91A983BA831E2FE03019F04B
:1011F200A12F9DDFF5CF188181C1AA93EA81EA93DD
:10120200EA81EA93E0918C01AA81EA2319F0E09144
:10121200830102C0E0918401AE2F16DDE881EE0F5A
:10122200E883E03011F4E1E0E883E88167C1AA9342
:10123200A981BB27F7DEE0938501A881BB2701DFE7
:10124200E09386011AC1AA932B973CD4AC89BB27A1
:10125200E9DEEC8BAA89BB27E5DEEA8BAB89BB27EB
:10126200F0DEEB8BA989BB27ECDEE98BEA89E09300
:101272008501E989E0938601E1E0E887E989AB89A4
:10128200EA1761F51C89AA891A1731F41A93EC89B5
:10129200EA93A1E0B2DFC0C0AA891A1730F4EA8942
:1012A200E11B0E2F41E050E006C0AA89E12FEA1BA4
:1012B2000E2F4FEF5FEF3B89E0E0EE8361D230F417
:1012C20067D23395AA8599DFEF83F8CFEF81E8875C
:1012D200140FE02F0150E03071F79EC0EA89AC890B
:1012E200EA1739F53B89A9893A1730F4E989E31BF2
:1012F2002E2FE1E0F0E006C0A989E32FEA1B2E2F92
:10130200EFEFFFEFED87FE871C89E0E0EE8338D236
:1013120038F41A9313953A93AA856FDFEF83F7CFC8
:10132200EF81E887ED853E0FE22F2150E03061F733
:1013320073C0E0E0EE8324D208F06EC01C893B89C2
:10134200E1E02E2F0E2FAA89BB27EC89F0E0AE1B1D
:10135200BF0BAD01552322F40FEFFA0117D3AF01F2
:10136200FA01EE0FFF1FEF87F88BA989BB27EB89E4
:10137200F0E0AE1BBF0BAD87BE87AE85AA2332F469
:101382002FEFED85FE8502D3ED87FE87ED85FE8585
:10139200EE0FFF1FEB87FC87FBD1A1E02EDFE88772
:1013A200E0E0E987EA87AD85BE854A175B07B4F0BE
:1013B200100FEB85FC85EFD1C9D0F0D1ECD14A17E3
:1013C2005B0724F4320FAF85B889EBD1E1D1AA854E
:1013D20014DFE887EA89E11759F717C0320FEF8562
:1013E200F889D9D1B3D0DAD1ED85FE85D4D1EA1707
:1013F200FB0724F4100FAB85BC85D3D1C9D1AA85D4
:10140200FCDEE887E989E31749F7EB89EF5FEB8BAD
:10141200E989EF5FE98B8FCF5CD3659608958DD014
:10142200B981A881109631F0FC81EB816A816193C8
:101432001197E9F7EB81FC81259608957ED0A99159
:10144200B991EE27FF276D91662311F03196FBCFFC
:10145200089573D0AA27BB27E991F991059000203E
:1014620011F01196FBCFFD010895AA93E881F0E0F7
:10147200E45EFD4FA491E98195D22296089578D039
:10148200E981E73011F0EA3019F41091830109C0C3
:10149200E93019F41091840104C0E830A1F41091EC
:1014A2009301E0918401E03049F0103019F0EFEF40
:1014B200188124C0EA81E095188120C0103019F407
:1014C200E0E018811BC0EA81188118C036D0EA8199
:1014D200E13021F4E881F981E49110C0E23019F49D
:1014E20031D1CFD20BC0E33039F42CD1E0919C0141
:1014F200F0919D01099502C025D1EC9123960895A2
:10150200AA93EB81E03029F4E881A981BA81EC93B6
:1015120012C0E23029F4E881A981BA81BED20BC09F
:10152200E33049F4E981FA813CD0AA81E0919E013D
:10153200F0919F01099524960895BA93AA9308956C
:1015420080EA8A95F1F70895B0E030C1EA0FFB1FF7
:101552000895A985BA85EC9308958BE18A95F1F7F0
:101562000895E0E0EA930895E7E0EA93AEE755C70D
:10157200AA931A930895A88130C7949AEECFED9159
:10158200FD913196FE93EE930895E0E3EA93089578
:101592005ADEE7CFE4E5EA93089520DEE4E0EA9339
:1015A2000895FA93EA930895E0EAF1E0FACFF0E0C1
:1015B2006627772759D284E045DA2896E2E3EA9350
:1015C200089535DEA0EAB1E009CEE0910202F09181
:1015D2000302609104027091050221D10895DFD6C1
:1015E20066277727DF01CB01E4E0F0E060E070E0FE
:1015F2001BD20895AA81BB81089514962DD2089515
:10160200E0E0F0E008952A93AD85BE85EF85F88984
:1016120009950895E889F98908953497E88BF98B3B
:101622000895AD85BE85EF85F88909950895F2DFA5
:10163200F4CFA889B989E1CFEE83FF83AE81BF8160
:101642000895EE83FF830895EA87FB870895EA856C
:10165200FB850895AA85BB850895DE011C9692D16B
:10166200FBD10895E695E695E6950895F0E06ECFF4
:10167200AE2F29CAE45FFD4F0895AAE0B2E07FCF02
:101682003197F8CFEC81FD810895E0938701F093C3
:1016920088010895E0939C01F0939D010895F0E084
:1016A200AE0FBF1F0895F0E092D10895EC85EA9342
:1016B200EF81F8853196EF83F887319772DFA0E0EA
:1016C2001FCF0A93A88908951F5FEE850895EC85C0
:1016D200EA93EF81F8853196EF83F8873197089581
:1016E20066277727DF01CB01F1CE5A93AA85C7CEB1
:1016F2000A930395E889EA935A9308955E2FEC853D
:10170200EA93AF81B88588279927E0DE1E2E0895D7
:10171200E095E1215E2BDBCF0A930395E889EA93FA
:10172200EE85EA93E985FA853196E987FA8731975A
:10173200D7CFEA934A93AD85A7CAFFDEA881B981C4
:10174200BDD10895A881B9810895BCD1E0918701E6
:10175200F09188010895F8010F5F1F4F04900895DA
:10176200E0918701F09188013196E4910895EA931E
:10177200E0918601EA93089543DF13DFA9E0BBCA33
:10178200AE81AF5FAE83A150E0918B01AE17089599
:101792001A933A930895A985BA850895E987FA8735
:1017A2000895E985FA85EA1BFB0BF8CF109639F00C
:1017B20080ED97E00197F1F7A8951197C9F7089581
:1017C200552342F4503811F4E0FF04C03196691FEA
:1017D200791F6BF050E8572711F45F9373C05F3F96
:1017E20031F0660F000C57956795752F08955F933A
:1017F20000200AF073C06CC050E8192E1522880F21
:10180200991F9527550F879550E8072E0522660FD9
:10181200771F7527550F67950895689401C0E8945E
:101822005F93F2DF703818F07F3F08F44BC056E147
:10183200571BAAF4519558300EF4593030F0EFEF9F
:10184200FFEF6FEF7FE777F91AC077275523B9F0DB
:10185200EE0FFF1F661F771F5A95D1F710C077272B
:10186200583028F0EF2FF62F672F5850F9CF552315
:1018720031F076956795F795E7955A95D1F700205F
:101882000AF488D05F910895689401C0E894309773
:1018920060407040B1F0002426F0772312F40094E7
:1018A20079D0172E7EE1112032F07A95EE0FFF1FCC
:1018B200661F111CF9CFEF2FF62F612D5F938ADF80
:1018C2005F910895EE27FF27662777275F91089596
:1018D200EFEFFFEF6FE77FEF5F910895EFEFFFEF1D
:1018E2006FE77FE75F9108955F9386DF703851F36A
:1018F200903841F301240894791F23F41CF300204B
:101902003AF3ECCF0F921F932F933F934F931127EC
:1019120022279927689FA0018F9F302D410D591FC3
:101922006B9F300D411D591F8E9F27D0BF9F25D021
:101932006A9F23D0BE9F1DD0AF9F1BD0AE9F110DBB
:10194200291F391F491F591FE32FF42F652F522FCB
:101952004F913F912F911F910F9066232AF0550FBF
:10196200EE1FFF1F661F02C073954BF229DF5F91C6
:101972000895100D211D391F02C0200D311D491F70
:10198200591F08950024AF0DB01D0895F195E195FA
:10199200F0400895F09560957095E195FF4F6F4F77
:1019A2007F4F0895EE230E2EEA2F19F0EE0F0A94C0
:1019B200E9F70895EE230E2EEA2F19F0E6950A9420
:1019C200E9F708956F2F660F660B762F0895FA9F39
:1019D200F02DEB9FF00DEA9FE02DF10D08953F935E
:1019E2004F935F93002411244427552730E2AA0F16
:1019F200BB1F881F991F001C111C441F551F0E1A64
:101A02001F0A460B570B28F40E0E1F1E461F571FA8
:101A120001C0A1603A9559F7FD01BC01D001CA018C
:101A22005F914F913F91089504D0D9DF0EF4B2DF58
:101A32000895E89477FF02C0ADDF689497FF0BC06A
:101A42000024A095B095809590951196801D901DCB
:101A520000F8039400FA0895ED91FC91119708950E
:101A62000590F491E02D08957A936A93FA93EA939C
:101A72000895BB27EA0FFB1F02900A921197E1F724
:101A82000895E199FECFFF93FFB7F894AEBBBFBBB9
:101A9200E09AEDB3FFBFFF910895E19B02C0A895C4
:101AA200FCCF9FB7F894AEBBBFBBE09A8DB3E817EB
:101AB20019F0EDBBE29AE19A9FBF089500240A163D
:101AC2000B0608955A934A933A932A931A930A93C8
:101AD20008955D814C813B812A8119810881089595
:00000001FF
