:0A0000005BC1FECFFDCFFCCFFBCFAC
:10000A00FACFF9CFF8CFF7CF9CC2F5CFF4CFF3CF21
:10001A00F2CFF1CFF0CFEFCFEECFEDCF05072060D3
:10002A00000000000000005F000000070007001445
:10003A007F147F14242A7F2A122313086462364904
:10004A005522500005030000001C224100004122F5
:10005A001C00082A1C2A0808083E0808005030001C
:10006A0000080808080800303000002010080402C0
:10007A003E5149453E00427F400042615149462176
:10008A0041454B311814127F1027454545393C4AE2
:10009A004949300171090503364949493606494932
:1000AA00291E0036360000005636000000081422C9
:1000BA0041141414141441221408000201510906AF
:1000CA00324979413E7E1111117E7F494949363EB6
:1000DA00414141227F4141221C7F494949417F09CF
:1000EA000901013E414151327F0808087F00417FE2
:1000FA0041002040413F017F081422417F40404097
:10010A00407F0204027F7F0408107F3E4141413E46
:10011A007F090909063E4151215E7F091929464690
:10012A004949493101017F01013F4040403F1F20B9
:10013A0040201F7F2018207F63140814630304786B
:10014A000403615149454300007F414102040810FC
:10015A002041417F00000402010204404040404027
:10016A00000102040020545454787F48444438382B
:10017A0044444420384444487F3854545418087E30
:10018A00090102081454543C7F0804047800447D91
:10019A0040002040443D00007F10284400417F4039
:1001AA00007C041804787C080404783844444438F1
:1001BA007C14141408081414187C7C0804040848D5
:1001CA0054545420043F4440203C4040207C1C208E
:1001DA0040201C3C4030403C44281028440C5050DD
:1001EA00503C4464544C44000836410000007F00EF
:1001FA0000004136080002010204027F4141417FAA
:10020A001027E80364000A00010000100001100032
:10021A000100000103070F1F3F7FFF00A1004E6F7F
:10022A0064653A2000310054656D703A20004875C3
:10023A006D69643A200057617465723A200021435F
:10024A0000636D0025750025752020002A200025F1
:10025A006420005261696E200053756E200001000F
:10026A002D4E414E00494E4600000100070026026D
:10027A00070060012802020067012F0207006901D6
:10028A0031020800700138020800780140020300B8
:10029A0080014802030083014B02060086015D02C9
:1002AA0005008C0163020100F80168020000F8945D
:1002BA00EE27ECBBF1E0FBBFEBBFE5BF8DE0A2E0B0
:1002CA00BB27ED938A95E9F780E094E0A0E6ED93E9
:1002DA000197E9F7E4E7F2E085919591009761F0DB
:1002EA00A591B59105901590BF01F00105900D9269
:1002FA000197E1F7FB01F0CFEFE5EDBFE4E0EEBFD8
:10030A00C0E6D1E0B6C12FD92597E0E0E883E983BA
:10031A00EA83EB83EC8328DC889A909A27D9909811
:10032A00A9E128D9909A889821D9809B02C0E0E057
:10033A003EC0809BFECF1AD9809902C0E0E037C048
:10034A008099FECF00E00530F0F410E01830C8F4D0
:10035A00809BFECF85E88A95F1F7809B10C0E02F3D
:10036A00F0E0DE01149608D9BF011080E7E0E11B36
:10037A00A1E042DBE129DB01EC938099FECF1F5F0C
:10038A00E5CF0F5FE0CFED81AC81EA0FAE81EA0FD6
:10039A00AF81EA0F3E2FE885E31711F0E0E007C0CE
:1003AA00EE81AB85BC85EC93EC81E9D8E1E0E3DB37
:1003BA002D960895AA93E881E7B9E5D8369A349B31
:1003CA00FECF349AE4B1F5B138C4E1D898D0A2EEA0
:1003DA009FD0D9D8E0D8AFE11ED0A2E0CBD8D7D8E9
:1003EA001AD0EDE1EA93A4E016D0E5E0EA93A2E0A0
:1003FA0045C0AA931A9310E0183050F4E981E078C6
:10040A0011F4C69801C0C69AC9D8CCD81F5FF4CFD8
:10041A00E981188148C8D3D8E981E062AE2FE9DFC3
:10042A00DE2ED0D8D1D8ED2D3EC8C9D8E3E0CED83B
:10043A00F2DFCAD89498AAE2DCDFC4D8C3D8C2D8FB
:10044A00C1D8C0D8C1D89498A0E3D3DFBBD8BAD852
:10045A00B9D8B8D8B7D8B8D8F0C393989CD8AEE171
:10046A000DC0ECE1EA93A1E0D6DFA72DDEDFE2E0E2
:10047A00EA93A1E0D0DFE1E0EA93A1E0CCDF0895BE
:10048A009ED8A0D8A1D8D9C3A72DCFDF9DD894983C
:10049A00A1EEAFDF99D89498A0EAABDF93D8AA81EE
:1004AA00A8DFAC81A6DFAE81A4DFA885A2DF949A7B
:1004BA00939A88EE93E00197F1F7939868D8ABDFA7
:1004CA00A72DB3DFA1EEDCDF2A96089582D810E0CB
:1004DA00183050F4E981E07811F4C69801C0C69A40
:1004EA005DD860D81F5FF4CFE9811881DCC7939A81
:1004FA0088E795E00197F1F79398949A08955FD861
:10050A00E981E062AE2FE2DFA881E0DF5DD8CBC7E8
:10051A0056D8A881DBDF58D890C3C59885E08A955C
:10052A00F1F7C59A30D8C598B49BFECF55D8E09359
:10053A00F201F093F30150D8E093F001F093F10146
:10054A0008950A921A926A937A938A939A93AA932B
:10055A00BA93EA93FA93EFB7EA93ECE9E2BFA2EF10
:10056A00B1E03DD8B49906C0A091F001B091F10173
:10057A00119709F026C0E091F201F091F3014CDAEB
:10058A00AFD9ADECBCEC8CEC9DE3D8D9A3EEB5EABF
:10059A008BE590E4D3D9A0E0B0E080E09FE3CED928
:1005AA00E093F401F093F5016093F6017093F7017B
:1005BA00E0E0E093F201E093F301E093F001E093CD
:1005CA00F101E991EFBFF991E991B991A991999155
:1005DA0089917991699119900990189506D8DBD774
:1005EA0004D8AFE005D8EFE0EA93FFD7AFE000D830
:1005FA00D2D700D8A0E03ED6FDD7CDD7FBD7A0E30F
:10060A00F7D7F3D7F7D7A0E3F3D7C5D7C4D7A0E373
:10061A0031D6E3E0DBD722D6A0E6B1E0F6D5E8E2B0
:10062A00D5D71CD6A7E6B1E0E8D7A2E117D6A9E646
:10063A00B1E0E3D7ACE112D6A0E7B1E0DED7A5E29C
:10064A000DD6A8E7B1E0E1D5E4E4EA93A2E106D643
:10065A00A0E8B1E0DAD5E5E4EA93ACE1FFD5A5E29A
:10066A007DD5E5E4EA93A5E2F9D5A3E8B1E0CDD5D5
:10067A0008952897E0E6E7BBE0EFE8BBE0E2E4BBD9
:10068A00E5BBECE1E1BBEEE1E2BBE2E0E3BFECE9B2
:10069A00E2BFE0E0EFBDEEBDEDBDECBDE7BDE6BDFE
:1006AA00EBBDEABDE9BDE8BDE2BDE5BDE4BDE3BD24
:1006BA00E1E0E9BFE0E0E5BFEAB9E0E8E8B9E0E097
:1006CA00E7B9E3E8E6B9E0E0E0BFEDB9E6BFE6E2A4
:1006DA00F0E0E883F983E0E0EA83EB83EC83ED83DF
:1006EA00EE81E360EE83E37EE061EE83EF81E07802
:1006FA00E564EF837894DE0133D2AD98F8DE65DEE7
:10070A00B0DE6CDFE5E0F0E07CD7A4E0B0E0FBDD32
:10071A00E03081F079D7EEE4F2E073D7E42D77D7B1
:10072A00ACE17FD771D7E1E5F2E06BD7E52D6FD762
:10073A00A2E177D792DEF1DEE2E3EA93A5E28ED573
:10074A0074D7759744F060D7E6E5F2E05AD780E0AF
:10075A008DD124960AC058D7E9E5F2E052D765D779
:10076A005BD9D2D984E082D12896AEEAB1E04DD5E0
:10077A00E7E32CD773D530D7E093E601F093E7018E
:10078A00A6E018DEDF01E3E0F0E066D9E83CA0E08D
:10079A00FA072CF421D753D7A6E8B1E004C054D7FE
:1007AA004ED7ACE8B1E031D5E52DF0E0E093EC01AD
:1007BA00F093ED01E42DF0E0E093EA01F093EB0110
:1007CA00A7E0F8DD44D7E4E0F0E060E070E06ED93D
:1007DA00E093EE01F093EF01E6EEF1E0AAE099D999
:1007EA0053DEA8ECC7D68ECFFFCFBDD6BFD934D73C
:1007FA00129682D93097F1F02FD731D78F013097DF
:10080A0061F00230E0E01E0770F0F80131978F01C5
:10081A00AA81BB811496ED93FC931ED71296DFD65C
:10082A003197AC81A08318D767D9FF2312F014D768
:10083A00D6D605C011D7EFEFFFEFED93FC939DD904
:10084A0011C691D626978ED910E0AC85BD85FCD607
:10085A00ED93FC93EA89FB893196EA8BFB8B3197FE
:10086A00E4912E2FE03009F4FBC0E12FE03031F49F
:10087A00253211F411E001C0F5D6F1C0E130A1F43E
:10088A00253211F4EFD6EAC012E040E000E02D3242
:10089A0011F401E0E4C02B3211F44BE2E0C0203243
:1008AA0011F440E2DCC002C0E23039F450E013E057
:1008BA00203311F40068D3C003C0E33009F0CFC07D
:1008CA00203310F02A3308F007C0AAE05A9F502DAF
:1008DA00E22FE0535E0FC3C0E22FE33639F4C9D6E4
:1008EA00CBD6C7D6A481AA93CBD6B8C0E33731F406
:1008FA00CDD6CED6D0D6B8D51E2F08C0E03751F403
:10090A00C5D6C6D6C8D6BBD51E2F086002600F77DB
:10091A0030E02DC0E43611F0E93611F4046002C06B
:10092A00E53729F4EAE0F2E0BBD615E00BC0E8357A
:10093A0011F4086003C0E83709F090C0E4E1F2E07E
:10094A00AFD614E002FF10C0A1D6A2D6ACD6AB85B2
:10095A00AA2322F4ABD644D8A6D64DE2403011F0F1
:10096A001F5F01C00B7F03C091D692D69CD600FDB3
:10097A0010C0151770F407FF08C002FF04C00B7FF0
:10098A00242F115001C020E301C020E26BD6515040
:10099A00F0CF312F01FF15C0303091F003FF05C0B1
:1009AA00EE81FF8125917CD605C0AE81BF812D9154
:1009BA00AE83BF8357D6503009F051503150ECCF37
:1009CA0044C020E3EE81FF819BD8E887F987EE8156
:1009DA00FF81329665D6E885F9856BD6AE17BF07D3
:1009EA0040F02F5FA885B98561D6EA1BFB0B5BD661
:1009FA00F2CF2A3328F003FF02C0295F01C0295D24
:100A0A0004FD19C0213320F4A885B985119709F48A
:100A1A0009C0531710F000FF01C011C020E207FF00
:100A2A000AC020E3006102FF06C00B7F4A9328D662
:100A3A00503009F0515016D6503009F0515031500B
:100A4A00A885B985129708F0BCCF00FF07C05030BF
:100A5A0029F05150E0E2EA9313D6F9CF10E0FACE2A
:100A6A00AC85BD8549D885D864960895FF92F82E3D
:100A7A0026977AD821D6309719F4EFEFFFEF1CC0EA
:100A8A00DE011696A9D78D0117D60AD6E0E0E887C7
:100A9A00E987DE011A96A0D72FD8B3D51A930A93FD
:100AAA00EAEFF3E0AED5DE011A96CBDE9F01AE8106
:100ABA00BF81E0E0EC93F9015ED82A96FF90089591
:100ACA00089587D5A99818E0FBDFE981E07811F04D
:100ADA00AB9A01C0AB98E981EE0FE983F1DFAC9ADA
:100AEA00EFDFAC98115081F7A99A1881DCC4AA9358
:100AFA00AA98A881E6DFA1C0AA93AA9AA881E1DFF1
:100B0A009CC067D5E981DDD51E2FE4E5E19FF001A0
:100B1A00DF01EA81DAD5E093FC01F093FD01E12FD0
:100B2A00188102C5AA93E981E068D1D5E981EA93DF
:100B3A00A981E7DFE064CBD5B6C4AA93E981EA9339
:100B4A00A981F0DFE091FC01F091FD01C2D5E081BD
:100B5A00AAC4AA93C1D5C3D5A881A083CDDF6DC08D
:100B6A0002D502D8A19AA99AA49AAC98A39AA29A51
:100B7A00A09AA898AAE0FED4A89AB3D53097D9F03B
:100B8A00B0D5E681E3701E2FACD5E681E695E695F1
:100B9A00E7700E2FA6D5E781EF773E2FAC81BD8196
:100BAA00ABD7A2D5AC81BD811296A6D7A2D5AC810E
:100BBA00BD8155D508C010E003E032E345D594D590
:100BCA0043D597D541D5E093AC01F093AD01A1E2AD
:100BDA008EDFE12FE4607BD5E02FE06178D5E32F4B
:100BEA00E06875D5A0E283DFA1E01FD0E1E0E093E1
:100BFA009101E0E0E0939201E1E0E0939701E09354
:100C0A009801E0939901EFEFE0939A01E1E0E09314
:100C1A00A101E2EAF1E0F5D4EFEFEA93A8E0B0E04F
:100C2A0014D40DD0E1E0A7D778C0AA93E881E030C8
:100C3A0011F0ECE001C0E8E04AD52196089594D776
:100C4A0030E0E0919201E03009F03FEFA4D4A0E057
:100C5A0069DF08EF11E0F80101501040309719F0F0
:100C6A00A32F77DFF8CF97D4A0E0F8D284D779C43E
:100C7A00AA937CD7AC81A43518F4AB81A03310F0C9
:100C8A007CD7F0C3EC81EA93AC8157DF1E2FEB814E
:100C9A00E770A1E0B1D60E2FEA81E03011F0102BF7
:100CAA0003C0E02FE0951E23A12F53DF66D7DAC3D6
:100CBA0090D4ED81EA93AD8140DF1E2FE981E730C0
:100CCA0011F0E83031F4EB81EA93AA81EED3EB8399
:100CDA0008C0E33021F4EB81E095EB8302C0E030F9
:100CEA0021F4EA81E0951E2302C0E23029F4EA8168
:100CFA00AB81EA231E2B0EC0E13029F4EA81AB81D5
:100D0A00EA231E2707C0E43029F4EA81E095AB8183
:100D1A00EA2B1E23A12F1DDF188126960895AA9378
:100D2A00239720D7A889A43548F4AF85A03330F497
:100D3A00AE85A03019F0AD85A03009F487C1EE85E3
:100D4A00E887A889BB27EE85D9D4A535E0E0BE0798
:100D5A0020F0A889E4E5EA1BEE872D85AF85BB273D
:100D6A00ED85CCD4D19720F0AF85E0E3EA1BED877F
:100D7A00A985A63009F051C0EC85E13009F466C1B5
:100D8A00E33039F4E091AC01F091AD01309709F408
:100D9A005DC10885ED8595D43E2FE22FE77019F4E1
:100DAA00AD852A17C9F0A02FBB27E32FABD481D476
:100DBA00E3D376D4269526952695532F5F935F5FC6
:100DCA00E22FAF91EA1740F0102FE12F1150E030D7
:100DDA0011F09BD4FACFF2CFAE850A17F1F0EE8567
:100DEA0068D473D45DD4ED85E77009F03F5F20E0E5
:100DFA002F932F5FE32FAF91AE1778F41E851F93C1
:100E0A001F5FE02FAF91AE1710F47FD4F8CFEE85B5
:100E1A00AE81BF815AD444D4EBCFEF85E7703E2F21
:100E2A00ED85E03009F412C141D43AD410E00889C2
:100E3A00303009F05BC0AD85A83008F452C0E985AE
:100E4A00E03011F0E33009F402C0E73009F402C0DF
:100E5A00E83009F402C0E93009F402C0EA3019F4B2
:100E6A005FD460DE04C0E63011F45AD44ADE1F9320
:100E7A005AD4AF91AE1770F5A985A63039F456D475
:100E8A00C0D32AD42CD4A08151D323C0E985E93018
:100E9A0011F450E00DC0EA3011F45FEF09C046D4F6
:100EAA00D6D32AD35E2FE985E73011F0E83019F45A
:100EBA0046D45E2F06C0E33011F4509502C0E030EC
:100ECA0019F4A52F19DE05C03DD4EFEFEA93AD85DD
:100EDA00EFDECDCFEF85E85FEF87ED85E850ED8750
:100EEA00B0C05D8520E0E0E0ED8768C0E32FAD8506
:100EFA00AE0FA93020F42D85E0E0ED8703C0E8E0CD
:100F0A00E31B2E2F3A93A22FC6D24E2FE985E63045
:100F1A00C1F406D4F6DD1F9306D4AF91AE1780F460
:100F2A00DBD3DDD3E081E423AE2FE32F6DD510D4DC
:100F3A00E32FA42F69D516D464D3A52FF7D2EBCF0C
:100F4A0023C0E93011F450E003C0EA3089F45FEFBE
:100F5A00F6D3AE2FE32F50D55E2F1F93E4D3AF9174
:100F6A00AE1728F4EFD34A93A0E0A2DEF6CF0CC066
:100F7A001F93D9D3AF91AE1738F4F8D3BDD2AE2FA1
:100F8A00E32F3AD500D4F4CFED85E03009F45EC002
:100F9A00AD85A83028F4ED85E21B5E2FE0E003C0A2
:100FAA00532FED85E850ED8710E0EF85E85FEF8776
:100FBA00E8E0E31B2E2F088979D372D3E52FF0E0FE
:100FCA00E45EFD4F4491E985E630C1F4A9D399DD89
:100FDA001F93A9D3AF91AE1780F47ED380D3E0815B
:100FEA00E423AE2FE22F08D5B3D3E22FA42F04D5E2
:100FFA00B9D307D3A52F9AD2EBCF23C0E93011F486
:10100A0050E003C0EA3089F45FEF99D3AE2FE22FA4
:10101A00FBD45E2F1F9387D3AF91AE1728F492D3D8
:10102A004A93A0E045DEF6CF0CC01F937CD3AF9164
:10103A00AE1738F49BD360D2AE2FE22FE5D4A3D3F8
:10104A00F4CFE88536D341D32ED3EACE92D5619632
:10105A0008959DD314F0F8D226C29ED3A435E0E0B9
:10106A00BE071CF0E3E5F0E01EC2E881F9811BC26D
:10107A008ED314F0E9D217C28FD3D0971CF0EFE2C7
:10108A00F0E011C2E881F9810EC26DD2239787D3AD
:10109A008F01002E012A11F4D7D24EC086D30F82B7
:1010AA0084D30E8282D30886EB85A885EA1710F4CA
:1010BA00CBD242C0F8010F5F1F4F5491A885BB27BE
:1010CA00EE27A50FBE1FEB85F0E0EA17FB0710F02D
:1010DA00BBD232C0EE81F5D24E2FEE81E77009F015
:1010EA004F5FEF81E03071F04AD2A885EB85EA1BA9
:1010FA00F0E0DF01EF8106D3DF01E42F03D3E00F35
:10110A00F11F1AC09801E52FF0E00E0F1F1FA885E6
:10111A00AF5FA887A150EB85AE1750F4F9012F5F96
:10112A003F4FA491B0E0E42FEDD20E0F1F1FEFCF77
:10113A00F901E49124D2F8011CD52C960895E0E037
:10114A00E0939301A0919401BB2734D3D7D2E091C5
:10115A009801D4D28DDFE09394010895AA93219740
:10116A001ED3309709F44CC0AF81AA3009F446C0A7
:10117A00EF81EA93DE01179688DFAF01309709F411
:10118A0041C0E0919701AE81EA0F3E2FA0919301F1
:10119A00BB279BD28F010535E0E01E0718F0032F0D
:1011AA001127CDDFE09193010CD3E885EA9302D3AE
:1011BA00EA93E1E0EA935A934A93A7E0B0DDE0911B
:1011CA009301AE81EA0FFDD2E0919701EA93F2D240
:1011DA00EA93E1D1FBD2E0919301EA93A0919401C1
:1011EA00E9D2EA0FEA933A93E0919801EA93D3D1CC
:1011FA00EDD2E4E5F0E0E017F10711F4A0DF02C058
:10120A0000939301B6D428960895ADD11A93A98173
:10121A00BA81ED91A983BA831E2FE03019F0A12F6C
:10122A009DDFF5CF188180C1AA93EA81EA93EA810A
:10123A00EA93E0919A01AA81EA2319F0E0919101D7
:10124A0002C0E0919201AE2F13DDE881EE0FE88330
:10125A00E03011F4E1E0E883E88166C1AA93A9814C
:10126A00BB27F7DEE0939301A881BB2701DFE09358
:10127A00940119C1AA932B9775D4AC89BB27E9DECF
:10128A00EC8BAA89BB27E5DEEA8BAB89BB27F0DEAC
:10129A00EB8BA989BB27ECDEE98BEA89E093930102
:1012AA00E989E0939401E1E0E887E989AB89EA17E3
:1012BA0061F51C89AA891A1731F41A93EC89EA9301
:1012CA00A1E0B2DFBFC0AA891A1730F4EA89E11B8C
:1012DA000E2F41E050E006C0AA89E12FEA1B0E2F2B
:1012EA004FEF5FEF3B89E0E0EE8374D230F47AD2BD
:1012FA003395AA8599DFEF83F8CFEF81E887140F3A
:10130A00E02F0150E03071F79DC0EA89AC89EA17F5
:10131A0031F53B89A9893A1728F4E989E31B2E2F6D
:10132A005BD106C0A989E32FEA1B2E2FEFEFFFEF4F
:10133A00ED87FE871C89E0E0EE834CD238F41A93DD
:10134A0013953A93AA8570DFEF83F7CFEF81E88789
:10135A00ED853E0FE22F2150E03061F773C0E0E0E7
:10136A00EE8338D208F06EC01C893B89E1E02E2F4B
:10137A000E2FAA89BB27EC89F0E0AE1BBF0BAD018B
:10138A00552322F40FEFFA012BD3AF01FA01EE0F26
:10139A00FF1FEF87F88BA989BB27EB89F0E0AE1B0B
:1013AA00BF0BAD87BE87AE85AA2332F42FEFED853A
:1013BA00FE8516D3ED87FE87ED85FE85EE0FFF1FAE
:1013CA00EB87FC870FD2A1E02FDFE887E0E0E9870F
:1013DA00EA87AD85BE854A175B07B4F0100FEB8527
:1013EA00FC8503D2C9D004D200D24A175B0724F481
:1013FA00320FAF85B889FFD1F5D1AA8515DFE88705
:10140A00EA89E11759F717C0320FEF85F889EDD14C
:10141A00B3D0EED1ED85FE85E8D1EA17FB0724F4B7
:10142A00100FAB85BC85E7D1DDD1AA85FDDEE88743
:10143A00E989E31749F7EB89EF5FEB8BE989EF5FFE
:10144A00E98B8FCF96D3659608958DD0B981A881FF
:10145A00109631F0FC81EB816A8161931197E9F76B
:10146A00EB81FC81259608957ED0A991B991EE274A
:10147A00FF276D91662311F03196FBCF089573D043
:10148A00AA27BB27E991F9910590002011F011963E
:10149A00FBCFFD010895AA93E881F0E0E45EFD4FD9
:1014AA00A491E981A9D22296089593D0E981E730DF
:1014BA0011F0EA3019F41091910109C0E93019F4D8
:1014CA001091920104C0E830A1F41091A101E091B9
:1014DA009201E03049F0103019F0EFEF188124C082
:1014EA00EA81E095188120C0103019F4E0E01881F3
:1014FA001BC0EA81188118C036D0EA81E13021F494
:10150A00E881F981E49110C0E23019F445D109D398
:10151A000BC0E33039F440D1E091AA01F091AB015C
:10152A00099502C039D1EC9123960895AA93EB81CB
:10153A00E03029F4E881A981BA81EC9312C0E23043
:10154A0029F4E881A981BA81F8D20BC0E33049F4C1
:10155A00E981FA8156D0AA81E091AC01F091AD01FE
:10156A00099524960895BA93AA93089580EA8A95CC
:10157A00F1F70895B0E044C1EA0FFB1F0895A98569
:10158A00BA85EC9308958BE18A95F1F70895E7E01F
:10159A00EA93AEE70895E0E0EA9308958DE08A952C
:1015AA00F1F70895E981EE0FE983929AF7DFE0E017
:1015BA008199E1E0A981EA2BE98392980895AA9397
:1015CA0094980895A88115C7949ADDCFEA93A3E069
:1015DA000895AA931A930895E1E0F0E00895ED9131
:1015EA00FD913196FE93EE930895E0E3EA93089510
:1015FA0041DED1CFE4E5EA93089507DEE4E0EA9319
:10160A000895FA93EA930895EEEAF1E0FACFF0E04A
:10161A006627772779D284E029DA2896E2E3EA93E3
:10162A0008951CDEAEEAB1E0F0CDE091F401F0914C
:10163A00F5016091F6017091F7011BD10895E093CD
:10164A00E801F093E9010895E0E0F0E008956627E3
:10165A007727DF01CB010895AA81BB8108951496EB
:10166A004BD208952A93AD85BE85EF85F8890995F1
:10167A000895E889F98908953497E88BF98B0895D4
:10168A00AD85BE85EF85F88909950895F2DFF4CF17
:10169A00A889B989E4CFEE83FF83AE81BF8108951B
:1016AA00EE83FF830895EA87FB870895EA85FB8521
:1016BA000895AA85BB850895DE011C968DD11CD29A
:1016CA000895E695E695E6950895F0E055CFAE2F94
:1016DA000ECAE250FE4F0895ACEFB1E080CF3197C9
:1016EA00F8CFEC81FD810895E0939501F09396017E
:1016FA000895E093AA01F093AB010895F0E0AE0FCC
:10170A00BF1F0895F0E08DD10895EC85EA93EF812B
:10171A00F8853196EF83F887319773DFA0E006CF1B
:10172A000A93A88908951F5FEE850895EC85EA93C8
:10173A00EF81F8853196EF83F887319708955A93A8
:10174A00AA85B3CE0A930395E889EA935A93089532
:10175A005E2FEC85EA93AF81B88588279927CCDE7E
:10176A001E2E0895E095E1215E2BE0CF0A930395A2
:10177A00E889EA93EE85EA93E985FA853196E9875D
:10178A00FA87319764CFEA934A93AD8591CAEBDE23
:10179A00A881B981E3D10895A881B9810895E2D1D8
:1017AA00E0919501F09196010895F8010F5F1F4F9E
:1017BA0004900895E0919501F09196013196E49193
:1017CA000895EA93E0919401EA9308953DDF19DFC1
:1017DA00A9E0A5CAAE81AF5FAE83A150E09199019D
:1017EA00AE1708951A933A930895A985BA8508956C
:1017FA00E987FA870895E985FA85EA1BFB0BF8CF92
:10180A00109639F080ED97E00197F1F7A8951197B6
:10181A00C9F70895552342F4503811F4E0FF04C083
:10182A003196691F791F6BF050E8572711F45F93BF
:10183A0073C05F3F31F0660F000C57956795752F9F
:10184A0008955F9300200AF073C06CC050E8192E07
:10185A001522880F991F9527550F879550E8072E4F
:10186A000522660F771F7527550F679508956894A7
:10187A0001C0E8945F93F2DF703818F07F3F08F4F4
:10188A004BC056E1571BAAF4519558300EF4593003
:10189A0030F0EFEFFFEF6FEF7FE777F91AC07727A6
:1018AA005523B9F0EE0FFF1F661F771F5A95D1F720
:1018BA0010C07727583028F0EF2FF62F672F58508F
:1018CA00F9CF552331F076956795F795E7955A95AF
:1018DA00D1F700200AF488D05F910895689401C076
:1018EA00E894309760407040B1F0002426F07723E6
:1018FA0012F4009479D0172E7EE1112032F07A95F5
:10190A00EE0FFF1F661F111CF9CFEF2FF62F612D67
:10191A005F938ADF5F910895EE27FF27662777276F
:10192A005F910895EFEFFFEF6FE77FEF5F91089503
:10193A00EFEFFFEF6FE77FE75F9108955F9386DF31
:10194A00703851F3903841F301240894791F23F435
:10195A001CF300203AF3ECCF0F921F932F933F937F
:10196A004F93112722279927689FA0018F9F302D17
:10197A00410D591F6B9F300D411D591F8E9F27D056
:10198A00BF9F25D06A9F23D0BE9F1DD0AF9F1BD07B
:10199A00AE9F110D291F391F491F591FE32FF42F1D
:1019AA00652F522F4F913F912F911F910F906623D0
:1019BA002AF0550FEE1FFF1F661F02C073954BF2E8
:1019CA0029DF5F910895100D211D391F02C0200DD6
:1019DA00311D491F591F08950024AF0DB01D0895E8
:1019EA00F195E195F0400895F09560957095E1952F
:1019FA00FF4F6F4F7F4F0895EE230E2EEA2F19F0F7
:101A0A00EE0F0A94E9F70895EE230E2EEA2F19F045
:101A1A00E6950A94E9F708956F2F660F660B762FFD
:101A2A000895FA9FF02DEB9FF00DEA9FE02DF10D3E
:101A3A0008950024112490E1AA0FBB1F001C111C59
:101A4A000E1A1F0A18F40E0E1F1E01C0A1609A95E5
:101A5A0099F7FD01D00108952ED0EBDF0EF4C0DF17
:101A6A0008953F934F935F930024112444275527E9
:101A7A0030E2AA0FBB1F881F991F001C111C441FAC
:101A8A00551F0E1A1F0A460B570B28F40E0E1F1E5F
:101A9A00461F571F01C0A1603A9559F7FD01BC01C5
:101AAA00D001CA015F914F913F91089512D0D9DFB9
:101ABA000EF49ADF0895E894F7FF02C091DF689464
:101ACA00B7FF06C0A095B095119600F8039400FAE6
:101ADA000895E89477FF02C087DF689497FF0BC0E8
:101AEA000024A095B095809590951196801D901D23
:101AFA0000F8039400FA0895ED91FC911197089566
:101B0A000590F491E02D08957A936A93FA93EA93F3
:101B1A000895BB27EA0FFB1F02900A921197E1F77B
:101B2A000895E199FECFFF93FFB7F894AEBBBFBB10
:101B3A00E09AEDB3FFBFFF910895E19B02C0A8951B
:101B4A00FCCF9FB7F894AEBBBFBBE09A8DB3E81742
:101B5A0019F0EDBBE29AE19A9FBF089500240A1694
:101B6A000B0608955A934A933A932A931A930A931F
:101B7A0008955D814C813B812A81198108810895EC
:00000001FF
