:100000005BC1FECFFDCFFCCFFBCFFACFF9CFF8CF4E
:10001000F7CF8EC2F5CFF4CFF3CFF2CFF1CFF0CF41
:10002000EFCFEECFEDCF050720600000000000000D
:10003000005F00000007000700147F147F14242ACB
:100040007F2A1223130864623649552250000503A3
:100050000000001C2241000041221C00082A1C2A2A
:100060000808083E08080050300000080808080882
:10007000003030000020100804023E5149453E0087
:10008000427F400042615149462141454B3118149D
:10009000127F1027454545393C4A494930017109CD
:1000A00005033649494936064949291E00363600B6
:1000B00000005636000000081422411414141414D1
:1000C00041221408000201510906324979413E7E5D
:1000D0001111117E7F494949363E414141227F41FC
:1000E00041221C7F494949417F090901013E4141A3
:1000F00051327F0808087F00417F41002040413F86
:10010000017F081422417F404040407F0204027F6B
:100110007F0408107F3E4141413E7F090909063EA8
:100120004151215E7F09192946464949493101015A
:100130007F01013F4040403F1F2040201F7F20188B
:10014000207F631408146303047804036151494554
:100150004300007F4141020408102041417F00001C
:10016000040201020440404040400001020400201B
:10017000545454787F4844443838444444203844E4
:1001800044487F3854545418087E09010208145416
:10019000543C7F0804047800447D40002040443DE6
:1001A00000007F10284400417F40007C0418047840
:1001B0007C0804047838444444387C141414080837
:1001C0001414187C7C080404084854545420043F38
:1001D0004440203C4040207C1C2040201C3C4030BF
:1001E000403C44281028440C5050503C4464544C2B
:1001F00044000836410000007F000000413608003E
:1002000002010204027F4141417F1027E80364009C
:100210000A000100001000011000010000010307A6
:100220000F1F3F7FFF00A1004E6F64653A20003131
:100230000054656D703A200048756D69643A20007D
:1002400057617465723A2000214300636D00257583
:100250000025752020002A200025642000526169B5
:100260006E200053756E200001002D4E414E004956
:100270004E46000001000700260207006001280228
:10028000020067012F0207006901310208007001B6
:100290003802080078014002030080014802030090
:1002A00083014B02060086015D0205008C0163029A
:1002B0000100140268020000F894EE27ECBBF1E0A4
:1002C000FBBFEBBFE5BF8DE0A2E0BB27ED938A95B6
:1002D000E9F780E094E0A0E6ED930197E9F7E4E721
:1002E000F2E085919591009761F0A591B591059007
:1002F0001590BF01F00105900D920197E1F7FB0108
:10030000F0CFEFE5EDBFE4E0EEBFC0E6D1E0A8C17D
:1003100040D92597E0E0E883E983EA83EB83EC8327
:100320002BDC889A909A38D99098A9E139D9909A7B
:10033000889832D9809B02C0E0E03EC0809BFECF0F
:100340002BD9809902C0E0E037C08099FECF00E051
:100350000530F0F410E01830C8F4809BFECF85E83B
:100360008A95F1F7809B10C0E02FF0E0DE01149633
:1003700019D9BF011080E7E0E11BA1E045DBE129CD
:10038000DB01EC938099FECF1F5FE5CF0F5FE0CFDD
:10039000ED81AC81EA0FAE81EA0FAF81EA0F3E2F0B
:1003A000E885E31711F0E0E007C0EE81AB85BC857E
:1003B000EC93EC81FAD8E1E0E6DB2D960895AA9360
:1003C000E881E7B9F6D8369A349BFECF349AE4B187
:1003D000F5B148C4EED8F1D8AFE12FD0A2E0E0D813
:1003E000EFD8EDE1EA93A4E028D0E5E0EA93A2E0BB
:1003F00024D0E6E0EA93A0E255C0E6D810E0183039
:10040000C8F4E981E07811F4C69801C0C69A8DE07D
:100410008A95F1F7E981EE0FE983929A8DE08A954A
:10042000F1F7E0E08199E1E0A981EA2BE983929874
:100430001F5FE5CFE98118814CC8AA939498E981A0
:10044000E062AE2FDADFDE2EC2D8C3D8ED2D41C870
:10045000AA939498E3E0BFD8F0DFBBD89498AAE2BF
:10046000CCDFB5D8B4D8B3D8B2D8B1D8B2D8949874
:10047000A0E3C3DFACD8ABD8AAD8A9D8A8D8A9D84C
:10048000F1C393989AD8AEE10DC0ECE1EA93A1E0F4
:10049000D4DFA72DDDDFE2E0EA93A1E0CEDFE1E0EB
:1004A000EA93A1E0CADF0895AA93949890D891D8CE
:1004B000D9C3A72DCDDF8DD89498A1EE9EDF89D822
:1004C0009498A0EA9ADF83D8AC8197DFA88595DF5E
:1004D000AC8593DFA88991DFAC898FDF949A939ADA
:1004E00088EE93E00197F1F793986AD8A72DB0DFD3
:1004F000A1EEDADF68960895939A88E795E0019770
:10050000F1F79398949A0895C59885E08A95F1F744
:10051000C59A4FD8C598B49BFECFE1E0F0E0E093D8
:100520000E02F0930F02E0930C02F0930D02089577
:100530000A921A926A937A938A939A93AA93BA9395
:10054000EA93FA93EFB7EA93ECE9E2BFAEE0B2E0E8
:1005500045D8B49906C0A0910C02B0910D02119734
:1005600009F026C0E0910E02F0910F025DDAC0D9C9
:10057000ADECBCEC8CEC9DE3E9D9A3EEB5EA8BE5E0
:1005800090E4E4D9A0E0B0E080E09FE3DFD9E0931D
:100590001002F09311026093120270931302E0E0D4
:1005A000E0930E02E0930F02E0930C02E0930D0241
:1005B000E991EFBFF991E991B991A9919991899147
:1005C000799169911990099018950ED8F6D70CD8A1
:1005D000AFE00DD8EFE0EA9307D8AFE008D8EDD749
:1005E00008D8A0E05CD605D8E8D703D8A0E3FFD7A9
:1005F000FBD7FFD7A0E3FBD7E0D7DFD7A0E34FD6E9
:10060000E3E0E9D740D6A0E6B1E014D6E8E2E3D7CC
:100610003AD6A7E6B1E0F0D7A2E135D6A9E6B1E037
:10062000EBD7ACE130D6A0E7B1E0E6D7A5E22BD618
:10063000A8E7B1E0FFD5E4E4EA93A2E124D6A0E87C
:10064000B1E0F8D5E5E4EA93ACE11DD6A5E29BD58F
:10065000E5E4EA93A5E217D6A3E8B1E0EBD5089567
:100660002897E0E6E7BBE0EFE8BBE0E2E4BBE5BBF0
:10067000ECE1E1BBEEE1E2BBE2E0E3BFECE9E2BFCB
:10068000E0E0EFBDEEBDEDBDECBDE7BDE6BDEBBD11
:10069000EABDE9BDE8BDE2BDE5BDE4BDE3BDE1E025
:1006A000E9BFE0E0E5BFEAB9E0E8E8B9E0E0E7B9D2
:1006B000E3E8E6B9E0E0E0BFEDB9E6BFE6E2F0E08E
:1006C000E883F983E0E0EA83EB83EC83ED83EE815A
:1006D000E360EE83E37EE061EE83EF81E078E56442
:1006E000EF837894DE0151D2AD9874DE05DFCDDE64
:1006F000C8DE6BDFE5E0F0E083D7A4E0B0E008DE21
:10070000E03081F080D7EEE4F2E07AD7E42D7ED7B6
:10071000ACE186D778D7E1E5F2E072D7E52D76D760
:10072000A2E17ED7F1DEE2E3EA93A5E2ACD57CD785
:10073000759744F068D7E6E5F2E062D780E0ABD188
:1007400024960AC060D7E9E5F2E05AD76DD76CD994
:10075000E3D984E0A0D12896AEEAB1E06BD5E7E317
:100760003AD791D5A6E02BDEDF01E3E0F0E07CD9BB
:10077000E83CA0E0FA072CF461D765D7A6E8B1E021
:1007800007C0E0E0F0E060E070E05DD7ACE8B1E029
:1007900051D554D7E093F401F093F5016093F6013D
:1007A0007093F701E52DF0E03FD9E0930002F0935C
:1007B00001026093020270930302E42DF0E034D949
:1007C000E093FC01F093FD016093FE017093FF0143
:1007D000A7E0F5DD41D7E4E0F0E060E070E06ED93D
:1007E000E0930402F09305026093060270930702FF
:1007F0001BD7E0930802F093090260930A027093FA
:100800000B02E4EFF1E0A8E18CD953DEA8ECC8D6E6
:1008100071CFFFCFBED6B2D924D7129675D93097F3
:10082000F1F01FD721D78F01309761F00230E0E05F
:100830001E0770F0F80131978F01AA81BB811496D1
:10084000ED93FC930ED71296C9D63197AC81A08355
:1008500008D75AD9FF2312F004D7C0D605C001D754
:10086000EFEFFFEFED93FC9390D912C692D6269747
:1008700081D910E0AC85BD85FAD6ED93FC93EA8969
:10088000FB893196EA8BFB8B3197E4912E2FE03078
:1008900009F4FBC0E12FE03031F4253211F411E00E
:1008A00001C0E8D6F1C0E130A1F4253211F4E2D65E
:1008B000EAC012E040E000E02D3211F401E0E4C0B3
:1008C0002B3211F44BE2E0C0203211F440E2DCC0E4
:1008D00002C0E23039F450E013E0203311F4006834
:1008E000D3C003C0E33009F0CFC0203310F02A3367
:1008F00008F007C0AAE05A9F502DE22FE0535E0F88
:10090000C3C0E22FE33639F4BCD6BED6BAD6A48132
:10091000AA93BED6B8C0E33731F4C0D6C1D6C3D689
:10092000B9D51E2F08C0E03751F4B8D6B9D6BBD61A
:10093000BCD51E2F086002600F7730E02DC0E43672
:1009400011F0E93611F4046002C0E53729F4EAE059
:10095000F2E0AED615E00BC0E83511F4086003C034
:10096000E83709F090C0E4E1F2E0A2D614E002FF1B
:1009700010C094D695D69FD6AB85AA2322F49ED6D6
:1009800037D899D64DE2403011F01F5F01C00B7F80
:1009900003C084D685D68FD600FD10C0151770F41D
:1009A00007FF08C002FF04C00B7F242F115001C0B5
:1009B00020E301C020E25ED65150F0CF312F01FF7D
:1009C00015C0303091F003FF05C0EE81FF81259105
:1009D0006FD605C0AE81BF812D91AE83BF834AD64D
:1009E000503009F051503150ECCF44C020E3EE813B
:1009F000FF818ED8E887F987EE81FF81329658D63D
:100A0000E885F9855ED6AE17BF0740F02F5FA88551
:100A1000B98554D6EA1BFB0B4ED6F2CF2A3328F009
:100A200003FF02C0295F01C0295D04FD19C0213305
:100A300020F4A885B985119709F409C0531710F05F
:100A400000FF01C011C020E207FF0AC020E30061DF
:100A500002FF06C00B7F4A931BD6503009F051505D
:100A600009D6503009F051503150A885B9851297F8
:100A700008F0BCCF00FF07C0503029F05150E0E231
:100A8000EA9306D6F9CF10E0FACEAC85BD853CD806
:100A900078D864960895FF92F82E26976DD814D6CC
:100AA000309719F4EFEFFFEF1CC0DE0116969CD7CC
:100AB0008D010AD6FDD5E0E0E887E987DE011A96C8
:100AC00093D722D89DD51A930A93EAE0F4E098D5FB
:100AD000DE011A96CBDE9F01AE81BF81E0E0EC9390
:100AE000F90151D82A96FF90089508956DD5A998D7
:100AF00018E0FBDFE981E07811F0AB9A01C0AB9818
:100B0000E981EE0FE983F1DFAC9AEFDFAC98115089
:100B100081F7A99A1881DDC4AA93AA98A881E6DF73
:100B2000A1C0AA93AA9AA881E1DF9CC04DD5E98112
:100B3000D0D51E2FE4E5E19FF001DF01EA81CDD59C
:100B4000E0931802F0931902E12F188103C5AA93CC
:100B5000E981E068C4D5E981EA93A981E7DFE0642F
:100B6000BED5B7C4AA93E981EA93A981F0DFE091E9
:100B70001802F0911902B5D5E081ABC4AA93B4D59F
:100B8000B6D5A881A083CDDF6DC003D5F5D7A19AD6
:100B9000A99AA49AAC98A39AA29AA09AA898AAE013
:100BA000FFD4A89AA6D53097D9F0A3D5E681E370F3
:100BB0001E2F9FD5E681E695E695E7700E2F99D515
:100BC000E781EF773E2FAC81BD819ED795D5AC8173
:100BD000BD81129699D795D5AC81BD8145D508C008
:100BE00010E003E032E343D587D541D58AD53FD520
:100BF000E093AC01F093AD01A1E28EDFE12FE46060
:100C00006ED5E02FE0616BD5E32FE06868D5A0E2F8
:100C100083DFA1E01FD0E1E0E0939101E0E0E09309
:100C20009201E1E0E0939701E0939801E09399014C
:100C3000EFEFE0939A01E1E0E093A101E2EAF1E055
:100C4000DFD4EFEFEA93A8E0B0E015D40DD0E1E0F7
:100C50009AD778C0AA93E881E03011F0ECE001C0A7
:100C6000E8E03DD52196089587D730E0E0919201E4
:100C7000E03009F03FEFA1D4A0E069DF08EF11E018
:100C8000F80101501040309719F0A32F77DFF8CF0B
:100C900094D4A0E0F8D277D77AC4AA936FD7AC8166
:100CA000A43518F4AB81A03310F06FD7F1C3EC81F9
:100CB000EA93AC8157DF1E2FEB81E770A1E0A4D649
:100CC0000E2FEA81E03011F0102B03C0E02FE095E9
:100CD0001E23A12F53DF59D7DBC376D4ED81EA93CE
:100CE000AD8140DF1E2FE981E73011F0E83031F4AB
:100CF000EB81EA93AA81EFD3EB8308C0E33021F4C0
:100D0000EB81E095EB8302C0E03021F4EA81E095CD
:100D10001E2302C0E23029F4EA81AB81EA231E2BB4
:100D20000EC0E13029F4EA81AB81EA231E2707C017
:100D3000E43029F4EA81E095AB81EA2B1E23A12F50
:100D40001DDF188126960895AA93239713D7A889A3
:100D5000A43548F4AF85A03330F4AE85A03019F047
:100D6000AD85A03009F487C1EE85E887A889BB2747
:100D7000EE85CCD4A535E0E0BE0720F0A889E4E5F7
:100D8000EA1BEE872D85AF85BB27ED85BFD4D197B4
:100D900020F0AF85E0E3EA1BED87A985A63009F0D6
:100DA00051C0EC85E13009F466C1E33039F4E091DB
:100DB000AC01F091AD01309709F45DC10885ED8576
:100DC00088D43E2FE22FE77019F4AD852A17C9F0B9
:100DD000A02FBB27E32F9ED474D4E4D369D42695E7
:100DE00026952695532F5F935F5FE22FAF91EA1709
:100DF00040F0102FE12F1150E03011F08ED4FACFD7
:100E0000F2CFAE850A17F1F0EE855BD466D450D4EC
:100E1000ED85E77009F03F5F20E02F932F5FE32F10
:100E2000AF91AE1778F41E851F931F5FE02FAF912F
:100E3000AE1710F472D4F8CFEE85AE81BF814DD4D9
:100E400037D4EBCFEF85E7703E2FED85E03009F426
:100E500012C134D42DD410E00889303009F05BC0C1
:100E6000AD85A83008F452C0E985E03011F0E330D8
:100E700009F402C0E73009F402C0E83009F402C006
:100E8000E93009F402C0EA3019F452D460DE04C03B
:100E9000E63011F44DD44ADE1F934DD4AF91AE1716
:100EA00070F5A985A63039F449D4AAD31DD41FD42E
:100EB000A08152D323C0E985E93011F450E00DC080
:100EC000EA3011F45FEF09C039D4C6D32BD35E2FBB
:100ED000E985E73011F0E83019F439D45E2F06C007
:100EE000E33011F4509502C0E03019F4A52F19DE5B
:100EF00005C030D4EFEFEA93AD85EFDECDCFEF85BF
:100F0000E85FEF87ED85E850ED87B0C05D8520E0B4
:100F1000E0E0ED8768C0E32FAD85AE0FA93020F487
:100F20002D85E0E0ED8703C0E8E0E31B2E2F3A9328
:100F3000A22FC7D24E2FE985E630C1F4F9D3F6DDF2
:100F40001F93F9D3AF91AE1780F4CED3D0D3E08105
:100F5000E423AE2FE32F60D503D4E32FA42F5CD579
:100F600009D44ED3A52FF8D2EBCF23C0E93011F42A
:100F700050E003C0EA3089F45FEFE9D3AE2FE32FEE
:100F800043D55E2F1F93D7D3AF91AE1728F4E2D38A
:100F90004A93A0E0A2DEF6CF0CC01F93CCD3AF9152
:100FA000AE1738F4EBD3BED2AE2FE32F2DD5F3D34B
:100FB000F4CFED85E03009F45EC0AD85A83028F4AB
:100FC000ED85E21B5E2FE0E003C0532FED85E85076
:100FD000ED8710E0EF85E85FEF87E8E0E31B2E2F59
:100FE00008896CD365D3E52FF0E0E45EFD4F4491B2
:100FF000E985E630C1F49CD399DD1F939CD3AF9172
:10100000AE1780F471D373D3E081E423AE2FE22FC7
:10101000FBD4A6D3E22FA42FF7D4ACD3F1D2A52FC3
:101020009BD2EBCF23C0E93011F450E003C0EA308B
:1010300089F45FEF8CD3AE2FE22FEED45E2F1F9397
:101040007AD3AF91AE1728F485D34A93A0E045DE5A
:10105000F6CF0CC01F936FD3AF91AE1738F48ED379
:1010600061D2AE2FE22FD8D496D3F4CFE88529D31E
:1010700034D321D3EACE85D56196089590D314F068
:10108000F6D227C291D3A435E0E0BE071CF0E3E519
:10109000F0E01FC2E881F9811CC281D314F0E7D2CD
:1010A00018C282D3D0971CF0EFE2F0E012C2E881C0
:1010B000F9810FC26ED223977AD38F01002E012AB5
:1010C00011F4D5D24EC079D30F8277D30E8275D367
:1010D0000886EB85A885EA1710F4C9D242C0F8014A
:1010E0000F5F1F4F5491A885BB27EE27A50FBE1F8A
:1010F000EB85F0E0EA17FB0710F0B9D232C0EE81C1
:10110000E8D24E2FEE81E77009F04F5FEF81E030BB
:1011100071F04BD2A885EB85EA1BF0E0DF01EF818F
:10112000F9D2DF01E42FF6D2E00FF11F1AC09801C7
:10113000E52FF0E00E0F1F1FA885AF5FA887A15015
:10114000EB85AE1750F4F9012F5F3F4FA491B0E04B
:10115000E42FE0D20E0F1F1FEFCFF901E49125D24B
:10116000F8010FD52C960895E0E0E0939301A0914B
:101170009401BB2727D3CAD2E0919801C7D28DDF53
:10118000E09394010895AA93219711D3309709F41D
:101190004CC0AF81AA3009F446C0EF81EA93DE016A
:1011A000179688DFAF01309709F441C0E0919701AD
:1011B000AE81EA0F3E2FA0919301BB278ED28F0103
:1011C0000535E0E01E0718F0032F1127CDDFE09171
:1011D0009301FFD2E885EA93F5D2EA93E1E0EA933E
:1011E0005A934A93A7E0B0DDE0919301AE81EA0FF4
:1011F000F0D2E0919701EA93E5D2EA93DED1EED204
:10120000E0919301EA93A0919401DCD2EA0FEA9372
:101210003A93E0919801EA93D0D1E0D2E4E5F0E08E
:10122000E017F10711F4A0DF02C000939301A9D4E5
:1012300028960895AED11A93A981BA81ED91A98318
:10124000BA831E2FE03019F0A12F9DDFF5CF188152
:1012500081C1AA93EA81EA93EA81EA93E0919A0133
:10126000AA81EA2319F0E091910102C0E091920174
:10127000AE2F13DDE881EE0FE883E03011F4E1E0FA
:10128000E883E88167C1AA93A981BB27F7DEE093D1
:101290009301A881BB2701DFE09394011AC1AA93AF
:1012A0002B9768D4AC89BB27E9DEEC8BAA89BB27D6
:1012B000E5DEEA8BAB89BB27F0DEEB8BA989BB2788
:1012C000ECDEE98BEA89E0939301E989E0939401EC
:1012D000E1E0E887E989AB89EA1761F51C89AA8909
:1012E0001A1731F41A93EC89EA93A1E0B2DFC0C077
:1012F000AA891A1730F4EA89E11B0E2F41E050E069
:1013000006C0AA89E12FEA1B0E2F4FEF5FEF3B8942
:10131000E0E0EE8367D230F46DD23395AA8599DF91
:10132000EF83F8CFEF81E887140FE02F0150E03012
:1013300071F79EC0EA89AC89EA1739F53B89A9891A
:101340003A1730F4E989E31B2E2FE1E0F0E006C004
:10135000A989E32FEA1B2E2FEFEFFFEFED87FE8722
:101360001C89E0E0EE833ED238F41A9313953A9349
:10137000AA856FDFEF83F7CFEF81E887ED853E0F1A
:10138000E22F2150E03061F773C0E0E0EE832AD213
:1013900008F06EC01C893B89E1E02E2F0E2FAA8930
:1013A000BB27EC89F0E0AE1BBF0BAD01552322F447
:1013B0000FEFFA011DD3AF01FA01EE0FFF1FEF8708
:1013C000F88BA989BB27EB89F0E0AE1BBF0BAD877B
:1013D000BE87AE85AA2332F42FEFED85FE8508D3B4
:1013E000ED87FE87ED85FE85EE0FFF1FEB87FC87FF
:1013F00001D2A1E02EDFE887E0E0E987EA87AD854A
:10140000BE854A175B07B4F0100FEB85FC85F5D15C
:10141000C9D0F6D1F2D14A175B0724F4320FAF8559
:10142000B889F1D1E7D1AA8514DFE887EA89E11705
:1014300059F717C0320FEF85F889DFD1B3D0E0D16B
:10144000ED85FE85DAD1EA17FB0724F4100FAB8592
:10145000BC85D9D1CFD1AA85FCDEE887E989E3171D
:1014600049F7EB89EF5FEB8BE989EF5FE98B8FCF72
:1014700088D3659608958DD0B981A881109631F0F2
:10148000FC81EB816A8161931197E9F7EB81FC8123
:10149000259608957ED0A991B991EE27FF276D91E9
:1014A000662311F03196FBCF089573D0AA27BB278E
:1014B000E991F9910590002011F01196FBCFFD0103
:1014C0000895AA93E881F0E0E45EFD4FA491E981DC
:1014D0009BD22296089578D0E981E73011F0EA3066
:1014E00019F41091910109C0E93019F41091920199
:1014F00004C0E830A1F41091A101E0919201E03024
:1015000049F0103019F0EFEF188124C0EA81E0951E
:10151000188120C0103019F4E0E018811BC0EA8166
:10152000188118C036D0EA81E13021F4E881F981D0
:10153000E49110C0E23019F437D1FBD20BC0E33094
:1015400039F432D1E091AA01F091AB01099502C0C2
:101550002BD1EC9123960895AA93EB81E03029F4E6
:10156000E881A981BA81EC9312C0E23029F4E881C4
:10157000A981BA81EAD20BC0E33049F4E981FA814A
:101580003FD0AA81E091AC01F091AD01099524967C
:101590000895BA93AA93089580EA8A95F1F7089579
:1015A000B0E036C1EA0FFB1F0895A985BA85EC9318
:1015B00008958BE18A95F1F70895E0E0EA930895A4
:1015C000E7E0EA93AEE739C7AA931A930895A88192
:1015D00014C7949AEECFEA93A3E00895ED91FD919C
:1015E0003196FE93EE930895E0E3EA93089557DE73
:1015F000E4CFE4E5EA9308951DDEE4E0EA9308957C
:10160000FA93EA930895EEEAF1E0FACFF0E0662764
:10161000772782D284E03FDA2896E2E3EA930895BE
:1016200032DEAEEAB1E006CEE0911002F091110296
:10163000609112027091130224D10895E1E0F0E06C
:1016400060E070E00895E093F801F093F901609391
:10165000FA017093FB01089566277727DF01CB011C
:101660000895AA81BB81089514964ED20895E0E0B2
:10167000F0E008952A93AD85BE85EF85F889099538
:101680000895E889F98908953497E88BF98B0895CE
:10169000AD85BE85EF85F88909950895F2DFF4CF11
:1016A000A889B989E1CFEE83FF83AE81BF81089518
:1016B000EE83FF830895EA87FB870895EA85FB851B
:1016C0000895AA85BB850895DE011C968DD11CD294
:1016D0000895E695E695E6950895F0E063CFAE2F80
:1016E0001BCAE65EFD4F0895A8E1B2E077CF3197BF
:1016F000F8CFEC81FD810895E0939501F093960178
:101700000895E093AA01F093AB010895F0E0AE0FC5
:10171000BF1F0895F0E08DD10895EC85EA93EF8125
:10172000F8853196EF83F88731976ADFA0E014CF10
:101730000A93A88908951F5FEE850895EC85EA93C2
:10174000EF81F8853196EF83F887319708955A93A2
:10175000AA85C1CE0A930395E889EA935A9308951E
:101760005E2FEC85EA93AF81B88588279927DADE6A
:101770001E2E0895E095E1215E2BE0CF0A9303959C
:10178000E889EA93EE85EA93E985FA853196E98757
:10179000FA87319761CFEA934A93AD859ECAF9DE05
:1017A000A881B981E3D10895A881B9810895E2D1D2
:1017B000E0919501F09196010895F8010F5F1F4F98
:1017C00004900895E0919501F09196013196E4918D
:1017D0000895EA93E0919401EA93089548DF10DFB9
:1017E000A9E0B2CAAE81AF5FAE83A150E09199018A
:1017F000AE1708951A933A930895A985BA85089566
:10180000E987FA870895E985FA85EA1BFB0BF8CF8B
:10181000109639F080ED97E00197F1F7A8951197B0
:10182000C9F70895552342F4503811F4E0FF04C07D
:101830003196691F791F6BF050E8572711F45F93B9
:1018400073C05F3F31F0660F000C57956795752F99
:1018500008955F9300200AF073C06CC050E8192E01
:101860001522880F991F9527550F879550E8072E49
:101870000522660F771F7527550F679508956894A1
:1018800001C0E8945F93F2DF703818F07F3F08F4EE
:101890004BC056E1571BAAF4519558300EF45930FD
:1018A00030F0EFEFFFEF6FEF7FE777F91AC07727A0
:1018B0005523B9F0EE0FFF1F661F771F5A95D1F71A
:1018C00010C07727583028F0EF2FF62F672F585089
:1018D000F9CF552331F076956795F795E7955A95A9
:1018E000D1F700200AF488D05F910895689401C070
:1018F000E894309760407040B1F0002426F07723E0
:1019000012F4009479D0172E7EE1112032F07A95EE
:10191000EE0FFF1F661F111CF9CFEF2FF62F612D61
:101920005F938ADF5F910895EE27FF276627772769
:101930005F910895EFEFFFEF6FE77FEF5F910895FD
:10194000EFEFFFEF6FE77FE75F9108955F9386DF2B
:10195000703851F3903841F301240894791F23F42F
:101960001CF300203AF3ECCF0F921F932F933F9379
:101970004F93112722279927689FA0018F9F302D11
:10198000410D591F6B9F300D411D591F8E9F27D050
:10199000BF9F25D06A9F23D0BE9F1DD0AF9F1BD075
:1019A000AE9F110D291F391F491F591FE32FF42F17
:1019B000652F522F4F913F912F911F910F906623CA
:1019C0002AF0550FEE1FFF1F661F02C073954BF2E2
:1019D00029DF5F910895100D211D391F02C0200DD0
:1019E000311D491F591F08950024AF0DB01D0895E2
:1019F000F195E195F0400895F09560957095E19529
:101A0000FF4F6F4F7F4F0895EE230E2EEA2F19F0F0
:101A1000EE0F0A94E9F70895EE230E2EEA2F19F03F
:101A2000E6950A94E9F708956F2F660F660B762FF7
:101A30000895FA9FF02DEB9FF00DEA9FE02DF10D38
:101A400008950024112490E1AA0FBB1F001C111C53
:101A50000E1A1F0A18F40E0E1F1E01C0A1609A95DF
:101A600099F7FD01D00108952ED0EBDF0EF4C0DF11
:101A700008953F934F935F930024112444275527E3
:101A800030E2AA0FBB1F881F991F001C111C441FA6
:101A9000551F0E1A1F0A460B570B28F40E0E1F1E59
:101AA000461F571F01C0A1603A9559F7FD01BC01BF
:101AB000D001CA015F914F913F91089512D0D9DFB3
:101AC0000EF49ADF0895E894F7FF02C091DF68945E
:101AD000B7FF06C0A095B095119600F8039400FAE0
:101AE0000895E89477FF02C087DF689497FF0BC0E2
:101AF0000024A095B095809590951196801D901D1D
:101B000000F8039400FA0895ED91FC91119708955F
:101B10000590F491E02D08957A936A93FA93EA93ED
:101B20000895BB27EA0FFB1F02900A921197E1F775
:101B30000895E199FECFFF93FFB7F894AEBBBFBB0A
:101B4000E09AEDB3FFBFFF910895E19B02C0A89515
:101B5000FCCF9FB7F894AEBBBFBBE09A8DB3E8173C
:101B600019F0EDBBE29AE19A9FBF089500240A168E
:101B70000B0608955A934A933A932A931A930A9319
:101B800008955D814C813B812A81198108810895E6
:00000001FF
