:0E0000004CC1FECFFDCFFCCFFBCFFACFF9CF26
:10000E00F8CFF7CF7FC2F5CFF4CFF3CFF2CFF1CF4A
:10001E00F0CFEFCFEECFEDCF050720600000000050
:10002E000000005F00000007000700147F147F141B
:10003E00242A7F2A1223130864623649552250005F
:10004E0005030000001C2241000041221C00082A6A
:10005E001C2A0808083E080800503000000808084E
:10006E000808003030000020100804023E514945B7
:10007E003E00427F400042615149462141454B318D
:10008E001814127F1027454545393C4A494930011D
:10009E00710905033649494936064949291E003674
:1000AE0036000000563600000008142241141414C5
:1000BE0014144122140800020151090632497941F3
:1000CE003E7E1111117E7F494949363E4141412202
:1000DE007F4141221C7F494949417F090901013E67
:1000EE00414151327F0808087F00417F4100204086
:1000FE00413F017F081422417F404040407F02046F
:10010E00027F7F0408107F3E4141413E7F0909096D
:10011E00063E4151215E7F0919294646494949311A
:10012E0001017F01013F4040403F1F2040201F7FC3
:10013E002018207F631408146303047804036151AC
:10014E0049454300007F4141020408102041417F90
:10015E00000004020102044040404040000102043D
:10016E000020545454787F48444438384444442042
:10017E00384444487F3854545418087E0901020804
:10018E001454543C7F0804047800447D4000204001
:10019E00443D00007F10284400417F40007C04183D
:1001AE0004787C0804047838444444387C141414CD
:1001BE0008081414187C7C0804040848545454206D
:1001CE00043F4440203C4040207C1C2040201C3CEE
:1001DE004030403C44281028440C5050503C44645D
:1001EE00544C44000836410000007F0000004136A8
:1001FE00080002010204027F4141417F1027E803FB
:10020E0064000A000100001000011000010000014E
:10021E0003070F1F3F7FFF00A2004E6F64653A2059
:10022E0000320054656D703A200048756D69643A6D
:10023E00200057617465723A20006D6D00257500BF
:10024E0025752020004E614E00256420000001001F
:10025E002D4E414E00494E46000001000700260279
:10026E00070060012802020067012F0207006901E2
:10027E0031020800700138020800780140020300C4
:10028E00800148020100EE015C020000F894EE27A6
:10029E00ECBBF1E0FBBFEBBFE5BF8DE0A2E0BB27FF
:1002AE00ED938A95E9F780E094E0A0E6ED9301974F
:1002BE00E9F7E8E6F2E085919591009761F0A59156
:1002CE00B59105901590BF01F00105900D92019723
:1002DE00E1F7FB01F0CFEFE5EDBFE4E0EEBFC0E6E6
:1002EE00D1E05DC103D92597E0E0E883E983EA8395
:1002FE00EB83EC83A9DB889A909AFBD89098A9E1BE
:10030E00FCD8909A8898F5D8809B02C0E0E03EC059
:10031E00809BFECFEED8809902C0E0E037C0809976
:10032E00FECF00E00530F0F410E01830C8F4809BEA
:10033E00FECF85E88A95F1F7809B10C0E02FF0E0A4
:10034E00DE011496DCD8BF011080E7E0E11BA1E0CE
:10035E0000DBE129DB01EC938099FECF1F5FE5CF37
:10036E000F5FE0CFED81AC81EA0FAE81EA0FAF8176
:10037E00EA0F3E2FE885E31711F0E0E007C0EE81AB
:10038E00AB85BC85EC93EC81BDD8E1E064DB2D96AA
:10039E000895AA93E881E7B9B9D8369A349BFECF6F
:1003AE00349AE4B1F5B10EC4B1D8B4D8AFE12FD0C0
:1003BE00A2E0A3D8B2D8EDE1EA93A4E028D0E5E01C
:1003CE00EA93A2E024D0E6E0EA93A0E256C0A9D8D0
:1003DE0010E01830C8F4E981E07811F4C69801C035
:1003EE00C69A8DE08A95F1F7E981EE0FE983929A2C
:1003FE008DE08A95F1F7E0E08199E1E0A981EA2BA1
:10040E00E98392981F5FE5CFE98118810FC8AA93FF
:10041E009498E981E062AE2FDADFDE2E85D886D899
:10042E00ED2D04C8AA939498E3E0EA93A3E0EFDFDE
:10043E007DD89498AAE2CBDF77D876D875D874D8C1
:10044E0073D874D89498A0E3C2DF6ED86DD86CD8E8
:10045E006BD86AD86BD8B6C393985CD8AEE10DC092
:10046E00ECE1EA93A1E0D3DFA72DDCDFE2E0EA9333
:10047E00A1E0CDDFE1E0EA93A1E0C9DF0895AA9300
:10048E00949852D853D89EC3A72DCCDF4FD89498AA
:10049E00A1EE9DDF4BD89498A0EA99DF45D8AA81AA
:1004AE0096DFAC8194DFAE8192DFA88590DFAA85BE
:1004BE008EDF949A939A88EE93E00197F1F79398D2
:1004CE002CD8A72DAFDFA1EEDADFF9C5939A88E716
:1004DE0095E00197F1F79398949A0895C59885E061
:1004EE008A95F1F7C59A12D8C598B49BFECFE1E074
:1004FE00F0E0E093E801F093E901E093E601F09378
:10050E00E70108950A921A926A937A938A939A93BC
:10051E00AA93BA93EA93FA93EFB7EA93ECE9E2BFA0
:10052E00A8EEB1E005D8B49906C0A091E601B0914D
:10053E00E701119709F026C0E091E801F091E90179
:10054E0018DA7BD9ADECBCEC8CEC9DE3A4D9A3EE10
:10055E00B5EA8BE590E49FD9A0E0B0E080EA90E4A4
:10056E009AD9E093EA01F093EB016093EC0170935A
:10057E00ED01E0E0E093E801E093E901E093E601AC
:10058E00E093E701E991EFBFF991E991B991A99152
:10059E009991899179916991199009901895289757
:1005AE00E0E6E7BBE0EFE8BBE0E2E4BBE5BBECE195
:1005BE00E1BBEEE1E2BBE2E0E3BFECE9E2BFE0E08B
:1005CE00EFBDEEBDEDBDECBDE7BDE6BDEBBDEABDDD
:1005DE00E9BDE8BDE2BDE5BDE4BDE3BDE1E0E9BFD7
:1005EE00E0E0E5BFEAB9E0E8E8B9E0E0E7B9E3E862
:1005FE00E6B9E0E0E0BFEDB9E6BFE6E2F0E0E883A1
:10060E00F983E0E0EA83EB83EC83ED83EE81E36034
:10061E00EE83E37EE061EE83EF81E078E564EF83C5
:10062E007894DE0162D2AD98BFDE50DF19DF14DFA1
:10063E0085D770D783D7AFE084D7EFE0EA937ED724
:10064E00AFE07FD767D77FD7A0E0D6D57CD762D76C
:10065E007AD7A0E376D772D776D7A0E372D75AD7D8
:10066E0059D7A0E3C9D5E3E0EA93A3E0B9D5A0E654
:10067E00B1E08DD5E8E2EA93A3E0B2D5A7E6B1E00A
:10068E0065D7A2E1ADD5A9E6B1E060D7ACE1A8D5BA
:10069E00A0E7B1E05BD7A5E2A3D5A8E7B1E077D597
:1006AE00E3E4EA93ACE19CD5A5E21AD5E3E4EA9340
:1006BE00A5E296D5A0E8B1E06AD5E5E0F0E04AD72C
:1006CE00A4E0B0E00FDEE03081F047D7EBE4F2E0DB
:1006DE0041D7E42D45D7ACE14DD73FD7EEE4F2E05C
:1006EE0039D7E52D3DD7A2E145D7F8DEE2E3EA930F
:1006FE00A5E276D543D7759744F02FD7E3E5F2E020
:10070E0029D780E078D124960AC027D7E7E5F2E012
:10071E0021D734D72ED968D984E06DD12896A0EA96
:10072E00B1E035D5E2E0F0E0E093DA01F093DB01E1
:10073E00A0EEB1E0E52DF0E02BD7AEEDB1E0E42D6B
:10074E00F0E026D7A6E027D7E093DC01F093DD0199
:10075E00A7E021D7E093E201F093E3010FD7E093F6
:10076E00E401F093E501EAEDF1E0ACE042D98CDE74
:10077E00A8ECC3D6A2CFFFCFB9D668D912D712969E
:10078E002BD93097F1F00DD70FD78F01309761F03D
:10079E000230E0E01E0770F0F80131978F01AA8158
:1007AE00BB811496ED93FC93FCD61296C1D631976D
:1007BE00AC81A083F6D610D9FF2312F0F2D6B8D6AC
:1007CE0004C0EFD6EFEFFFEFE3D647D90EC68ED6B5
:1007DE00269738D910E0AC85BD85E9D6D9D6EA89F9
:1007EE00FB893196EA8BFB8B3197E4912E2FE0300B
:1007FE0009F4FBC0E12FE03031F4253211F411E0A1
:10080E0001C0D8D6F1C0E130A1F4253211F4D2D610
:10081E00EAC012E040E000E02D3211F401E0E4C045
:10082E002B3211F44BE2E0C0203211F440E2DCC076
:10083E0002C0E23039F450E013E0203311F40068C6
:10084E00D3C003C0E33009F0CFC0203310F02A33F9
:10085E0008F007C0AAE05A9F502DE22FE0535E0F1A
:10086E00C3C0E22FE33639F4ACD6AED6AAD6A481F5
:10087E00AA93AED6B8C0E33731F4B0D6B1D6B3D65C
:10088E00B6D51E2F08C0E03751F4A8D6A9D6ABD6E0
:10089E00B9D51E2F086002600F7730E02DC0E43608
:1008AE0011F0E93611F4046002C0E53729F4EAE0EC
:1008BE00F2E09ED615E00BC0E83511F4086003C0D7
:1008CE00E83709F090C0E4E1F2E092D614E002FFBE
:1008DE0010C084D685D68FD6AB85AA2322F48ED6A9
:1008EE002CD889D64DE2403011F01F5F01C00B7F2E
:1008FE0003C074D675D67FD600FD10C0151770F4E0
:10090E0007FF08C002FF04C00B7F242F115001C047
:10091E0020E301C020E24ED65150F0CF312F01FF1F
:10092E0015C0303091F003FF05C0EE81FF81259197
:10093E005FD605C0AE81BF812D91AE83BF833AD6FF
:10094E00503009F051503150ECCF44C020E3EE81CD
:10095E00FF8146D8E887F987EE81FF81329648D627
:10096E00E885F9854ED6AE17BF0740F02F5FA885F4
:10097E00B98544D6EA1BFB0B3ED6F2CF2A3328F0BC
:10098E0003FF02C0295F01C0295D04FD19C0213398
:10099E0020F4A885B985119709F409C0531710F0F2
:1009AE0000FF01C011C020E207FF0AC020E3006172
:1009BE0002FF06C00B7F4A930BD6503009F0515000
:1009CE00F9D5503009F051503150A885B98512979C
:1009DE0008F0BCCF00FF07C0503029F05150E0E2C4
:1009EE00EA93F6D5F9CF10E0FACEAC85BD85F4D7F3
:1009FE0030D864960895FF92F82E269725D804D6FF
:100A0E00309719F4EFEFFFEF1CC0DE01169691D769
:100A1E008D01FAD5EDD5E0E0E887E987DE011A967B
:100A2E0088D7DAD797D51A930A93E3ECF3E092D5E9
:100A3E00DE011A96CCDE9F01AE81BF81E0E0EC9321
:100A4E00F90109D82A96FF90089508956AD5A998B4
:100A5E0018E0FBDFE981E07811F0AB9A01C0AB98AA
:100A6E00E981EE0FE983F1DFAC9AEFDFAC9811501C
:100A7E0081F7A99A1881DAC4AA93AA98A881E6DF09
:100A8E00A1C0AA93AA9AA881E1DF9CC04AD5E981A8
:100A9E00C0D51E2FE4E5E19FF001DF01EA81BDD54F
:100AAE00E093F201F093F301E12F188100C5AA93B0
:100ABE00E981E068B4D5E981EA93A981E7DFE064D2
:100ACE00AED5B4C4AA93E981EA93A981F0DFE0918F
:100ADE00F201F091F301A5D5E081A8C4AA93A4D5A3
:100AEE00A6D5A881A083CDDF6DC000D5ADD7A19AC4
:100AFE00A99AA49AAC98A39AA29AA09AA898AAE0A6
:100B0E00FCD4A89A96D53097D9F093D5E681E370A8
:100B1E001E2F8FD5E681E695E695E7700E2F89D5C7
:100B2E00E781EF773E2FAC81BD8156D785D5AC815D
:100B3E00BD81129651D785D5AC81BD8135D508C002
:100B4E0010E003E032E333D577D531D57AD52FD502
:100B5E00E0939E01F0939F01A1E28EDFE12FE4600E
:100B6E005ED5E02FE0615BD5E32FE06858D5A0E2BB
:100B7E0083DFA1E01FD0E1E0E0938301E0E0E093AA
:100B8E008401E1E0E0938901E0938A01E0938B0117
:100B9E00EFEFE0938C01E1E0E0939301E4E9F1E003
:100BAE00D9D4EFEFEA93A8E0B0E012D40DD0E1E093
:100BBE0052D778C0AA93E881E03011F0ECE001C082
:100BCE00E8E02DD5219608953FD730E0E0918401DD
:100BDE00E03009F03FEF9ED4A0E069DF08EF11E0AE
:100BEE00F80101501040309719F0A32F77DFF8CF9E
:100BFE0091D4A0E0F5D22FD777C4AA9327D7AC8192
:100C0E00A43518F4AB81A03310F027D7EEC3EC81D6
:100C1E00EA93AC8157DF1E2FEB81E770A1E099D6E6
:100C2E000E2FEA81E03011F0102B03C0E02FE0957B
:100C3E001E23A12F53DF11D7D8C373D4ED81EA93AE
:100C4E00AD8140DF1E2FE981E73011F0E83031F43D
:100C5E00EB81EA93AA81ECD3EB8308C0E33021F455
:100C6E00EB81E095EB8302C0E03021F4EA81E09560
:100C7E001E2302C0E23029F4EA81AB81EA231E2B47
:100C8E000EC0E13029F4EA81AB81EA231E2707C0AA
:100C9E00E43029F4EA81E095AB81EA2B1E23A12FE3
:100CAE001DDF188126960895AA932397CBD6A8897F
:100CBE00A43548F4AF85A03330F4AE85A03019F0DA
:100CCE00AD85A03009F484C1EE85E887A889BB27DD
:100CDE00EE85BCD4A535E0E0BE0720F0A889E4E59A
:100CEE00EA1BEE872D85AF85BB27ED85AFD4D19757
:100CFE0020F0AF85E0E3EA1BED87A985A63009F069
:100D0E0051C0EC85E13009F463C1E33039F4E09170
:100D1E009E01F0919F01309709F45AC10885ED8527
:100D2E0078D43E2FE22FE77019F4AD852A17C9F05B
:100D3E00A02FBB27E32F8ED464D4E1D359D42695AC
:100D4E0026952695532F5F935F5FE22FAF91EA179B
:100D5E0040F0102FE12F1150E03011F07ED4FACF79
:100D6E00F2CFAE850A17F1F0EE854BD456D440D4AF
:100D7E00ED85E77009F03F5F20E02F932F5FE32FA3
:100D8E00AF91AE1778F41E851F931F5FE02FAF91C2
:100D9E00AE1710F462D4F8CFEE85AE81BF813DD48C
:100DAE0027D4EBCFEF85E7703E2FED85E03009F4C9
:100DBE000FC124D41DD410E00889303009F05AC078
:100DCE00AD85A83008F451C0E985E03011F0E3306C
:100DDE0009F402C0E73009F402C0E83009F402C099
:100DEE00E93009F402C0EA3019F442D460DE04C0DE
:100DFE00E63011F43DD44ADE1F933DD4AF91AE17C9
:100E0E0068F5A985A63039F439D4A4D30DD40FD4FE
:100E1E00A0814FD322C0E985E93011F450E00CC017
:100E2E00EA3011F45FEF08C029D431D45E2FE98582
:100E3E00E73011F0E83019F42FD45E2F06C0E330FE
:100E4E0011F4509502C0E03019F4A52F1ADE05C03A
:100E5E0026D4EFEFEA93AD85F0DECECFEF85E85FD7
:100E6E00EF87ED85E850ED87AEC05D8520E0E0E0D0
:100E7E00ED8767C0E32FAD85AE0FA93020F42D8529
:100E8E00E0E0ED8703C0E8E0E31B2E2F3A93A22F9C
:100E9E00C5D24E2FE985E630C1F4EAD3F7DD1F93B4
:100EAE00EAD3AF91AE1780F4BFD3C1D3E081E42370
:100EBE00AE2FE32F56D5F9D3E32FA42F52D5FFD360
:100ECE0049D3A52FF6D2EBCF22C0E93011F450E072
:100EDE0003C0EA3089F45FEFDFD3AE2FE32F39D5AD
:100EEE005E2F1F93C8D3AF91AE1728F4D8D34A9371
:100EFE00A0E0A3DEF6CF0BC01F93BDD3AF91AE170C
:100F0E0030F4E1D3AE2FE32F24D5EAD3F5CFED8520
:100F1E00E03009F45DC0AD85A83028F4ED85E21B04
:100F2E005E2FE0E003C0532FED85E850ED8710E013
:100F3E00EF85E85FEF87E8E0E31B2E2F08895ED38D
:100F4E0057D3E52FF0E0E45EFD4F4491E985E6309E
:100F5E00C1F48ED39BDD1F938ED3AF91AE1780F469
:100F6E0063D365D3E081E423AE2FE22FF2D49DD379
:100F7E00E22FA42FEED4A3D3EDD2A52F9AD2EBCF8E
:100F8E0022C0E93011F450E003C0EA3089F45FEF7B
:100F9E0083D3AE2FE22FE5D45E2F1F936CD3AF9188
:100FAE00AE1728F47CD34A93A0E047DEF6CF0BC0F1
:100FBE001F9361D3AF91AE1730F485D3AE2FE22FCE
:100FCE00D0D48ED3F5CFE8851CD327D314D3EDCE52
:100FDE0040D56196089588D314F0E9D227C289D3FB
:100FEE00A435E0E0BE071CF0E3E5F0E01FC2E881A7
:100FFE00F9811CC279D314F0DAD218C27AD3D09701
:10100E001CF0EFE2F0E012C2E881F9810FC26ED25D
:10101E00239772D38F01002E012A11F4C8D24EC02D
:10102E0071D30F826FD30E826DD30886EB85A885A0
:10103E00EA1710F4BCD242C0F8010F5F1F4F549153
:10104E00A885BB27EE27A50FBE1FEB85F0E0EA179C
:10105E00FB0710F0ACD232C0EE81DBD24E2FEE8108
:10106E00E77009F04F5FEF81E03071F04BD2A88549
:10107E00EB85EA1BF0E0DF01EF81ECD2DF01E42F1C
:10108E00E9D2E00FF11F1AC09801E52FF0E00E0F24
:10109E001F1FA885AF5FA887A150EB85AE1750F430
:1010AE00F9012F5F3F4FA491B0E0E42FD3D20E0F82
:1010BE001F1FEFCFF901E49125D2F801CAD42C9667
:1010CE000895E0E0E0938501A0918601BB271FD330
:1010DE00BDD2E0918A01BAD28DDFE09386010895E8
:1010EE00AA93219709D3309709F44CC0AF81AA3047
:1010FE0009F446C0EF81EA93DE01179688DFAF014F
:10110E00309709F441C0E0918901AE81EA0F3E2F7C
:10111E00A0918501BB2781D28F010535E0E01E0726
:10112E0018F0032F1127CDDFE0918501F7D2E88566
:10113E00EA93EDD2EA93E1E0EA935A934A93A7E059
:10114E00B3DDE0918501AE81EA0FE8D2E09189012D
:10115E00EA93DDD2EA93DED1E6D2E0918501EA93FD
:10116E00A0918601D4D2EA0FEA933A93E0918A01D4
:10117E00EA93D0D1D8D2E4E5F0E0E017F10711F40C
:10118E00A0DF02C00093850164D428960895AED1E5
:10119E001A93A981BA81ED91A983BA831E2FE030EB
:1011AE0019F0A12F9DDFF5CF188181C1AA93EA8195
:1011BE00EA93EA81EA93E0918C01AA81EA2319F07D
:1011CE00E091830102C0E0918401AE2F16DDE8812B
:1011DE00EE0FE883E03011F4E1E0E883E88167C1C7
:1011EE00AA93A981BB27F7DEE0938501A881BB27CF
:1011FE0001DFE09386011AC1AA932B9723D4AC8901
:10120E00BB27E9DEEC8BAA89BB27E5DEEA8BAB892F
:10121E00BB27F0DEEB8BA989BB27ECDEE98BEA89D5
:10122E00E0938501E989E0938601E1E0E887E989A9
:10123E00AB89EA1761F51C89AA891A1731F41A933A
:10124E00EC89EA93A1E0B2DFC0C0AA891A1730F484
:10125E00EA89E11B0E2F41E050E006C0AA89E12F7A
:10126E00EA1B0E2F4FEF5FEF3B89E0E0EE835FD27C
:10127E0030F465D23395AA8599DFEF83F8CFEF81ED
:10128E00E887140FE02F0150E03071F79EC0EA8915
:10129E00AC89EA1739F53B89A9893A1730F4E989FF
:1012AE00E31B2E2FE1E0F0E006C0A989E32FEA1B35
:1012BE002E2FEFEFFFEFED87FE871C89E0E0EE8328
:1012CE0036D238F41A9313953A93AA856FDFEF83CB
:1012DE00F7CFEF81E887ED853E0FE22F2150E0300A
:1012EE0061F773C0E0E0EE8322D208F06EC01C8975
:1012FE003B89E1E02E2F0E2FAA89BB27EC89F0E067
:10130E00AE1BBF0BAD01552322F40FEFFA0115D31F
:10131E00AF01FA01EE0FFF1FEF87F88BA989BB27EC
:10132E00EB89F0E0AE1BBF0BAD87BE87AE85AA235F
:10133E0032F42FEFED85FE8500D3ED87FE87ED8528
:10134E00FE85EE0FFF1FEB87FC87F9D1A1E02EDFA4
:10135E00E887E0E0E987EA87AD85BE854A175B0737
:10136E00B4F0100FEB85FC85EDD1C9D0EED1EAD1EA
:10137E004A175B0724F4320FAF85B889E9D1DFD164
:10138E00AA8514DFE887EA89E11759F717C0320FEB
:10139E00EF85F889D7D1B3D0D8D1ED85FE85D2D1DE
:1013AE00EA17FB0724F4100FAB85BC85D1D1C7D14A
:1013BE00AA85FCDEE887E989E31749F7EB89EF5F39
:1013CE00EB8BE989EF5FE98B8FCF43D36596089559
:1013DE008DD0B981A881109631F0FC81EB816A81A4
:1013EE0061931197E9F7EB81FC81259608957ED0E4
:1013FE00A991B991EE27FF276D91662311F03196D1
:10140E00FBCF089573D0AA27BB27E991F9910590D8
:10141E00002011F01196FBCFFD010895AA93E881EB
:10142E00F0E0E45EFD4FA491E98193D222960895F7
:10143E0078D0E981E73011F0EA3019F41091830188
:10144E0009C0E93019F41091840104C0E830A1F408
:10145E0010919301E0918401E03049F0103019F0C1
:10146E00EFEF188124C0EA81E095188120C010307A
:10147E0019F4E0E018811BC0EA81188118C036D03B
:10148E00EA81E13021F4E881F981E49110C0E23083
:10149E0019F42FD1B6D20BC0E33039F42AD1E09132
:1014AE009C01F0919D01099502C023D1EC912396E8
:1014BE000895AA93EB81E03029F4E881A981BA81DD
:1014CE00EC9312C0E23029F4E881A981BA81A5D249
:1014DE000BC0E33049F4E981FA813CD0AA81E09156
:1014EE009E01F0919F01099524960895BA93AA93AF
:1014FE00089580EA8A95F1F70895B0E02EC1EA0FBB
:10150E00FB1F0895A985BA85EC9308958BE18A9502
:10151E00F1F70895E0E0EA930895E7E0EA93AEE785
:10152E0076C7AA931A930895A88151C7949AEECFBD
:10153E00ED91FD913196FE93EE930895E0E3EA93DB
:10154E0008955ADEE7CFE4E5EA93089520DEE4E05D
:10155E00EA930895FA93EA930895E0EAF1E0FACF58
:10156E00F0E06627772740D284E045DA2896E2E35A
:10157E00EA93089535DEA0EAB1E009CEE091EA01E2
:10158E00F091EB016091EC017091ED011FD1089586
:10159E00ED93FC930895FDD6DF01E4E0F0E009D26F
:1015AE000895AA81BB810895149616D20895E0E09D
:1015BE00F0E008952A93AD85BE85EF85F8890995EB
:1015CE000895E889F98908953497E88BF98B089581
:1015DE00AD85BE85EF85F88909950895F2DFF4CFC4
:1015EE00A889B989E1CFEE83FF83AE81BF810895CB
:1015FE00EE83FF830895EA87FB870895EA85FB85CE
:10160E000895AA85BB850895DE011C9692D1E4D17A
:10161E000895E695E695E6950895F0E070CFAE2F25
:10162E002BCAEC50FE4F0895A2EFB1E081CF319757
:10163E00F8CFEC81FD810895E0938701F093880146
:10164E000895E0939C01F0939D010895F0E0AE0F94
:10165E00BF1F0895F0E092D10895EC85EA93EF81D3
:10166E00F8853196EF83F887319774DFA0E021CFAC
:10167E000A93A88908951F5FEE850895EC85EA9375
:10168E00EF81F8853196EF83F887319708956627B5
:10169E007727DF01CB01F3CE5A93AA85C9CE0A93E1
:1016AE000395E889EA935A9308955E2FEC85EA93A1
:1016BE00AF81B88588279927E2DE1E2E0895E09522
:1016CE00E1215E2BDBCF0A930395E889EA93EE8541
:1016DE00EA93E985FA853196E987FA873197D7CF6C
:1016EE00EA934A93AD85A9CA01DFA881B981A6D133
:1016FE000895A881B9810895A5D1E0918701F0914F
:10170E0088010895F8010F5F1F4F04900895E0912E
:10171E008701F09188013196E4910895EA93E09162
:10172E008601EA93089543DF15DFA9E0BDCAAE81B5
:10173E00AF5FAE83A150E0918B01AE1708951A935F
:10174E003A930895A985BA850895E987FA87089589
:10175E00E985FA85EA1BFB0BF8CF109639F080ED80
:10176E0097E00197F1F7A8951197C9F708955523BA
:10177E0042F4503811F4E0FF04C03196691F791F0E
:10178E006BF050E8572711F45F9373C05F3F31F051
:10179E00660F000C57956795752F08955F9300207F
:1017AE000AF073C06CC050E8192E1522880F991FCD
:1017BE009527550F879550E8072E0522660F771F40
:1017CE007527550F67950895689401C0E8945F9347
:1017DE00F2DF703818F07F3F08F44BC056E1571B0C
:1017EE00AAF4519558300EF4593030F0EFEFFFEF68
:1017FE006FEF7FE777F91AC077275523B9F0EE0F11
:10180E00FF1F661F771F5A95D1F710C077275830E4
:10181E0028F0EF2FF62F672F5850F9CF552331F0C0
:10182E0076956795F795E7955A95D1F700200AF4C6
:10183E0088D05F910895689401C0E8943097604015
:10184E007040B1F0002426F0772312F4009479D082
:10185E00172E7EE1112032F07A95EE0FFF1F661FD4
:10186E00111CF9CFEF2FF62F612D5F938ADF5F9159
:10187E000895EE27FF27662777275F910895EFEFEC
:10188E00FFEF6FE77FEF5F910895EFEFFFEF6FE7E9
:10189E007FE75F9108955F9386DF703851F390383C
:1018AE0041F301240894791F23F41CF300203AF32A
:1018BE00ECCF0F921F932F933F934F931127222715
:1018CE009927689FA0018F9F302D410D591F6B9F47
:1018DE00300D411D591F8E9F27D0BF9F25D06A9F67
:1018EE0023D0BE9F1DD0AF9F1BD0AE9F110D291FC1
:1018FE00391F491F591FE32FF42F652F522F4F9178
:10190E003F912F911F910F9066232AF0550FEE1FD6
:10191E00FF1F661F02C073954BF229DF5F9108957A
:10192E00100D211D391F02C0200D311D491F591FD9
:10193E0008950024AF0DB01D0895F195E195F04086
:10194E000895F09560957095E195FF4F6F4F7F4F1D
:10195E000895EE230E2EEA2F19F0EE0F0A94E9F7F2
:10196E000895EE230E2EEA2F19F0E6950A94E9F764
:10197E0008956F2F660F660B762F0895FA9FF02D40
:10198E00EB9FF00DEA9FE02DF10D08950024112438
:10199E0090E1AA0FBB1F001C111C0E1A1F0A18F48F
:1019AE000E0E1F1E01C0A1609A9599F7FD01D00180
:1019BE00089504D0EBDF0EF4C0DF0895E894F7FF2E
:1019CE0002C0BBDF6894B7FF06C0A095B095119614
:1019DE0000F8039400FA0895ED91FC911197089583
:1019EE000590F491E02D08957A936A93FA93EA9311
:1019FE000895BB27EA0FFB1F02900A921197E1F799
:101A0E000895E199FECFFF93FFB7F894AEBBBFBB2D
:101A1E00E09AEDB3FFBFFF910895E19B02C0A89538
:101A2E00FCCF9FB7F894AEBBBFBBE09A8DB3E8175F
:101A3E0019F0EDBBE29AE19A9FBF089500240A16B1
:101A4E000B0608955A934A933A932A931A930A933C
:101A5E0008955D814C813B812A8119810881089509
:00000001FF
