:020000000C945E
:100002006E010C9400000C9400000C9400000C94FF
:1000120000000C9400000C9400000C9400000C945E
:1000220000000C9400000C9400000C9400000C944E
:1000320000000C9400000C9400000C9400000C943E
:1000420000000C9400000C9400000C9400000C942E
:1000520000000507206000000000000000040A0400
:100062000007000700147F147F14242A7F2A12231A
:100072001308646236495522500005030000001C33
:100082002241000041221C00082A1C2A0808083EBE
:100092000808005030000008080808080030300046
:1000A2000020100804023E5149453E00427F4000B4
:1000B20042615149462141454B311814127F1027A4
:1000C200454545393C4A49493001710905033649DC
:1000D200494936064949291E00363600000056367F
:1000E20000000008142241141414141441221408AC
:1000F200000201510906324979413E7E1111117EF9
:100102007F494949363E414141227F4141221C7F7C
:10011200494949417F090901013E414151327F0864
:1001220008087F00417F41002040413F017F0814C1
:1001320022417F404040407F0204027F7F0408103A
:100142007F3E4141413E7F090909063E4151215E00
:100152007F09192946464949493101017F01013F79
:100162004040403F1F2040201F7F2018207F631403
:100172000814630304780403615149454300007F76
:100182004141020408102041417F000004020102A3
:10019200044040404040000102040020545454787E
:1001A2007F484444383844444420384444487F38E3
:1001B20054545418087E090102081454543C7F0810
:1001C20004047800447D40002040443D00007F103C
:1001D200284400417F40007C041804787C08040411
:1001E2007838444444387C14141408081414187CD5
:1001F2007C080404084854545420043F4440203CE2
:100202004040207C1C2040201C3C4030403C442884
:100212001028440C5050503C4464544C440008365E
:10022200410000007F000000413608000201020484
:10023200027F4141417F1027E80364000A00010068
:100242000010000110000100000103070F1F3F7F93
:10025200FF00A3004E6F64653A2000330054656DC1
:10026200703A200048756D69643A200057617465E0
:10027200723A2000214300636D00323100373500AD
:100282003435000001002D4E414E00494E4600001B
:1002920001000500540207006002560202006702D4
:1002A2005D02070069025F02080070026602080030
:1002B20078026E0203008002760203008302790252
:1002C200030086027C02030089027F0203008C0283
:1002D20082020100DA0286020000F894EE27ECBBEB
:1002E200F1E0F5BFE5BF8DE0A2E0BB27ED938A9573
:1002F200E9F780E098E0A0E6ED930197E9F7E2E9FB
:10030200F2E085919591009761F0A591B5910590E4
:100312001590BF01F00105900D920197E1F7FB01E5
:10032200F0CFEFE5EDBFE8E0EEBFC0E6D2E00C941F
:10033200F8022897E4E5F0E0E883F983E0E0EA8355
:10034200EB83EC83ED83EE81EC7FE260EE83E37E70
:10035200EC60EE83EF81E078EC63EF83DE010E94D4
:1003620083038A9A929A8F9A979A8B9A939A8E9AE1
:10037200969A8C98849A8D98859AD69ADE98BB988C
:10038200B39ABC98B49ABA98B29AB998B19A789436
:100392000C9475078BE18A95F1F7E0E0EA93AFE1FF
:1003A20020D0A2E0B0E00E94F009E7E0EA93AEE7D5
:1003B20018D0EDE1EA93A4E014D0E5E0EA93A2E0DC
:1003C2004CC0AA931A9310E0183050F4E981E078F7
:1003D20011F4969801C0969A0E9424091F5FF4CFE7
:1003E20077C0AA939798E981E062AE2FEADFBE2E2A
:1003F2000E943609EB2D6EC0AA939798E3E0EA9328
:10040200A3E0EFDF0E943E09AAE20E944409A8810C
:10041200D8DFA8810E9444090E9436099798A0E378
:100422000E944409A8810E944409A881CADF0E944F
:1004320036090C940A049298E0E0EA93AEE10DC00A
:10044200ECE1EA93A1E0CDDFA52DD6DFE2E0EA936D
:10045200A1E0C7DFE1E0EA93A1E0C3DF0895AA9338
:1004620097980E9436090C940A04A52DC5DF0E94B4
:100472003E09A1EEA6DF0E943E09A0EA0E944409BD
:10048200AA819FDFAC819DDFAE819BDFA88599DFCA
:10049200979A929A88EE93E00197F1F79298E7E0A3
:1004A200EA93AEE79EDFA52DA7DFA1EED8DF2A965D
:1004B2000895AA931A9310E0183050F4E981E07875
:1004C20011F4969801C0969A0E9424091F5FF4CFF6
:1004D200E981188122960895929A88E795E001971A
:1004E200F1F79298979A0895AA939798A881E1DFD5
:1004F200979A8BE18A95F1F70C940A04E0E3EA9368
:10050200E0E00E944909EFE00E944909E0E0EA9335
:10051200E4E5EA93A0E00E94AD07E4E5EA93E0E0B7
:100522000E945209E0E30E945209E0E0EA93EA9352
:10053200A0E30E94AD07E3E0EA93A3E00E94A107D3
:10054200A0E6B2E00E947707E8E2EA93A3E00E9405
:10055200A107A7E6B2E00E945B09A2E10E94A107FF
:10056200A9E6B2E00E945B09ACE10E94A107A0E704
:10057200B2E00E945B09A5E20E94A107A8E7B2E0EF
:100582000E947707E4E4EA93A2E10E94A107A0E8AF
:10059200B2E00E947707E5E4EA93ACE10E94A1078A
:1005A200A5E20E941507E5E4EA93A5E20E94A107ED
:1005B200A3E8B2E019C0E2E3EA93ACE10E94A1072A
:1005C200A6E8B2E00E947707E2E3EA93A2E10E9482
:1005D200A107A9E8B2E00E947707E2E3EA93A5E265
:1005E2000E94A107ACE8B2E00E9477070895A1DE5D
:1005F20085DFE1DFCFDE70DF23DF1DDFE1E0F0E04A
:10060200E093D002F093D102E4E6F0E0E093D60268
:10061200F093D702E093D402F093D502E093D20292
:10062200F093D302E093D802F093D902E0EDF2E026
:10063200AAE00E941A0A19DFACE2B1E00E94F009B6
:10064200859AA2EE51DFDACFFFCF0895AA931A93CB
:10065200AD9818E0FADFE981E07811F0AF9A01C0B5
:10066200AF98E981EE0FE983F0DFDF9AEEDFDF98E2
:10067200115081F7AD9A18810C94BC08AA93AE98D8
:10068200A881E4DFC6C0AA93AE9AA881DFDFC1C009
:10069200AA931A93E981E695E695E6951E2FE4E57D
:1006A200E19FF001DF01EA81F0E0EA0FFB1FE09336
:1006B200DE02F093DF02E12F18810C940309AA9362
:1006C200E981E068AE2FDADFE981EA93A981E0DF10
:1006D200E064AE2FD3DF0C94BC08AA93E981EA93BD
:1006E200A981EDDFE091DE02F091DF02E052FD4FE1
:1006F200E0810C94BC08AA930E946009A881A0839F
:10070200C2DF87C0BA93AA930E94450AA59AAD9AFE
:10071200D79ADF98A79AA69AA49AAC98AAE0B0E0D2
:100722000E94F009AC9AEC81FD81309721F1E681BB
:10073200E3701E2FEC81FD81E681E695E695E77078
:100742000E2FEC81FD81E781EF773E2FAC81BD81D9
:100752000E94160AE0939302F093940212960E946A
:10076200160AE093A802F093A902AC81BD81149607
:100772000E94160A0DC010E003E032E3E0E0F0E070
:10078200E0939302F0939402E093A802F093A902FB
:10079200E093AA02F093AB02A1E270DFE12FE460E2
:1007A200AE2F6CDFE02FE061AE2F68DFE32FE06851
:1007B200AE2F64DFA0E262DFA1E022D0E1E0E093AD
:1007C2008F02E0E0E0939002E1E0E0939502E09393
:1007D2009602E0939702EFEFE0939802E1E0E09354
:1007E2009F02E0EAF2E0FA93EA93EFEFEA93A8E0DD
:1007F200B0E00E94A3080FD0E1E00E944C0A86C03C
:10080200AA93E881E03011F0ECE001C0E8E0AE2FFD
:1008120035DF219608950E94450A30E0E09190026A
:10082200E03009F03FEFE0E0EA93A0E048DF08EFB4
:1008320011E0F80101501040309719F0A32F5BDF4F
:10084200F8CFE0E0EA93A0E07BD30E944C0A0C943C
:100852002209AA931A930A93AC81A43518F4AB81A6
:10086200A03320F0198108810C94B108EC81EA933D
:10087200AC8133DF1E2FEB81E770A1E00E94FE09FD
:100882000E2FEA81E03011F0102B03C0E02FE0952B
:100892001E23A12F30DF198108810C94B108AA937D
:1008A2001A93ED81EA93AD8118DF1E2FE981E730BB
:1008B20011F0E83039F4EB81EA93AA810E94BE0874
:1008C200EB8308C0E33021F4EB81E095EB8302C0B7
:1008D200E03021F4EA81E0951E2302C0E23029F4DF
:1008E200EA81AB81EA231E2B0EC0E13029F4EA81B2
:1008F200AB81EA231E2707C0E43029F4EA81E095A0
:10090200AB81EA2B1E23A12FF6DE188126960895CD
:10091200AA9323970E94430AA889A43548F4AF8575
:10092200A03330F4AE85A03019F0AD85A03009F4C3
:10093200CCC1EE85E887A889BB27EE85F0E0AE0F33
:10094200BF1FA535E0E0BE0720F0A889E4E5EA1B59
:10095200EE872D85AF85BB27ED85F0E0AE0FBF1F7B
:10096200D19720F0AF85E0E3EA1BED87A985A63099
:1009720009F05BC0EC85E13009F4A7C1E33039F43A
:10098200E091AA02F091AB02309709F49EC108856A
:10099200ED85E695E695E6953E2FE22FE77019F490
:1009A200AD852A17E9F0A02FBB27E32FF0E00E94C4
:1009B2000E0AAA85BB850E946B0926952695269567
:1009C200532F5F935F5FE22FAF91EA1748F0102F2A
:1009D200E12F1150E03019F00E947009F9CFF1CFE8
:1009E200AE850A1711F1EE85AA85BB85F0E00E945B
:1009F2006B09ED85E77009F03F5F20E02F932F5FD1
:100A0200E32FAF91AE1788F41E851F931F5FE02F6F
:100A1200AF91AE1718F40E947009F7CFEE85AE8140
:100A2200BF81F0E00E946B09E9CFEF85E7703E2FAE
:100A3200ED85E03009F449C1EA85FB85EE83FF8349
:100A420010E00889303009F063C0AD85A83008F4A1
:100A52005AC0E985E03011F0E33009F402C0E73012
:100A620009F402C0E83009F402C0E93009F402C016
:100A7200EA3021F40A93A88922DE04C0E63011F498
:100A82000E947D091F931F5FEE85AF91AE17A0F5FF
:100A9200A985A63051F40E948109FA93EA930E9433
:100AA2006009A0810E94050926C0E985E93011F498
:100AB20050E00EC0EA3011F45FEF0AC00E948109D3
:100AC2000E948A095E2FE985E73011F0E83021F4AF
:100AD2000E9490095E2F06C0E33011F4509502C0C7
:100AE200E03019F4A52FCFDD06C00E949409EFEF84
:100AF200EA93AD85D4DEC6CFEF85E85FEF87ED855B
:100B0200E850ED87D9C05D8520E0E0E0ED877EC04A
:100B1200E32FAD85AE0FA93020F42D85E0E0ED87FF
:100B220003C0E8E0E31B2E2F3A93A22F0E94B308E2
:100B32004E2FE985E63011F50E947D091F931F5F54
:100B4200EE85AF91AE17C8F40E946009E081E423FC
:100B5200AE2FE32F0E94060A0E949A09E32FA42FC8
:100B62000E94060AE095E1215E2B0E948109FA9318
:100B7200EA93A52F0E940509E1CF2CC0E93011F4B8
:100B820050E003C0EA30A9F45FEF0E949009AE2F53
:100B9200E32F0E94FE095E2F1F931F5FEE85AF9128
:100BA200AE1730F40E9494094A93A0E078DEF4CFA5
:100BB20011C01F931F5FEE85AF91AE1758F40E94CC
:100BC200A509AE2FE32F0E94FE09EA934A93AD8551
:100BD20066DEEFCFED85E03009F477C0AD85A83051
:100BE20028F4ED85E21B5E2FE0E003C0532FED8574
:100BF200E850ED8710E0EF85E85FEF87E8E0E31B60
:100C02002E2F0889EA85FB85EE83FF83E52FF0E02E
:100C1200E65BFD4F4491E985E63011F50E947D09BE
:100C22001F931F5FEE85AF91AE17C8F40E94600953
:100C3200E081E423AE2FE22F0E94FE090E949A096E
:100C4200E22FA42F0E94FE09E095E1215E2B0E9473
:100C52008109FA93EA93A52F0E940509E1CF2CC0DE
:100C6200E93011F450E003C0EA30A9F45FEF0E94CA
:100C72009009AE2FE22F0E94060A5E2F1F931F5F7C
:100C8200EE85AF91AE1730F40E9494094A93A0E02A
:100C920006DEF4CF11C01F931F5FEE85AF91AE1732
:100CA20058F40E94A509AE2FE22F0E94060AEA9389
:100CB2004A93AD85F4DDEFCFE885AA85BB85F0E0E8
:100CC200EA0FFB1FEA87FB87B3CE0E944A0A6196AE
:100CD20008950E94B20924F0E0E0F0E00C94BC0810
:100CE200A881B981A435E0E0BE0724F0E3E5F0E095
:100CF2000C94BC08E881F9810C94BC080E94B209EA
:100D020024F0E0E0F0E00C94BC08A881B981D0970F
:100D120024F0EFE2F0E00C94BC08E881F9810C9435
:100D2200BC08BA93AA9323970E94B9098F01002E97
:100D3200012A19F4E0E0F0E05FC00E94C0090F82CE
:100D42000E94C0090E820E94C0090886EB85A88510
:100D5200EA1718F4E0E0F0E04FC0F8010F5F1F4F10
:100D62005491A885BB27EE27A50FBE1FEB85F0E0A7
:100D7200EA17FB0718F0E0E0F0E03EC0EE81E695EE
:100D8200E695E6954E2FEE81E77009F04F5FEF8111
:100D9200E030A1F0A985BA85EC93A885EB85EA1B22
:100DA200F0E0DF01EF81F0E00E940E0ADF01E42FA4
:100DB200F0E00E940E0AE00FF11F1EC09801E52F1D
:100DC200F0E00E0F1F1FA885AF5FA887A150EB852B
:100DD200AE1760F4F9012F5F3F4FA491B0E0E42F0A
:100DE200F0E00E940E0A0E0F1F1FEDCFF901E491F1
:100DF200A985BA85EC93F8010E944A0A2C960895B7
:100E0200E0E0E0939102A0919202BB270E94C50903
:100E1200F0E0AE0FBF1FE0919602F0E0AE0FBF1FF1
:100E22006DDFE09392020895AA9321970E94B90977
:100E3200309709F455C0AF81AA3009F44FC0EF8151
:100E4200EA93DE0117966DDFAF01309709F44AC0CD
:100E5200E0919502AE81EA0F3E2FA0919102BB274D
:100E6200F0E0EA0FFB1F8F010535E0E01E0718F0E6
:100E7200032F1127C5DFE0919102EA93E0919202DC
:100E8200EA93E885EA930E94C509EA93E1E0EA93CE
:100E92005A934A93A7E03CDDE0919102AE81EA0FBA
:100EA200EA93E0919202EA93E0919502EA930E941A
:100EB200C5090E94CC09E0919102EA93A0919202A5
:100EC2000E94C509EA0FEA933A93E09196020E94C2
:100ED200CC09E4E5F0E0E017F10711F491DF02C07C
:100EE200009391020E944A0A28960895BA93AA93FF
:100EF2001A93A981BA81ED91A983BA831E2FE0309A
:100F020019F0A12F91DFF5CF18817CC1AA93EA8154
:100F1200EA93EA81EA93E0919802AA81EA2319F01E
:100F2200E0918F0202C0E0919002AE2F92DCE88144
:100F3200EE0FE883E03011F4E1E0E883E88162C17A
:100F4200AA93A981BB27C5DEE0939102A881BB27A2
:100F5200D5DEE09392020FC1AA932B970E94430A17
:100F6200AC89BB27B6DEEC8BAA89BB27B2DEEA8B43
:100F7200AB89BB27C3DEEB8BA989BB27BFDEE98B1D
:100F8200EA89E0939102E989E0939202E1E0E8873D
:100F9200E989AB89EA1771F51C89AA891A1731F414
:100FA2001A93EC89EA93A1E0B1DFC8C0AA891A17A3
:100FB20030F4EA89E11B0E2F41E050E006C0AA8915
:100FC200E12FEA1B0E2F4FEF5FEF3B89E0E0EE834C
:100FD2000E94D60938F41A933A933395AA8596DF7C
:100FE200EF83F6CFEF81E887140FE02F0150E03056
:100FF20061F7A4C0EA89AC89EA1739F53B89A98966
:101002003A1730F4E989E31B2E2FE1E0F0E006C045
:10101200A989E32FEA1B2E2FEFEFFFEFED87FE8763
:101022001C89E0E0EE830E94D60930F41A931395EE
:101032000E94DE09EF83F7CFEF81E887ED853E0F4F
:10104200E22F2150E03061F779C0E0E0EE830E94A8
:10105200D60908F073C01C893B89E1E02E2F0E2FC0
:10106200AA89BB27EC89F0E0AE1BBF0BAD0155236B
:101072002AF40FEFFA010E94FA09AF01FA01EE0F0A
:10108200FF1FEF87F88BA989BB27EB89F0E0AE1B26
:10109200BF0BAD87BE87AE85AA233AF42FEFED854D
:1010A200FE850E94FA09ED87FE87ED85FE85EE0F2B
:1010B200FF1FEB87FC871A933A93A1E027DFE887AB
:1010C200E0E0E987EA87AD85BE854A175B07BCF099
:1010D200100FEB85FC850E94E209A985BA854A17A3
:1010E2005B072CF4320FAF85B8890E94E9091A9385
:1010F2000E94DE09E887EA89E11751F718C0320F2A
:10110200EF85F8890E94E209ED85FE85A985BA85F9
:10111200EA17FB072CF4100FAB85BC850E94E90986
:101122001A930E94DE09E887E989E31741F7EB8900
:10113200EF5FEB8BE989EF5FE98B89CF0E944A0A67
:1011420065960895BA93AA93B981A881109631F051
:10115200FC81EB816A8161931197E9F7EB81FC8154
:1011620025960895AA93E881F0E0E65BFD4FA491ED
:10117200E9810E94FE0922960895AA931A93E981B1
:10118200E73011F0EA3019F410918F0209C0E9300A
:1011920019F41091900204C0E830A1F410919F025A
:1011A200E0919002E03049F0103019F0EFEF188131
:1011B20029C0EA81E095188125C0103019F4E0E0D9
:1011C200188120C0EA8118811DC0BA93AA93EA81CE
:1011D200E13021F4E881F981E49114C0E23029F48C
:1011E200A881B9810E94220A0DC0E33041F4A8818E
:1011F200B981E091A802F091A902099503C0A881E2
:10120200B981EC9123960895AA93EB81E03029F4F9
:10121200E881A981BA81EC9314C0E23031F4E8810B
:10122200A981BA810E942E0A0CC0E33051F4E981EF
:10123200FA81FA93EA93AA81E091AA02F091AB02B1
:101242000995249608958DE08A95F1F7E981EE0FCC
:10125200E983939A8DE08A95F1F7E0E08499E1E0E1
:10126200A981EA2BE98393980895A8810E94E2015B
:10127200979A8BE18A95F1F70895979A8BE18A956F
:10128200F1F7979808950E94E201A8810C94E20177
:10129200EA93E0E3EA93AFE00E94AD07E0E0EA936D
:1012A2000895EA93E4E5EA93A0E30E94AD07E0E043
:1012B200EA9308950E947707E4E0EA930895AEED79
:1012C200B2E0ED91FD913196FE93EE933197E052AB
:1012D200FD4F0895EA0FFB1FEE83FF830895EC850F
:1012E200EA93EF81F8853196EF83F8873197FA9385
:1012F200EA93A0E00C9405090A93A8890C94490387
:10130200EC85EA93EF81F8853196EF83F887319780
:10131200089566277727DF01CB010C94E6085A93DC
:10132200AA850C94BE080A930395E889EA935A9316
:1013320008955E2FEC85EA93AF81B88588279927B7
:101342000E94E6081E2E08950A930395E889EA93FF
:10135200EE85EA93E985FA853196E987FA8731972E
:10136200D8CFBA93AA93A881B9810E943F0A08955F
:101372000E94430AE0919302F09194020895F801C9
:101382000F5F1F4F04900895E0919302F091940231
:101392003196E4910895EA93E0E0EA93E0E0F0E028
:1013A200FA93EA93A9E00C948904AE81AF5FAE830D
:1013B200A150E0919702AE1708953A93AA850C9432
:1013C2008707A985BA85EA0FFB1FE987FA8708957F
:1013D200E985FA85EA1BFB0BE987FA8708951096DF
:1013E20039F080ED97E00197F1F7A8951197C9F7C9
:1013F2000895F195E195F0400895EE230E2EEA2F1F
:1014020019F0EE0F0A94E9F70895EE230E2EEA2F53
:1014120019F0E6950A94E9F70895FA9FF02DEB9FEB
:10142200F00DEA9FE02DF10D0895ED91FC911197D9
:101432000895BB27EA0FFB1F02900A921197E1F76A
:101442000895E199FECFFF93FFB7F894AEBBBFBBFF
:10145200E09AEDB3FFBFFF910895E19B02C0A8950A
:10146200FCCF9FB7F894AEBBBFBBE09A8DB3E81731
:1014720019F0EDBBE29AE19A9FBF089500240A1683
:101482000B0608955A934A933A932A931A930A930E
:1014920008955D814C813B812A81198108810895DB
:00000001FF
