:020000000C945E
:10000200A8020C9400000C9400000C9400000C94C4
:1000120000000C9400000C9400000C9461060C94F7
:1000220061060C9400000C944D030C9400000C9497
:1000320000000C9400000C9400000C9400000C943E
:1000420035030C9400000C94EB020C9400000C9409
:1000520011030C9400000C9400000C9400000C940A
:1000620000000C9400000C9400000C9400000C940E
:1000720000000C9400000C9400000C9400000C94FE
:1000820000000C9400000C940000050720600000A2
:1000920000000000005F00000007000700147F144A
:1000A2007F14242A7F2A12231308646236495522B8
:1000B200500005030000001C2241000041221C00E8
:1000C200082A1C2A0808083E0808005030000008C8
:1000D20008080808003030000020100804023E51D1
:1000E20049453E00427F4000426151494621414517
:1000F2004B311814127F1027454545393C4A49496E
:100102003001710905033649494936064949291E14
:100112000036360000005636000000081422411452
:100122001414141441221408000201510906324920
:1001320079413E7E1111117E7F494949363E414146
:1001420041227F4141221C7F494949417F090901DE
:10015200013E414151327F0808087F00417F410042
:100162002040413F017F081422417F404040407FB0
:100172000204027F7F0408107F3E4141413E7F0915
:100182000909063E4151215E7F091929464649491E
:10019200493101017F01013F4040403F1F20402083
:1001A2001F7F2018207F631408146303047804035C
:1001B200615149454300007F41410204081020413A
:1001C200417F00000402010204404040404000011F
:1001D20002040020545454787F484444383844443C
:1001E2004420384444487F3854545418087E090146
:1001F20002081454543C7F0804047800447D4000F3
:100202002040443D00007F10284400417F40007C94
:10021200041804787C0804047838444444387C1474
:10022200141408081414187C7C0804040848545454
:100232005420043F4440203C4040207C1C2040206D
:100242001C3C4030403C44281028440C5050503C48
:100252004464544C44000836410000007F00000012
:100262004136080002010204027F4141417F000140
:1002720003070F1F3F7FFF001027E80364000A00F7
:100282000100001000011000010000000000000049
:10029200000000000000A100A200A300A4000605C7
:1002A2000705180529053A05474554202F7570643E
:1002B2006174653F6B65793D00004552524F5200B3
:1002C2003752364E53594648424652554152364BA2
:1002D20000354930303057524F584F465330563818
:1002E2003500364E4846584830373653433032444C
:1002F2005A300057554954384C58374E39325838CD
:100302004A3457004E6F64653A200054656D703A66
:10031200200048756D69643A200057617465723A2D
:100322002000214300636D0032310037350034353F
:1003320000426F6F74696E670041540D0A004F4BA3
:100342000041542B4349505354415455530D0A0014
:100352005354415455533A32005769666920436FEA
:100362006E6E65637465640D0A0041542B43574DEC
:100372004F44453D310D0A0041542B43574A4150E9
:100382003D22546861795F5468616F5F64656F5F95
:1003920067696169222C226368696E6878616322E9
:1003A2000D0A0041542B4349504D55583D310041EF
:1003B200542B43495053544152543D302C22544300
:1003C20050222C226170692E7468696E67737065A1
:1003D200616B2E636F6D222C383000266669656C66
:1003E20064313D00266669656C64323D00266669AB
:1003F200656C64333D0041542B43495053454E4490
:100402003D302C003E200041542B434950434C4F79
:1004120053453D300D0A0025640001002D4E414E2A
:1004220000494E460000010002008C020A0004004E
:100432008E0206000005BC02010034089802010089
:1004420035089A02010036089C02010037089E0214
:1004520001000605C10211000705C20211001805BC
:10046200D30211002905E40211003A05F5020A003F
:100472005D08A00207004B050603070052050D03A5
:10048200080059051403080061051C0303006905EF
:10049200240303006C05270303006F052A030300EE
:1004A20072052D0303007505300308007805330338
:1004B200050080053B030300850540030F00880506
:1004C200430303009705400309009A0552031100F4
:1004D200A3055B030E00B4056C030300C2054003D1
:1004E2002B00C5057A030300F00540030C00F30559
:1004F200A5030300FF053D030300020640032C0091
:100502000506B103030031063D0303003406400330
:1005120009003706DD0309004006E6030900490623
:10052200EF03030052063D030E005506F8030300D5
:1005320063063D030300660606041000690609040B
:10054200030079064003010067081C040000F894C8
:10055200EE27ECBBF1E0F5BFE5BFE0936C008DE068
:10056200A2E0BB27ED938A95E9F780E090E1A0E055
:10057200B1E0ED930197E9F7E8E2F4E08591959116
:10058200009761F0A591B59105901590BF01F0011A
:1005920005900D920197E1F7FB01F0CF8BBFEFEFD2
:1005A200EDBFE0E1EEBFC0E0D5E00C947C06BA936B
:1005B200AA93A881B981EC91E03041F0E0E0EC939C
:1005C200E881F9813196E883F983F3CF882499246D
:1005D2000C94A608EA93FA93EFB7EA931A930A9354
:1005E2001BB10CB1E12FEC7189F4E52D5394F0E0CD
:1005F200E756F94F0083E0E4E51509F455247394B6
:10060200E0E4E71519F47724689420F8F401E7523E
:10061200F94F0083F40131964F010991199137C0C6
:10062200AA93EA93FA93EFB7EA93E0913208E030A3
:10063200A9F0E150E0933208E0913108EF5FE093D6
:100642003108E150F0E0E051F84FE081ECB9A091BF
:100652003108A03419F4E0E0E0933108E991EFBFEA
:10066200F991E991A9911895EA93FA93EFB7EA9370
:10067200ECE9E2BFF50131965F01E0E1F7E2EA154C
:10068200FB0529F4F60131966F01AA24BB24E991F6
:10069200EFBFF991E9911895AA93BA93EA93FA9365
:1006A200EFB7EA93E3E8E4BDE1E0E61521F4ADED4E
:1006B200B7E00E94EE0FA091DD07B091DE07A838E7
:1006C200E3E1BE0769F40E94F40F0E94F90FE0E033
:1006D200F0E0ED93FC930E9400100E940310662448
:1006E200E991EFBFF991E991B991A9911895AA936E
:1006F200A0913208A034E1F3F894E0913208E0309E
:1007020011F45D9918C0E0913008EF5FE093300872
:10071200E150F0E0E051F84FA881A083A0913008A9
:10072200A03419F4E0E0E0933008E0913208EF5F82
:10073200E093320802C0E881ECB978940C9439094C
:10074200BA93AA93A881B981EC91E03061F0AC919F
:10075200CEDFA2E3B0E00E94FD11E881F98131967B
:10076200E883F983EFCF0C94A6080E9409100E9437
:10077200FD11A9EDB6E01BDF882499240C94A6088C
:10078200BA93AA93A8970E94641200E010E0DE01D7
:100792005A960DDFA8A9B9A9EC91E03001F1F80150
:1007A200DE015A96EA0FFB1F0F01A8A9B9A9EC9125
:1007B200D001EC93F801DE011696EA0FFB1F0F0140
:1007C200DE015A96A00FB11FEC91D001EC93E8A97B
:1007D200F9A93196E8ABF9AB0F5F1F4FDBCF96015A
:1007E200C216D30644F4F601FC96AF01DA010E9468
:1007F2000E10F4F004C0D6010E940E10CCF00E943C
:100802001510DE015C960E940F08309741F40E9499
:100812001510DE0118960E940F08309709F008C0E3
:100822000E941510A0E0B5E00E940F083097C1F2B7
:100832000E946B12E29608950E941A108BE18A952B
:10084200F1F7E0E0EA93AFE124D0A2E0B0E00E9449
:10085200FD11E7E0EA93AEE71CD0EDE1EA93A4E0F4
:1008620018D0E5E0EA93A2E014D00895AA931A936F
:1008720010E0183050F4E981E07811F4D99801C001
:10088200D99A0E9422101F5FF4CFE98118810C943B
:10089200A6080E943410EADFE0935C08A881E6DF34
:1008A2000E943A10E0915C080C94A608AA931A934D
:1008B20010E0183050F4E981E07811F4D99801C0C1
:1008C200D99A0E9422101F5FF4CFE98118810C94FB
:1008D200A6081A930A9310E000E0083078F48DE03D
:1008E2008A95F1F7110FDC9A8DE08A95F1F7E0E035
:1008F200CD99E1E01E2BDC980F5FEFCFE12F09913C
:1009020019910895DB9A88E795E00197F1F7DB9852
:10091200DA9A08950E9434100E943F100E943A1001
:100922000C94A6080E9434100E943F10A8810E94D5
:100932003F10A8810E943F100E943A100C94A60812
:100942000E9434100E9444100E9444100E944410DD
:100952000E9444100E943F100E943A100C94A60874
:10096200AA93DA98A881A2DF0E943A100C9439095E
:10097200AA93DA98E3E0EA93A3E0CCDF0E943A106C
:10098200DA98EAE0EA93AC81CDDFE0E1EA93AC8168
:10099200C9DFEBE0EA93AB810E944910AB81D0DF63
:1009A200ECE0EA93AA810E944910AA81C9DFEDE036
:1009B200EA93A9810E944910A981C2DF0C945709C8
:1009C200E0E0EA93AFE1A6DFDB9A0895ECE10E9452
:1009D2004E10E0913408EA93E0913508EA93E091F1
:1009E2003608EA93A0913708C3DFE2E00E944E1076
:1009F200E1E00E944E100895DB980E943A10DA98C6
:100A0200A1E654DF8BE18A95F1F763DFF0E0E09332
:100A12003808F09339085DDFAAE3B8E00E9452106B
:100A2200ACE3B8E00E945210AEE3B8E00E9452106C
:100A3200A0E4B8E0F0E0ED93FC93DA9ADB9A0E942E
:100A42001A100895E0E3EA93E0E00E945710EFE005
:100A52000E945710E0E0EA93E4E5EA93A0E00E94E6
:100A6200E50CE4E5EA93E0E00E946010E0E30E9416
:100A72006010E0E0EA93EA93A0E30E94E50CE3E071
:100A82000E946910ABE4B5E00E946D10A2E10E94E1
:100A9200D90CA2E5B5E00E946D10ACE10E94D90C20
:100AA200A9E5B5E00E946D10A5E20E94D90CA1E66D
:100AB200B5E00E94AF0CE4E40E947210A9E6B5E032
:100AC2000E94AF0CE5E40E947610A5E20E944D0C54
:100AD200E5E40E947A10ACE6B5E00E94AF0C0895FE
:100AE200BA93AA93EF972E9781E1A8E2B0E0EAEADF
:100AF200F2E00E9472120E94661200E010E020E012
:100B020030E0FE01FD960E947E10FE0178960E9462
:100B12007E10FE0134960E947E100E948610E03004
:100B2200F9F0F901DE011496EA0FFB1FBF010E94E2
:100B32008610DB01EC93F901DE01DD96EA0FFB1F63
:100B42000F01DE011496A20FB31FEC91D001EC93BA
:100B5200DE01AF5ABF4F0E94EE0F2F5F3F4FDDCF36
:100B6200A3EFB5E00E948E10AFEFB5E0E9DDE2E061
:100B7200F6E0FA93EA93A2E0B0E002DEAAE0B0E087
:100B8200F4DDA5E0B6E00E948E10A1E3B6E0D8DD68
:100B9200E4E3F6E0FA93EA93A4E1B0E0F1DDA4EF36
:100BA200B1E0E3DD0E949410DE01DF960E9499100D
:100BB200A7E3B6E00E94E5070E949C100E94A110E4
:100BC2000E94A810A0E4B6E00E94E5070E94AB10C4
:100BD2000E94A1100E94A810A9E4B6E00E94E507B5
:100BE2000E94B0100E94A1100E94A810A2E5B6E0D7
:100BF2000E94E507DE019C960E94F6078F011A9378
:100C02000A93DE015A960E942608A5E5B6E098DD11
:100C1200DE01589695DDA4EFB1E00E94FD11A3E636
:100C2200B6E08EDDE6E6F6E00E94B510DE019C96A7
:100C320087DDA8EEB3E00E94FD11AAE158DDAAE02B
:100C4200B0E093DDA9E6B6E07BDDE9E7F6E00E94DD
:100C5200B5100E946D12EF9664960895E091E30735
:100C6200F091E407309791F4E091E507F091E607FF
:100C7200309761F4E091E707F091E807309731F49B
:100C8200E091E907F091EA07309709F018C00E9455
:100C92003B09E0E0EA93A0E00E94D90CE091EB0767
:100CA200F091EC070E94BB10E0E0E093EF07E093C5
:100CB200EB07E093EC07E093ED07E093EE0708956E
:100CC2006A937A93AA93BA93EA93FA93EFB7EA9361
:100CD200ABEEB7E00E943012EF5FFF4F6F4F7F4FD6
:100CE2000E943512E991EFBFF991E991B991A99169
:100CF2007991699118952897EEE5EABBEFE3EBBB92
:100D0200ECE0E7BBE8BBE0E0E4BBEDE0E5BBE0E044
:100D1200E1BBE2BBE2B9E3B9E0936100E0936200B8
:100D2200E0936400E0936500E0BFE2E0E3BFECE93A
:100D3200E2BFE0E0E1BFEFBDEEBDEDBDECBDE7BD62
:100D4200E6BDEBBDEABDE9BDE8BDE0937900E09305
:100D52007800E3E0E5BDE3E8E4BDE0E0E3BDE09375
:100D62008B00E0938A00E0938900E0938800E0938F
:100D72008100E0938000E0938700E0938600E09397
:100D82008500E0938400E0938300E0938200E1E435
:100D9200E7BFE0E0E0937D00E0936A00E0EFEABFA6
:100DA200E0ECE9BFE8BFE0E0EBB9E8EDEAB9E6E084
:100DB200E0939500E0E0E0939000E3E3E9B9E0E03E
:100DC200E0939A00E0E8E8B9E0E0E0BDE6B9EDB909
:100DD200E09374000E94AC11E3E0EA93E1E0EA934D
:100DE200A0E0C3D0ECE8F0E0E883F983E0E0EA8336
:100DF200EB83EC83ED83EE81EC7FEE83E37EEC60AC
:100E0200EE83EF81E078E263EF83DE010E94B208B5
:100E12007894A8EEB3E00E94FD1174DD0DDDD6DDFD
:100E22000E94C5100E943B099B9947C0C9DDC89921
:100E320043C00E94CC1009F03FC004DEE8E20E94E9
:100E420069100E94D610EEE20E9472100E941510E4
:100E52000E94DB100E949C100E94E0100E947610FB
:100E62000E9415100E94DB100E94AB100E94E0103D
:100E72000E947A100E9415100E94DB100E94B0108E
:100E82000E94EE100E94F40FADE5B8E0EE0FFF1FD6
:100E9200AE0FBF1F0E942C12DF0122DE0E94FA1049
:100EA200A091DF07B091E007159711F40E94C510D9
:100EB2000E940310E1E06E2EB9CF9A9954C0CEDEA3
:100EC2007FDDC8994FC00E94CC1009F04BC0BADD3B
:100ED200E8E20E9469100E94D610EEE20E947210AF
:100EE2000E9415100E94DB100E949C100E94E010CC
:100EF2000E9476100E9415100E94DB100E94AB1017
:100F02000E94E0100E947A100E9415100E94DB10CD
:100F12000E94B0100E94EE100E94FA10A0913A08AE
:100F2200B0913B08119751F4E1E0E093EF070E9482
:100F3200F40F0E94F90FE1E0F0E006C00E94F40F06
:100F42000E94F90FE0E0F0E0ED93FC93A091DF073F
:100F5200B091E007159711F40E94C5100E9403108A
:100F6200E1E06E2EACCF60CFFFCFAA93EA81E370AF
:100F7200EA83E981E03019F0EA81E061EA83E881FD
:100F8200E03019F0EA81E068EA830E94B111A0ED35
:100F92000E94E511A7E00E94E511AA810E94E511D5
:100FA2000E94C0110C948B08BA93AA93B981A881AC
:100FB200109631F0FC81EB816A8161931197E9F718
:100FC200EB81FC810C94130EBA93AA93E991F991E7
:100FD200A991B991CD016D916623E9F711976191BC
:100FE2006D936623E1F7FC010895BA93AA93A99140
:100FF200B991EE27FF276D91662311F03196FBCF51
:101002000895BA93AA93AA27BB27E991F99105906B
:10101200002011F01196FBCFFD010895BA93AA9317
:10102200AA81BB81CD01E881F9817191772311F405
:10103200FC0109C06D916717C1F30196DC016623BB
:1010420091F7EE27FF270C945709BA93AA93A99117
:10105200B991E991F99130962AF4E095F09531969B
:101062006DE26D93E89480E197E20DD088EE93E013
:101072000AD084E6992707D08AE005D06E2F10D0D7
:1010820066276C9308956627E817F90720F06395A1
:10109200E81BF90BC9F7662311F416F0089568945A
:1010A200605D6D9308950895AA931A93AD9818E020
:1010B200FADFE981E07811F0AF9A01C0AF98E981D7
:1010C200EE0FE983F0DFDF9AEEDFDF98115081F750
:1010D200AD9A18813AC0AA93AE98A881E5DFC8C03C
:1010E200AA93AE9AA881E0DFC3C0AA931A93E981BA
:1010F200E695E695E6951E2FE4E5E19FF001DF0116
:10110200EA81F0E0EA0FFB1FE0936B08F0936C08B2
:10111200E12F188123960895AA93E981E068AE2F02
:10112200DADFE981EA93A981E0DFE064AE2FD3DF61
:101132000CC0AA93E981EA93A981EEDFE0916B08E2
:10114200F0916C08E359F74FE08122960895AA9333
:101152000E94FF103197E359F74FA881A083C0DFA7
:1011620087C0BA93AA930E946612A59AAD9AD79A9B
:10117200DF98A79AA69AA49AAC98AAE0B0E00E9437
:10118200FD11AC9AEC81FD81309721F1E681E3708B
:101192001E2FEC81FD81E681E695E695E7700E2F24
:1011A200EC81FD81E781EF773E2FAC81BD810E940A
:1011B2002C12E0938006F093810612960E942C1264
:1011C200E0939506F0939606AC81BD8114960E9439
:1011D2002C120DC010E003E032E3E0E0F0E0E09317
:1011E2008006F0938106E0939506F0939606E093CD
:1011F2009706F0939806A1E26EDFE12FE460AE2F2E
:101202006ADFE02FE061AE2F66DFE32FE068AE2FEA
:1012120062DFA0E260DFA1E022D0E1E0E0937C06A1
:10122200E0E0E0937D06E1E0E0938206E09383064E
:10123200E0938406EFEFE0938506E1E0E0938C060D
:10124200EDE8F6E0FA93EA93EFEFEA93A8E0B0E074
:101252000E94D5070FD0E1E00E946D1282C0AA93CE
:10126200E881E03011F0ECE001C0E8E0AE2F33DFBE
:10127200219608950E94661230E0E0917D06E030EA
:1012820009F03FEFE0E0EA93A0E046DF08EF11E06B
:10129200F80101501040309719F0A32F58DFF8CF12
:1012A200E0E0EA93A0E084D30E946D1224960895B0
:1012B200AA931A930A93AC81A43518F4AB81A03394
:1012C20010F00C94110EEC81EA93AC8132DF1E2FE8
:1012D200EB81E770A1E00E940F120E2FEA81E0304D
:1012E20011F0102B03C0E02FE0951E23A12F2FDF5A
:1012F2000C94110EAA931A93ED81EA93AD8119DF32
:101302001E2FE981E73011F0E83039F4EB81EA93DE
:10131200AA810E94880FEB8308C0E33021F4EB819D
:10132200E095EB8302C0E03021F4EA81E0951E23D0
:1013320002C0E23029F4EA81AB81EA231E2B0EC0FF
:10134200E13029F4EA81AB81EA231E2707C0E430A9
:1013520029F4EA81E095AB81EA2B1E23A12FF7DE67
:10136200188126960895AA9323970E946412A88949
:10137200A43548F4AF85A03330F4AE85A03019F01F
:10138200AD85A03009F4D5C1EE85E887A889BB27D1
:10139200EE85F0E0AE0FBF1FA535E0E0BE0720F0FE
:1013A200A889E4E5EA1BEE872D85AF85BB27ED858D
:1013B200F0E0AE0FBF1FD19720F0AF85E0E3EA1B4C
:1013C200ED87A985A63009F05BC0EC85E13009F410
:1013D200B0C1E33039F4E0919706F0919806309766
:1013E20009F4A7C10885ED85E695E695E6953E2FB9
:1013F200E22FE77019F4AD852A17E9F0A02FBB2779
:10140200E32FF0E00E942412AA85BB850E940211FC
:10141200269526952695532F5F935F5FE22FAF9116
:10142200EA1748F0102FE12F1150E03019F00E9416
:101432000711F9CFF1CFAE850A1711F1EE85AA8512
:10144200BB85F0E00E940211ED85E77009F03F5F75
:1014520020E02F932F5FE32FAF91AE1788F41E8504
:101462001F931F5FE02FAF91AE1718F40E94071170
:10147200F7CFEE85AE81BF81F0E00E940211E9CF85
:10148200EF85E7703E2FED85E03009F452C1EA8521
:10149200FB85EE83FF8310E00889303009F066C0D7
:1014A200AD85A83008F45DC0E985E03011F0E33085
:1014B20009F402C0E73009F402C0E83009F402C0BE
:1014C200E93009F402C0EA3021F40A93A88924DE43
:1014D20004C0E63011F40E9414111F931F5FEE85C1
:1014E200AF91AE17B8F5A985A63069F40E9418111C
:1014F200FA93EA930E94FF103197E359F74FA081C4
:101502000E94CF0F26C0E985E93011F450E00EC0E9
:10151200EA3011F45FEF0AC00E9418110E942111F3
:101522005E2FE985E73011F0E83021F40E9427119F
:101532005E2F06C0E33011F4509502C0E03019F47A
:10154200A52FCEDD06C00E942B11EFEFEA93AD85E9
:10155200D1DEC3CFEF85E85FEF87ED85E850ED87F9
:10156200DFC05D8520E0E0E0ED8781C0E32FAD853F
:10157200AE0FA93020F42D85E0E0ED8703C0E8E04E
:10158200E31B2E2F3A93A22F0E947D0F4E2FE98547
:10159200E63029F50E9414111F931F5FEE85AF916B
:1015A200AE17E0F40E94FF103197E359F74FE08144
:1015B200E423AE2FE32F0E9417120E943111E32F72
:1015C200A42F0E941712E095E1215E2B0E941811B0
:1015D200FA93EA93A52F0E94CF0FDECF2CC0E930F9
:1015E20011F450E003C0EA30A9F45FEF0E94271122
:1015F200AE2FE32F0E940F125E2F1F931F5FEE8507
:10160200AF91AE1730F40E942B114A93A0E072DE24
:10161200F4CF11C01F931F5FEE85AF91AE1758F440
:101622000E943C11AE2FE32F0E940F12EA934A93BD
:10163200AD8560DEEFCFED85E03009F47AC0AD858F
:10164200A83028F4ED85E21B5E2FE0E003C0532FA3
:10165200ED85E850ED8710E0EF85E85FEF87E8E081
:10166200E31B2E2F0889EA85FB85EE83FF83E52F96
:10167200F0E0E059FD4F4491E985E63029F50E94FA
:1016820014111F931F5FEE85AF91AE17E0F40E9415
:10169200FF103197E359F74FE081E423AE2FE22F99
:1016A2000E940F120E943111E22FA42F0E940F12EA
:1016B200E095E1215E2B0E941811FA93EA93A52F7F
:1016C2000E94CF0FDECF2CC0E93011F450E003C0EE
:1016D200EA30A9F45FEF0E942711AE2FE22F0E9499
:1016E20017125E2F1F931F5FEE85AF91AE1730F476
:1016F2000E942B114A93A0E0FDDDF4CF11C01F938D
:101702001F5FEE85AF91AE1758F40E943C11AE2FC9
:10171200E22F0E941712EA934A93AD85EBDDEFCFD9
:10172200E885AA85BB85F0E0EA0FFB1FEA87FB8705
:10173200AACE0E946B12619608950E9409100E941F
:10174200601224F0E0E0F0E00C94860FA881B981E9
:10175200A435E0E0BE0724F0E3E5F0E00C94860F48
:10176200E881F9810C94860F0E9409100E94601290
:1017720024F0E0E0F0E00C94860FA881B981D097C4
:1017820024F0EFE2F0E00C94860FE881F9810C94EA
:10179200860FBA93AA9323970E9449118F01002EB4
:1017A200012A19F4E0E0F0E05FC00E9450110F82BC
:1017B2000E9450110E820E9450110886EB85A88566
:1017C200EA1718F4E0E0F0E04FC0F8010F5F1F4F96
:1017D2005491A885BB27EE27A50FBE1FEB85F0E02D
:1017E200EA17FB0718F0E0E0F0E03EC0EE81E69574
:1017F200E695E6954E2FEE81E77009F04F5FEF8197
:10180200E030A1F0A985BA85EC93A885EB85EA1BA7
:10181200F0E0DF01EF81F0E00E942412DF01E42F0B
:10182200F0E00E942412E00FF11F1EC09801E52F84
:10183200F0E00E0F1F1FA885AF5FA887A150EB85B0
:10184200AE1760F4F9012F5F3F4FA491B0E0E42F8F
:10185200F0E00E9424120E0F1F1FEDCFF901E49158
:10186200A985BA85EC93F8010E946B122C96089513
:10187200E0E0E0937E06A0917F06BB270E9455110F
:10188200F0E0AE0FBF1FE0918306F0E0AE0FBF1F86
:101892006BDFE0937F060895AA9321970E94491176
:1018A200309709F455C0AF81AA3009F44FC0EF81D7
:1018B200EA93DE0117966DDFAF01309709F44AC053
:1018C200E0918206AE81EA0F3E2FA0917E06BB27F1
:1018D200F0E0EA0FFB1F8F010535E0E01E0718F06C
:1018E200032F1127C5DFE0917E06EA93E0917F0680
:1018F200EA93E885EA930E945511EA93E1E0EA93BC
:101902005A934A93A7E02FDDE0917E06AE81EA0F5B
:10191200EA93E0917F06EA93E0918206EA930E94BD
:1019220055110E945C11E0917E06EA93A0917F0618
:101932000E945511EA0FEA933A93E09183060E94BE
:101942005C11E4E5F0E0E017F10711F491DF02C069
:1019520000937E060E946B1228960895BA93AA936A
:101962001A93A981BA81ED91A983BA831E2FE0301F
:1019720019F0A12F91DFF5CF18810EC3AA93EA8146
:10198200EA93EA81EA93E0918506AA81EA2319F0B3
:10199200E0917C0602C0E0917D06AE2F89DCE881F1
:1019A200EE0FE883E03011F4E1E0E883E881F4C26D
:1019B200AA93A981BB27C1DEE0937E06A881BB273B
:1019C200D3DEE0937F06A1C2AA932B970E946412F2
:1019D200AC89BB27B2DEEC8BAA89BB27AEDEEA8BD1
:1019E200AB89BB27C1DEEB8BA989BB27BDDEE98BA7
:1019F200EA89E0937E06E989E0937F06E1E0E887E1
:101A0200E989AB89EA1771F51C89AA891A1731F499
:101A12001A93EC89EA93A1E0B1DFC8C0AA891A1728
:101A220030F4EA89E11B0E2F41E050E006C0AA899A
:101A3200E12FEA1B0E2F4FEF5FEF3B89E0E0EE83D1
:101A42000E94661138F41A933A933395AA8596DF69
:101A5200EF83F6CFEF81E887140FE02F0150E030DB
:101A620061F7A4C0EA89AC89EA1739F53B89A989EB
:101A72003A1730F4E989E31B2E2FE1E0F0E006C0CB
:101A8200A989E32FEA1B2E2FEFEFFFEFED87FE87E9
:101A92001C89E0E0EE830E94661130F41A931395DC
:101AA2000E946E11EF83F7CFEF81E887ED853E0F3D
:101AB200E22F2150E03061F779C0E0E0EE830E942E
:101AC200661108F073C01C893B89E1E02E2F0E2FAE
:101AD200AA89BB27EC89F0E0AE1BBF0BAD015523F1
:101AE2002AF40FEFFA010E940B12AF01FA01EE0F76
:101AF200FF1FEF87F88BA989BB27EB89F0E0AE1BAC
:101B0200BF0BAD87BE87AE85AA233AF42FEFED85D2
:101B1200FE850E940B12ED87FE87ED85FE85EE0F96
:101B2200FF1FEB87FC871A933A93A1E027DFE88730
:101B3200E0E0E987EA87AD85BE854A175B07BCF01E
:101B4200100FEB85FC850E947211A985BA854A1790
:101B52005B072CF4320FAF85B8890E9479111A9372
:101B62000E946E11E887EA89E11751F718C0320F17
:101B7200EF85F8890E947211ED85FE85A985BA85E7
:101B8200EA17FB072CF4100FAB85BC850E94791174
:101B92001A930E946E11E887E989E31741F7EB89EE
:101BA200EF5FEB8BE989EF5FE98B89CF0E946B12C4
:101BB20065960895BA93AA931A930A93AA81BB8150
:101BC20012960E942C12309729F1AA81BB81149699
:101BD2000E942C128F01309761F00230E0E01E0764
:101BE20080F0F80131978F01AA81BB811496ED93A1
:101BF200FC93AA81BB8112960E94EE0F3197AC81B1
:101C0200A083AA81BB810E942C12FF2312F00E94A2
:101C1200EE0F06C0AA81BB81EFEFFFEFED93FC93BD
:101C22001981088125960895BA93AA9326970E944E
:101C3200641210E0AC85BD85E0E0F0E0ED93FC932A
:101C4200EA89FB893196EA8BFB8B3197E4912E2F3F
:101C5200E03009F415C1E12FE03039F4253211F4F6
:101C620011E002C00E9480110AC1E130A9F42532BC
:101C720019F40E94801102C112E040E000E02D320E
:101C820011F401E0FCC02B3211F44BE2F8C0203217
:101C920011F440E2F4C002C0E23039F450E013E043
:101CA200203311F40068EBC003C0E33009F0E7C051
:101CB200203310F02A3308F007C0AAE05A9F502DB3
:101CC200E22FE0535E0FDBC0E22FE33649F40E94BD
:101CD2008711E889F989A481AA930E948D11CEC047
:101CE200E33741F40E9487110E9493110E94F60784
:101CF2001E2F0AC0E03761F40E9487110E949311DF
:101D02000E9402081E2F086002600F7730E034C084
:101D1200E43611F0E93611F4046002C0E53731F41B
:101D2200EAE7F2E0EE83FF8315E00CC0E83511F438
:101D3200086003C0E83709F0A1C0E4E8F2E0EE83EE
:101D4200FF8314E002FF14C00E9487110E949D11BC
:101D5200AB85AA233AF4EA85FB850E940B12EA8737
:101D6200FB874DE2403011F01F5F01C00B7F04C0C2
:101D72000E9487110E949D1100FD11C0151778F471
:101D820007FF08C002FF04C00B7F242F115001C0BF
:101D920020E301C020E20E9480115150EFCF312F89
:101DA20001FF17C03030A1F003FF06C0EE81FF81B2
:101DB2002591EE83FF8305C0AE81BF812D91AE8355
:101DC200BF830E948011503009F051503150EACF48
:101DD2004BC020E3EE81FF810E943A12E887F98727
:101DE200EE81FF813296EE83FF83E885F985AA852D
:101DF200BB85AE17BF0750F02F5FA885B985EA856E
:101E0200FB85EA1BFB0BEA87FB87EFCF2A3328F01F
:101E120003FF02C0295F01C0295D04FD1AC02133FE
:101E220020F4A885B985119709F409C0531710F059
:101E320000FF01C013C020E207FF0BC020E30061D6
:101E420002FF07C00B7F4A930E948D11503009F0A8
:101E520051500E948011503009F051503150A885E4
:101E6200B985129708F0B5CF00FF08C0503031F0A5
:101E72005150E0E2EA930E948D11F8CF10E0E0CEDB
:101E8200AC85BD850E942C120E946B126496089547
:101E9200FF92F82E26970E9466120E94A511309793
:101EA20019F4EFEFFFEF23C0DE0116960E9407122E
:101EB2008D010E94A511EE83FF83E0E0E887E987A8
:101EC200DE011A960E9407120E942C12FA93EA93DC
:101ED2001A930A93EBEDFDE0FA93EA93DE011A9668
:101EE200A3DE9F01AE81BF81E0E0EC93F9010E9485
:101EF2006D122A96FF900895AA93E881F0E0E059C6
:101F0200FD4FA491E9810E940F1222960895AA938F
:101F12001A93E981E73011F0EA3019F410917C0646
:101F220009C0E93019F410917D0604C0E830A1F42B
:101F320010918C06E0917D06E03049F0103019F0E6
:101F4200EFEF188129C0EA81E095188125C0103091
:101F520019F4E0E0188120C0EA8118811DC0BA930B
:101F6200AA93EA81E13021F4E881F981E49114C075
:101F7200E23029F4A881B9810E9443120DC0E330F6
:101F820041F4A881B981E0919506F09196060995F0
:101F920003C0A881B981EC9123960895AA93EB819D
:101FA200E03029F4E881A981BA81EC9314C0E230CF
:101FB20031F4E881A981BA810E944F120CC0E3304A
:101FC20051F4E981FA81FA93EA93AA81E0919706A2
:101FD200F0919806099524960895ED91FD91319618
:101FE200FE93EE930895E091DF07F091E0070895E4
:101FF200A1EEB7E0EE0FFF1FAE0FBF1F0895AFEDCA
:10200200B7E0EBCFE0E0E093DD07E093DE07089571
:10201200BA93AA93A881B9810895A21BB30BEEA526
:10202200FFA5EA17FB070895E9EDF6E0FA93EA93B4
:102032000895E7E0EA93AEE70E948B04A2EE0C94C7
:10204200B1048DE08A95F1F7E981EE0FE983DC9A1C
:102052008DE08A95F1F7E0E0CD99E1E0A981EA2BE4
:10206200E983DC980895AA93DA98E981E062AE2FB9
:102072000895DA9A8BE18A95F1F708950E94570440
:10208200A8810C9457040E945704A0913508089522
:102092000E94A104E0E1EA930895EA93AFE00C9470
:1020A2008B04F0E0ED93FC930C946A04EA93E0E372
:1020B200EA93AFE00E94E50CE0E0EA930895EA9328
:1020C200E4E5EA93A0E30E94E50CE0E0EA930895D8
:1020D200EA93A3E00C94D90C0E94AF0CE4E0EA93DB
:1020E2000895EA93A2E10C94D90CEA93ACE10C9422
:1020F200D90CEA93A5E20C94D90CFA93EA93E0E0A6
:10210200EA93A4E1B0E00C94D507DE01AF5ABF4FC9
:102112000D90BC91A02DEC9108950E94A103ACE218
:10212200B1E00C94FD11FE01BC96FA93EA93089576
:102132000E94E507F8CFE0913E08F0913F0808952C
:10214200FA93EA93DE015A960E942608ECCFDE014A
:102152005A96EECFE0913C08F0913D080895E09147
:102162004008F09141080895FA93EA93A5E0B0E09F
:102172000C94C103FA93EA93A9EDB6E00E942608F3
:10218200A9EDB6E00C94AF0CE1E0F0E0E093DF07DC
:10219200F093E00708950E94FD0425DFA09138081E
:1021A200B0913908EA17FB070895E0913808F091D9
:1021B2003908E0CFE9E1F4E0FA93EA9308950E9446
:1021C2001F120E943E1284E00E94490F2896A9ED38
:1021D200B6E00E94AF0CEEE208950E941F120E9428
:1021E2003E1284E00E94490F2896A9EDB6E00C94B5
:1021F200AF0CA0E2B3E00E94FD1101CFABE6B8E064
:10220200ECCEEA0FFB1FEE83FF830895EC85EA9381
:10221200EF81F8853196EF83F8873197FA93EA9345
:10222200A0E00C94CF0F0A93A8890C947608EC8551
:10223200EA93EF81F8853196EF83F8873197089515
:1022420066277727DF01CB010C94B00F5A93AA853A
:102252000C94880F0A930395E889EA935A93089598
:102262005E2FEC85EA93AF81B885882799270E9473
:10227200B00F1E2E08950A930395E889EA93EE851E
:10228200EA93E985FA853196E987FA873197D8CFBB
:102292000E946412E0918006F09181060895F8018F
:1022A2000F5F1F4F04900895E0918006F091810620
:1022B2003196E4910895EA93E0E0EA93E0E0F0E0F9
:1022C200FA93EA93A9E00C94B409AE81AF5FAE83AE
:1022D200A150E0918406AE1708953A93AA850C9412
:1022E200BF0CA985BA85EA0FFB1FE987FA87089513
:1022F200E985FA85EA1BFB0BE987FA8708952A9399
:10230200AD85BE85EF85F88909950895E889F98933
:102312003497E88BF98B0895AD85BE85EF85F889F2
:1023220009950895A889B98914960E942C12EE8302
:10233200FF83AE81BF810895A889B98914960E944E
:102342002C12EA87FB870895DE011C960E94071271
:102352000E942C12089590989198889A899815C095
:1023620089988898EE270000819B0895809B0895A4
:1023720004D0899A02D0889AE1E06DE007C0899A78
:10238200889A03D08898F9DF89986BE16A95F1F70A
:10239200089578E08898F1DF809BFECFEEDF889485
:1023A20081990894889AF1DFEE1F7A9599F77A2F2E
:1023B200772311F4899801C0899ADFDF8898E5DFD5
:1023C200889ADBDF8998D9CF78E0AA0F10F4899830
:1023D20001C0899ADADF8898D0DF809BFECFCDDFFB
:1023E200889A7A9591F78998C8DF8898CEDFE1E0DC
:1023F2008199EE27889AC1CF109639F080ED97E047
:102402000197F1F7A8951197C9F708950024AF0D28
:10241200B01D0895F195E195F0400895EE230E2E3A
:10242200EA2F19F0EE0F0A94E9F70895EE230E2E23
:10243200EA2F19F0E6950A94E9F708956F2F660FCF
:10244200660B762F0895FA9FF02DEB9FF00DEA9F11
:10245200E02DF10D0895ED91FC9111970895ED9104
:10246200FD916D917D9108957E936E93FE93EE930F
:1024720008950590F491E02D08957A936A93FA9362
:10248200EA930895E199FECFFF93FFB7F894AEBBAC
:10249200BFBBE09AEDB3FFBFFF910895E19B02C07D
:1024A200A895FCCF9FB7F894AEBBBFBBE09A8DB3A3
:1024B200E81719F0EDBBE29AE19A9FBF0895002454
:1024C2000A160B0608955A934A933A932A931A933B
:1024D2000A9308955D814C813B812A81198108818B
:1024E2000895AC0FBD1F05900D928A95E1F70895EE
:00000001FF
