:060000000C94BA020C94FE
:1000060000000C9400000C9400000C9400000C946A
:1000160000000C9400000C9487050C9492050C9437
:1000260000000C945F030C9400000C9400000C94E8
:1000360000000C9400000C9400000C9447030C94F0
:1000460000000C94FD020C9400000C9423030C9405
:1000560000000C9400000C9400000C9400000C941A
:1000660000000C9400000C9400000C9400000C940A
:1000760000000C9400000C9400000C9400000C94FA
:1000860000000C940000050720600000000000003E
:10009600005F00000007000700147F147F14242A65
:1000A6007F2A12231308646236495522500005033D
:1000B6000000001C2241000041221C00082A1C2AC4
:1000C6000808083E0808005030000008080808081C
:1000D600003030000020100804023E5149453E0021
:1000E600427F400042615149462141454B31181437
:1000F600127F1027454545393C4A49493001710967
:1001060005033649494936064949291E003636004F
:10011600000056360000000814224114141414146A
:1001260041221408000201510906324979413E7EF6
:100136001111117E7F494949363E414141227F4195
:1001460041221C7F494949417F090901013E41413C
:1001560051327F0808087F00417F41002040413F1F
:10016600017F081422417F404040407F0204027F05
:100176007F0408107F3E4141413E7F090909063E42
:100186004151215E7F0919294646494949310101F4
:100196007F01013F4040403F1F2040201F7F201825
:1001A600207F6314081463030478040361514945EE
:1001B6004300007F4141020408102041417F0000B6
:1001C60004020102044040404040000102040020B5
:1001D600545454787F48444438384444442038447E
:1001E60044487F3854545418087E090102081454B0
:1001F600543C7F0804047800447D40002040443D80
:1002060000007F10284400417F40007C04180478D9
:100216007C0804047838444444387C1414140808D0
:100226001414187C7C080404084854545420043FD1
:100236004440203C4040207C1C2040201C3C403058
:10024600403C44281028440C5050503C4464544CC4
:1002560044000836410000007F00000041360800D7
:1002660002010204027F4141417F000103070F1F83
:100276003F7FFF001027E80364000A00010000101A
:100286000001100001000000000000000000000056
:1002960000000100A100A200A300A40006050705B6
:1002A600180529053A05474554202F757064617471
:1002B600653F6B65793D00004552524F52003752FB
:1002C600364E53594648424652554152364B0035F2
:1002D6004930303057524F584F4653305638350014
:1002E600364E4846584830373653433032445A30F3
:1002F6000057554954384C58374E393258384A34D5
:1003060057004E6F64653A200054656D703A2000C0
:1003160048756D69643A200057617465723A200029
:10032600214300636D003231003735003435004219
:100336006F6F74696E670041540D0A004F4B0041A0
:10034600542B4349505354415455530D0A005354AA
:10035600415455533A32005769666920436F6E6EB1
:1003660065637465640D0A0041542B43574D4F4431
:10037600453D310D0A0041542B43574A41503D2219
:10038600546861795F5468616F5F64656F5F676920
:100396006169222C226368696E68786163220D0A9E
:1003A6000041542B4349504D55583D310041542B83
:1003B60043495053544152543D302C225443502209
:1003C6002C226170692E7468696E67737065616B43
:1003D6002E636F6D222C383000266669656C643199
:1003E6003D00266669656C64323D00266669656C6B
:1003F60064333D0041542B43495053454E443D30F0
:100406002C003E200041542B434950434C4F53454A
:100416003D300D0A007261696E6E696E6700737415
:10042600617274002564000001002D4E414E0049A2
:100436004E460000010002008C020A0004008E02F3
:100446000100EE07980206000005BE0201004308FF
:100456009A02010044089C02010045089E02010020
:100466004608A00201000605C30211000705C402E2
:1004760011001805D50211002905E60211003A05FA
:10048600F7020A006C08A20207004B0508030700E2
:1004960052050F03080059051603080061051E03DF
:1004A60003006905260303006C05290303006F0595
:1004B6002C03030072052F030300750532030800A1
:1004C60078053503050080053D03030085054203D5
:1004D6000F008805450303009705420309009A05A6
:1004E60054031100A3055D030E00B4056E0303005B
:1004F600C20542032B00C5057C030300F005420339
:100506000C00F305A7030300FF053F0303000206E3
:1005160042032C000506B303030031063F03030024
:100526003406420309003706DF0309004006E803E4
:1005360009004906F103030052063F030E00550663
:10054600FA03030063063F0303006606080410006F
:1005560069060B0403007906420309007C061B04A6
:10056600060085062404010076082E040000F8948F
:10057600EE27ECBBF1E0F5BFE5BFE0936C008DE044
:10058600A2E0BB27ED938A95E9F780E090E1A0E031
:10059600B1E0ED930197E9F7EAE3F4E085919591EF
:1005A600009761F0A591B59105901590BF01F001F6
:1005B60005900D920197E1F7FB01F0CF8BBFEFEFAE
:1005C600EDBFE0E1EEBFC0E0D5E00C94A906BA931A
:1005D600AA93A881B981EC91E03041F0E0E0EC9378
:1005E600E881F9813196E883F983F3CF8824992449
:1005F60022960895EA93FA93EFB7EA931A930A9329
:100606001BB10CB1E12FEC7189F4E52D5394F0E0A8
:10061600E855F94F0083E0E4E51509F45524739491
:10062600E0E4E71519F47724689420F8F401E8511A
:10063600F94F0083F40131964F010991199137C0A2
:10064600AA93EA93FA93EFB7EA93E0914108E03070
:10065600A9F0E150E0934108E0914008EF5FE09394
:100666004008E150F0E0E150F84FE081ECB9A0918C
:100676004008A03419F4E0E0E0934008E991EFBFA8
:10068600F991E991A9911895EA93FA93EFB7EA934C
:10069600ECE9E2BFF50131965F01E0E1F7E2EA1528
:1006A600FB0529F4F60131966F01AA24BB24E991D2
:1006B600EFBFF991E9911895AA93BA93EA93FA9341
:1006C600EFB7EA93E3E8E4BDE1E0E61521F4ACEE2A
:1006D600B7E00E941510A091EC07B091ED07A8387D
:1006E600E3E1BE0789F40E941B10A0EFB7E0EE0F0E
:1006F600FF1FAE0FBF1FE0E0F0E0ED93FC930E94FA
:1007060020100E9423106624E991EFBFF991E99128
:10071600B991A9911895AA93A0914108A034E1F343
:10072600F894E0914108E03011F45D9918C0E09129
:100736003F08EF5FE0933F08E150F0E0E150F84FEB
:10074600A881A083A0913F08A03419F4E0E0E093CB
:100756003F08E0914108EF5FE093410802C0E8815D
:10076600ECB9789421960895BA93AA93A881B98191
:10077600EC91E03061F0AC91CEDFA2E3B0E00E94F4
:100786004912E881F9813196E883F983EFCF0C9419
:10079600CF080E9429100E944912A8EEB6E017DF82
:1007A600882499240C94CF08BA93AA93A8970E94F8
:1007B600D61200E010E0DE015A9609DFA8A9B9A911
:1007C600EC91E03001F1F801DE015A96EA0FFB1FC9
:1007D6000F01A8A9B9A9EC91D001EC93F801DE01AB
:1007E6001696EA0FFB1F0F01DE015A96A00FB11FE6
:1007F600EC91D001EC93E8A9F9A93196E8ABF9ABF5
:100806000F5F1F4FDBCF9601C216D30644F4F601E5
:10081600FC96AF01DA010E942E10F4F004C0D60156
:100826000E942E10CCF00E943510DE015C960E94CC
:100836003808309741F40E943510DE0118960E9460
:100846003808309709F008C00E943510A0E0B5E0DE
:100856000E9438083097C1F20E94DD12E296089590
:100866000E943A108BE18A95F1F7E0E0EA93AFE156
:1008760024D0A2E0B0E00E944912E7E0EA93AEE796
:100886001CD0EDE1EA93A4E018D0E5E0EA93A2E0FB
:1008960014D00895AA931A9310E0183050F4E98101
:1008A600E07811F4D99801C0D99A0E9442101F5FCE
:1008B600F4CFE98118810C94CF080E945410EADF26
:1008C600E0936B08A881E6DF0E945A10E0916B085E
:1008D6000C94CF08AA931A9310E0183050F4E981CB
:1008E600E07811F4D99801C0D99A0E9442101F5F8E
:1008F600F4CFE98118810C94CF081A930A9310E07B
:1009060000E0083078F48DE08A95F1F7110FDC9A53
:100916008DE08A95F1F7E0E0CD99E1E01E2BDC98B9
:100926000F5FEFCFE12F099119910895DB9A88E7C0
:1009360095E00197F1F7DB98DA9A08950E94541032
:100946000E945F100E945A100C94CF080E94541007
:100956000E945F10A8810E945F10A8810E945F100C
:100966000E945A100C94CF080E9454100E946410E2
:100976000E9464100E9464100E9464100E945F101E
:100986000E945A100C94CF08AA93DA98A881A2DF85
:100996000E945A100C946209AA93DA98E3E0EA934B
:1009A600A3E0CCDF0E945A10DA98EAE0EA93AC8121
:1009B600CDDFE0E1EA93AC81C9DFEBE0EA93AB81FE
:1009C6000E946910AB81D0DFECE0EA93AA810E9415
:1009D6006910AA81C9DFEDE0EA93A9810E94691036
:1009E600A981C2DF0C947E09E0E0EA93AFE1A6DFBD
:1009F600DB9A0895ECE10E946E10E0914308EA93B9
:100A0600E0914408EA93E0914508EA93A0914608EC
:100A1600C3DFE2E00E946E10E1E00E946E100895CE
:100A2600DB980E945A10DA98A1E654DF8BE18A958A
:100A3600F1F763DFF0E0E0934708F09348085DDFE5
:100A4600A9E4B8E00E947210ABE4B8E00E9472100C
:100A5600ADE4B8E00E947210AFE4B8E0F0E0ED93C8
:100A6600FC93DA9ADB9A0E943A100895E0E3EA933F
:100A7600E0E00E947710EFE00E947710E0E0EA9352
:100A8600E4E5EA93A0E00E940C0DE4E5EA93E0E0D9
:100A96000E948010E0E30E948010E0E0EA93EA936F
:100AA600A0E30E940C0DE3E00E948910ABE4B5E0E0
:100AB6000E948D10A2E10E94000DA2E5B5E00E9401
:100AC6008D10ACE10E94000DA9E5B5E00E948D10E5
:100AD600A5E20E94000DA1E6B5E00E94D60CE4E472
:100AE6000E949210A9E6B5E00E94D60CE5E40E94A9
:100AF6009610A5E20E94740CE5E40E949A10ACE6FA
:100B0600B5E00E94D60C08950E949E1039F4DE9B33
:100B160002C0DE9801C0DE9A0E94AA100AC00E9496
:100B26009E1039F4DE9B02C0DE9801C0DE9A0E9458
:100B3600AA10E991EFBFF991E991B991A99179913B
:100B460069911895AA93E881E7B98BE18A95F1F73F
:100B5600369A349BFECF349AE4B1F5B10C9462090F
:100B6600BA93AA93EF972E9781E1A8E2B0E0ECEA58
:100B7600F2E00E94E4120E94D81200E010E020E0A9
:100B860030E0FE01FD960E94B510FE0178960E94A7
:100B9600B510FE0134960E94B5100E94BD10E030DB
:100BA600F9F0F901DE011496EA0FFB1FBF010E945E
:100BB600BD10DB01EC93F901DE01DD96EA0FFB1FA8
:100BC6000F01DE011496A20FB31FEC91D001EC9336
:100BD600DE01AF5ABF4F0E9415102F5F3F4FDDCF8A
:100BE600A3EFB5E00E94C510AFEFB5E0BDDDE2E0D2
:100BF600F6E0FA93EA93A2E0B0E0D6DDAAE0B0E030
:100C0600C8DDA5E0B6E00E94C510A1E3B6E0ACDD04
:100C1600E4E3F6E0FA93EA93A4E1B0E0C5DDA4EFDD
:100C2600B1E0B7DD0E94CB10DE01DF960E94D01046
:100C3600A7E3B6E00E940E080E94D3100E94D810C7
:100C46000E94DF10A0E4B6E00E940E080E94E210A7
:100C56000E94D8100E94DF10A9E4B6E00E940E0898
:100C6600E0914F08F09150080E94D8100E94DF10C2
:100C7600A2E5B6E00E940E08DE019C960E941F08BF
:100C86008F011A930A93DE015A960E944F08A5E532
:100C9600B6E06ADDDE01589667DDA4EFB1E00E949A
:100CA6004912A3E6B6E060DDE6E6F6E00E94E7104C
:100CB600DE019C9659DDA8EEB3E00E944912AAE136
:100CC6002ADDAAE0B0E065DDA9E6B6E04DDDE9E79C
:100CD600F6E00E94E7100E94DF12EF9664960895F0
:100CE600E7E30E948910E091FA07F091FB070E9462
:100CF600ED10E0E0E093FE07E093FA07E093FB07D0
:100D0600E093FC07E093FD070895A6E01BDFE43FB0
:100D1600A1E0FA07D0F4E1E0E093FE070E9464093F
:100D26000E94F710ACE7B6E00E94D60C9B9903C070
:100D36000E94FC100AC0A6E005DFE53FA1E0FA0725
:100D460018F00E94FC1001C0EBCF08952897EEE53D
:100D5600EABBEFE3EBBBECE0E7BBE8BBE0E0E4BB00
:100D6600EDE0E5BBE0E0E1BBE2BBE2B9E3B9E0936D
:100D76006100E0936200E0936400E0936500E0BFE9
:100D8600E2E0E3BFECE9E2BFE0E0E1BFEFBDEEBDCC
:100D9600EDBDECBDE7BDE6BDEBBDEABDE9BDE8BD19
:100DA600E0937900E0937800E3E0E5BDE3E8E4BD95
:100DB600E0E0E3BDE0938B00E0938A00E0938900D6
:100DC600E0938800E0938100E0938000E093870041
:100DD600E0938600E0938500E0938400E09383002F
:100DE600E0938200E1E4E7BFE0E0E0937D00E0937A
:100DF6006A00EABFE0ECE9BFE8BFE0E0EBB9E8ED86
:100E0600EAB9E6E0E0939500E0E0E0939000E3E3E2
:100E1600E9B9E0E0E0939A00E0E8E8B9E0E0E0BD97
:100E2600E7B9E3E8E6B9E0E0E0BDEDB9E0937400C8
:100E36000E94F811E3E0EA93E1E0EA93A0E0BCD077
:100E4600ECE8F0E0E883F983E0E0EA83EB83EC8307
:100E5600ED83EE81EC7FEE83E37EEC60EE83EF8143
:100E6600E078E263EF83DE010E94DB0878940E945B
:100E7600F710A5E8B6E00E94D60CA8EEB3E00E94F3
:100E8600491254DDEDDCB6DD0E9407110E946409AB
:100E96009B994DC03ADFA8DDC89948C00E940E1143
:100EA60009F044C0E3DDE8E20E9489100E941811AF
:100EB600EEE20E9492100E9435100E941D110E94BF
:100EC600D3100E9422110E9496100E9435100E9493
:100ED6001D110E94E2100E9422110E949A100E9487
:100EE60035100E941D110E9430110E9439113A9747
:100EF60014F4DB9801C0DB9A0E941B10ACE6B8E044
:100F0600EE0FFF1FAE0FBF1F0E949E12DF0128DEED
:100F16000E944611A091EE07B091EF07159711F4C4
:100F26000E9407110E942310E1E06E2EB3CF9A991A
:100F360041C0EBDEC8993DC00E940E11D1F596DD89
:100F4600E8E20E9489100E941811EEE20E949210B7
:100F56000E9435100E941D110E94D3100E9422117A
:100F66000E9496100E9435100E941D110E94E210E8
:100F76000E9422110E949A100E9435100E941D1193
:100F8600E0914F08F09150080E9439113A9714F4F5
:100F9600DB9801C0DB9A0E944611A091EE07B09142
:100FA600EF07159711F40E9407110E942310E1E044
:100FB6006E2EBFCF6DCFFFCFAA93EA81E370EA838F
:100FC600E981E03019F0EA81E061EA83E881E03006
:100FD60019F0EA81E068EA830E94FD11A0ED0E9403
:100FE6003112A7E00E943112AA810E9431120E949A
:100FF6000C120C94B408BA93AA93B981A8811096DE
:1010060031F0FC81EB816A8161931197E9F7EB81FD
:10101600FC810C943A0EBA93AA93E991F991A9919D
:10102600B991CD016D916623E9F7119761916D93A1
:101036006623E1F7FC010895BA93AA93A991B991A1
:10104600EE27FF276D91662311F03196FBCF0895A9
:10105600BA93AA93AA27BB27E991F9910590002094
:1010660011F01196FBCFFD010895BA93AA93AA81B8
:10107600BB81CD01E881F9817191772311F4FC01DF
:1010860009C06D916717C1F30196DC01662391F7DC
:10109600EE27FF270C947E09BA93AA93A991B991DA
:1010A600E991F99130962AF4E095F09531966DE242
:1010B6006D93E89480E197E20DD088EE93E00AD034
:1010C60084E6992707D08AE005D06E2F10D06627D0
:1010D6006C9308956627E817F90720F06395E81BD7
:1010E600F90BC9F7662311F416F008956894605D4C
:1010F6006D9308950895AA931A93AD9818E0FADFB0
:10110600E981E07811F0AF9A01C0AF98E981EE0F5E
:10111600E983F0DFDF9AEEDFDF98115081F7AD9AB1
:1011260018813AC0AA93AE98A881E5DFC8C0AA93F1
:10113600AE9AA881E0DFC3C0AA931A93E981E69527
:10114600E695E6951E2FE4E5E19FF001DF01EA81D1
:10115600F0E0EA0FFB1FE0937A08F0937B08E12F9B
:10116600188123960895AA93E981E068AE2FDADF05
:10117600E981EA93A981E0DFE064AE2FD3DF0CC0FA
:10118600AA93E981EA93A981EEDFE0917A08F091CA
:101196007B08E458F74FE08122960895AA930E94AF
:1011A6004B113197E458F74FA881A083C0DF87C061
:1011B600BA93AA930E94D812A59AAD9AD79ADF98A5
:1011C600A79AA69AA49AAC98AAE0B0E00E944912FF
:1011D600AC9AEC81FD81309721F1E681E3701E2FF8
:1011E600EC81FD81E681E695E695E7700E2FEC81B0
:1011F600FD81E781EF773E2FAC81BD810E949E1273
:10120600E0938F06F093900612960E949E12E0934A
:10121600A406F093A506AC81BD8114960E949E1289
:101226000DC010E003E032E3E0E0F0E0E0938F066B
:10123600F0939006E093A406F093A506E093A60625
:10124600F093A706A1E26EDFE12FE460AE2F6ADF1E
:10125600E02FE061AE2F66DFE32FE068AE2F62DF9E
:10126600A0E260DFA1E022D0E1E0E0938B06E0E0BF
:10127600E0938C06E1E0E0939106E0939206E0931A
:101286009306EFEFE0939406E1E0E0939B06ECE92A
:10129600F6E0FA93EA93EFEFEA93A8E0B0E00E9453
:1012A600FE070FD0E1E00E94DF1280C0AA93E8811A
:1012B600E03011F0ECE001C0E8E0AE2F33DF21961C
:1012C60008950E94D81230E0E0918C06E03009F0D3
:1012D6003FEFE0E0EA93A0E046DF08EF11E0F80117
:1012E60001501040309719F0A32F58DFF8CF0E9415
:1012F600F7100E94DF1224960895AA931A930A9370
:10130600AC81A43518F4AB81A03310F00C94380EE0
:10131600EC81EA93AC8134DF1E2FEB81E770A1E00C
:101326000E945B120E2FEA81E03011F0102B03C0F1
:10133600E02FE0951E23A12F31DF0C94380EAA93DF
:101346001A93ED81EA93AD811BDF1E2FE981E73009
:1013560011F0E83039F4EB81EA93AA810E94AF0FCD
:10136600EB8308C0E33021F4EB81E095EB8302C008
:10137600E03021F4EA81E0951E2302C0E23029F430
:10138600EA81AB81EA231E2B0EC0E13029F4EA8103
:10139600AB81EA231E2707C0E43029F4EA81E095F1
:1013A600AB81EA2B1E23A12FF9DE1881269608951C
:1013B600AA9323970E94D612A889A43548F4AF852C
:1013C600A03330F4AE85A03019F0AD85A03009F415
:1013D600D5C1EE85E887A889BB27EE85F0E0AE0F7C
:1013E600BF1FA535E0E0BE0720F0A889E4E5EA1BAB
:1013F600EE872D85AF85BB27ED85F0E0AE0FBF1FCD
:10140600D19720F0AF85E0E3EA1BED87A985A630EA
:1014160009F05BC0EC85E13009F4B0C1E33039F482
:10142600E091A606F091A706309709F4A7C10885B2
:10143600ED85E695E695E6953E2FE22FE77019F4E1
:10144600AD852A17E9F0A02FBB27E32FF0E00E9415
:101456007012AA85BB850E944E1126952695269563
:10146600532F5F935F5FE22FAF91EA1748F0102F7B
:10147600E12F1150E03019F00E945311F9CFF1CF4E
:10148600AE850A1711F1EE85AA85BB85F0E00E94AC
:101496004E11ED85E77009F03F5F20E02F932F5F37
:1014A600E32FAF91AE1788F41E851F931F5FE02FC1
:1014B600AF91AE1718F40E945311F7CFEE85AE81A7
:1014C600BF81F0E00E944E11E9CFEF85E7703E2F15
:1014D600ED85E03009F452C1EA85FB85EE83FF8392
:1014E60010E00889303009F066C0AD85A83008F4F0
:1014F6005DC0E985E03011F0E33009F402C0E73061
:1015060009F402C0E83009F402C0E93009F402C067
:10151600EA3021F40A93A88926DE04C0E63011F4E5
:101526000E9460111F931F5FEE85AF91AE17B8F54D
:10153600A985A63069F40E946411FA93EA930E9481
:101546004B113197E458F74FA0810E94F60F26C041
:10155600E985E93011F450E00EC0EA3011F45FEF8E
:101566000AC00E9464110E946D115E2FE985E73062
:1015760011F0E83021F40E9473115E2F06C0E330AB
:1015860011F4509502C0E03019F4A52FD0DD06C045
:101596000E947711EFEFEA93AD85D1DEC3CFEF85D9
:1015A600E85FEF87ED85E850ED87DFC05D8520E0D9
:1015B600E0E0ED8781C0E32FAD85AE0FA93020F4C2
:1015C6002D85E0E0ED8703C0E8E0E31B2E2F3A937C
:1015D600A22F0E94A40F4E2FE985E63029F50E941E
:1015E60060111F931F5FEE85AF91AE17E0F40E9466
:1015F6004B113197E458F74FE081E423AE2FE32FE8
:101606000E9463120E947D11E32FA42F0E94631291
:10161600E095E1215E2B0E946411FA93EA93A52FCF
:101626000E94F60FDECF2CC0E93011F450E003C063
:10163600EA30A9F45FEF0E947311AE2FE32F0E94E8
:101646005B125E2F1F931F5FEE85AF91AE1730F4CE
:101656000E9477114A93A0E072DEF4CF11C01F9367
:101666001F5FEE85AF91AE1758F40E948811AE2F1A
:10167600E32F0E945B12EA934A93AD8560DEEFCFBB
:10168600ED85E03009F47AC0AD85A83028F4ED8503
:10169600E21B5E2FE0E003C0532FED85E850ED8797
:1016A60010E0EF85E85FEF87E8E0E31B2E2F08895F
:1016B600EA85FB85EE83FF83E52FF0E0E059FD4FD9
:1016C6004491E985E63029F50E9460111F931F5F5A
:1016D600EE85AF91AE17E0F40E944B113197E458B6
:1016E600F74FE081E423AE2FE22F0E945B120E94A7
:1016F6007D11E22FA42F0E945B12E095E1215E2B63
:101706000E946411FA93EA93A52F0E94F60FDECF8A
:101716002CC0E93011F450E003C0EA30A9F45FEFC1
:101726000E947311AE2FE22F0E9463125E2F1F9349
:101736001F5FEE85AF91AE1730F40E9477114A9382
:10174600A0E0FDDDF4CF11C01F931F5FEE85AF91C2
:10175600AE1758F40E948811AE2FE22F0E94631232
:10176600EA934A93AD85EBDDEFCFE885AA85BB8585
:10177600F0E0EA0FFB1FEA87FB87AACE0E94DD1284
:10178600619608950E9429100E94D21224F0E0E08A
:10179600F0E00C94AD0FA881B981A435E0E0BE0756
:1017A60024F0E3E5F0E00C94AD0FE881F9810C94A8
:1017B600AD0F0E9429100E94D21224F0E0E0F0E062
:1017C6000C94AD0FA881B981D09724F0EFE2F0E038
:1017D6000C94AD0FE881F9810C94AD0FBA93AA93DE
:1017E60023970E9495118F01002E012A19F4E0E03B
:1017F600F0E05FC00E949C110F820E949C110E8235
:101806000E949C110886EB85A885EA1718F4E0E08B
:10181600F0E04FC0F8010F5F1F4F5491A885BB271A
:10182600EE27A50FBE1FEB85F0E0EA17FB0718F0C1
:10183600E0E0F0E03EC0EE81E695E695E6954E2FB7
:10184600EE81E77009F04F5FEF81E030A1F0A985E6
:10185600BA85EC93A885EB85EA1BF0E0DF01EF8102
:10186600F0E00E947012DF01E42FF0E00E94701297
:10187600E00FF11F1EC09801E52FF0E00E0F1F1FAD
:10188600A885AF5FA887A150EB85AE1760F4F90174
:101896002F5F3F4FA491B0E0E42FF0E00E9470125A
:1018A6000E0F1F1FEDCFF901E491A985BA85EC93C0
:1018B600F8010E94DD122C960895E0E0E0938D0673
:1018C600A0918E06BB270E94A111F0E0AE0FBF1FAC
:1018D600E0919206F0E0AE0FBF1F6BDFE0938E063D
:1018E6000895AA9321970E949511309709F455C03F
:1018F600AF81AA3009F44FC0EF81EA93DE01179653
:101906006DDFAF01309709F44AC0E0919106AE81D0
:10191600EA0F3E2FA0918D06BB27F0E0EA0FFB1FD2
:101926008F010535E0E01E0718F0032F1127C5DFEC
:10193600E0918D06EA93E0918E06EA93E885EA93B4
:101946000E94A111EA93E1E0EA935A934A93A7E031
:101956002FDDE0918D06AE81EA0FEA93E0918E06C7
:10196600EA93E0919106EA930E94A1110E94A811C0
:10197600E0918D06EA93A0918E060E94A111EA0FCE
:10198600EA933A93E09192060E94A811E4E5F0E00A
:10199600E017F10711F491DF02C000938D060E9453
:1019A600DD1228960895BA93AA931A93A981BA814B
:1019B600ED91A983BA831E2FE03019F0A12F91DF94
:1019C600F5CF18810EC3AA93EA81EA93EA81EA93D6
:1019D600E0919406AA81EA2319F0E0918B0602C0F1
:1019E600E0918C06AE2F89DCE881EE0FE883E030CB
:1019F60011F4E1E0E883E881F4C2AA93A981BB2748
:101A0600C1DEE0938D06A881BB27D3DEE0938E0668
:101A1600A1C2AA932B970E94D612AC89BB27B2DE2D
:101A2600EC8BAA89BB27AEDEEA8BAB89BB27C1DE6E
:101A3600EB8BA989BB27BDDEE98BEA89E0938D068E
:101A4600E989E0938E06E1E0E887E989AB89EA1740
:101A560071F51C89AA891A1731F41A93EC89EA934D
:101A6600A1E0B1DFC8C0AA891A1730F4EA89E11BE0
:101A76000E2F41E050E006C0AA89E12FEA1B0E2F87
:101A86004FEF5FEF3B89E0E0EE830E94B21138F43E
:101A96001A933A933395AA8596DFEF83F6CFEF81B3
:101AA600E887140FE02F0150E03061F7A4C0EA89FF
:101AB600AC89EA1739F53B89A9893A1730F4E989DF
:101AC600E31B2E2FE1E0F0E006C0A989E32FEA1B15
:101AD6002E2FEFEFFFEFED87FE871C89E0E0EE8308
:101AE6000E94B21130F41A9313950E94BA11EF8333
:101AF600F7CFEF81E887ED853E0FE22F2150E030EA
:101B060061F779C0E0E0EE830E94B21108F073C07D
:101B16001C893B89E1E02E2F0E2FAA89BB27EC8971
:101B2600F0E0AE1BBF0BAD0155232AF40FEFFA010F
:101B36000E945712AF01FA01EE0FFF1FEF87F88BD5
:101B4600A989BB27EB89F0E0AE1BBF0BAD87BE872B
:101B5600AE85AA233AF42FEFED85FE850E94571233
:101B6600ED87FE87ED85FE85EE0FFF1FEB87FC8771
:101B76001A933A93A1E027DFE887E0E0E987EA874E
:101B8600AD85BE854A175B07BCF0100FEB85FC855B
:101B96000E94BE11A985BA854A175B072CF4320F3D
:101BA600AF85B8890E94C5111A930E94BA11E887B9
:101BB600EA89E11751F718C0320FEF85F8890E94BC
:101BC600BE11ED85FE85A985BA85EA17FB072CF4BB
:101BD600100FAB85BC850E94C5111A930E94BA11DD
:101BE600E887E989E31741F7EB89EF5FEB8BE98932
:101BF600EF5FE98B89CF0E94DD1265960895BA934F
:101C0600AA931A930A93AA81BB8112960E949E12E6
:101C1600309729F1AA81BB8114960E949E128F01EA
:101C2600309761F00230E0E01E0780F0F80131974E
:101C36008F01AA81BB811496ED93FC93AA81BB8187
:101C460012960E9415103197AC81A083AA81BB81A0
:101C56000E949E12FF2312F00E94151006C0AA8150
:101C6600BB81EFEFFFEFED93FC9319810881259679
:101C76000895BA93AA9326970E94D61210E0AC85CF
:101C8600BD85E0E0F0E0ED93FC93EA89FB893196AF
:101C9600EA8BFB8B3197E4912E2FE03009F415C1C6
:101CA600E12FE03039F4253211F411E002C00E9430
:101CB600CC110AC1E130A9F4253219F40E94CC11E5
:101CC60002C112E040E000E02D3211F401E0FCC058
:101CD6002B3211F44BE2F8C0203211F440E2F4C08A
:101CE60002C0E23039F450E013E0203311F400680A
:101CF600EBC003C0E33009F0E7C0203310F02A330D
:101D060008F007C0AAE05A9F502DE22FE0535E0F5D
:101D1600DBC0E22FE33649F40E94D311E889F98942
:101D2600A481AA930E94D911CEC0E33741F40E9440
:101D3600D3110E94DF110E941F081E2F0AC0E03730
:101D460061F40E94D3110E94DF110E942B081E2FFE
:101D5600086002600F7730E034C0E43611F0E936EF
:101D660011F4046002C0E53731F4EAE7F2E0EE83ED
:101D7600FF8315E00CC0E83511F4086003C0E837AE
:101D860009F0A1C0E4E8F2E0EE83FF8314E002FF6D
:101D960014C00E94D3110E94E911AB85AA233AF41C
:101DA600EA85FB850E945712EA87FB874DE24030A1
:101DB60011F01F5F01C00B7F04C00E94D3110E9467
:101DC600E91100FD11C0151778F407FF08C002FFDE
:101DD60004C00B7F242F115001C020E301C020E274
:101DE6000E94CC115150EFCF312F01FF17C0303078
:101DF600A1F003FF06C0EE81FF812591EE83FF83EC
:101E060005C0AE81BF812D91AE83BF830E94CC11E8
:101E1600503009F051503150EACF4BC020E3EE81EB
:101E2600FF810E94AC12E887F987EE81FF81329626
:101E3600EE83FF83E885F985AA85BB85AE17BF07C4
:101E460050F02F5FA885B985EA85FB85EA1BFB0B59
:101E5600EA87FB87EFCF2A3328F003FF02C0295F0A
:101E660001C0295D04FD1AC0213320F4A885B98577
:101E7600119709F409C0531710F000FF01C013C0F1
:101E860020E207FF0BC020E3006102FF07C00B7FC3
:101E96004A930E94D911503009F051500E94CC113A
:101EA600503009F051503150A885B985129708F085
:101EB600B5CF00FF08C0503031F05150E0E2EA9350
:101EC6000E94D911F8CF10E0E0CEAC85BD850E9406
:101ED6009E120E94DD1264960895FF92F82E2697B0
:101EE6000E94D8120E94F111309719F4EFEFFFEF1C
:101EF60023C0DE0116960E9453128D010E94F11135
:101F0600EE83FF83E0E0E887E987DE011A960E9408
:101F160053120E949E12FA93EA931A930A93E2E0EE
:101F2600FEE0FA93EA93DE011A96A3DE9F01AE81E4
:101F3600BF81E0E0EC93F9010E94DF122A96FF9040
:101F46000895AA93E881F0E0E059FD4FA491E98154
:101F56000E945B1222960895AA931A93E981E730AC
:101F660011F0EA3019F410918B0609C0E93019F422
:101F760010918C0604C0E830A1F410919B06E09104
:101F86008C06E03049F0103019F0EFEF188129C0C7
:101F9600EA81E095188125C0103019F4E0E0188137
:101FA60020C0EA8118811DC0BA93AA93EA81E13064
:101FB60021F4E881F981E49114C0E23029F4A88182
:101FC600B9810E94B5120DC0E33041F4A881B981F0
:101FD600E091A406F091A506099503C0A881B981F0
:101FE600EC9123960895AA93EB81E03029F4E881D9
:101FF600A981BA81EC9314C0E23031F4E881A98159
:10200600BA810E94C1120CC0E33051F4E981FA8111
:10201600FA93EA93AA81E091A606F091A70609959C
:1020260024960895ED91FD913196FE93EE930895D1
:10203600E091EE07F091EF070895AEEEB7E0F2CF2C
:10204600E0E0E093EC07E093ED070895BA93AA93D6
:10205600A881B9810895A21BB30BEEA5FFA5EA17C7
:10206600FB070895E8EEF6E0FA93EA930895E7E0B1
:10207600EA93AEE70E94A104A2EE0C94C7048DE099
:102086008A95F1F7E981EE0FE983DC9A8DE08A956E
:10209600F1F7E0E0CD99E1E0A981EA2BE983DC984C
:1020A6000895AA93DA98E981E062AE2F0895DA9A44
:1020B6008BE18A95F1F708950E946D04A8810C942E
:1020C6006D040E946D04A091440808950E94B7040F
:1020D600E0E1EA930895EA93AFE00C94A104F0E0FE
:1020E600ED93FC930C948004EA93E0E3EA93AFE06B
:1020F6000E940C0DE0E0EA930895EA93E4E5EA9382
:10210600A0E30E940C0DE0E0EA930895EA93A3E0B1
:102116000C94000D0E94D60CE4E0EA930895EA932D
:10212600A2E10C94000DEA93ACE10C94000DEA9345
:10213600A5E20C94000D6A937A93AA93BA93EA9354
:10214600FA93EFB7EA93A091FE07A1300895AAEF9C
:10215600B7E00E94A212EF5FFF4F6F4F7F4F0E94C2
:10216600A7120895FA93EA93E0E0EA93A4E1B0E0B7
:102176000C94FE07DE01AF5ABF4F0D90BC91A02D07
:10218600EC9108950E94B703ACE2B1E00C944912B9
:10219600FE01BC96FA93EA9308950E940E08F8CFC2
:1021A600E0914D08F0914E080895FA93EA93DE0106
:1021B6005A960E944F08ECCFDE015A96EECFE09178
:1021C6004B08F0914C080895FA93EA93A5E0B0E025
:1021D6000C94D703FA93EA93A8EEB6E00E944F0850
:1021E600A8EEB6E00C94D60CE0E0EA93A0E00C94DE
:1021F600000DE0E0E093FE070E947306A0E2B3E064
:102206000E9449120C946409E1E0F0E0E093EE07C5
:10221600F093EF0708950E9413050ADFA09147087F
:10222600B0914808EA17FB070895E0914708F09136
:102236004808D0CFEAE2F4E0FA93EA9308950E94C0
:102246006B120E94B01284E00E94700F2896A8EECE
:10225600B6E00E94D60CEEE20895A0914F08B09128
:102266005008EAE0F0E00E948B1208950E946B127B
:102276000E94B01284E00E94700F2896A8EEB6E085
:102286000E94D60CEACFA0E2B3E00E944912D5CE56
:10229600AAE7B8E0C7CEEA0FFB1FEE83FF830895D7
:1022A600EC85EA93EF81F8853196EF83F8873197CD
:1022B600FA93EA93A0E00C94F60F0A93A8890C947B
:1022C6009F08EC85EA93EF81F8853196EF83F887CE
:1022D6003197089566277727DF01CB010C94D70F36
:1022E6005A93AA850C94AF0F0A930395E889EA934B
:1022F6005A9308955E2FEC85EA93AF81B8858827B7
:1023060099270E94D70F1E2E08950A930395E889F0
:10231600EA93EE85EA93E985FA853196E987FA87A5
:102326003197D8CF0E94D612E0918F06F091900691
:102336000895F8010F5F1F4F04900895E0918F06EE
:10234600F09190063196E4910895EA93E0E0EA93DD
:10235600E0E0F0E0FA93EA93A9E00C94DB09AE81A1
:10236600AF5FAE83A150E0919306AE1708953A93FE
:10237600AA850C94E60CA985BA85EA0FFB1FE987A6
:10238600FA870895E985FA85EA1BFB0BE987FA8740
:1023960008952A93AD85BE85EF85F8890995089538
:1023A600E889F9893497E88BF98B0895AD85BE8560
:1023B600EF85F88909950895A889B98914960E9428
:1023C6009E12EE83FF83AE81BF810895A889B989E5
:1023D60014960E949E12EA87FB870895DE011C96DA
:1023E6000E9453120E949E12089590989198889A7E
:1023F600899815C089988898EE270000819B0895D2
:10240600809B089504D0899A02D0889AE1E06DE015
:1024160007C0899A889A03D08898F9DF89986BE172
:102426006A95F1F7089578E08898F1DF809BFECFF2
:10243600EEDF889481990894889AF1DFEE1F7A95E9
:1024460099F77A2F772311F4899801C0899ADFDFEB
:102456008898E5DF889ADBDF8998D9CF78E0AA0FDC
:1024660010F4899801C0899ADADF8898D0DF809BBA
:10247600FECFCDDF889A7A9591F78998C8DF88983C
:10248600CEDFE1E08199EE27889AC1CF109639F028
:1024960080ED97E00197F1F7A8951197C9F7089590
:1024A6000024AF0DB01D0895F195E195F040089513
:1024B600EE230E2EEA2F19F0EE0F0A94E9F708958F
:1024C600EE230E2EEA2F19F0E6950A94E9F7089501
:1024D6006F2F660F660B762F0895FA9FF02DEB9FF0
:1024E600F00DEA9FE02DF10D08950024112490E1EE
:1024F600AA0FBB1F001C111C0E1A1F0A18F40E0E81
:102506001F1E01C0A1609A9599F7FD01D00108959B
:1025160004D0EBDF0EF4C8DF0895E894F7FF02C09D
:10252600C3DF6894B7FF06C0A095B095119600F872
:10253600039400FA0895ED91FC9111970895ED9199
:10254600FD916D917D9108957E936E93FE93EE932A
:1025560008950590F491E02D08957A936A93FA937D
:10256600EA930895E199FECFFF93FFB7F894AEBBC7
:10257600BFBBE09AEDB3FFBFFF910895E19B02C098
:10258600A895FCCF9FB7F894AEBBBFBBE09A8DB3BE
:10259600E81719F0EDBBE29AE19A9FBF089500246F
:1025A6000A160B0608955A934A933A932A931A9356
:1025B6000A9308955D814C813B812A8119810881A6
:1025C6000895AC0FBD1F05900D928A95E1F7089509
:00000001FF
