:020000000C945E
:10000200A8020C9400000C9400000C9400000C94C4
:1000120000000C9400000C9400000C9400000C945E
:1000220000000C9400000C9400000C9400000C944E
:1000320000000C9400000C9400000C9400000C943E
:1000420035030C9400000C94EB020C9400000C9409
:1000520011030C9400000C9400000C9400000C940A
:1000620000000C9400000C9400000C9400000C940E
:1000720000000C9400000C9400000C9400000C94FE
:1000820000000C9400000C940000050720600000A2
:100092000000000000040A040007000700147F1497
:1000A2007F14242A7F2A12231308646236495522B8
:1000B200500005030000001C2241000041221C00E8
:1000C200082A1C2A0808083E0808005030000008C8
:1000D20008080808003030000020100804023E51D1
:1000E20049453E00427F4000426151494621414517
:1000F2004B311814127F1027454545393C4A49496E
:100102003001710905033649494936064949291E14
:100112000036360000005636000000081422411452
:100122001414141441221408000201510906324920
:1001320079413E7E1111117E7F494949363E414146
:1001420041227F4141221C7F494949417F090901DE
:10015200013E414151327F0808087F00417F410042
:100162002040413F017F081422417F404040407FB0
:100172000204027F7F0408107F3E4141413E7F0915
:100182000909063E4151215E7F091929464649491E
:10019200493101017F01013F4040403F1F20402083
:1001A2001F7F2018207F631408146303047804035C
:1001B200615149454300007F41410204081020413A
:1001C200417F00000402010204404040404000011F
:1001D20002040020545454787F484444383844443C
:1001E2004420384444487F3854545418087E090146
:1001F20002081454543C7F0804047800447D4000F3
:100202002040443D00007F10284400417F40007C94
:10021200041804787C0804047838444444387C1474
:10022200141408081414187C7C0804040848545454
:100232005420043F4440203C4040207C1C2040206D
:100242001C3C4030403C44281028440C5050503C48
:100252004464544C44000836410000007F00000012
:100262004136080002010204027F4141417F000140
:1002720003070F1F3F7FFF001027E80364000A00F7
:100282000100001000011000010000000000000049
:10029200000000000000A100A200A300A4000605C7
:1002A2000705180529053A05474554202F7570643E
:1002B2006174653F6B65793D00004552524F5200B3
:1002C2003752364E53594648424652554152364BA2
:1002D20000354930303057524F584F465330563818
:1002E2003500364E4846584830373653433032444C
:1002F2005A300057554954384C58374E39325838CD
:100302004A3457004E6F64653A200054656D703A66
:10031200200048756D69643A200057617465723A2D
:100322002000214300636D0032310037350034353F
:1003320000426F6F74696E670041540D0A004F4BA3
:100342000041542B4349505354415455530D0A0014
:100352005354415455533A32005769666920436FEA
:100362006E6E65637465640D0A0041542B43574DEC
:100372004F44453D310D0A0041542B43574A4150E9
:100382003D22546861795F5468616F5F64656F5F95
:1003920067696169222C226368696E6878616322E9
:1003A2000D0A0041542B4349504D55583D310041EF
:1003B200542B43495053544152543D302C22544300
:1003C20050222C226170692E7468696E67737065A1
:1003D200616B2E636F6D222C383000266669656C66
:1003E20064313D00266669656C64323D00266669AB
:1003F200656C64333D0041542B43495053454E4490
:100402003D302C003E200041542B434950434C4F79
:1004120053453D300D0A0025640001002D4E414E2A
:1004220000494E460000010002008C020A0004004E
:100432008E0206000005BC0201002008980201009D
:1004420021089A02010022089C02010023089E0250
:1004520001000605C10211000705C20211001805BC
:10046200D30211002905E40211003A05F5020A003F
:100472004B08A00207004B050603070052050D03B7
:10048200080059051403080061051C0303006905EF
:10049200240303006C05270303006F052A030300EE
:1004A20072052D0303007505300308007805330338
:1004B200050080053B030300850540030F00880506
:1004C200430303009705400309009A0552031100F4
:1004D200A3055B030E00B4056C030300C2054003D1
:1004E2002B00C5057A030300F00540030C00F30559
:1004F200A5030300FF053D030300020640032C0091
:100502000506B103030031063D0303003406400330
:1005120009003706DD0309004006E6030900490623
:10052200EF03030052063D030E005506F8030300D5
:1005320063063D030300660606041000690609040B
:10054200030079064003010055081C040000F894DA
:10055200EE27ECBBF1E0F5BFE5BFE0936C008DE068
:10056200A2E0BB27ED938A95E9F780E090E1A0E055
:10057200B1E0ED930197E9F7E8E2F4E08591959116
:10058200009761F0A591B59105901590BF01F0011A
:1005920005900D920197E1F7FB01F0CF8BBFEFEFD2
:1005A200EDBFE0E1EEBFC0E0D5E00C943B06BA93AC
:1005B200AA93A881B981EC91E03041F0E0E0EC939C
:1005C200E881F9813196E883F983F3CF882499246D
:1005D2000C941808EA93FA93EFB7EA931A930A93E2
:1005E2001BB10CB1E12FEC7189F4E52D5394F0E0CD
:1005F200E756F94F0083E0E4E51509F455247394B6
:10060200E0E4E71519F47724689420F8F401E7523E
:10061200F94F0083F40131964F010991199137C0C6
:10062200AA93EA93FA93EFB7EA93E0911E08E030B7
:10063200A9F0E150E0931E08E0911D08EF5FE093FE
:100642001D08E150F0E0E352F84FE081ECB9A091CF
:100652001D08A03419F4E0E0E0931D08E991EFBF12
:10066200F991E991A9911895EA93FA93EFB7EA9370
:10067200ECE9E2BFF50131965F01E0E1F7E2EA154C
:10068200FB0529F4F60131966F01AA24BB24E991F6
:10069200EFBFF991E9911895AA93A0911E08A03491
:1006A200E1F3F894E0911E08E03011F45D9911C075
:1006B200E62D6394F0E0E352F84FA881A083E0E4D2
:1006C200E61509F46624E0911E08EF5FE0931E0828
:1006D20002C0E881ECB978940C94AB08BA93AA935F
:1006E200A881B981EC91E03061F0AC91D5DFA2E351
:1006F200B0E00E940F11E881F9813196E883F98315
:10070200EFCF0C9418080E94600F0E940F11A9ED00
:10071200B6E04DDF882499240C941808BA93AA9362
:10072200A8970E946C1100E010E0DE015A963FDFAC
:10073200A8A9B9A9EC91E03001F1F801DE015A96BD
:10074200EA0FFB1F0F01A8A9B9A9EC91D001EC9304
:10075200F801DE011696EA0FFB1F0F01DE015A9621
:10076200A00FB11FEC91D001EC93E8A9F9A9319641
:10077200E8ABF9AB0F5F1F4FDBCF9601C216D30672
:1007820044F4F601FC96AF01DA010E94650FF4F021
:1007920004C0D6010E94650FCCF00E946C0FDE01EE
:1007A2005C960E948107309741F40E946C0FDE0133
:1007B20018960E948107309709F008C00E946C0FBA
:1007C200A0E0B5E00E9481073097C1F20E94731148
:1007D200E29608950E94710F8BE18A95F1F7E0E0AD
:1007E200EA93AFE124D0A2E0B0E00E940F11E7E06B
:1007F200EA93AEE71CD0EDE1EA93A4E018D0E5E07D
:10080200EA93A2E014D00895AA931A9310E0183044
:1008120050F4E981E07811F4D99801C0D99A0E9484
:10082200790F1F5FF4CFE98118810C9418080E9498
:100832008B0FEADFE0934808A881E6DF0E94910F60
:10084200E09148080C941808AA931A9310E0183003
:1008520050F4E981E07811F4D99801C0D99A0E9444
:10086200790F1F5FF4CFE98118810C9418081A934D
:100872000A9310E000E0083078F48DE08A95F1F7F1
:10088200110FDC9A8DE08A95F1F7E0E0CD99E1E075
:100892001E2BDC980F5FEFCFE12F0991199108957C
:1008A200DB9A88E795E00197F1F7DB98DA9A0895E9
:1008B2000E948B0F0E94960F0E94910F0C941808B1
:1008C2000E948B0F0E94960FA8810E94960FA8810A
:1008D2000E94960F0E94910F0C9418080E948B0F91
:1008E2000E949B0F0E949B0F0E949B0F0E949B0FD6
:1008F2000E94960F0E94910F0C941808AA93DA98FE
:10090200A881A2DF0E94910F0C94AB08AA93DA98F7
:10091200E3E0EA93A3E0CCDF0E94910FDA98EAE0E9
:10092200EA93AC81CDDFE0E1EA93AC81C9DFEBE091
:10093200EA93AB810E94A00FAB81D0DFECE0EA9397
:10094200AA810E94A00FAA81C9DFEDE0EA93A981E2
:100952000E94A00FA981C2DF0C94C908E0E0EA93CB
:10096200AFE1A6DFDB9A0895ECE10E94A50FE091CA
:100972002008EA93E0912108EA93E0912208EA93A1
:10098200A0912308C3DFE2E00E94A50FE1E00E94EC
:10099200A50F0895DB980E94910FDA98A1E654DF23
:1009A2008BE18A95F1F763DFF0E0E0932408F0939E
:1009B20025085DDFA6E2B8E00E94A90FA8E2B8E030
:1009C2000E94A90FAAE2B8E00E94A90FACE2B8E027
:1009D200F0E0ED93FC93DA9ADB9A0E94710F08958E
:1009E200E0E3EA93E0E00E94AE0FEFE00E94AE0F78
:1009F200E0E0EA93E4E5EA93A0E00E94570CE4E524
:100A0200EA93E0E00E94B70FE0E30E94B70FE0E054
:100A1200EA93EA93A0E30E94570CE3E00E94C00F1E
:100A2200ABE4B5E00E94C40FA2E10E944B0CA2E528
:100A3200B5E00E94C40FACE10E944B0CA9E5B5E001
:100A42000E94C40FA5E20E944B0CA1E6B5E00E94F1
:100A5200210CE4E40E94C90FA9E6B5E00E94210C32
:100A6200E5E40E94CD0FA5E20E94BF0BE5E40E94DF
:100A7200D10FACE6B5E00E94210C0895EAE0EA93BA
:100A8200AAE00E944B0C0E94AD08A8E7B5E00E94C4
:100A9200210CA0EDB7E00E940F11A0E8B5E01EDE28
:100AA200E5E8F5E00E94D50FA4E6B0E00E940F1140
:100AB200A8E8B5E013DEE7E9F5E00E94D50F0E9451
:100AC2006C0FAAE9B5E00E948107309729F0A3EAEA
:100AD200B5E00E94210C14C0A4EBB5E0FFDDE2EC0E
:100AE200F5E00E94DF0FA5ECB5E0F8DDE0EFF5E000
:100AF200FA93EA93AAE0B0E011DEA0E0B0E003DEF0
:100B02000895BA93AA93EF972E9781E1A8E2B0E0F5
:100B1200EAEAF2E00E947A110E946E1100E010E00F
:100B220020E030E0FE01FD960E94E50FFE0178967E
:100B32000E94E50FFE0134960E94E50F0E94ED0F20
:100B4200E030F9F0F901DE011496EA0FFB1FBF0154
:100B52000E94ED0FDB01EC93F901DE01DD96EA0F55
:100B6200FB1F0F01DE011496A20FB31FEC91D001FF
:100B7200EC93DE01AF5ABF4F0E94F50F2F5F3F4F3C
:100B8200DDCFA3EFB5E00E94FB0FAFEFB5E0A6DD2E
:100B9200E2E0F6E00E94DF0FAAE0B0E0B4DDA5E0FB
:100BA200B6E00E94FB0FA1E3B6E098DDE4E3F6E0D5
:100BB200FA93EA93A4E1B0E0B1DDA4EFB1E0A3DDE2
:100BC2000E940110DE01DF960E940610A7E3B6E044
:100BD2000E9457070E9409100E940E100E941510D1
:100BE200A0E4B6E00E9457070E9418100E940E105F
:100BF2000E941510A9E4B6E00E9457070E941D103A
:100C02000E940E100E941510A2E5B6E00E9457073E
:100C1200DE019C960E9468078F011A930A93DE01F7
:100C22005A960E949807A5E5B6E058DDDE0158966F
:100C320055DDA4EFB1E00E940F11A3E6B6E04EDD50
:100C4200E6E6F6E00E942210DE019C9647DD0E9455
:100C52002810AAE121DDAAE0B0E055DDA9E6B6E060
:100C62003DDDE9E7F6E00E9422100E947511EF9641
:100C7200649608952897EEE5EABBEFE3EBBBECE060
:100C8200E7BBE4E0E8BBE0E0E4BBEDE0E5BBE0E0CD
:100C9200E1BBE2BBE2B9E3B9E0936100E093620039
:100CA200E0936400E0936500E0BFE1E0E3BFE0E6CB
:100CB200E2BFE0E0E1BFEFBDEEBDEDBDECBDE7BDE3
:100CC200E6BDEBBDEABDE9BDE8BDE0937900E09386
:100CD2007800E5BDE4BDE3BDE0938B00E0938A00BC
:100CE200E0938900E0938800E0938100E093800024
:100CF200E0938700E0938600E0938500E093840010
:100D0200E0938300E0938200E1E0E7BFE0E0E0935C
:100D12007D00E0936A00EABFE9BFEBB9E8EDEAB90A
:100D2200E6E0E0939500E0E0E0939000E3E3E9B9C8
:100D3200E0E0E0939A00E0E8E8B9E0E0E0BDE6B97F
:100D4200EDB9E0937400ECE8F0E0E883F983E0E0C9
:100D5200EA83EB83EC83ED83EE81EC7FE260EE834A
:100D6200E37EEC60EE83EF81E078E763EF83DE0100
:100D72000E942408789428960E9428107FDE90DD35
:100D820029DDF2DD0E942C100E94AD089B9951C012
:100D9200E5DDC8994DC0FEDDE0914908F0914A08B1
:100DA200A0912408B0912508EA17FB0709F040C07A
:100DB20017DEE8E20E94C00F0E9433100E946C0FFF
:100DC2000E9443100E9409100E9448100E94CD0FF9
:100DD2000E946C0F0E9443100E9418100E9448103B
:100DE2000E94D10F0E946C0F0E9443100E941D109E
:100DF2000E945610E0914908F0914A08ABE4B8E02D
:100E0200EE0FFF1FAE0FBF1F0E943E11DF0179DE02
:100E1200A0E2B3E00E940F11A9E4B8E00E94F50F2E
:100E2200A0914908B0914A08159711F40E942C101C
:100E3200AFCF9A9929C092DDC89925C0ABDDD0DD2C
:100E4200E8E20E94C00F0E9433100E946C0F0E94C1
:100E520043100E9409100E9448100E94CD0F0E9468
:100E62006C0F0E9443100E9418100E9448100E94AA
:100E7200D10F0E946C0F0E9443100E941D100E940D
:100E820056100E942810D7CF81CFFFCFBA93AA93D2
:100E9200B981A881109631F0FC81EB816A8161935E
:100EA2001197E9F7EB81FC810C94850DBA93AA9313
:100EB200E991F991A991B991CD016D916623E9F773
:100EC200119761916D936623E1F7FC010895BA933E
:100ED200AA93A991B991EE27FF276D91662311F08C
:100EE2003196FBCF0895BA93AA93AA27BB27E9911B
:100EF200F9910590002011F01196FBCFFD010895A4
:100F0200BA93AA93AA81BB81CD01E881F98171913B
:100F1200772311F4FC0109C06D916717C1F30196A3
:100F2200DC01662391F7EE27FF270C94C908BA93D8
:100F3200AA93A991B991E991F99130962AF4E09591
:100F4200F09531966DE26D93E89480E197E20DD0D1
:100F520088EE93E00AD084E6992707D08AE005D08C
:100F62006E2F10D066276C9308956627E817F9074D
:100F720020F06395E81BF90BC9F7662311F416F00C
:100F820008956894605D6D9308950895AA931A93E5
:100F9200AD9818E0FADFE981E07811F0AF9A01C06C
:100FA200AF98E981EE0FE983F0DFDF9AEEDFDF9899
:100FB200115081F7AD9A18813AC0AA93AE98A881D0
:100FC200E5DFC8C0AA93AE9AA881E0DFC3C0AA93A6
:100FD2001A93E981E695E695E6951E2FE4E5E19FF1
:100FE200F001DF01EA81F0E0EA0FFB1FE09359080C
:100FF200F0935A08E12F188123960895AA93E98164
:10100200E068AE2FDADFE981EA93A981E0DFE064EC
:10101200AE2FD3DF0CC0AA93E981EA93A981EEDF58
:10102200E0915908F0915A08E55AF74FE08122966B
:101032000895AA930E9462103197E55AF74FA8814A
:10104200A083C0DF87C0BA93AA930E946E11A59AAB
:10105200AD9AD79ADF98A79AA69AA49AAC98AAE0D2
:10106200B0E00E940F11AC9AEC81FD81309721F122
:10107200E681E3701E2FEC81FD81E681E695E6951F
:10108200E7700E2FEC81FD81E781EF773E2FAC8177
:10109200BD810E943E11E0938006F0938106129674
:1010A2000E943E11E0939506F0939606AC81BD81B5
:1010B20014960E943E110DC010E003E032E3E0E01E
:1010C200F0E0E0938006F0938106E0939506F093BA
:1010D2009606E0939706F0939806A1E26EDFE12F61
:1010E200E460AE2F6ADFE02FE061AE2F66DFE32F10
:1010F200E068AE2F62DFA0E260DFA1E022D0E1E093
:10110200E0937C06E0E0E0937D06E1E0E093820676
:10111200E0938306E0938406EFEFE0938506E1E037
:10112200E0938C06EDE8F6E0FA93EA93EFEFEA93A8
:10113200A8E0B0E00E9447070FD0E1E00E947511DD
:1011420082C0AA93E881E03011F0ECE001C0E8E04F
:10115200AE2F33DF219608950E946E1130E0E091A8
:101162007D06E03009F03FEFE0E0EA93A0E046DFE1
:1011720008EF11E0F80101501040309719F0A32F49
:1011820058DFF8CFE0E0EA93A0E084D30E94751123
:1011920024960895AA931A930A93AC81A43518F45D
:1011A200AB81A03310F00C94830DEC81EA93AC81F7
:1011B20032DF1E2FEB81E770A1E00E9421110E2F7A
:1011C200EA81E03011F0102B03C0E02FE0951E23DE
:1011D200A12F2FDF0C94830DAA931A93ED81EA932A
:1011E200AD8119DF1E2FE981E73011F0E83039F4C3
:1011F200EB81EA93AA810E94FA0EEB8308C0E330E6
:1012020021F4EB81E095EB8302C0E03021F4EA8126
:10121200E0951E2302C0E23029F4EA81AB81EA2381
:101222001E2B0EC0E13029F4EA81AB81EA231E278E
:1012320007C0E43029F4EA81E095AB81EA2B1E2352
:10124200A12FF7DE188126960895AA9323970E946C
:101252006C11A889A43548F4AF85A03330F4AE856B
:10126200A03019F0AD85A03009F4D5C1EE85E8872C
:10127200A889BB27EE85F0E0AE0FBF1FA535E0E0E1
:10128200BE0720F0A889E4E5EA1BEE872D85AF852D
:10129200BB27ED85F0E0AE0FBF1FD19720F0AF85E1
:1012A200E0E3EA1BED87A985A63009F05BC0EC8577
:1012B200E13009F4B0C1E33039F4E0919706F091DE
:1012C2009806309709F4A7C10885ED85E695E6955D
:1012D200E6953E2FE22FE77019F4AD852A17E9F063
:1012E200A02FBB27E32FF0E00E943611AA85BB8511
:1012F2000E946510269526952695532F5F935F5F72
:10130200E22FAF91EA1748F0102FE12F1150E03091
:1013120019F00E946A10F9CFF1CFAE850A1711F1C8
:10132200EE85AA85BB85F0E00E946510ED85E77029
:1013320009F03F5F20E02F932F5FE32FAF91AE17AD
:1013420088F41E851F931F5FE02FAF91AE1718F42C
:101352000E946A10F7CFEE85AE81BF81F0E00E9455
:101362006510E9CFEF85E7703E2FED85E03009F497
:1013720052C1EA85FB85EE83FF8310E00889303095
:1013820009F066C0AD85A83008F45DC0E985E0309B
:1013920011F0E33009F402C0E73009F402C0E8308A
:1013A20009F402C0E93009F402C0EA3021F40A93D8
:1013B200A88924DE04C0E63011F40E9477101F933E
:1013C2001F5FEE85AF91AE17B8F5A985A63069F417
:1013D2000E947B10FA93EA930E9462103197E55AB9
:1013E200F74FA0810E94410F26C0E985E93011F430
:1013F20050E00EC0EA3011F45FEF0AC00E947B1089
:101402000E9484105E2FE985E73011F0E83021F464
:101412000E948A105E2F06C0E33011F4509502C07C
:10142200E03019F4A52FCEDD06C00E948E10EFEF3A
:10143200EA93AD85D1DEC3CFEF85E85FEF87ED8517
:10144200E850ED87DFC05D8520E0E0E0ED8781C0F8
:10145200E32FAD85AE0FA93020F42D85E0E0ED87B6
:1014620003C0E8E0E31B2E2F3A93A22F0E94EF0E57
:101472004E2FE985E63029F50E9477101F931F5FF2
:10148200EE85AF91AE17E0F40E9462103197E55AF3
:10149200F74FE081E423AE2FE32F0E9429110E942F
:1014A2009410E32FA42F0E942911E095E1215E2BD5
:1014B2000E947B10FA93EA93A52F0E94410FDECF80
:1014C2002CC0E93011F450E003C0EA30A9F45FEF18
:1014D2000E948A10AE2FE32F0E9421115E2F1F93CC
:1014E2001F5FEE85AF91AE1730F40E948E104A93C3
:1014F200A0E072DEF4CF11C01F931F5FEE85AF91A3
:10150200AE1758F40E949F10AE2FE32F0E942111B4
:10151200EA934A93AD8560DEEFCFED85E03009F4C2
:101522007AC0AD85A83028F4ED85E21B5E2FE0E09D
:1015320003C0532FED85E850ED8710E0EF85E85F9B
:10154200EF87E8E0E31B2E2F0889EA85FB85EE830F
:10155200FF83E52FF0E0E059FD4F4491E985E63045
:1015620029F50E9477101F931F5FEE85AF91AE178A
:10157200E0F40E9462103197E55AF74FE081E423CC
:10158200AE2FE22F0E9421110E949410E22FA42F6D
:101592000E942111E095E1215E2B0E947B10FA93BB
:1015A200EA93A52F0E94410FDECF2CC0E93011F43F
:1015B20050E003C0EA30A9F45FEF0E948A10AE2F18
:1015C200E22F0E9429115E2F1F931F5FEE85AF91BC
:1015D200AE1730F40E948E104A93A0E0FDDDF4CFE6
:1015E20011C01F931F5FEE85AF91AE1758F40E9492
:1015F2009F10AE2FE22F0E942911EA934A93AD85E4
:10160200EBDDEFCFE885AA85BB85F0E0EA0FFB1F93
:10161200EA87FB87AACE0E947311619608950E9401
:10162200600F0E94681124F0E0E0F0E00C94F80EE4
:10163200A881B981A435E0E0BE0724F0E3E5F0E03B
:101642000C94F80EE881F9810C94F80E0E94600F58
:101652000E94681124F0E0E0F0E00C94F80EA881FA
:10166200B981D09724F0EFE2F0E00C94F80EE88113
:10167200F9810C94F80EBA93AA9323970E94AC10A6
:101682008F01002E012A19F4E0E0F0E05FC00E9411
:10169200B3100F820E94B3100E820E94B31008860C
:1016A200EB85A885EA1718F4E0E0F0E04FC0F801F6
:1016B2000F5F1F4F5491A885BB27EE27A50FBE1FB2
:1016C200EB85F0E0EA17FB0718F0E0E0F0E03EC03F
:1016D200EE81E695E695E6954E2FEE81E77009F0EC
:1016E2004F5FEF81E030A1F0A985BA85EC93A88520
:1016F200EB85EA1BF0E0DF01EF81F0E00E9436119A
:10170200DF01E42FF0E00E943611E00FF11F1EC04E
:101712009801E52FF0E00E0F1F1FA885AF5FA88785
:10172200A150EB85AE1760F4F9012F5F3F4FA491F2
:10173200B0E0E42FF0E00E9436110E0F1F1FEDCF34
:10174200F901E491A985BA85EC93F8010E9473111D
:101752002C960895E0E0E0937E06A0917F06BB27D9
:101762000E94B810F0E0AE0FBF1FE0918306F0E0D8
:10177200AE0FBF1F6BDFE0937F060895AA932197F8
:101782000E94AC10309709F455C0AF81AA3009F419
:101792004FC0EF81EA93DE0117966DDFAF013097FC
:1017A20009F44AC0E0918206AE81EA0F3E2FA09171
:1017B2007E06BB27F0E0EA0FFB1F8F010535E0E054
:1017C2001E0718F0032F1127C5DFE0917E06EA936A
:1017D200E0917F06EA93E885EA930E94B810EA93C3
:1017E200E1E0EA935A934A93A7E02FDDE0917E0667
:1017F200AE81EA0FEA93E0917F06EA93E0918206D6
:10180200EA930E94B8100E94BF10E0917E06EA930C
:10181200A0917F060E94B810EA0FEA933A93E091F2
:1018220083060E94BF10E4E5F0E0E017F10711F42F
:1018320091DF02C000937E060E94731128960895DC
:10184200BA93AA931A93A981BA81ED91A983BA8313
:101852001E2FE03019F0A12F91DFF5CF18810EC3B2
:10186200AA93EA81EA93EA81EA93E0918506AA8142
:10187200EA2319F0E0917C0602C0E0917D06AE2FCA
:1018820089DCE881EE0FE883E03011F4E1E0E883DF
:10189200E881F4C2AA93A981BB27C1DEE0937E0648
:1018A200A881BB27D3DEE0937F06A1C2AA932B9720
:1018B2000E946C11AC89BB27B2DEEC8BAA89BB27D4
:1018C200AEDEEA8BAB89BB27C1DEEB8BA989BB27D6
:1018D200BDDEE98BEA89E0937E06E989E0937F0623
:1018E200E1E0E887E989AB89EA1771F51C89AA89E1
:1018F2001A1731F41A93EC89EA93A1E0B1DFC8C058
:10190200AA891A1730F4EA89E11B0E2F41E050E050
:1019120006C0AA89E12FEA1B0E2F4FEF5FEF3B892A
:10192200E0E0EE830E94C91038F41A933A9333959B
:10193200AA8596DFEF83F6CFEF81E887140FE02FB9
:101942000150E03061F7A4C0EA89AC89EA1739F5A1
:101952003B89A9893A1730F4E989E31B2E2FE1E08C
:10196200F0E006C0A989E32FEA1B2E2FEFEFFFEF6D
:10197200ED87FE871C89E0E0EE830E94C91030F4F7
:101982001A9313950E94D110EF83F7CFEF81E88766
:10199200ED853E0FE22F2150E03061F779C0E0E0A3
:1019A200EE830E94C91008F073C01C893B89E1E0F4
:1019B2002E2F0E2FAA89BB27EC89F0E0AE1BBF0B9E
:1019C200AD0155232AF40FEFFA010E941D11AF0158
:1019D200FA01EE0FFF1FEF87F88BA989BB27EB896E
:1019E200F0E0AE1BBF0BAD87BE87AE85AA233AF4EB
:1019F2002FEFED85FE850E941D11ED87FE87ED8597
:101A0200FE85EE0FFF1FEB87FC871A933A93A1E046
:101A120027DFE887E0E0E987EA87AD85BE854A17D8
:101A22005B07BCF0100FEB85FC850E94D510A985E1
:101A3200BA854A175B072CF4320FAF85B8890E942A
:101A4200DC101A930E94D110E887EA89E11751F756
:101A520018C0320FEF85F8890E94D510ED85FE85FA
:101A6200A985BA85EA17FB072CF4100FAB85BC8554
:101A72000E94DC101A930E94D110E887E989E317CB
:101A820041F7EB89EF5FEB8BE989EF5FE98B89CF58
:101A92000E94731165960895BA93AA931A930A93B2
:101AA200AA81BB8112960E943E11309729F1AA8128
:101AB200BB8114960E943E118F01309761F0023073
:101AC200E0E01E0780F0F80131978F01AA81BB8107
:101AD2001496ED93FC93AA81BB8112960E94F50F96
:101AE2003197AC81A083AA81BB810E943E11FF2362
:101AF20012F00E94F50F06C0AA81BB81EFEFFFEF43
:101B0200ED93FC931981088125960895BA93AA93BF
:101B120026970E946C1110E0AC85BD85E0E0F0E0F4
:101B2200ED93FC93EA89FB893196EA8BFB8B319723
:101B3200E4912E2FE03009F415C1E12FE03039F4A1
:101B4200253211F411E002C00E94E3100AC1E13013
:101B5200A9F4253219F40E94E31002C112E040E018
:101B620000E02D3211F401E0FCC02B3211F44BE203
:101B7200F8C0203211F440E2F4C002C0E23039F47D
:101B820050E013E0203311F40068EBC003C0E330EF
:101B920009F0E7C0203310F02A3308F007C0AAE0AA
:101BA2005A9F502DE22FE0535E0FDBC0E22FE33647
:101BB20049F40E94EA10E889F989A481AA930E9453
:101BC200F010CEC0E33741F40E94EA100E94F610F2
:101BD2000E9468071E2F0AC0E03761F40E94EA10D3
:101BE2000E94F6100E9474071E2F086002600F7791
:101BF20030E034C0E43611F0E93611F4046002C07A
:101C0200E53731F4EAE7F2E0EE83FF8315E00CC03A
:101C1200E83511F4086003C0E83709F0A1C0E4E830
:101C2200F2E0EE83FF8314E002FF14C00E94EA1088
:101C32000E940011AB85AA233AF4EA85FB850E9433
:101C42001D11EA87FB874DE2403011F01F5F01C092
:101C52000B7F04C00E94EA100E94001100FD11C017
:101C6200151778F407FF08C002FF04C00B7F242F6A
:101C7200115001C020E301C020E20E94E310515044
:101C8200EFCF312F01FF17C03030A1F003FF06C0A4
:101C9200EE81FF812591EE83FF8305C0AE81BF8176
:101CA2002D91AE83BF830E94E310503009F0515052
:101CB2003150EACF4BC020E3EE81FF810E944211F6
:101CC200E887F987EE81FF813296EE83FF83E8850C
:101CD200F985AA85BB85AE17BF0750F02F5FA8858F
:101CE200B985EA85FB85EA1BFB0BEA87FB87EFCF09
:101CF2002A3328F003FF02C0295F01C0295D04FDD9
:101D02001AC0213320F4A885B985119709F409C0B6
:101D1200531710F000FF01C013C020E207FF0BC0F1
:101D220020E3006102FF07C00B7F4A930E94F0107C
:101D3200503009F051500E94E310503009F05150D8
:101D42003150A885B985129708F0B5CF00FF08C0B9
:101D5200503031F05150E0E2EA930E94F010F8CF97
:101D620010E0E0CEAC85BD850E943E110E94731149
:101D720064960895FF92F82E26970E946E110E9493
:101D82000811309719F4EFEFFFEF23C0DE0116962A
:101D92000E9419118D010E940811EE83FF83E0E079
:101DA200E887E987DE011A960E9419110E943E1106
:101DB200FA93EA931A930A93EDE4FDE0FA93EA9315
:101DC200DE011A96A3DE9F01AE81BF81E0E0EC93B3
:101DD200F9010E9475112A96FF900895AA93E8814D
:101DE200F0E0E059FD4FA491E9810E942111229671
:101DF2000895AA931A93E981E73011F0EA3019F4B1
:101E020010917C0609C0E93019F410917D0604C0D6
:101E1200E830A1F410918C06E0917D06E03049F0A3
:101E2200103019F0EFEF188129C0EA81E09518818E
:101E320025C0103019F4E0E0188120C0EA81188131
:101E42001DC0BA93AA93EA81E13021F4E881F981B5
:101E5200E49114C0E23029F4A881B9810E944B11A7
:101E62000DC0E33041F4A881B981E0919506F0916B
:101E72009606099503C0A881B981EC91239608952D
:101E8200AA93EB81E03029F4E881A981BA81EC932D
:101E920014C0E23031F4E881A981BA810E9457115D
:101EA2000CC0E33051F4E981FA81FA93EA93AA81F2
:101EB200E0919706F0919806099524960895BA93B1
:101EC200AA93A881B9810895A21BB30BEEA5FFA521
:101ED200EA17FB070895E9EDF6E0FA93EA9308950D
:101EE200E7E0EA93AEE70E945904A2EE0C947F0465
:101EF2008DE08A95F1F7E981EE0FE983DC9A8DE0B6
:101F02008A95F1F7E0E0CD99E1E0A981EA2BE98336
:101F1200DC980895AA93DA98E981E062AE2F0895D9
:101F2200DA9A8BE18A95F1F708950E942504A88137
:101F32000C9425040E942504A091210808950E9472
:101F42006F04E0E1EA930895EA93AFE00C94590438
:101F5200F0E0ED93FC930C943804EA93E0E3EA9307
:101F6200AFE00E94570CE0E0EA930895EA93E4E5BB
:101F7200EA93A0E30E94570CE0E0EA930895EA9303
:101F8200A3E00C944B0C0E94210CE4E0EA93089528
:101F9200EA93A2E10C944B0CEA93ACE10C944B0C47
:101FA200EA93A5E20C944B0CFA93EA93A2E0B0E018
:101FB2000E948F03A0E0B0E00C948403FA93EA93AA
:101FC200A2E0B0E00C948F03FA93EA93E0E0EA9384
:101FD200A4E1B0E00C944707DE01AF5ABF4F0D9069
:101FE200BC91A02DEC910895ED91FD913196FE9357
:101FF200EE9308950E946F03ACE2B1E00C940F11CE
:10200200FE01BC96FA93EA9308950E945707F8CF0F
:10201200E0912A08F0912B080895FA93EA93DE01E1
:102022005A960E949807ECCFDE015A96EECFE091C5
:102032002808F09129080895E0912C08F0912D08C4
:102042000895FA93EA93A5E0B0E00C948F03A8EE0A
:10205200B3E00C940F11E1E0F0E0E0934908F09353
:102062004A080895E0912408F0912508FA93EA932A
:10207200A9EDB6E00E949807A9EDB6E00E94210CF6
:10208200EEE286CFE9E1F4E0FA93EA9308950E9442
:1020920031110E94461184E00E94BB0E2896A9EDE0
:1020A200B6E00E94210CEEE208950E9431110E94D6
:1020B200461184E00E94BB0E2896A9EDB6E00C946E
:1020C200210CA9E5B8E090CFEA0FFB1FEE83FF8356
:1020D2000895EC85EA93EF81F8853196EF83F887CE
:1020E2003197FA93EA93A0E00C94410F0A93A889DE
:1020F2000C94E807EC85EA93EF81F8853196EF833B
:10210200F8873197089566277727DF01CB010C9472
:10211200220F5A93AA850C94FA0E0A930395E88922
:10212200EA935A9308955E2FEC85EA93AF81B885BE
:10213200882799270E94220F1E2E08950A9303953D
:10214200E889EA93EE85EA93E985FA853196E9878B
:10215200FA873197D8CF0E946C11E0918006F091F6
:1021620081060895F8010F5F1F4F04900895E091D2
:102172008006F09181063196E4910895EA93E0E0B9
:10218200EA93E0E0F0E0FA93EA93A9E00C942609DE
:10219200AE81AF5FAE83A150E0918406AE17089581
:1021A2003A93AA850C94310CA985BA85EA0FFB1FD4
:1021B200E987FA870895E985FA85EA1BFB0BE98727
:1021C200FA8708952A93AD85BE85EF85F88909952A
:1021D2000895E889F9893497E88BF98B0895AD85DC
:1021E200BE85EF85F88909950895A889B98914965D
:1021F2000E943E11EE83FF83AE81BF810895A889BC
:10220200B98914960E943E11EA87FB870895DE0180
:102212001C960E9419110E943E110895109639F0E1
:1022220080ED97E00197F1F7A8951197C9F7089506
:102232000024AF0DB01D0895F195E195F040089589
:10224200EE230E2EEA2F19F0EE0F0A94E9F7089505
:10225200EE230E2EEA2F19F0E6950A94E9F7089577
:102262006F2F660F660B762F0895FA9FF02DEB9F66
:10227200F00DEA9FE02DF10D0895ED91FC9111977B
:1022820008950590F491E02D08957A936A93FA9354
:10229200EA930895E199FECFFF93FFB7F894AEBB9E
:1022A200BFBBE09AEDB3FFBFFF910895E19B02C06F
:1022B200A895FCCF9FB7F894AEBBBFBBE09A8DB395
:1022C200E81719F0EDBBE29AE19A9FBF0895002446
:1022D2000A160B0608955A934A933A932A931A932D
:1022E2000A9308955D814C813B812A81198108817D
:1022F2000895AC0FBD1F05900D928A95E1F70895E0
:00000001FF
