:0E0000000C946E010C9400000C9400000C9403
:10000E0000000C9400000C9400000C9400000C9462
:10001E0000000C9400000C9400000C9400000C9452
:10002E00DC020C9400000C9400000C9400000C9464
:10003E0000000C9400000C9400000C9400000C9432
:10004E0000000C9400000507206000000000000076
:10005E0000040A040007000700147F147F14242AEA
:10006E007F2A122313086462364955225000050375
:10007E000000001C2241000041221C00082A1C2AFC
:10008E000808083E08080050300000080808080854
:10009E00003030000020100804023E5149453E0059
:1000AE00427F400042615149462141454B3118146F
:1000BE00127F1027454545393C4A4949300171099F
:1000CE0005033649494936064949291E0036360088
:1000DE0000005636000000081422411414141414A3
:1000EE0041221408000201510906324979413E7E2F
:1000FE001111117E7F494949363E414141227F41CE
:10010E0041221C7F494949417F090901013E414174
:10011E0051327F0808087F00417F41002040413F57
:10012E00017F081422417F404040407F0204027F3D
:10013E007F0408107F3E4141413E7F090909063E7A
:10014E004151215E7F09192946464949493101012C
:10015E007F01013F4040403F1F2040201F7F20185D
:10016E00207F631408146303047804036151494526
:10017E004300007F4141020408102041417F0000EE
:10018E0004020102044040404040000102040020ED
:10019E00545454787F4844443838444444203844B6
:1001AE0044487F3854545418087E090102081454E8
:1001BE00543C7F0804047800447D40002040443DB8
:1001CE0000007F10284400417F40007C0418047812
:1001DE007C0804047838444444387C141414080809
:1001EE001414187C7C080404084854545420043F0A
:1001FE004440203C4040207C1C2040201C3C403091
:10020E00403C44281028440C5050503C4464544CFC
:10021E0044000836410000007F000000413608000F
:10022E0002010204027F4141417F000103070F1FBB
:10023E003F7FFF001027E80364000A000100001052
:10024E00000110000100A1004E6F64653A200031DC
:10025E000054656D703A200048756D69643A20004F
:10026E0057617465723A2000214300636D00323588
:10027E00003639003335000001002D4E414E004945
:10028E004E460000010005005402070060025602AF
:10029E00020067025D02070069025F020800700239
:1002AE006602080078026E020300800276020300E6
:1002BE0083027902030086027C02030089027F0218
:1002CE0003008C0282020100D40486020000F8941E
:1002DE00EE27ECBBF1E0F5BFE5BF8DE0A2E0BB275A
:1002EE00ED938A95E9F780E098E0A0E6ED9301970B
:1002FE00E9F7E2E9F2E085919591009761F0A59119
:10030E00B59105901590BF01F00105900D920197E2
:10031E00E1F7FB01F0CFEFE5EDBFE8E0EEBFC0E6A1
:10032E00D2E00C94E1028A9A929A8F9A979A8B9ABB
:10033E00939A8E9A969A8C98849A8D98859AD69A34
:10034E00DE98BB98B39ABC98B49ABA98B29AB998F8
:10035E00B19A08958BE18A95F1F7E0E0EA93AFE167
:10036E0020D0A2E0B0E00E941E0AE7E0EA93AEE7DA
:10037E0018D0EDE1EA93A4E014D0E5E0EA93A2E010
:10038E004CC0AA931A9310E0183050F4E981E0782B
:10039E0011F4969801C0969A0E9452091F5FF4CFED
:1003AE0076C0AA939798E981E062AE2FEADFBE2E5F
:1003BE000E946409EB2D6DC0AA939798E3E0EA932F
:1003CE00A3E0EFDF0E946C09AAE20E947209A881E5
:1003DE00D8DFA8810E9472090E9464099798A0E351
:1003EE000E947209A8810E947209A881CADF0E9428
:1003FE0064090C9435049298E0E0EA93AEE10DC0E6
:10040E00ECE1EA93A1E0CDDFA52DD6DFE2E0EA93A1
:10041E00A1E0C7DFE1E0EA93A1E0C3DF0895AA936C
:10042E0097980E9464091AC2A52DC6DF0E946C0916
:10043E00A1EEA7DF0E946C09A0EA0E947209AA81B0
:10044E00A0DFAC819EDFAE819CDFA8859ADF979AF4
:10045E00929A88EE93E00197F1F79298E7E0EA938B
:10046E00AEE79FDFA52DA8DFA1EED9DF2A9608956E
:10047E00AA931A9310E0183050F4E981E07811F441
:10048E00969801C0969A0E9452091F5FF4CFE98197
:10049E00188122960895929A88E795E00197F1F7D0
:1004AE009298979A0895AA939798A881E1DF979AC0
:1004BE008BE18A95F1F7D2C1E0E3EA93E0E00E9486
:1004CE007709EFE00E947709E0E0EA93E4E5EA932A
:1004DE00A0E00E94DB07E4E5EA93E0E00E948009D9
:1004EE00E0E30E948009E0E0EA93EA93A0E30E9431
:1004FE00DB07E3E0EA93A3E00E94CE07A0E6B2E0BA
:10050E000E94A207E8E2EA93A3E00E94CE07A7E6C4
:10051E00B2E00E948909A2E10E94CE07A9E6B2E0EC
:10052E000E948909ACE10E94CE07A0E7B2E00E94CA
:10053E008909A5E20E94CE07A8E7B2E00E94A207B1
:10054E00E4E4EA93A2E10E94CE07A0E8B2E00E94A2
:10055E00A207E5E4EA93ACE10E94CE07A5E20E9471
:10056E004007E5E4EA93A5E20E94CE07A3E8B2E0D5
:10057E0019C0E2E3EA93ACE10E94CE07A6E8B2E02E
:10058E000E94A207E2E3EA93A2E10E94CE07A9E845
:10059E00B2E00E94A207E2E3EA93A5E20E94CE0730
:1005AE00ACE8B2E00E94A2070895EA93ECE9E2BF3C
:1005BE00E99118952897E0E0EABBEBBBE7BBE8BBF7
:1005CE00E4BBE5BBE1BBE2BBE2E0E3BFECE9E2BFCB
:1005DE00E0E0ECBFEFBDEEBDEDBDECBDE7BDE6BDB1
:1005EE00EBBDEABDE9BDE8BDE2BDE5BDE4BDE3BDE1
:1005FE00E1E0E9BFE0E0E5BFE4BFEAB9E0E8E8B971
:10060E00E0E0E0BFE6B9EDB9E6BFE4E5F0E0E8838F
:10061E00F983E0E0EA83EB83EC83ED83EE81EC7FFC
:10062E00E260EE83E37EEC60EE83EF81E078EC63D4
:10063E00EF83DE018CD0789476DE3EDF9ADF8ADEA1
:10064E002ADFDEDED8DEE1E0F0E0E093D002F093C8
:10065E00D102E4E6F0E0E093D602F093D702E09305
:10066E00D402F093D502E093D202F093D302E0933A
:10067E00D802F093D902E0EDF2E0AAE00E94480A17
:10068E00D3DEACE2B1E00E941E0A859AA2EE0BDF29
:10069E00DACFFFCF0895AA931A93AD9818E0FADF38
:1006AE00E981E07811F0AF9A01C0AF98E981EE0FC1
:1006BE00E983F0DFDF9AEEDFDF98115081F7AD9A14
:1006CE0018810C94EA08AA93AE98A881E4DFC6C0FC
:1006DE00AA93AE9AA881DFDFC1C0AA931A93E981CB
:1006EE00E695E695E6951E2FE4E5E19FF001DF0124
:1006FE00EA81F0E0EA0FFB1FE093DA02F093DB02EF
:10070E00E12F18810C943109AA93E981E068AE2F8C
:10071E00DADFE981EA93A981E0DFE064AE2FD3DF6F
:10072E000C94EA08AA93E981EA93A981EDDFE0919E
:10073E00DA02F091DB02E452FD4FE0810C94EA08FC
:10074E00AA930E948E09A881A083C2DF87C0BA93A4
:10075E00AA930E94730AA59AAD9AD79ADF98A79A80
:10076E00A69AA49AAC98AAE0B0E00E941E0AAC9A8F
:10077E00EC81FD81309721F1E681E3701E2FEC8133
:10078E00FD81E681E695E695E7700E2FEC81FD8101
:10079E00E781EF773E2FAC81BD810E94440AE09342
:1007AE009302F093940212960E94440AE093A802D8
:1007BE00F093A902AC81BD8114960E94440A0DC02B
:1007CE0010E003E032E3E0E0F0E0E0939302F09318
:1007DE009402E093A802F093A902E093AA02F09388
:1007EE00AB02A1E270DFE12FE460AE2F6CDFE02FF1
:1007FE00E061AE2F68DFE32FE068AE2F64DFA0E28A
:10080E0062DFA1E022D0E1E0E0938F02E0E0E0932E
:10081E009002E1E0E0939502E0939602E093970256
:10082E00EFEFE0939802E1E0E0939F02E0EAF2E05E
:10083E00FA93EA93EFEFEA93A8E0B0E00E94D108B2
:10084E000FD0E1E00E947A0A86C0AA93E881E030D8
:10085E0011F0ECE001C0E8E0AE2F35DF21960895EF
:10086E000E94730A30E0E0919002E03009F03FEF11
:10087E00E0E0EA93A0E048DF08EF11E0F801015054
:10088E001040309719F0A32F5BDFF8CFE0E0EA932A
:10089E00A0E07DD30E947A0A0C945009AA931A9371
:1008AE000A93AC81A43518F4AB81A03320F01981E2
:1008BE0008810C94DF08EC81EA93AC8133DF1E2FA4
:1008CE00EB81E770A1E00E942C0A0E2FEA81E03046
:1008DE0011F0102B03C0E02FE0951E23A12F30DF67
:1008EE00198108810C94DF08AA931A93ED81EA937B
:1008FE00AD8118DF1E2FE981E73011F0E83039F4B1
:10090E00EB81EA93AA810E94EC08EB8308C0E330E6
:10091E0021F4EB81E095EB8302C0E03021F4EA8113
:10092E00E0951E2302C0E23029F4EA81AB81EA236E
:10093E001E2B0EC0E13029F4EA81AB81EA231E277B
:10094E0007C0E43029F4EA81E095AB81EA2B1E233F
:10095E00A12FF6DE188126960895AA9323970E945A
:10096E00710AA889A43548F4AF85A03330F4AE855A
:10097E00A03019F0AD85A03009F4CCC1EE85E88722
:10098E00A889BB27EE85F0E0AE0FBF1FA535E0E0CE
:10099E00BE0720F0A889E4E5EA1BEE872D85AF851A
:1009AE00BB27ED85F0E0AE0FBF1FD19720F0AF85CE
:1009BE00E0E3EA1BED87A985A63009F05BC0EC8564
:1009CE00E13009F4A7C1E33039F4E091AA02F091C5
:1009DE00AB02309709F49EC10885ED85E695E69544
:1009EE00E6953E2FE22FE77019F4AD852A17E9F050
:1009FE00A02FBB27E32FF0E00E943C0AAA85BB85FF
:100A0E000E949909269526952695532F5F935F5F31
:100A1E00E22FAF91EA1748F0102FE12F1150E0307E
:100A2E0019F00E949E09F9CFF1CFAE850A1711F188
:100A3E00EE85AA85BB85F0E00E949909ED85E770E9
:100A4E0009F03F5F20E02F932F5FE32FAF91AE179A
:100A5E0088F41E851F931F5FE02FAF91AE1718F419
:100A6E000E949E09F7CFEE85AE81BF81F0E00E9415
:100A7E009909E9CFEF85E7703E2FED85E03009F457
:100A8E0049C1EA85FB85EE83FF8310E0088930308B
:100A9E0009F063C0AD85A83008F45AC0E985E0308E
:100AAE0011F0E33009F402C0E73009F402C0E83077
:100ABE0009F402C0E93009F402C0EA3021F40A93C5
:100ACE00A88922DE04C0E63011F40E94AB091F9300
:100ADE001F5FEE85AF91AE17A0F5A985A63051F434
:100AEE000E94AF09FA93EA930E948E09A0810E9498
:100AFE00330926C0E985E93011F450E00EC0EA3022
:100B0E0011F45FEF0AC00E94AF090E94B8095E2F70
:100B1E00E985E73011F0E83021F40E94BE095E2F1E
:100B2E0006C0E33011F4509502C0E03019F4A52F41
:100B3E00CFDD06C00E94C209EFEFEA93AD85D4DE89
:100B4E00C6CFEF85E85FEF87ED85E850ED87D9C01A
:100B5E005D8520E0E0E0ED877EC0E32FAD85AE0F32
:100B6E00A93020F42D85E0E0ED8703C0E8E0E31B1B
:100B7E002E2F3A93A22F0E94E1084E2FE985E630E0
:100B8E0011F50E94AB091F931F5FEE85AF91AE1753
:100B9E00C8F40E948E09E081E423AE2FE32F0E9459
:100BAE00340A0E94C809E32FA42F0E94340AE0954C
:100BBE00E1215E2B0E94AF09FA93EA93A52F0E94C2
:100BCE003309E1CF2CC0E93011F450E003C0EA3014
:100BDE00A9F45FEF0E94BE09AE2FE32F0E942C0AEC
:100BEE005E2F1F931F5FEE85AF91AE1730F40E94FC
:100BFE00C2094A93A0E078DEF4CF11C01F931F5FA5
:100C0E00EE85AF91AE1758F40E94D309AE2FE32FA5
:100C1E000E942C0AEA934A93AD8566DEEFCFED85EE
:100C2E00E03009F477C0AD85A83028F4ED85E21BDD
:100C3E005E2FE0E003C0532FED85E850ED8710E006
:100C4E00EF85E85FEF87E8E0E31B2E2F0889EA8542
:100C5E00FB85EE83FF83E52FF0E0E85CFD4F4491CA
:100C6E00E985E63011F50E94AB091F931F5FEE85F3
:100C7E00AF91AE17C8F40E948E09E081E423AE2F27
:100C8E00E22F0E942C0A0E94C809E22FA42F0E9474
:100C9E002C0AE095E1215E2B0E94AF09FA93EA93AC
:100CAE00A52F0E943309E1CF2CC0E93011F450E09A
:100CBE0003C0EA30A9F45FEF0E94BE09AE2FE22F07
:100CCE000E94340A5E2F1F931F5FEE85AF91AE1701
:100CDE0030F40E94C2094A93A0E006DEF4CF11C0A0
:100CEE001F931F5FEE85AF91AE1758F40E94D30984
:100CFE00AE2FE22F0E94340AEA934A93AD85F4DDBB
:100D0E00EFCFE885AA85BB85F0E0EA0FFB1FEA87E7
:100D1E00FB87B3CE0E94780A619608950E94E0097F
:100D2E0024F0E0E0F0E00C94EA08A881B981A43543
:100D3E00E0E0BE0724F0E3E5F0E00C94EA08E88179
:100D4E00F9810C94EA080E94E00924F0E0E0F0E05A
:100D5E000C94EA08A881B981D09724F0EFE2F0E074
:100D6E000C94EA08E881F9810C94EA08BA93AA93E4
:100D7E0023970E94E7098F01002E012A19F4E0E063
:100D8E00F0E05FC00E94EE090F820E94EE090E8213
:100D9E000E94EE090886EB85A885EA1718F4E0E0B4
:100DAE00F0E04FC0F8010F5F1F4F5491A885BB278D
:100DBE00EE27A50FBE1FEB85F0E0EA17FB0718F034
:100DCE00E0E0F0E03EC0EE81E695E695E6954E2F2A
:100DDE00EE81E77009F04F5FEF81E030A1F0A98559
:100DEE00BA85EC93A885EB85EA1BF0E0DF01EF8175
:100DFE00F0E00E943C0ADF01E42FF0E00E943C0A82
:100E0E00E00FF11F1EC09801E52FF0E00E0F1F1F1F
:100E1E00A885AF5FA887A150EB85AE1760F4F901E6
:100E2E002F5F3F4FA491B0E0E42FF0E00E943C0A08
:100E3E000E0F1F1FEDCFF901E491A985BA85EC9332
:100E4E00F8010E94780A2C960895E0E0E093910252
:100E5E00A0919202BB270E94F309F0E0AE0FBF1FD4
:100E6E00E0919602F0E0AE0FBF1F6DDFE0939202AD
:100E7E000895AA9321970E94E709309709F455C067
:100E8E00AF81AA3009F44FC0EF81EA93DE011796C5
:100E9E006DDFAF01309709F44AC0E0919502AE8143
:100EAE00EA0F3E2FA0919102BB27F0E0EA0FFB1F45
:100EBE008F010535E0E01E0718F0032F1127C5DF5F
:100ECE00E0919102EA93E0919202EA93E885EA9327
:100EDE000E94F309EA93E1E0EA935A934A93A7E05A
:100EEE003CDDE0919102AE81EA0FEA93E09192022D
:100EFE00EA93E0919502EA930E94F3090E94FA099F
:100F0E00E0919102EA93A09192020E94F309EA0FF6
:100F1E00EA933A93E09196020E94FA09E4E5F0E032
:100F2E00E017F10711F491DF02C0009391020E94C5
:100F3E00780A28960895BA93AA931A93A981BA812A
:100F4E00ED91A983BA831E2FE03019F0A12F91DF06
:100F5E00F5CF18810C943109AA93EA81EA93EA81BC
:100F6E00EA93E0919802AA81EA2319F0E0918F02A8
:100F7E0002C0E0919002AE2F91DCE881EE0FE88383
:100F8E00E03011F4E1E0E883E8810C943109AA9392
:100F9E00A981BB27C3DEE0939102A881BB27D3DED4
:100FAE00E09392020C94EA08AA932B970E94710A7E
:100FBE00AC89BB27B3DEEC8BAA89BB27AFDEEA8BED
:100FCE00AB89BB27C0DEEB8BA989BB27BCDEE98BC7
:100FDE00EA89E0939102E989E0939202E1E0E887E1
:100FEE00E989AB89EA1771F51C89AA891A1731F4B8
:100FFE001A93EC89EA93A1E0AFDFC8C0AA891A1749
:10100E0030F4EA89E11B0E2F41E050E006C0AA89B8
:10101E00E12FEA1B0E2F4FEF5FEF3B89E0E0EE83EF
:10102E000E94040A38F41A933A933395AA8594DFF2
:10103E00EF83F6CFEF81E887140FE02F0150E030F9
:10104E0061F7A4C0EA89AC89EA1739F53B89A98909
:10105E003A1730F4E989E31B2E2FE1E0F0E006C0E9
:10106E00A989E32FEA1B2E2FEFEFFFEFED87FE8707
:10107E001C89E0E0EE830E94040A30F41A93139563
:10108E000E940C0AEF83F7CFEF81E887ED853E0FC4
:10109E00E22F2150E03061F779C0E0E0EE830E944C
:1010AE00040A08F073C01C893B89E1E02E2F0E2F35
:1010BE00AA89BB27EC89F0E0AE1BBF0BAD0155230F
:1010CE002AF40FEFFA010E94280AAF01FA01EE0F7F
:1010DE00FF1FEF87F88BA989BB27EB89F0E0AE1BCA
:1010EE00BF0BAD87BE87AE85AA233AF42FEFED85F1
:1010FE00FE850E94280AED87FE87ED85FE85EE0FA0
:10110E00FF1FEB87FC871A933A93A1E025DFE88750
:10111E00E0E0E987EA87AD85BE854A175B07BCF03C
:10112E00100FEB85FC850E94100AA985BA854A1717
:10113E005B072CF4320FAF85B8890E94170A1A93F9
:10114E000E940C0AE887EA89E11751F718C0320F9E
:10115E00EF85F8890E94100AED85FE85A985BA856E
:10116E00EA17FB072CF4100FAB85BC850E94170AFB
:10117E001A930E940C0AE887E989E31741F7EB8975
:10118E00EF5FEB8BE989EF5FE98B89CF0E94780ADD
:10119E0065960895BA93AA93B981A881109631F0F5
:1011AE00FC81EB816A8161931197E9F7EB81FC81F8
:1011BE0025960895AA93E881F0E0E85CFD4FA4918E
:1011CE00E9810E942C0A22960895AA931A93E98126
:1011DE00E73011F0EA3019F410918F0209C0E930AE
:1011EE0019F41091900204C0E830A1F410919F02FE
:1011FE00E0919002E03049F0103019F0EFEF1881D5
:10120E0029C0EA81E095188125C0103019F4E0E07C
:10121E00188120C0EA8118811DC0BA93AA93EA8171
:10122E00E13021F4E881F981E49114C0E23029F42F
:10123E00A881B9810E94500A0DC0E33041F4A88103
:10124E00B981E091A802F091A902099503C0A88185
:10125E00B981EC9123960895AA93EB81E03029F49D
:10126E00E881A981BA81EC9314C0E23031F4E881AF
:10127E00A981BA810E945C0A0CC0E33051F4E98165
:10128E00FA81FA93EA93AA81E091AA02F091AB0255
:10129E000995249608958DE08A95F1F7E981EE0F70
:1012AE00E983939A8DE08A95F1F7E0E08499E1E085
:1012BE00A981EA2BE98393980895A8810E94C80119
:1012CE00979A8BE18A95F1F70895979A8BE18A9513
:1012DE00F1F7979808950E94C801A8810C94C8014F
:1012EE00EA93E0E3EA93AFE00E94DB07E0E0EA93E3
:1012FE000895EA93E4E5EA93A0E30E94DB07E0E0B9
:10130E00EA9308950E94A207E4E0EA930895AAEDF5
:10131E00B2E0ED91FD913196FE93EE933197E4524A
:10132E00FD4F0895EA0FFB1FEE83FF830895EC85B2
:10133E00EA93EF81F8853196EF83F8873197FA9328
:10134E00EA93A0E00C9433090A93A8890C947403D1
:10135E00EC85EA93EF81F8853196EF83F887319724
:10136E00089566277727DF01CB010C9414095A9351
:10137E00AA850C94EC080A930395E889EA935A938C
:10138E0008955E2FEC85EA93AF81B885882799275B
:10139E000E9414091E2E08950A930395E889EA9374
:1013AE00EE85EA93E985FA853196E987FA873197D2
:1013BE00D8CFBA93AA93A881B9810E946D0A0895D5
:1013CE000E94710AE0919302F09194020895F8013F
:1013DE000F5F1F4F04900895E0919302F0919402D5
:1013EE003196E4910895EA93E0E0EA93E0E0F0E0CC
:1013FE00FA93EA93A9E00C94B404AE81AF5FAE8386
:10140E00A150E0919702AE1708953A93AA850C94D5
:10141E00B307A985BA85EA0FFB1FE987FA870895F6
:10142E00E985FA85EA1BFB0BE987FA870895109682
:10143E0039F080ED97E00197F1F7A8951197C9F76C
:10144E000895F195E195F0400895EE230E2EEA2FC2
:10145E0019F0EE0F0A94E9F70895EE230E2EEA2FF7
:10146E0019F0E6950A94E9F70895FA9FF02DEB9F8F
:10147E00F00DEA9FE02DF10D0895ED91FC9111977D
:10148E000895BB27EA0FFB1F02900A921197E1F70E
:10149E000895E199FECFFF93FFB7F894AEBBBFBBA3
:1014AE00E09AEDB3FFBFFF910895E19B02C0A895AE
:1014BE00FCCF9FB7F894AEBBBFBBE09A8DB3E817D5
:1014CE0019F0EDBBE29AE19A9FBF089500240A1627
:1014DE000B0608955A934A933A932A931A930A93B2
:1014EE0008955D814C813B812A811981088108957F
:00000001FF
